:100000000C94B0020C94D8020C94D8020C94A71152
:100010000C94A7110C94A7110C94D8020C94D8023C
:100020000C94D8020C94D8020C94D8020C94D802E8
:100030000C94D8020C94D8020C94D8020C94D802D8
:100040000C945D110C94D8020C9450100C942A104E
:100050000C94D8020C94D8020C94D8020C94D802B8
:100060000C94D8020C94D802471340135A1351131E
:100070004D13F1121213B71200407A10F35A00A078
:10008000724E18090010A5D4E80000E87648170061
:1000900000E40B54020000CA9A3B000000E1F505A1
:1000A000000080969800000040420F000000A086EB
:1000B00001000000102700000000E803000000001D
:1000C0006400000000000A000000000001000000C1
:1000D00000002C76D888DC674F0823DFC1DFAE59DB
:1000E000E1B1B796E5E3E453C63AE651997696E86E
:1000F000E6C28426EB898C9B62ED407C6FFCEFBCF2
:100100009C9F40F2BAA56FA5F490055A2AF75C931C
:100110006B6CF9676DC11BFCE0E40D47FEF520E652
:10012000B500D0ED902E0300943577050080841E35
:10013000080000204E0A000000C80C333333330F90
:10014000986E12831141EF8D2114893BE65516CF2D
:10015000FEE6DB18D1844B381BF77C1D901DA4BB39
:10016000E424203284725E228100C9F124ECA1E5EE
:100170003D27683109006830090074310900743086
:100180000900496478094C656E0950686F6E650016
:100190002B3834002B3834003834000D0A68313DD8
:1001A000000D0A68303D000D0A74313D000D0A74DF
:1001B000303D00436F6E66696773003B0D0A005067
:1001C000686F6E65733A0D0A000D0A5361766520FB
:1001D00070686F6E65206C697374000D0A536176E8
:1001E0006520636F6E666967730052414D2000722F
:1001F000657320636F6E6669670068310068300060
:10020000743100743000636F6E6669670052414D4F
:1002100020007265732070686F6E650050686F6EA5
:10022000652041727261792057726F6E6700706845
:100230006F6E650073657470686F6E6500636D64E2
:10024000004A736F6E2053796E7461782057726F15
:100250006E670052414D20006A736F6E0052414D2F
:1002600020002F70686F6E65000D0A50686F6E6514
:1002700073002F70686F6E650052414D20002F6330
:100280006F6E666967000D0A436F6E66696773007B
:100290002F636F6E666967002D2D2D2D2D2D2D2D51
:1002A000005D000D0A436F6D6D616E64205B00524E
:1002B000414D20006578656300220D0041542B43B9
:1002C0004D47533D220041542B434D47463D310D90
:1002D000004E756D62657220696E76616C696400AE
:1002E00053656E6420534D53206661696C656400EC
:1002F00053656E6420534D53207375636365737348
:100300000052414D200073656E6420736D73000DC3
:100310000A534D53203C3C20000D0A4C6F61642071
:10032000636F6E66696773000D0A4C6F61642070BD
:10033000686F6E65206C6973740041540D0A00414A
:10034000540D0A0052414D200072756E0053494D04
:1003500020756E617661696C61626C650053494D10
:100360002072656164790052414D20003300524192
:100370004D2000320052414D20003100566572730D
:10038000696F6E3A2000302E322E31000D0A48750A
:100390006D69203D20000D0A54656D70203D2000E0
:1003A0004661696C656420746F20726561642066C3
:1003B000726F6D204448542073656E736F72210014
:1003C00043616E682062616F206E686965742064A5
:1003D0006F207175612063616F3A200043616E6820
:1003E0002062616F206E6869657420646F2071758A
:1003F0006120746861703A200054656D7020616CF2
:1004000061726D207265736574200043616E6820AF
:1004100062616F20646F20616D207175612063617E
:100420006F3A200043616E682062616F20646F2024
:10043000616D2071756120746861703A20004875A3
:100440006D6920616C61726D207265736574200046
:1004500043616E682062616F206D7563206E756FF9
:10046000632071756120746861702E0043616E684D
:100470002062616F206D7563206E756F63207175EA
:10048000612063616F2E0052414D20000041542BCA
:10049000434D47523D0041542B434D47463D310D9E
:1004A0000052414D20006265666F72652065786577
:1004B0006320736D7300534D533E3E2000220D0A9E
:1004C000002200222B0052414D20007265637620ED
:1004D000736D730052414D20006265666F72652036
:1004E000657865632073657269616C0000000000C7
:1004F000240027002A000000000800020100000379
:100500000407000000000000000061742B636D67A9
:1005100064613D2264656C20616C6C220A0D0000F0
:10052000000000250028002B00000000002300260A
:100530000029000404040404040404020202020268
:100540000203030303030301020408102040800197
:10055000020408102001020408102000992A872AAA
:1005600011241FBECFEFD8E0DEBFCDBF11E0A0E069
:10057000B1E0ECE4F8E602C005900D92AE3CB107A4
:10058000D9F723E0AEECB1E001C01D92A93CB2075F
:10059000E1F712E0CFEAD2E004C02197FE010E9409
:1005A000D232CE3AD107C9F70E948B200C9419346D
:1005B0000C940000FC01648175816115710501F1E5
:1005C00020E030E026173707C9F0408151814115FE
:1005D000510529F0DA01A20FB31F9C9101C090E0F0
:1005E000492F092E000C550B405351094A30510533
:1005F00010F09B3229F42F5F3F4FE4CF81E0089544
:1006000080E00895FC0126813781620F731F848189
:1006100095818617970738F0828193817783668367
:10062000820F931F089580E090E00895EF92FF926B
:100630000F931F93CF93DF93CDB7DEB762970FB6BB
:10064000F894DEBF0FBECDBF8C0163EB71E00E945A
:10065000921F8AE2E82E82E0F82EF7014081518154
:100660006281738122E0CE010D960E94361F6DEAF1
:1006700071E0CE0101960E94921FBE016F5F7F4F15
:10068000CE0107960E94CA1FBE01635F7F4FCE0155
:1006900007960E94CF1EBC01C8010E94B61ECE0163
:1006A00007960E94311FCE0101960E94311FCE0194
:1006B0000D960E94311FF701448155816681778133
:1006C00022E0CE010D960E94361F67EA71E0CE014E
:1006D00001960E94921FBE016F5F7F4FCE01079669
:1006E0000E94CA1FBE01635F7F4FCE0107960E9422
:1006F000CF1EBC01C8010E94B61ECE0107960E9403
:10070000311FCE0101960E94311FCE010D960E942D
:10071000311FF701408551856285738522E0CE0146
:100720000D960E94361F61EA71E0CE0101960E948B
:10073000921FBE016F5F7F4FCE0107960E94CA1FB6
:10074000BE01635F7F4FCE0107960E94CF1EBC01A2
:10075000C8010E94B61ECE0107960E94311FCE012D
:1007600001960E94311FCE010D960E94311FF701A4
:10077000448555856685778522E0CE010D960E94D9
:10078000361F6BE971E0CE0101960E94921FBE01F7
:100790006F5F7F4FCE0107960E94CA1FBE01635F45
:1007A0007F4FCE0107960E94CF1EBC01C8010E9458
:1007B000B61ECE0107960E94311FCE0101960E94FF
:1007C000311FCE010D960E94311FC80162960FB6EF
:1007D000F894DEBF0FBECDBFDF91CF911F910F9177
:1007E000FF90EF900895FF920F931F93CF93DF93A5
:1007F000CDB7DEB768970FB6F894DEBF0FBECDBF9A
:100800008C01CE0101960E94CA1F8D819E81892B89
:1008100031F46BE971E0C8010E94D31F9BC0E981EC
:10082000FA81309789F080818B3271F4F80111825E
:1008300010821382128215821482BE016F5F7F4F75
:10084000C8010E94151E86C068E971E0CE010796B6
:100850000E94921FBE01695F7F4FCE0101960E94E8
:10086000C81DF82ECE0107960E94311FFF2099F077
:1008700068E771E0CE0107960E94D31FBE016F5F4B
:100880007F4FCE0107960E94CF1EBC01CE0101967C
:100890000E941A1F5AC02D813E812115310521F079
:1008A000E981FA81309721F41092DA01EAEDF1E062
:1008B0008081803369F541E050E0BE016F5F7F4F7A
:1008C000CE0143960E946A1964E971E0CE01079651
:1008D0000E94921FBE01695F7F4FCE010D960E945C
:1008E000CA1FBE016D5E7F4FCE010D960E94CF1EC6
:1008F000BC01CE0101960E941A1FCE010D960E94E6
:10090000311FCE0107960E94311FCE0143961FC0B2
:1009100060E971E0CE0107960E94921FBE01695FF7
:100920007F4FCE010D960E94CA1FBE016F5F7F4FA1
:10093000CE010D960E94CF1EBC01CE0101960E94F1
:100940001A1FCE010D960E94311FCE0107960E94FC
:10095000311F6CCFCE0101960E94311FC8016896ED
:100960000FB6F894DEBF0FBECDBFDF91CF911F91C0
:100970000F91FF900895CF92DF92EF92FF920F9325
:100980001F93CF93DF93CDB7DEB72D970FB6F894B3
:10099000DEBF0FBECDBF8C017B016630710508F054
:1009A00056C06BE971E0CE0101960E94D31F8FE023
:1009B0008E9D60018F9DD00C1124E12CF12CF7014C
:1009C000EC0DFD1DE152FE4F6081862F062E000CBE
:1009D000990B6D870E94BB336D85892B21F0CE0169
:1009E00001960E94A31EEFEFEE1AFE0AFFE0EF163B
:1009F000F10429F7CE0101960E940B19CE01019650
:100A00000E94DA02882391F0BE016F5F7F4FCE0112
:100A100007960E94F303BE01695F7F4FCE010196E6
:100A20000E94151ECE0107960E94311FF801118207
:100A300010821382128215821482BE016F5F7F4F73
:100A4000C8010E94151ECE0101960E94311FC801E7
:100A50002D960FB6F894DEBF0FBECDBFDF91CF91BC
:100A60001F910F91FF90EF90DF90CF900895EF923C
:100A7000FF920F931F93CF93DF93CDB7DEB76297AB
:100A80000FB6F894DEBF0FBECDBF7C016FEB71E0F7
:100A90000E94921F00E010E0B801CE0101960E9472
:100AA000BB04CE0101960E94DA02882301F16BEBB0
:100AB00071E0CE010D960E94921FBE016F5F7F4FC5
:100AC000CE0107960E94CA1FBE01635F7F4FCE0111
:100AD00007960E94CF1EBC01C7010E94B61ECE0120
:100AE00007960E94311FCE010D960E94311FCE0144
:100AF00001960E94311F0F5F1F4F0530110561F6EF
:100B0000C70162960FB6F894DEBF0FBECDBFDF916E
:100B1000CF911F910F91FF90EF900895CF92DF92A8
:100B2000EF92FF92CF93DF9300D000D000D0CDB7EB
:100B3000DEB760E08CE00E94AB1082E891E00E949A
:100B4000621661E08CE00E94AB10C12CD12C7601C2
:100B5000B601CE0101960E94BB0460E08CE00E94C9
:100B6000AB102AE0B701A60189EB92E00E94422077
:100B700061E08CE00E94AB1060E08CE00E94AB1062
:100B80006AE971E089EB92E00E942D2061E08CE03F
:100B90000E94AB1060E08CE00E94AB104D815E8142
:100BA00060E070E02AE089EB92E00E94422061E080
:100BB0008CE00E94AB1060E08CE00E94AB106AE910
:100BC00071E089EB92E00E942D2061E08CE00E94B0
:100BD000AB1060E08CE00E94AB1069817A8189EBF8
:100BE00092E00E942D2061E08CE00E94AB1060E05A
:100BF0008CE00E94AB100E945C1661E08CE00E94C9
:100C0000AB10CE0101960E94311F8FEFC81AD80A8F
:100C1000E80AF80A85E0C816D104E104F10409F0F5
:100C200097CF26960FB6F894DEBF0FBECDBFDF91EB
:100C3000CF91FF90EF90DF90CF900895CF93DF9307
:100C400060E08CE00E94AB106EE771E089EB92E00F
:100C50000E94092061E08CE00E94AB1060E08CE013
:100C60000E94AB10CAE2D2E0688179818A819B81BF
:100C70000E944F1761E08CE00E94AB1060E08CE0B6
:100C80000E94AB106AE771E089EB92E00E940920B4
:100C900061E08CE00E94AB1060E08CE00E94AB1041
:100CA0006C817D818E819F810E944F1761E08CE075
:100CB0000E94AB1060E08CE00E94AB1066E771E030
:100CC00089EB92E00E94092061E08CE00E94AB1069
:100CD00060E08CE00E94AB10688579858A859B85F1
:100CE0000E944F1761E08CE00E94AB1060E08CE046
:100CF0000E94AB1062E771E089EB92E00E9409204C
:100D000061E08CE00E94AB1060E08CE00E94AB10D0
:100D10006C857D858E859F850E944F1761E08CE0F4
:100D2000DF91CF910C94AB10CF93DF9300D0CDB770
:100D3000DEB72091C5033091C6032115310511F4AA
:100D400029EC33E0CE010196821B930B0F900F909C
:100D5000DF91CF910895CF92DF92EF92FF921F9390
:100D6000CF93DF93CDB7DEB76E970FB6F894DEBFA3
:100D70000FBECDBF7B01BC01CE0107960E94F303DD
:100D8000CE0107960E94DA02182F882309F462C167
:100D900060E08CE00E94AB106FE073E089EB92E0C2
:100DA0000E94092061E08CE00E94AB1060E08CE0C2
:100DB0000E94AB10CE0107960E946E1761E08CE096
:100DC0000E94AB1060E08CE00E94AB10C7010E9453
:100DD0006E1761E08CE00E94AB10CE0107960E9476
:100DE000DA02182F60E08CE0112309F41BC10E9485
:100DF000AB100E9494064AE0BC01CE0149960E94C5
:100E0000661F66E073E0CE0143960E94921F61E088
:100E100073E0CE0101960E94921FBE016F5F7F4F6B
:100E2000CE010D960E94CA1FBE016D5E7F4FCE019E
:100E30000D960E94CF1E0E945C17BE01675E7F4F19
:100E40000E94CF1E0E946E17CE010D960E94311F88
:100E5000CE0101960E94311FCE0143960E94311FA0
:100E6000CE0149960E94311F61E08CE00E94AB10D8
:100E7000F701E080F180CF80D88460E08CE00E94B0
:100E8000AB1066EC72E08AE993E00E9409200E94B0
:100E90005C1661E08CE00E94AB1040ED57E060E032
:100EA00070E0CE0101960E948117BE016F5F7F4FF7
:100EB00084E993E00E94151ECE0101960E94311F25
:100EC00060E08CE00E94AB106CEB72E08AE993E08A
:100ED0000E9409200E945C1661E08CE00E94AB1029
:100EE00060E08CE00E94AB10B6018AE993E00E94BA
:100EF0002D200E945C1661E08CE00E94AB1060E047
:100F00008CE00E94AB1069EB72E08AE993E00E94EA
:100F100009200E945C1661E08CE00E94AB1040ED5D
:100F200057E060E070E0CE0101960E948117BE019B
:100F30006F5F7F4F84E993E00E94151ECE010196FA
:100F40000E94311F60E08CE00E94AB10B7018AE97B
:100F500093E00E942D200E945C1661E08CE00E94CC
:100F6000AB1060E08CE00E94AB106AE771E08AE9A8
:100F700093E00E942D200E945C1661E08CE00E94AC
:100F8000AB1040EE5EE260E070E0CE0101960E94A0
:100F90008117BE016F5F7F4F84E993E00E94151EA9
:100FA000CE0101960E94311F60E08CE00E94AB10E0
:100FB0006AE18AE993E00E9402200E945C1661E0E7
:100FC0008CE00E94AB1040EE5EE260E070E0CE018B
:100FD00001960E948117BE016F5F7F4F84E993E005
:100FE0000E94151ECE0101960E94311F6CE771E030
:100FF000CE0101960E94D31FBE016F5F7F4F84E92F
:1010000093E00E94AE1D7C01CE0101960E94311F2B
:10101000EF20E09491F060E08CE00E94AB1080EF54
:1010200092E004C00E94AB1081ED92E00E94621633
:1010300061E08CE00E94AB100DC060E08CE00E948B
:10104000AB1080EE92E00E94621661E08CE00E949C
:10105000AB1010E0CE0107960E94311F812F6E96D3
:101060000FB6F894DEBF0FBECDBFDF91CF911F91B9
:10107000FF90EF90DF90CF9008958091D201811181
:101080000BC01092CF011092CE011092D10110929C
:10109000D00181E08093D2018EEC91E008958F928F
:1010A0009F92AF92BF92CF92DF92EF92FF920F93F7
:1010B0001F93CF93DF93CDB7DEB7C25DD1090FB6D3
:1010C000F894DEBF0FBECDBF7C0160E08CE00E94D3
:1010D000AB100E9494064AE0BC01CE0180549F4FA1
:1010E0000E94661F64EB72E0CE0186549F4F0E94FF
:1010F000921F6FEA72E08E010F5F1F4FC8010E94BE
:10110000921FB801CE018D549F4F0E94CA1FBE018D
:1011100066547F4FCE018D549F4F0E94CF1E0E9478
:101120005C17BE0160547F4F0E94CF1E0E946E1755
:10113000CE018D549F4F0E94311FC8010E94311F64
:10114000CE0186549F4F0E94311FCE0180549F4F85
:101150000E94311F61E08CE00E94AB1060E08CE0E7
:101160000E94AB1063EA72E089EB92E00E940920D2
:1011700061E08CE00E94AB1060E08CE00E94AB105C
:10118000D70114964D915C91159760E070E02AE0CC
:1011900089EB92E00E94422061E08CE00E94AB105B
:1011A00060E08CE00E94AB1081EA92E00E9462163F
:1011B00061E08CE00E94AB1060E08CE00E94AB101C
:1011C000C7010E946E1761E08CE00E94AB1060E0E6
:1011D0008CE00E94AB1088E992E00E94621661E008
:1011E0008CE00E94AB1060E972E0C8010E94921F7F
:1011F000B801C7010E94C81DD82EC8010E94311F26
:10120000DD2009F46DC060E08CE00E94AB1086E840
:1012100092E00E94621661E08CE00E94AB100E9496
:101220001E068CE893E00E94DA02882309F434C495
:1012300060E08CE00E94AB100E9494064AE0BC0182
:10124000CE0180549F4F0E94661F6EE772E0CE0170
:1012500086549F4F0E94921F69E772E0C8010E9466
:10126000921FB801CE018D549F4F0E94CA1FBE012C
:1012700066547F4FCE018D549F4F0E94CF1E0E9417
:101280005C17BE0160547F4F0E94CF1E0E946E17F4
:10129000CE018D549F4F0E94311FC8010E94311F03
:1012A000CE0186549F4F0E94311FCE0180549F4F24
:1012B0000E94311F61E08CE00E94AB10C8010E94C7
:1012C0001603B8018CE893E00E94AB06F82EC80123
:1012D0000E94311FFF2009F4DFC30E94BD18DCC348
:1012E00062E772E0C8010E94921FB801C7010E9424
:1012F000C81DD82EC8010E94311FDD2009F45FC02F
:1013000060E08CE00E94AB1089E692E00E946216D9
:1013100061E08CE00E94AB100E948E058CE893E0A7
:101320000E94DA02882309F4B7C360E08CE00E94CF
:10133000AB100E9494064AE0BC01CE0180549F4F3E
:101340000E94661F62E672E0CE0186549F4F0E94A3
:10135000921F6DE572E0C8010E94921FB801CE0194
:101360008D549F4F0E94CA1FBE0166547F4FCE010D
:101370008D549F4F0E94CF1E0E945C17BE01605487
:101380007F4F0E94CF1E0E946E17CE018D549F4F3B
:101390000E94311FC8010E94311FCE0186549F4F09
:1013A0000E94311FCE0180549F4F0E94311F61E087
:1013B0008CE00E94AB10C8010E94370582CFCE019D
:1013C00009969C838B838AEA90E09E838D8318869E
:1013D0001F828AE091E09A838983F701808191815D
:1013E000009711F48BE991E0CD54DF4F1983088306
:1013F000C35BD040CB54DF4F99838883C55BD0401B
:10140000C954DF4F19830883C75BD0408AE0C754B3
:10141000DF4F8883C95BD040CE018D549F4F0E941F
:10142000611C8C0160E08CE00E94AB100E9494066D
:101430004AE0BC01CE018A539F4F0E94661F68E5B7
:1014400072E0CE0180549F4F0E94921F63E572E0CC
:10145000CE018D549F4F0E94921FBE016D547F4F4D
:10146000CE0186549F4F0E94CA1FBE0160547F4F19
:10147000CE0186549F4F0E94CF1E0E945C17BE0172
:101480006A537F4F0E94CF1E0E946E17CE01865472
:101490009F4F0E94311FCE018D549F4F0E94311FDC
:1014A000CE0180549F4F0E94311FCE018A539F4F1F
:1014B0000E94311F61E08CE00E94AB10D8018D9139
:1014C0009C91892B39F561E472E0CE018D549F4FD8
:1014D0000E94921F60E08CE00E94AB10CE018D5400
:1014E0009F4F0E946E1761E08CE00E94AB108CE869
:1014F00093E00E94DA02882349F0BE016D547F4FC9
:101500008CE893E00E94AB060E94BD18CE018D547A
:101510009F4F4FC26DE372E0CE018D549F4F0E94EA
:10152000921FBE016D547F4FC8010E94F1140097B5
:1015300049F0BC016C5F7F4FCE0186549F4F0E94E3
:10154000F81B07C06BE971E0CE0186549F4F0E94E3
:10155000D31FCE018D549F4F0E94311F64E372E070
:10156000CE018D549F4F0E94921FBE016D547F4F3C
:10157000CE0186549F4F0E94E31DF82ECE018D545C
:101580009F4F0E94311FFF2009F409C16EE272E0F3
:10159000CE018D549F4F0E94921FBE016D547F4F0C
:1015A000C8010E94F114009749F0FC0124813581A3
:1015B0002630310519F4A680B78003C00E943D088B
:1015C0005C01CE018D549F4F0E94311FD5018D913A
:1015D0009C91892B61F460E08CE00E94AB108CE15F
:1015E00092E00E94621661E08CE00E94AB102FED49
:1015F000822E21E0922E940180E090E0F901E80F24
:10160000F91F108201968F309105C1F7215F3F4F7E
:10161000B2E02A323B0781F7D5011296ED91FC9199
:10162000139700E010E0309731F00F5F1F4F0190EB
:10163000F081E02DF8CF0630110514F005E010E040
:101640009FEDC92E91E0D92EE12CF12CE016F10688
:101650008CF4C701D5011296ED91FC911397309748
:1016600009F412C2009709F4A7C101970190F08113
:10167000E02DF5CF00E010E0D4016D914D01C801DF
:10168000CE52DF4F6883C25DD0400E941D31CE52E2
:10169000DF4F6881C25DD040681719F0C8010E9411
:1016A00025310F5F1F4F0B34110531F760E08CE0DF
:1016B0000E94AB1089EC91E00E94621661E08CE020
:1016C0000E94AB100E948E058CE893E00E94DA0223
:1016D000882309F46BC160E08CE00E94AB100E948B
:1016E00094064AE0BC01CE0184539F4F0E94661FBE
:1016F00062E172E0CE018A539F4F0E94921F6DE01B
:1017000072E0CE018D549F4F0E94921FBE016D5416
:101710007F4FCE0180549F4F0E94CA1FBE016A5363
:101720007F4FCE0180549F4F0E94CF1E0E945C17B6
:10173000BE0164537F4F0E94CF1E0E946E17CE01E0
:1017400080549F4F0E94311FCE018D549F4F0E94A5
:10175000311FCE018A539F4F0E94311FCE01845307
:101760009F4F0E94311F61E08CE00E94AB10CE01C0
:101770008D549F4F0E943705BE016D547F4F8CE8FA
:1017800093E00E94AB06182FCE018D549F4F0E940C
:10179000311F112309F40AC10E94BD1807C166E078
:1017A00072E0CE018D549F4F0E94921FBE016D5476
:1017B0007F4FCE0186549F4F0E94E31DF82ECE012D
:1017C0008D549F4F0E94311FFF2009F4EFC063E04A
:1017D00072E0CE018D549F4F0E94921FBE016D5446
:1017E0007F4FC8010E94111A60932A0270932B0246
:1017F00080932C0290932D02CE018D549F4F0E9416
:10180000311F60E072E0CE018D549F4F0E94921F05
:10181000BE016D547F4FC8010E94111A60932E02C1
:1018200070932F028093300290933102CE018D5439
:101830009F4F0E94311F6DEF71E0CE018D549F4F7D
:101840000E94921FBE016D547F4FC8010E94111A61
:101850006093320270933302809334029093350286
:10186000CE018D549F4F0E94311F6AEF71E0CE016F
:101870008D549F4F0E94921FBE016D547F4FC8012F
:101880000E94111A609336027093370280933802D7
:1018900090933902CE018D549F4F0E94311F8AE2EE
:1018A000E82E82E0F82E04E610E0F70161917F0156
:1018B000C801CE52DF4F6883C25DD0400E941D3107
:1018C000CE52DF4F6881C25DD040681719F0C80161
:1018D0000E9425310F5F1F4F0437110531F760E07B
:1018E0008CE00E94AB108BED91E00E94621661E0EB
:1018F0008CE00E94AB100E941E068CE893E00E94D0
:10190000DA02882309F452C060E08CE00E94AB1038
:101910000E9494064AE0BC01CE0184539F4F0E946E
:10192000661F6FEE71E0CE018A539F4F0E94921F97
:101930006AEE71E0CE018D549F4F0E94921FBE014E
:101940006D547F4FCE0180549F4F0E94CA1FBE012D
:101950006A537F4FCE0180549F4F0E94CF1E0E943A
:101960005C17BE0164537F4F0E94CF1E0E946E170A
:10197000CE0180549F4F0E94311FCE018D549F4F46
:101980000E94311FCE018A539F4F0E94311FCE010A
:1019900084539F4F0E94311F61E08CE00E94AB1086
:1019A000CE018D549F4F0E941603E6CECE01865481
:1019B0009F4F0E94311F70C0BF016E5F7F4FCE01ED
:1019C0008D549F4F0E94F81BCE018D549F4F0E9453
:1019D0000B19C954DF4F88819981C75BD04040976C
:1019E000C8F02FE030E040E050E0BE016D547F4F82
:1019F000CE0180549F4F0E946A19BE0160547F4FF0
:101A0000CE018D549F4F0E94151ECE0180549F4FD2
:101A10000E94311FC954DF4F48815981C75BD040B4
:101A2000CD54DF4F68817981C35BD040CA0120E08B
:101A300030E02417350781F06115710529F0FB01AD
:101A4000E20FF31FA08101C0A0E0F601E20FF31F37
:101A5000A0832F5F3F4FEDCF2F30310549F08F30FE
:101A6000910531F0F601E80FF91F10820196F7CFCA
:101A7000CE018D549F4F0E94311FBFEFEB1AFB0A1E
:101A8000EFE0CE0ED11CE2CD6BE971E0CE018D54BA
:101A90009F4F0E94D31F98CFCE52DF4F0FB6F894BE
:101AA000DEBF0FBECDBFDF91CF911F910F91FF9091
:101AB000EF90DF90CF90BF90AF909F908F90089560
:101AC000DB01109749F0ED91FC9111970190F081A5
:101AD000E02DBC01CD01099480E090E00895FC0167
:101AE000538D448D252F30E0842F90E0821B930B83
:101AF000541710F0CF96089501970895FC01918D29
:101B0000828D981761F0828DDF01A80FB11D5D965F
:101B10008C91928D9F5F9F73928F90E008958FEFCD
:101B20009FEF0895FC01918D828D981731F0828D81
:101B3000E80FF11D858D90E008958FEF9FEF0895D8
:101B4000FC01918D228D892F90E0805C9F4F821B3C
:101B500091098F739927089589EB92E00E94A00D57
:101B600021E0892B09F420E0822F0895FC01848D67
:101B7000DF01A80FB11DA35ABF4F2C91848D90E0B7
:101B800001968F739927848FA689B7892C93A08992
:101B9000B1898C9180648C93938D848D981306C049
:101BA0000288F389E02D80818F7D80830895EF92F4
:101BB000FF920F931F93CF93DF93EC0181E0888F07
:101BC0009B8D8C8D981305C0E889F989808185FDEE
:101BD00024C0F62E0B8D10E00F5F1F4F0F731127DF
:101BE000E02E8C8DE8120CC00FB607FCFACFE88906
:101BF000F989808185FFF5CFCE010E94B60DF1CF26
:101C00008B8DFE01E80FF11DE35AFF4FF0820B8F21
:101C1000EA89FB898081806207C0EE89FF89608341
:101C2000E889F98980818064808381E090E0DF9198
:101C3000CF911F910F91FF90EF900895CF93DF9375
:101C4000EC01888D8823C9F0EA89FB89808185FDB4
:101C500005C0A889B9898C9186FD0FC00FB607FC15
:101C6000F5CF808185FFF2CFA889B9898C9185FF56
:101C7000EDCFCE010E94B60DE7CFDF91CF91089551
:101C800080E090E0892B29F00E94AC0D81110C942A
:101C900000000895833081F028F4813099F082307B
:101CA000A1F008958730A9F08830B9F08430D1F4DC
:101CB000809180008F7D03C0809180008F7780931A
:101CC0008000089584B58F7702C084B58F7D84BD70
:101CD00008958091B0008F7703C08091B0008F7D10
:101CE0008093B00008953FB7F8948091B502909129
:101CF000B602A091B702B091B80226B5A89B05C064
:101D00002F3F19F00196A11DB11D3FBFBA2FA92F7A
:101D1000982F8827820F911DA11DB11DBC01CD01F7
:101D200042E0660F771F881F991F4A95D1F70895E3
:101D30002091DD013091DE012817390771F490916F
:101D4000DB018091DC01981741F0E091DB01F0E0CC
:101D5000E059FD4F808190E008958FEF9FEF089547
:101D600008951F93CF93DF93DC015C962D913C91F6
:101D70005D972115310539F481E090E013969C932D
:101D80008E9312973DC05196ED91FC9152975096CB
:101D90009C915097892F80951FB75E964C915E97C6
:101DA00041FB772770F941FD6095F89440817723D6
:101DB00011F0492B01C048234083E9012197F1F735
:101DC00048E0508160FF02C0592B01C05823508366
:101DD000E9012197F1F76695415099F7772321F0B2
:101DE00090818923808303C08081982B90831FBFBB
:101DF0005C968D919C915D970197F1F721E030E021
:101E0000C901DF91CF911F9108952091DD0130919B
:101E1000DE012817390771F48091DC012091DB0184
:101E200090E0805C9F4F821B910960E470E00E940B
:101E30009C32089580E090E008952091DD0130917A
:101E4000DE0128173907B9F49091DB018091DC019C
:101E5000981789F0E091DB01F0E0E059FD4F8081B7
:101E60002091DB0130E02F5F3F4F2F73332720930A
:101E7000DB0190E008958FEF9FEF0895089580E0D3
:101E800090E008950E94B633CF93DF93EC01E88190
:101E9000F981808191810E94A31E8A819B81019694
:101EA0009B838A83DF91CF910895EF92FF920F93E6
:101EB0001F93CF93DF93EC01E880F980D7018D91D8
:101EC0009C91FC01048115816115710551F0FB01A4
:101ED00001900020E9F73197AF01461B570B0E9494
:101EE000751ED701ED91FC91848195812A813B81FA
:101EF000280F391F201B310B3B832A83DF91CF91A1
:101F00001F910F91FF90EF9008950F931F93CF9320
:101F1000DF93CDB7DEB766970FB6F894DEBF0FBE7E
:101F2000CDBF8C01CB011E8AFE0176962AE030E0FF
:101F3000B9010E949C3290E3980F9293CB010097D5
:101F4000B9F7BF01C8010E94550F66960FB6F89405
:101F5000DEBF0FBECDBFDF91CF911F910F910895CE
:101F60008F929F92AF92BF92EF92FF920F931F9327
:101F7000CF93DF93CDB7DEB766970FB6F894DEBF89
:101F80000FBECDBF7C011E8A8E010A5E1F4F8AE004
:101F9000882E912CA12CB12CCB01BA01A501940162
:101FA0000E94B032942F852F605DF80162938F01FB
:101FB000A901692F782F411551056105710561F758
:101FC000BF01C7010E94550F66960FB6F894DEBF99
:101FD0000FBECDBFDF91CF911F910F91FF90EF907A
:101FE000BF90AF909F908F900895FF920F931F9393
:101FF000CF93DF936115710549F46CE971E0DF91CE
:10200000CF911F910F91FF900C94550F8B01EC0114
:1020100062E2CE010E94440FF80161918F016623B4
:1020200051F0EDE8F1E0F080FF2099F391819617EF
:1020300059F03296F8CF62E2CE01DF91CF911F9135
:102040000F91FF900C94440F6CE5CE010E94440F59
:102050006F2DDFCF1F920F920FB60F9211242F9387
:102060003F934F935F936F937F938F939F93AF9320
:10207000BF93EF93FF9389EB92E00E94B60DFF911F
:10208000EF91BF91AF919F918F917F916F915F91F0
:102090004F913F912F910F900FBE0F901F90189569
:1020A0001F920F920FB60F9211242F938F939F932D
:1020B000EF93FF93E091C902F091CA028081E09111
:1020C000CF02F091D00282FD12C090818091D202A5
:1020D0008F5F8F732091D302821751F0E091D2026B
:1020E000F0E0E754FD4F958F8093D20201C08081CC
:1020F000FF91EF919F918F912F910F900FBE0F90B5
:102100001F901895CF93DF93282F30E0F901EA5004
:10211000FB4F8491F901E95BFA4FD491F901ED5C31
:10212000FA4FC491CC2391F081110E944A0EEC2FFA
:10213000F0E0EE0FFF1FE75DFA4FA591B491EC912F
:10214000ED2381E090E021F480E002C080E090E0A7
:10215000DF91CF9108951F93CF93DF93282F30E025
:10216000F901EA50FB4F8491F901E95BFA4FD491F0
:10217000F901ED5CFA4FC491CC23C9F0162F8111FF
:102180000E944A0EEC2FF0E0EE0FFF1FE15EFA4FC7
:10219000A591B4918FB7F894111105C09C91ED2FC2
:1021A000E095E92302C0EC91ED2BEC938FBFDF911A
:1021B000CF911F910895CF93DF9390E0FC01E95BED
:1021C000FA4F2491FC01ED5CFA4F8491882361F170
:1021D00090E0880F991FFC01E451FB4FC591D49109
:1021E000FC01E15EFA4FA591B491611109C09FB75E
:1021F000F8948881209582238883EC912E230BC04C
:10220000623061F49FB7F8943881822F80958323E0
:102210008883EC912E2B2C939FBF06C08FB7F89428
:10222000E8812E2B28838FBFDF91CF9108958F9265
:102230009F92AF92BF92CF92DF92EF92FF926B018B
:102240007C010E94730E4B015C01C114D104E104B6
:10225000F104F1F00E94730EDC01CB018819990999
:10226000AA09BB09883E9340A105B10570F321E09E
:10227000C21AD108E108F10888EE880E83E0981EA2
:10228000A11CB11CC114D104E104F10419F7DDCF84
:10229000FF90EF90DF90CF90BF90AF909F908F9086
:1022A00008952FB7F8946091B1027091B2028091B5
:1022B000B3029091B4022FBF08951F920F920FB6F0
:1022C0000F9211242F933F938F939F93AF93BF93BC
:1022D0008091B1029091B202A091B302B091B40288
:1022E0003091B00223E0230F2D3720F40196A11D79
:1022F000B11D05C026E8230F0296A11DB11D209334
:10230000B0028093B1029093B202A093B302B09353
:10231000B4028091B5029091B602A091B702B0913B
:10232000B8020196A11DB11D8093B5029093B6022B
:10233000A093B702B093B802BF91AF919F918F91D4
:102340003F912F910F900FBE0F901F9018951F92E5
:102350000F920FB60F9211242F933F934F935F93D9
:102360006F937F938F939F93AF93BF93EF93FF935D
:10237000E091DD01F091DE01309709F451C0968DB6
:10238000A685B785858591FF04C09C91892329F492
:1023900047C09C91892309F043C0A389B4899C91CB
:1023A0008589809589238C93868997890197F1F790
:1023B000608D718DA685B785558538E020E0CB010D
:1023C0000197F1F7822F90E095958795282F4C91F2
:1023D000452309F02068315091F7868D81FD2095C5
:1023E0008091DC0190E001968F7399273091DB0199
:1023F000381749F0A091DC01B0E0A059BD4F2C93F3
:102400008093DC0103C0868D8160868F828D938DE1
:102410000197F1F7A389B4899C918589892B8C93C5
:10242000FF91EF91BF91AF919F918F917F916F91AC
:102430005F914F913F912F910F900FBE0F901F9082
:102440001895E091DD01F091DE01E817F90769F4D4
:10245000A389B4899C918589809589238C93109256
:10246000DE011092DD0181E0089580E00895CF92B1
:10247000DF92EF92FF920F931F93CF93DF93EC01C4
:102480000E9451116B017C0160936C0270936D028C
:1024900080936E0290936F0288810E9482108093D5
:1024A0006B029A81992329F091E0811190E0909339
:1024B0006B028A859B85AC85BD8597018601081BCB
:1024C000190B2A0B3B0B4E855F85688979899B81A7
:1024D000041715072607370738F4CE82DF82E8860F
:1024E000F9861D82892F12C09C8380916B028B8399
:1024F000CE82DF82E886F986891739F0CA86DB86C4
:10250000EC86FD8691E09D8301C01D82DF91CF9115
:102510001F910F91FF90EF90DF90CF9008952F9231
:102520003F924F925F926F927F928F929F92AF9263
:10253000BF92CF92DF92EF92FF920F931F93CF93B0
:10254000DF93CDB7DEB76A970FB6F894DEBF0FBE44
:10255000CDBFDC01ED91FC913197E830F10508F039
:1025600027C28B017C01EC5CFF4F0C94D232FC0142
:10257000C280D380E480F580A7019601C701B6012F
:102580000E94F62F882319F06CEA71E0A1C020E0C8
:1025900030E0A901C701B6010E94F62F87FF08C0ED
:1025A0006DE2C8010E94440FF7FAF094F7F8F09436
:1025B00020E030E0A901C701B6010E94F62F882370
:1025C00009F48AC0A7019601C701B6010E948531AE
:1025D000A70196010E94F62F81117EC063EB71E086
:1025E00077C0DC011296ED90FC9013976BE5C80163
:1025F0000E94440FF701E280F380E114F10459F0E6
:10260000B801C70102960E948F12D701ED90FC908D
:10261000E114F10411F46DE52FC06CE2C8010E94D1
:10262000440FEBCFFC01E280F3806BE7C8010E940E
:10263000440FD7011296ED90FC90139704C06CE202
:10264000C8010E94440FE114F104A9F0F70162816E
:102650007381C8010E94F50F6AE3C8010E94440F0C
:10266000B801C70104960E948F12D701ED90FC902B
:10267000E114F10421F76DE7C8010E94440F98C1ED
:10268000FC0162817381C8010E94F50F91C1DC01D8
:1026900012966D917C9113971BC06DE2C8010E9448
:1026A000440FF7014281538164817581C8010E9402
:1026B000B00F7EC1FC0182819381A481B581892BF9
:1026C0008A2B8B2B19F466EA71E002C061EA71E093
:1026D000C8010E94550F6CC120E836E948E15BE46F
:1026E000C701B6010E94923287FD5AC1412C512C7C
:1026F00070E2672E712C812C912CF201E45CFE4F6C
:102700002489358946895789C701B6010E949232CA
:1027100087FD0FC0F201EC5DFE4F248935894689A3
:102720005789C701B6010E945C306B017C01860CA1
:10273000971C75946794F4E04F1A510888EE481678
:102740008FEF5806D1F655245A9420E030E0A901C5
:10275000C701B6010E949232181694F52CEA35ECA6
:1027600047E257E3C701B6010E94F62F181644F15D
:10277000BFEF5B1629F1952DA4E09A0250011124B8
:10278000F501E45FFE4F2081318142815381C70111
:10279000B6010E94F62F87FF0FC0F501E45CFE4FE3
:1027A0002081318142815381C701B6010E945C3092
:1027B0006B017C0186189708759467945A94D8CF5A
:1027C000C701B6010E9463322B013C016B8B7C8BED
:1027D0008D8B9E8B46E0A42E80E492E4AFE0B0E0C7
:1027E0008F8B988FA98FBA8FBA2CAA24AA94AB0C7E
:1027F0008B899C89AD89BE890A97A105B105E8F04E
:102800006F89788D898D9A8D2AE030E040E050E024
:102810000E94B0322F8B388F498F5A8F6B897C89F9
:102820008D899E892AE030E040E050E00E94B0327D
:102830002B8B3C8B4D8B5E8BD7CFC301B2010E949B
:10284000FB2F9B01AC01C701B6010E9484316B01D3
:102850007C016F89788D898D9A8D0E94FB2F9B0159
:10286000AC01C701B6010E945C306B8B7C8B8D8BF9
:102870009E8B0E9463326B017C010E94FB2F9B01A7
:10288000AC016B897C898D899E890E9484319B0172
:10289000AC010E9485310E946332C60ED71EE81E2D
:1028A000F91E8F89988DA98DBA8DC816D906EA06AA
:1028B000FB0610F19FEF491A590A690A790A811437
:1028C000910489F0AAE04A1651046104710458F099
:1028D000BFEF8B1A9B0AC12CD12C7601412C512CB5
:1028E0003201439409C0C12CD12C760105C01B14C0
:1028F0007CF469017A01BA94C701B6012AE030E09C
:1029000040E050E00E94B032672B682B692B79F3CE
:10291000AB2CB301A201C8010E94B00FBB2041F152
:10292000188A3E01E0E16E0E711C7A8A698A2AE0FB
:10293000222E312C412C512CAA94BFEFAB1669F0FA
:10294000C701B601A20191010E94B032605DD301BE
:102950006E933D0169017A01EFCF69897A896B191C
:1029600071098EE2FB018293BF01C8010E94550FDD
:1029700097FE0AC060EB71E0C8010E94550F662700
:1029800077276819790908C08114910489F065E6F0
:10299000C8010E94440FB401C8010E94850F08C0FD
:1029A00080E2682E712C95E0592E812C912CCDCE91
:1029B0006A960FB6F894DEBF0FBECDBFDF91CF9100
:1029C0001F910F91FF90EF90DF90CF90BF90AF904D
:1029D0009F908F907F906F905F904F903F902F903F
:1029E00008950F931F93CF93DF938B01FC01C28156
:1029F000D3812097B1F06A817B81F8018081918138
:102A0000009719F06115710521F48617970729F4CD
:102A100008C00E94E133892B21F00990D881C02D94
:102A2000E8CFCE01DF91CF911F910F9108958F9242
:102A30009F92AF92BF92CF92DF92EF92FF92CF938D
:102A4000DF93A0918103882311F03A2F01C030E079
:102A50008091820390E0880F991F875D9A4FC09004
:102A60008703D0908803E0908903F0908A0340E0C8
:102A700050E0BA01FC01C591D49128812A23231387
:102A80000FC04A015B012FEF821A920AA20AB20A12
:102A90004C155D056E057F0538F4B501A401EACF3C
:102AA000342F252FCB0104C030E020E080E090E0FF
:102AB000632F722FDF91CF91FF90EF90DF90CF9037
:102AC000BF90AF909F908F900895CF92DF92EF923A
:102AD000FF920F931F93CF93DF93CDB7DEB7C05410
:102AE000D1400FB6F894DEBF0FBECDBF0E9451118A
:102AF0000091830310918403209185033091860314
:102B00006B017C01C01AD10AE20AF30A40EDC41637
:102B100047E0D406E104F10418F480918B03BCC0B3
:102B2000609383037093840380938503909386035B
:102B300010927E0310927D0310927C0310927B030F
:102B400010927A0361E080917F030E94AB106AEFDC
:102B500070E080E090E00E94171161E080917F03B7
:102B60000E94DB1060E080917F030E94AB1064E163
:102B700070E080E090E00E941711F89461E080918D
:102B80007F030E94AB108BE990E00197F1F762E0C0
:102B900080917F030E94DB1083E290E00197F1F7C0
:102BA00080E00E941715672B682B692B21F4109287
:102BB0008B0378943EC081E00E941715672B682B29
:102BC000692BA9F38E010F5F1F4F6E018FEBC81A9F
:102BD0008EEFD80A780180E00E941715F701608314
:102BE00071838283938381E00E941715F7016483C8
:102BF000758386839783F8E0EF0EF11CEC14FD04D7
:102C000051F7789420E030E0F801408151816281F1
:102C10007381C480D580E680F78041155105610538
:102C2000710529F0C114D104E104F10421F41092DA
:102C30008B0380E031C0F90183E0F595E7958A9533
:102C4000E1F7E658FC4F8081880F4C155D056E0555
:102C50007F0508F4816080832F5F3F4F085F1F4F1F
:102C60002832310589F620917E0330E040917A03C5
:102C700080917B0390E0840F911D40917C03840F31
:102C8000911D40917D03840F911D992728173907C5
:102C900071F681E080938B03C05CDE4F0FB6F89431
:102CA000DEBF0FBECDBFDF91CF911F910F91FF907F
:102CB000EF90DF90CF9008956CEB71E089EB92E09C
:102CC0000C942D20CF93DF93BC0189EB92E00E94FE
:102CD0000920EC010E945C168C0F9D1FDF91CF91A3
:102CE00008954F925F926F927F928F929F92AF92D0
:102CF000BF92CF92DF92EF92FF926B017C01B42ED4
:102D00009B01AC010E949732882319F06FEB71E0B0
:102D100027C026013701E89477F82FEF3FEF4FE700
:102D20005FE7C301B2010E94973281110DC02FEFFE
:102D30003FEF4FE75FE7C301B2010E94F62F18167D
:102D40001CF463EC71E00CC02FEF3FEF4FE75FE442
:102D5000C701B6010E949232181694F467EC71E034
:102D600089EB92E0FF90EF90DF90CF90BF90AF9013
:102D70009F908F907F906F905F904F900C942D203C
:102D80002FEF3FEF4FE75FECC701B6010E94F62F30
:102D900087FDE4CF20E030E0A901C701B6010E9421
:102DA000F62F87FF0BC06DE289EB92E00E940220B4
:102DB0004C01F7FAF094F7F8F09402C0812C912CB2
:102DC000A12C60E070E080E09FE3AB1441F020E0D4
:102DD00030E040E251E40E94F131A394F6CF9B0130
:102DE000AC01C701B6010E9485312B013C010E9454
:102DF00063326B017C010E94FB2F9B01AC01C3017C
:102E0000B2010E9484312B013C012AE0B701A601E6
:102E100089EB92E00E9442207C01E80CF91CBB2067
:102E200039F06EE289EB92E00E940220E80EF91E72
:102E3000DB2CDD2031F120E030E040E251E4C30141
:102E4000B2010E945C302B013C010E9463324B01B5
:102E5000A12CB12C2AE0B501A40189EB92E00E94DB
:102E60004220E80EF91EC501B4010E94FB2F9B0110
:102E7000AC01C301B2010E9484312B013C01DA9400
:102E8000D8CFC701FF90EF90DF90CF90BF90AF9069
:102E90009F908F907F906F905F904F900895CF9309
:102EA000DF9342E00E947116EC010E945C168C0FC9
:102EB0009D1FDF91CF910895CF93DF93EC0141E007
:102EC00050E06BEC71E00E94751E811103C0CE01D1
:102ED0000E94BD1ECE01DF91CF910895CF93DF9365
:102EE000FC01448155816081718189EB92E00E94EF
:102EF000531DEC010E945C168C0F9D1FDF91CF913A
:102F00000895CF92DF92EF92FF92CF93DF93EC017F
:102F10006A017B0110929303109292038AE993E075
:102F20000E94050F892BE9F48091920390919303FD
:102F3000092E000CAA0BBB0B8C159D05AE05BF0519
:102F400084F46DE070E080E090E00E9417118091C1
:102F5000920390919303019690939303809392032D
:102F6000DDCF8AE993E00E94050F892B49F06AE9D9
:102F700073E0CE010E94E81FCE010E946E1705C0CB
:102F80006BE971E0CE010E94D31FCE01DF91CF919A
:102F9000FF90EF90DF90CF9008959F92AF92BF92F5
:102FA000CF92DF92EF92FF920F931F93CF93DF9315
:102FB00000D000D000D0CDB7DEB77C016B015C0142
:102FC00082E0A80EB11CC5010E94B019D70112966B
:102FD000ED91FC91139780818B3521F08B3709F4AB
:102FE0008AC094C0F7018681882309F46FC081509C
:102FF000868300811181B80184E090E00E94600D19
:10300000009709F4A4C0FC0111830083138212828B
:103010008C016BE5C5010E94F219882309F456C0A2
:103020006DE5C5010E94F219811148C086E0982E15
:103030001A821982BE016F5F7F4FC7010E94CD17B0
:10304000882309F443C0D8016D917C9188E090E019
:103050000E94600DDC01892B39F011961C921E92A2
:1030600013961C921E921297F8012281338121152A
:10307000310551F0F90180819181009711F09C0197
:10308000F9CFB183A08303C0F801B383A283109763
:10309000E9F0FE0131961296892D01900D928A95E4
:1030A000E1F76DE5C5010E94F219811107C06CE2DC
:1030B000C5010E94F2198111BBCF08C0D701169635
:1030C0008C9116978F5F16968C9303C00E943D08D3
:1030D0008C01F80180819181892B11F410E03AC0B4
:1030E00086E090E0D60111969C938E9313961C93E4
:1030F0000E9312972AC0C7010E94611CFC01208117
:103100003181232B59F327E030E017C011E08732DB
:1031100019F0823209F010E0C7010E94481B0097A5
:10312000E9F2112341F022E030E0F60131832083FF
:10313000938382830FC021E030E0D60111963C9347
:103140002E9313969C938E93129711E003C00E94C6
:103150003D085ECF812F26960FB6F894DEBF0FBED6
:10316000CDBFDF91CF911F910F91FF90EF90DF9036
:10317000CF90BF90AF909F9008950F931F93CF93E0
:10318000DF9300D000D000D0CDB7DEB760E08CE098
:103190000E94AB106AE075E08AE993E00E94092082
:1031A0000E945C1661E08CE00E94AB1040EE5EE293
:1031B00060E070E0CE0101960E948117BE016F5F52
:1031C0007F4F84E993E00E94151ECE0101960E9474
:1031D000311F61E871E0CE0101960E94D31FBE014C
:1031E0006F5F7F4F84E993E00E94AE1D8C01CE019A
:1031F00001960E94311F81E00F3F1F4F09F480E0CC
:1032000026960FB6F894DEBF0FBECDBFDF91CF91EB
:103210001F910F910895AF92BF92CF92DF92EF92DC
:10322000FF920F931F93CF93DF93DC01CD90DC903F
:103230001197C114D10409F442C01496CD91DC91C8
:1032400015972097E1F18C0156017501BFEFAB1A7C
:10325000BB0AF7018081082E000C990B0E94DD2F1C
:10326000892B99F72197CC0DDD1D8881082E000C44
:10327000990B0E94DD2F892B91F4AE014F5F5F4FB8
:103280004E195F09D80115965C934E931497CE148E
:10329000DF0450F4B701C6010E94D83305C0CE1533
:1032A000DF0558F32197E1CFD801ED91FC911197FB
:1032B00014968D919C911597E80FF91F1082DF915C
:1032C000CF911F910F91FF90EF90DF90CF90BF9023
:1032D000AF900895BF92CF92DF92EF92FF920F933B
:1032E0001F93CF93DF937C016B018A01E9012417BF
:1032F000350720F4812F8901C42FD82F6BE971E0A5
:10330000C7010E94D31FD60114968D919C911597E9
:1033100008171907D0F48C179D0708F4EC01D601A3
:10332000ED91FC911197EC0FFD1FB08010824D9133
:103330005C91BA01600F711FC7010E94031FD60183
:10334000ED91FC91EC0FFD1FB082C701DF91CF9191
:103350001F910F91FF90EF90DF90CF90BF90089555
:10336000FC01A081B1818C918D3051F024F4895001
:103370008230B8F505C0803219F08F3219F0089507
:1033800011962CC011968C9111978A3219F08F32B8
:10339000D1F008951196B183A083A081B181CD01B0
:1033A00001969183808311968C9111978823C9F09F
:1033B0008A3299F712968C9112978F3271F7139681
:1033C0000DC08A3071F2A081B181CD010196918347
:1033D000808311968C918111F4CF03C0B183A083B7
:1033E000C0CF08950F931F93CF93DF931F92CDB754
:1033F000DEB78C0169830E94B019D801ED91FC9170
:10340000119780816981861305C03196ED93FC93F5
:1034100081E001C080E00F90DF91CF911F910F916B
:1034200008958F929F92AF92BF92FF920F931F9336
:10343000CF93DF930E94F114FC01892B09F407C19B
:1034400084819581833091053CF481309105C4F4E9
:10345000892B09F4FCC0F6C08530910554F005971E
:1034600009F0F0C066817781808591850E94FB2FED
:10347000E7C066817781808591850E94FB2FFEC021
:10348000C681D781209709F4E2C088818B3229F068
:103490008D3221F4219611E002C0219610E088813E
:1034A000843709F4D8C08F7D8E3409F4D9C08934AB
:1034B00009F47AC0F12C20E030E0A901FE01099165
:1034C00080ED800F8A30E8F42C3C8CEC38078CE0DF
:1034D00048075105A4F4AAE0B0E00E943331202F40
:1034E000000F330B205331094901330FAA08BB08E1
:1034F0009B01AC01280D391D4A1D5B1DDFCFF394E4
:10350000DDCF0E3221F5EF012196FE01099180ED0C
:10351000800F8A30E0F42C3C8CEC38078CE04807B4
:1035200051059CF7AAE0B0E00E943331202F000F34
:10353000330B205331094901330FAA08BB089B0103
:10354000AC01280D391D4A1D5B1DFA94DECF608148
:103550006F7D8F2DFF0C990B6534C1F561816D3244
:1035600019F4329671E006C06B3211F0319601C049
:10357000329670E0C0E0D0E00AE06191A0EDA60FC5
:10358000AA30F0F40C9FD0010D9FB00D1124C62F6E
:10359000660FDD0BE097CA0FDB1FDE01A80FB91F16
:1035A00097975CF3711108C0112309F463C060E0C0
:1035B00070E080E89FEF62C0112309F448C055C055
:1035C000772331F0D195C195D10902C0C0E0D0E098
:1035D000C80FD91FCA01B9010E94FD2F1C161D0674
:1035E000ACF400E0C0FF0CC024E0029FF001112405
:1035F000E45CFE4F20813181428153810E945C3026
:10360000D595C7950F5F209769F718C0D195C195DB
:10361000D10900E0209791F0C0FF0CC024E0029F88
:10362000F0011124EC5DFE4F2081318142815381F4
:103630000E945C30D595C7950F5FECCF1123F1F058
:1036400090581CC0668177818085918517C060E0A5
:1036500070E0CB0113C060E070E080E89FE30EC033
:1036600060E070E080EC9FE709C060E070E080E01F
:1036700090E804C060E070E080E89FE7DF91CF91C0
:103680001F910F91FF90BF90AF909F908F900895E2
:10369000EF92FF920F931F93CF93DF938C01DC0186
:1036A0001496CD91DC911597EA80FB808E819F81E5
:1036B000E80EF91EC80102960E94B019D8011296B0
:1036C000ED91FC91139790819732A9F1923299F183
:1036D00080ED890F8A3078F081EA890F8C3158F0BB
:1036E0008FEB890F8A3138F09B3229F083ED890FF7
:1036F000823008F060C0F801228133812F5F3F4F94
:10370000338322832E813F81A9014F5F5F4F6C81FC
:103710007D816417750740F06A817B81FB01E20FB0
:10372000F31F5F834E839083D8011296ED91FC9135
:1037300013979081CDCF3196D8011396FC93EE93D9
:103740001297D8011296ED91FC91139720812223B4
:1037500091F1AF014F5F5F4F13965C934E931297B9
:10376000291749F12C35A9F42181A1E9B1E08C9107
:10377000882339F0821303C011962C9102C012964F
:10378000F6CF2223C1F03296D8011396FC93EE9324
:1037900012974E815F81BA016F5F7F4FEC81FD818F
:1037A000E617F70770F2EA81FB81E40FF51F7F83CC
:1037B0006E832083C6CF8E819F819C012F5F3F4FF8
:1037C0004C815D814217530748F04A815B81FA01C1
:1037D000E80FF91F3F832E83108202C0E12CF12CE9
:1037E000C701DF91CF911F910F91FF90EF90089546
:1037F000CF92DF92EF92FF920F931F93CF93DF93BD
:10380000CDB7DEB72C970FB6F894DEBF0FBECDBF95
:103810008C016B01FB01E080F180F1E0EF16F10417
:1038200061F4FB01628173816115710531F08CE9EE
:1038300091E00E94E133892B89F0F1E0EF1AF10861
:1038400082E0E816F10450F4F6016281738161159B
:10385000710521F0C8010E94D31F23C06BE971E0FC
:10386000CE0101967C010E94D31FFC86EB86CE011F
:103870000B9698878F831A861986BE01695F7F4FE2
:10388000C6010E948F12F8011182108213821282E7
:1038900015821482B701C8010E94151EC7010E943B
:1038A000311FC8012C960FB6F894DEBF0FBECDBFF6
:1038B000DF91CF911F910F91FF90EF90DF90CF900C
:1038C00008957F928F929F92AF92BF92CF92DF9294
:1038D000EF92FF920F931F93CF93DF9300D000D00E
:1038E00000D0CDB7DEB7FC019681911112C0809156
:1038F000BD0381110BC01092BA031092B90310924C
:10390000BC031092BB0381E08093BD0309EB13E07D
:10391000B4C06F019150968300811181B80184E099
:1039200090E00E94600D009751F0DC0111961C930D
:103930000E9313961C921E9212978C0111C08091C7
:10394000BD0381110BC01092BA031092B9031092FB
:10395000BC031092BB0381E08093BD0309EB13E02D
:103960005601B2E0AB0EB11C6BE7C5010E94F21923
:10397000882309F4BCCF6DE7C5010E94F2198111BB
:1039800053C086E0782EC6010E94481B4C01892B4B
:1039900009F4ADCF6AE3C5010E94F219882309F446
:1039A000A6CF1A821982BE016F5F7F4FC6010E94A7
:1039B000CD17882309F49BCFF801E280F380E1144E
:1039C000F104B9F1D70112966D917C9113976115AD
:1039D000710529F0C4010E94E133892B79F0F701C8
:1039E000E080F180ECCFF182E082E114F10409F48F
:1039F0007ECFD70113969C928E921297FE0131963C
:103A0000D7011496872D01900D928A95E1F76DE705
:103A1000C5010E94F219811107C06CE2C5010E9424
:103A2000F2198111B0CF63CFF60186818F5F868353
:103A300024C0D8016D917C918AE090E00E94600DD5
:103A40007C01892B41F0D70111961C921E9215968C
:103A50001C921E921497D8011296ED91FC91139727
:103A6000309739F080819181009709F4BCCFFC0137
:103A7000F9CFF801F382E282B8CFC80126960FB6DB
:103A8000F894DEBF0FBECDBFDF91CF911F910F9194
:103A9000FF90EF90DF90CF90BF90AF909F908F906E
:103AA0007F9008950895CF92DF92EF92FF920F9347
:103AB0001F93CF93DF936C017A018B01C0E0D0E0BC
:103AC000CE15DF0589F0D8016D918D01D601ED91FC
:103AD000FC910190F081E02DC6010995892B11F42C
:103AE0007E0102C02196ECCFC701DF91CF911F91DB
:103AF0000F91FF90EF90DF90CF9008950F931F9359
:103B0000CF93DF93EC010E945111688779878A87F0
:103B10009B87E881F9810284F385E02DCE01099528
:103B200097FF17C00E945111088519852A853B858A
:103B3000DC01CB01801B910BA20BB30B0C811D810F
:103B40002E813F8180179107A207B30710F38FEFF3
:103B50009FEFDF91CF911F910F910895CF93DF9346
:103B6000FC0124813581232B71F0FB01DC01CD9117
:103B7000DC9160817181CE010E94FF33009719F0C2
:103B80008C1B9D0B02C08FEF9FEFDF91CF910895AB
:103B9000FB0144815581FC012481358124173507BF
:103BA00078F080819181009759F0FB0160817181EB
:103BB0006115710529F00E94F13321E0892B09F08C
:103BC00020E0822F0895FC0124813581FB0144818E
:103BD00055812417350721F5FC0180819181FB0176
:103BE00060817181009719F061157105A1F461156B
:103BF000710549F0232BB1F0FB01808190E0919594
:103C0000819591090AC0009769F0232B59F0FC01B6
:103C1000808190E002C00E94E13321E0892B19F0FD
:103C200020E001C021E0822F08950F931F93CF93CE
:103C3000DF938C01EB01FC01808191810097B1F051
:103C4000688179816115710579F0428153812C81F8
:103C50003D814217530740F00E94EA338C819D81D9
:103C6000F8019583848313C00E949F2C88819981D9
:103C7000F801918380838A819B81938382838C81E5
:103C80009D8195838483198218821B821A821D82EA
:103C90001C82DF91CF911F910F9108950F931F9375
:103CA000CF93DF93EC0188819981009729F02A81D5
:103CB0003B812617370788F48B016F5F7F4F0E9487
:103CC000EC32009761F0998388831B830A832C81EF
:103CD0003D81232B11F4FC01108281E001C080E0C2
:103CE000DF91CF911F910F910895EF92FF920F9363
:103CF0001F93CF93DF93FC012481358161157105FA
:103D000011F480E019C041155105A9F07B01EC01C7
:103D10008A01020F131FB8010E944E1E882389F3E7
:103D2000288139818C819D81B701820F931F0E9468
:103D3000EA331D830C8381E0DF91CF911F910F91B6
:103D4000FF90EF900895CF93DF9300D0CDB7DEB70B
:103D500069831A8241E050E0BE016F5F7F4F0E948D
:103D6000751E0F900F90DF91CF910895FB01448154
:103D70005581608171810C94751ECF93DF93EC01A6
:103D800088819981009711F00E949F2C19821882D6
:103D90001D821C821B821A82DF91CF910895CF93DE
:103DA000DF93EC01FB0144815581608171810E94A8
:103DB000751E811103C0CE010E94BD1ECE01DF9190
:103DC000CF910895EF92FF920F931F93CF93DF93BC
:103DD000EC017B018A01BA010E944E1E811104C0D0
:103DE000CE010E94BD1E07C01D830C83B7018881D0
:103DF00099810E94EA33CE01DF91CF911F910F91FB
:103E0000FF90EF900895CF93DF93EC01611571055A
:103E100059F0FB0101900020E9F73197AF01461BF3
:103E2000570B0E94E21E02C00E94BD1ECE01DF9110
:103E3000CF910895CF93DF93EC01FB01861797078D
:103E400061F0608171816115710529F044815581AE
:103E50000E94E21E02C00E94BD1ECE01DF91CF91E2
:103E60000895FC01808191810C949F2CEF92FF9228
:103E70000F931F93CF93DF93CDB7DEB7A1970FB604
:103E8000F894DEBF0FBECDBF7C01CB01BA01F701B4
:103E900011821082138212821582148242E0420F34
:103EA0008E010F5F1F4F0E94EA2BBC01C7010E94C9
:103EB000031FA1960FB6F894DEBF0FBECDBFDF91F2
:103EC000CF911F910F91FF90EF9008950F931F9343
:103ED000CF93DF93CDB7DEB762970FB6F894DEBF0E
:103EE0000FBECDBF8C01CB01F8011182108213826D
:103EF00012821582148250E0BE016F5F7F4F0E94D4
:103F0000472DBE016F5F7F4FC8010E94031F62965D
:103F10000FB6F894DEBF0FBECDBFDF91CF911F91DA
:103F20000F910895EF92FF920F931F93CF93DF931A
:103F3000EC01198218821B821A821D821C82611573
:103F4000710509F18B01CB010E943E2D7C01BC0162
:103F5000CE010E944E1E811109C0CE01DF91CF918A
:103F60001F910F91FF90EF900C94BD1EFD82EC828B
:103F7000B80188819981DF91CF911F910F91FF90B6
:103F8000EF900C94372DDF91CF911F910F91FF90FF
:103F9000EF900895FC011182108213821282158223
:103FA00014820C941A1FFC01118210821382128257
:103FB000158214826115710551F0FB0101900020FA
:103FC000E9F73197AF01461B570B0C94E21E089599
:103FD0000F931F93CF93DF93EC018B016BE971E09B
:103FE0000E94D31FC8010E947E1D97FD05C0682F47
:103FF000CE010E94A31EF6CFCE01DF91CF911F917B
:104000000F910895DC01ED91FC910190F081E02D7C
:104010000994EF92FF920F931F93CF93DF938C013C
:104020007B01C0E0D0E0F701EC0FFD1F6491662337
:1040300061F0D801ED91FC910190F081E02DC80173
:104040000995892B11F02196EECFCE01DF91CF910A
:104050001F910F91FF90EF9008956115710579F010
:10406000FB0101900020E9F73197AF01461B570B88
:10407000DC01ED91FC910280F381E02D099480E058
:1040800090E008954F925F926F927F92EF92FF922D
:104090000F931F93CF93DF93CDB7DEB7A1970FB6E2
:1040A000F894DEBF0FBECDBF7C01FA01CB0119A28F
:1040B000223008F42AE08E010F5D1F4F422E512C52
:1040C000612C712CBF01A30192010E94B032F90151
:1040D000CA01015011096A3014F4605D01C0695CC5
:1040E000D8016C93232B242B252B61F7B801C70132
:1040F0000E942D20A1960FB6F894DEBF0FBECDBF53
:10410000DF91CF911F910F91FF90EF907F906F9073
:104110005F904F900895CF93DF93CDB7DEB76E9742
:104120000FB6F894DEBF0FBECDBF789484B5826021
:1041300084BD84B5816084BD85B5826085BD85B54B
:10414000816085BD80916E00816080936E001092C9
:104150008100809181008260809381008091810044
:1041600081608093810080918000816080938000D5
:104170008091B10084608093B1008091B000816033
:104180008093B00080917A00846080937A0080915F
:104190007A00826080937A0080917A0081608093B7
:1041A0007A0080917A00806880937A001092C10032
:1041B000E091C902F091CA0282E08083E091C502D9
:1041C000F091C6021082E091C702F091C8028FEC14
:1041D00080831092D102E091CD02F091CE0286E070
:1041E0008083E091CB02F091CC028081806180835A
:1041F000E091CB02F091CC02808188608083E091D5
:10420000CB02F091CC02808180688083E091CB0268
:10421000F091CC0280818F7D808388EC90E0A0E0DB
:10422000B0E08093BD029093BE02A093BF02B09312
:10423000C00262E370E080E090E00E94171160E04D
:104240008CE00E94AB1066E873E0CE0101960E94FC
:10425000921F6CE773E0CE010D960E94921FBE0183
:10426000635F7F4FCE0107960E94CA1FBE016F5F3A
:104270007F4FCE0107960E94CF1E0E946E17CE017F
:1042800007960E94311FCE010D960E94311FCE016C
:1042900001960E94311F61E08CE00E94AB1060E04B
:1042A0008CE00E94AB100E9494064AE0BC01CE0153
:1042B00001960E94661F6AE773E0CE0107960E948E
:1042C000921F65E773E0CE0143960E94921FBE01E4
:1042D0006D5E7F4FCE010D960E94CA1FBE01695FC1
:1042E0007F4FCE010D960E94CF1E0E945C17BE012B
:1042F0006F5F7F4F0E94CF1E0E946E17CE010D96FA
:104300000E94311FCE0143960E94311FCE010796B5
:104310000E94311FCE0101960E94311F61E08CE0A6
:104320000E94AB101092B5031092B4031092B30325
:104330001092B2031092B1031092B0038DE991E094
:104340009093B7038093B6039091A603963108F03B
:1043500057C02DEB30E03093B1032093B0032BE92D
:1043600031E03093B3032093B2032CE231E0309379
:10437000B5032093B40320916800983050F031E0E9
:104380009E3008F430E081E001C0880F3A95EAF7EA
:1043900001C084E0822B80936800983038F09E3012
:1043A00040F0963148F020E030E008C02DE630E0E3
:1043B00005C02BE630E002C02CE630E03093AE03BF
:1043C0002093AD03983030F481E001C0880F9A95B6
:1043D000EAF70EC0292F30E09E3018F4285031093A
:1043E00002C02E50310981E001C0880F2A95EAF7FA
:1043F0008093AF038091B6039091B7030197F1F7D3
:104400008091B4039091B503892B21F18091DD0156
:104410009091DE0123E08A399207E1F0009711F0D4
:104420000E9421128091B8038E7F8093B80310926E
:10443000DC011092DB018AE993E09093DE01809326
:10444000DD01E091AD03F091AE0390818091AF0367
:10445000892B80836CE081E00E94DB1060E08CE0BF
:104460000E94AB106FEF70E084E993E00E944E1E53
:1044700062E080917F030E94DB1080E398EFAFEF52
:10448000BFEF8093830390938403A0938503B0933D
:10449000860360E08CE00E94AB100E9494064AE024
:1044A000BC01CE0101960E94661F63E773E0CE0156
:1044B00007960E94921F6EE673E0CE0143960E941B
:1044C000921FBE016D5E7F4FCE010D960E94CA1FE6
:1044D000BE01695F7F4FCE010D960E94CF1E0E94E4
:1044E0005C17BE016F5F7F4F0E94CF1E0E946E1748
:1044F000CE010D960E94311FCE0143960E94311FBE
:10450000CE0107960E94311FCE0101960E94311FF5
:1045100061E08CE00E94AB102AE2E22E22E0F22E53
:1045200004E610E0C8010E941D31F70181937F016C
:104530000F5F1F4F04371105A9F760E08CE00E9460
:10454000AB1089E193E00E94621661E08CE00E946A
:10455000AB100E941E060FED11E0E12CF12CC701FB
:104560000E941D31F80181938F01FFEFEF1AFF0ABE
:104570002BE4E216F10499F760E08CE00E94AB10A6
:1045800088E293E00E94621661E08CE00E94AB102A
:104590000E948E0560E08CE00E94AB100E949406A1
:1045A0004AE0BC01CE0101960E94661F6CE673E0F2
:1045B000CE0107960E94921F67E673E0CE014396F4
:1045C0000E94921FBE016D5E7F4FCE010D960E942C
:1045D000CA1FBE01695F7F4FCE010D960E94CF1E9C
:1045E0000E945C17BE016F5F7F4F0E94CF1E0E942A
:1045F0006E17CE010D960E94311FCE0143960E9488
:10460000311FCE0107960E94311FCE0101960E94F4
:10461000311F61E08CE00E94AB1060E08CE00E94F2
:10462000AB100E945C1661E08CE00E94AB100E940F
:1046300051116B017C0160E08CE00E94AB106FE3D4
:1046400073E08AE993E00E9409200E945C1661E011
:104650008CE00E94AB1061E871E0CE0107960E94E9
:10466000D31F44EF51E060E070E0CE0101960E945C
:104670008117BE01695F7F4FCE0101960E94AE1D7A
:104680008C01CE0101960E94311FCE0107960E9437
:10469000311F0F3F1F4F21F560E08CE00E94AB10EF
:1046A0006AE373E08AE993E00E9409200E945C16A5
:1046B00061E08CE00E94AB100E945111DC01CB0143
:1046C0008C199D09AE09BF0989389341A105B1052F
:1046D00010F260E08CE00E94AB108DE493E006C025
:1046E00060E08CE00E94AB108DE593E00E946216C2
:1046F00061E08CE00E94AB1061E08CE00E94AB10A6
:1047000060E08CE00E94AB100E9494064AE0BC017D
:10471000CE0101960E94661F69E473E0CE01079600
:104720000E94921F64E473E0CE0143960E94921FA0
:10473000BE016D5E7F4FCE010D960E94CA1FBE0165
:10474000695F7F4FCE010D960E94CF1E0E945C17BD
:10475000BE016F5F7F4F0E94CF1E0E946E17CE0179
:104760000D960E94311FCE0143960E94311FCE014B
:1047700007960E94311FCE0101960E94311F61E011
:104780008CE00E94AB1011E080913E0281110CC0C0
:104790000E94511160933A0270933B0280933C0255
:1047A00090933D0210933E020E945111C0903A0234
:1047B000D0903B02E0903C02F0903D02DC01CB0146
:1047C0008C199D09AE09BF0981319742A105B10538
:1047D00008F4B5C00E94511160933A0270933B02F5
:1047E00080933C0290933D020E9465158823B1F1AD
:1047F000809180038B3041F188F18551823070F5D2
:1048000060917A0370E080E090E00E94FB2F20E04E
:1048100030E040E853E40E945C306B017C01809101
:104820007B03682F70E080E090E00E94FD2F9B01E9
:10483000AC01C701B6010E9485312DEC3CEC4CEC7B
:104840005DE30E945C3007C060917A0370E080E015
:1048500090E00E94FB2F4B015C0106C0812C912C43
:1048600090ECA92E9FE7B92E0E946515882309F4C4
:1048700058C0809180038B3029F0E0F1855182305F
:1048800058F038C060917C0370E080E090E00E94B6
:10489000FB2F6B017C0134C000917C03602F6F778C
:1048A00070E080E090E00E94FD2F20E030E040E8E2
:1048B00053E40E945C306B017C0180917D03682F82
:1048C00070E080E090E00E94FD2F9B01AC01C701E9
:1048D000B6010E9485312DEC3CEC4CEC5DE30E946E
:1048E0005C306B017C0107FF0BC0F7FAF094F7F81E
:1048F000F09406C0C12CD12C80ECE82E8FE7F82E66
:10490000A5019401C501B4010E949732811109C02B
:10491000A7019601C701B6010E949732882309F4C6
:10492000A0C51092500260E08CE00E94AB1080EABB
:1049300093E00E94621661E08CE00E94AB1088E672
:1049400093E00E94371286E593E00E94371280912F
:104950005002882309F408C180914A02C09046029F
:10496000D0904702E0904802F0904902811141C086
:10497000A701960160912A0270912B0280912C026E
:1049800090912D020E94F62F18160CF4EDC0209184
:104990002E0230912F024091300250913102C70116
:1049A000B6010E94F62F18160CF4DEC010934A02CE
:1049B00060E08CE00E94AB1069EF73E089EB92E05D
:1049C0000E94092061E08CE00E94AB1060E08CE066
:1049D0000E94AB106091460270914702809148029C
:1049E000909149020E944F1761E08CE00E94AB1049
:1049F000BBC020912A0230912B0240912C02509191
:104A00002D02C701B6010E94F62F87FF4BC01092FE
:104A10004A0222E0B701A601CE010D960E94361F80
:104A20006CED73E0CE0101960E94921FBE016F5F94
:104A30007F4FCE0107960E94CA1FBE01635F7F4F62
:104A4000CE0107960E94CF1EBC01CE0143960E9464
:104A5000CA1FCE0107960E94311FCE0101960E9407
:104A6000311FCE010D960E94311FE12CF12CB701B0
:104A7000CE0101960E94BB04BE016D5E7F4FCE0148
:104A800001960E94AB06CE0101960E94311F8FEF66
:104A9000E81AF80AE5E0EE16F10449F7CE0143966C
:104AA0000E94311FC0904602D0904702E090480219
:104AB000F090490220912E0230912F024091300255
:104AC00050913102C701B6010E94923218160CF0C3
:104AD0004BC010924A0222E0B701A601CE010D960A
:104AE0000E94361F60EC73E0CE0101960E94921F77
:104AF000BE016F5F7F4FCE0107960E94CA1FBE01A5
:104B0000635F7F4FCE0107960E94CF1EBC01CE018E
:104B100043960E94CA1FCE0107960E94311FCE0104
:104B200001960E94311FCE010D960E94311FE12C8B
:104B3000F12CB701CE0101960E94BB04BE016D5E4F
:104B40007F4FCE0101960E94AB06CE0101960E94D6
:104B5000311FFFEFEF1AFF0A25E0E216F10449F7D3
:104B6000CE0143960E94311F80915002882309F4A0
:104B700008C180914F02C0904B02D0904C02E0904F
:104B80004D02F0904E02811141C0A7019601609143
:104B900032027091330280913402909135020E946A
:104BA000F62F18160CF4EDC0209136023091370222
:104BB0004091380250913902C701B6010E94F62F88
:104BC00018160CF4DEC010934F0260E08CE00E94D7
:104BD000AB106EE374E089EB92E00E94092061E083
:104BE0008CE00E94AB1060E08CE00E94AB10609102
:104BF0004B0270914C0280914D0290914E020E94A6
:104C00004F1761E08CE00E94AB10BBC020913202D4
:104C1000309133024091340250913502C701B60100
:104C20000E94F62F87FF4BC010924F0222E0B7017F
:104C3000A601CE010D960E94361F64E274E0CE01FB
:104C400001960E94921FBE016F5F7F4FCE010796B3
:104C50000E94CA1FBE01635F7F4FCE0107960E946C
:104C6000CF1EBC01CE0143960E94CA1FCE010796FB
:104C70000E94311FCE0101960E94311FCE010D9678
:104C80000E94311FE12CF12CB701CE0101960E9448
:104C9000BB04BE016D5E7F4FCE0101960E94AB0644
:104CA000CE0101960E94311F8FEFE81AF80AE5E065
:104CB000EE16F10449F7CE0143960E94311FC090D1
:104CC0004B02D0904C02E0904D02F0904E022091A9
:104CD0003602309137024091380250913902C701B3
:104CE000B6010E94923218160CF04BC010924F027F
:104CF00022E0B701A601CE010D960E94361F6BE09F
:104D000074E0CE0101960E94921FBE016F5F7F4F3B
:104D1000CE0107960E94CA1FBE01635F7F4FCE017E
:104D200007960E94CF1EBC01CE0143960E94CA1F67
:104D3000CE0107960E94311FCE0101960E94311FBD
:104D4000CE010D960E94311FE12CF12CB701CE014E
:104D500001960E94BB04BE016D5E7F4FCE0101969D
:104D60000E94AB06CE0101960E94311FFFEFEF1AA1
:104D7000FF0A25E0E216F10449F7CE0143960E94AE
:104D8000311F9091510280916B03911107C08111E5
:104D900034C080916D03882381F1B3C3882369F106
:104DA00080916D03882349F180915903882329F16B
:104DB0001092510260E574E0CE0107960E94921FA6
:104DC000E12CF12CB701CE0101960E94BB04BE017B
:104DD000695F7F4FCE0101960E94AB06CE0101961E
:104DE0000E94311F8FEFE81AF80AE5E0EE16F10491
:104DF00049F7CE0107960E94311F9091520280918F
:104E00005903911107C08823A1F180915B03882386
:104E100081F17AC381112DC080915B03882349F110
:104E200080916B03811125C0109252026CE674E0F0
:104E3000CE0107960E94921FE12CF12CB701CE0102
:104E400001960E94BB04BE01695F7F4FCE010196AF
:104E50000E94AB06CE0101960E94311FFFEFEF1AB0
:104E6000FF0A25E0E216F10449F7CE0107960E94F9
:104E7000311F8091570281110CC00E945111609323
:104E800053027093540280935502909356021093EC
:104E900057020E945111C0905302D0905402E090EA
:104EA0005502F0905602DC01CB018C199D09AE0928
:104EB000BF0981319742A105B10508F44DC00E9498
:104EC0005111609353027093540280935502909352
:104ED000560260E08CE00E94AB100E9494064AE00B
:104EE000BC01CE0143960E94661F6CE874E0CE01BF
:104EF0000D960E94921F67E874E0CE0101960E9411
:104F0000921FBE016F5F7F4FCE0107960E94CA1F9E
:104F1000BE01635F7F4FCE0107960E94CF1E0E94A5
:104F20005C17BE016D5E7F4F0E94CF1E0E946E1700
:104F3000CE0107960E94311FCE0101960E94311FBB
:104F4000CE010D960E94311FCE0143960E94311F63
:104F500061E08CE00E94AB1089EB92E00E94A00D12
:104F6000892B09F45FC060E08CE00E94AB100E94C6
:104F70005C1661E08CE00E94AB1069EB72E0CE0140
:104F800049960E94E81FCE0149960E940B1960E0E5
:104F90008CE00E94AB100E9494064AE0BC01CE0156
:104FA00001960E94661F69ED74E0CE0107960E948B
:104FB000921F64ED74E0CE0143960E94921FBE01E1
:104FC0006D5E7F4FCE010D960E94CA1FBE01695FC4
:104FD0007F4FCE010D960E94CF1E0E945C17BE012E
:104FE0006F5F7F4F0E94CF1E0E946E17CE010D96FD
:104FF0000E94311FCE0143960E94311FCE010796B9
:105000000E94311FCE0101960E94311F61E08CE0A9
:105010000E94AB10CE0149960E944F08CE014996DE
:105020000E94311F8091630281110CC00E945111B6
:1050300060935F02709360028093610290936202BA
:10504000109363020E945111C0905F02D0906002E1
:10505000E0906102F0906202DC01CB018C199D09A5
:10506000AE09BF0980319742A105B10508F4F6C128
:105070000E94511160935F027093600280936102FD
:105080009093620260E08CE00E94AB1066E974E0ED
:105090008AE993E00E9409200E945C1661E08CE09E
:1050A0000E94AB1064E871E0CE0107960E94D31F06
:1050B00040EE5EE260E070E0CE0101960E94811752
:1050C000BE01695F7F4FCE0101960E94AE1D7C013B
:1050D000CE0101960E94311FCE0107960E94311F1A
:1050E000EF20E09409F062C060E08CE00E94AB1019
:1050F0006DE874E08AE993E00E9409200E945C1642
:1051000061E08CE00E94AB1060E08CE00E94AB108C
:105110002AE041E050E060E070E08AE993E00E941C
:1051200042200E945C1661E08CE00E94AB1060E0BF
:105130008CE00E94AB106AE771E08AE993E00E947C
:105140002D200E945C1661E08CE00E94AB1040EEC6
:105150005EE260E070E0CE0101960E948117BE0120
:105160006F5F7F4F84E993E00E94151ECE01019688
:105170000E94311F67E871E0CE0101960E94D31FA3
:10518000BE016F5F7F4F84E993E00E94AE1D7C01FA
:10519000CE0101960E94311FEF20E09439F064E9BE
:1051A00073E0CE0149960E94CA1F06C06BE971E008
:1051B000CE0149960E94D31FE98CFA8CE114F104C8
:1051C00009F0A4C0CE0149960E940B1960E08CE062
:1051D0000E94AB100E9494064AE0BC01CE014396A7
:1051E0000E94661F6BEC74E0CE010D960E94921F28
:1051F00066EC74E0CE0101960E94921FBE016F5FC3
:105200007F4FCE0107960E94CA1FBE01635F7F4F8A
:10521000CE0107960E94CF1E0E945C17BE016D5EF4
:105220007F4F0E94CF1E0E946E17CE0107960E94EC
:10523000311FCE0101960E94311FCE010D960E94B2
:10524000311FCE0143960E94311F61E08CE00E9425
:10525000AB1063EC74E0CE0101960E94921FBE0178
:105260006F5F7F4FCE0149960E94AE1D7C01CE013B
:1052700001960E94311FF7FC57C02D8D3E8DA7016E
:105280004F5F5F4FBE01675E7F4FCE0101960E9468
:105290006A19BE016F5F7F4F8CE893E00E94151E74
:1052A000CE0101960E94311F61EC74E0CE0101969F
:1052B0000E94921FBE016F5F7F4F8CE893E00E94B7
:1052C000AE1D9C0140E050E06CE873E0CE01079613
:1052D0000E946A19BE01695F7F4F8CE893E00E94CB
:1052E000151ECE0107960E94311FCE0101960E9425
:1052F000311F60E08CE00E94AB108CE893E00E94CC
:105300006E1761E08CE00E94AB100EC0F701808147
:10531000882309F457CF082E000C990B0E94D03334
:10532000F70181937F01F2CF6DEB74E0CE0101961E
:105330000E94921FBE016F5F7F4FCE0149960E946F
:10534000AE1D7C01CE0101960E94311FF7FC7CC08E
:105350002D8D3E8D24503109A7014D5F5F4FBE0159
:10536000675E7F4FCE0101960E946A19BE016F5F92
:105370007F4FCE0149960E94151ECE0101960E94D4
:10538000311FCE0149960E940B1960E08CE00E940B
:10539000AB1066EB74E089EB92E00E94092061E0BB
:1053A0008CE00E94AB1060E08CE00E94AB100E9489
:1053B00094064AE0BC01CE0143960E94661F66EA4D
:1053C00074E0CE010D960E94921F61EA74E0CE0156
:1053D00001960E94921FBE016F5F7F4FCE0107961C
:1053E0000E94CA1FBE01635F7F4FCE0107960E94D5
:1053F000CF1E0E945C17BE016D5E7F4F0E94CF1EC4
:105400000E946E17CE0107960E94311FCE010196B1
:105410000E94311FCE010D960E94311FCE0143968E
:105420000E94311F61E08CE00E94AB10CE014996D2
:105430000E944F0860E08CE00E94AB100E945C1656
:1054400061E08CE00E94AB106BE971E08CE893E0C6
:105450000E94031FCE0149960E94311F0E94400EF8
:1054600093C910935002C0924602D0924702E09234
:105470004802F092490280924B0290924C02A09214
:105480004D02B0924E0260E08CE00E94AB1066E9E3
:1054900073E089EB92E00E94092061E08CE00E94B9
:1054A000AB1060E08CE00E94AB10609146027091FE
:1054B0004702809148029091490242E00E94711691
:1054C00061E08CE00E94AB1060E08CE00E94AB10C9
:1054D0006CE873E089EB92E00E94092061E08CE0C7
:1054E0000E94AB1060E08CE00E94AB1060914B0218
:1054F00070914C0280914D0290914E020E944F1784
:105500001ACA1093510279CC10935202B2CC8CE893
:1055100093E00E94311F84E993E00E94311F8AE6E4
:1055200091E090939B0380939A038AE993E00C9413
:1055300021121092BC021092BB0288EE93E0A0E010
:10554000B0E08093BD029093BE02A093BF02B093DF
:10555000C00228E531E03093BA022093B90225EC6D
:1055600030E03093C6022093C50224EC30E0309343
:10557000C8022093C70220EC30E03093CA02209387
:10558000C90221EC30E03093CC022093CB0222EC14
:1055900030E03093CE022093CD0226EC30E0309301
:1055A000D0022093CF021092D2021092D302109216
:1055B000D4021092D50210929D0310929C03809306
:1055C0009E0390939F03A093A003B093A1038AE648
:1055D00091E090939B0380939A031092B1031092F1
:1055E000B0031092B3031092B2031092B50310925D
:1055F000B4031092B7031092B6036091B8036E7FA4
:105600006D7F6093B8036695617081E068278BE0D9
:105610000E94AB1061E08BE00E94DB10E2E5F5E058
:10562000E491E093AA03EEE3F5E0E491F0E0EE0FFD
:10563000FF1FE15EFA4F859194919093AC038093A4
:10564000AB0360E08AE00E94DB108091B80381FD2B
:1056500004C061E08AE00E94AB108AE08093A60358
:10566000E1E5F5E0E491E093A703EDE3F5E0E491F3
:10567000F0E0EE0FFF1FE75DFA4F85919491909354
:10568000A9038093A8036BE971E084E993E00E9489
:10569000D31F6BE971E08CE893E00E94D31F88E090
:1056A00080937F038BE080938003EFE4F5E0E49147
:1056B000E0938103EBE3F5E0E491E093820380E87B
:1056C0009EE3A0E0B0E08093870390938803A093CB
:1056D0008903B0938A0381E18093680381E080931A
:1056E000690380936A0384EF91E0A0E0B0E08093C7
:1056F000760390937703A0937803B093790362E0E5
:1057000081E10E94DB10809168030E9482108093E7
:105710006B0390916A03992329F091E0811190E045
:1057200090936B030E94511160936E0370936F030B
:10573000809370039093710320916B0320936C030B
:1057400010926D03609372037093730380937403DC
:105750009093750382E18093560381E08093570311
:105760008093580384EF91E0A0E0B0E0809364035D
:1057700090936503A0936603B093670362E082E1B0
:105780000E94DB10809156030E948210809359037F
:1057900090915803992329F091E0811190E0909322
:1057A00059030E94511160935C0370935D038093D1
:1057B0005E0390935F032091590320935A03109244
:1057C0005B03609360037093610380936203909323
:1057D00063030895EF920F931F93CF93DF93E80134
:1057E00047FD02C034E001C034E1E42F440FFF0B59
:1057F000F7FF03C0F195E195F109E32E022F2E2F5B
:10580000AE010E94772DCE01DF91CF911F910F91B4
:10581000EF900895CF93DF938230910510F482E0EA
:1058200090E0E091C703F091C80320E030E0C0E0D1
:10583000D0E0309711F14081518148175907C0F0ED
:105840004817590761F482819381209719F09B834F
:105850008A832BC09093C8038093C70326C0211569
:10586000310519F04217530718F49A01BE01DF0100
:10587000EF010280F381E02DDCCF2115310509F124
:10588000281B390B2430310590F412968D919C9190
:1058900013976115710521F0FB019383828304C086
:1058A0009093C8038093C703FD01329644C0FD0165
:1058B000E20FF31F81939193225031092D933C9372
:1058C0003AC02091C5033091C603232B41F42091A7
:1058D0000201309103013093C6032093C503209148
:1058E0000001309101012115310541F42DB73EB77A
:1058F0004091040150910501241B350BE091C50333
:10590000F091C603E217F307A0F42E1B3F0B2817F4
:10591000390778F0AC014E5F5F4F2417350748F028
:105920004E0F5F1F5093C6034093C503819391931D
:1059300002C0E0E0F0E0CF01DF91CF9108950F9336
:105940001F93CF93DF93009709F48CC0FC0132972B
:10595000138212820091C7031091C803011511052B
:1059600081F420813181820F931F2091C5033091F2
:10597000C6032817390779F5F093C603E093C503EA
:1059800071C0D80140E050E0AE17BF0750F4129646
:105990002D913C911397AD012115310509F1D901E4
:1059A000F3CF9D01DA013383228360817181860FF9
:1059B000971F8217930769F4EC0128813981260F1C
:1059C000371F2E5F3F4F318320838A819B819383D2
:1059D0008283452B29F4F093C803E093C70342C0A8
:1059E0001396FC93EE931297ED01499159919E0104
:1059F000240F351FE217F30771F480819181840F22
:105A0000951F029611969C938E9382819381139693
:105A10009C938E931297E0E0F0E0D80112968D915E
:105A20009C911397009719F0F8018C01F6CF8D9196
:105A30009C9198012E5F3F4F820F931F2091C503C9
:105A40003091C6032817390769F4309729F410926A
:105A5000C8031092C70302C0138212821093C603B8
:105A60000093C503DF91CF911F910F910895FB0122
:105A7000DC0105900D920020E1F70895FC010590EE
:105A80000020E9F7809590958E0F9F1F089545326D
:105A9000510520F4423010F00C94522DFB0110827D
:105AA000CB010895BB274A3031F4992322F4BDE29B
:105AB000909581959F4F0C945E2DBB27FB01552738
:105AC000AA27880F991FAA1FA41710F0A41B83955B
:105AD0005051B9F7A05DAA3308F0A95DA1930097D2
