:100000000C949E010C94C6010C94C6010C94DD0E58
:100010000C94DD0E0C94DD0E0C94C6010C94C601FC
:100020000C94C6010C94C6010C94C6010C94C60134
:100030000C94C6010C94C6010C94C6010C94C60124
:100040000C94930E0C94C6010C94860D0C94600DC8
:100050000C94C6010C94C6010C94C6010C94C60104
:100060000C94C6010C94C601A5029E02B802AF0210
:10007000AB024F027002150200407A10F35A00A042
:10008000724E18090010A5D4E80000E87648170061
:1000900000E40B54020000CA9A3B000000E1F505A1
:1000A000000080969800000040420F000000A086EB
:1000B00001000000102700000000E803000000001D
:1000C0006400000000000A000000000001000000C1
:1000D00000002C76D888DC674F0823DFC1DFAE59DB
:1000E000E1B1B796E5E3E453C63AE651997696E86E
:1000F000E6C28426EB898C9B62ED407C6FFCEFBCF2
:100100009C9F40F2BAA56FA5F490055A2AF75C931C
:100110006B6CF9676DC11BFCE0E40D47FEF520E652
:10012000B500D0ED902E0300943577050080841E35
:10013000080000204E0A000000C80C333333330F90
:10014000986E12831141EF8D2114893BE65516CF2D
:10015000FEE6DB18D1844B381BF77C1D901DA4BB39
:10016000E424203284725E228100C9F124ECA1E5EE
:100170003D27683109006830090074310900743086
:100180000900496478094C656E0950686F6E650016
:10019000220D00220D0041542B434D47533D2200B8
:1001A00041542B434D47533D220041542B434D476F
:1001B000463D310D0041542B434D47463D310D0026
:1001C0004E756D62657220696E76616C696400536C
:1001D000656E6420534D53206661696C65640053FD
:1001E000656E6420534D53207375636365737300AC
:1001F0000D0A534D53203E3E000D0A4C6F616420A2
:10020000636F6E66696773000D0A4C6F61642070DE
:10021000686F6E65206C6973740041540D0A00416B
:10022000540D0A0041540D0A0041540D0A0053496F
:100230004D2072656164790053494D20756E617679
:1002400061696C61626C65000D0A536176652070AE
:10025000686F6E65206C697374000D0A5361766572
:1002600020636F6E666967730050686F6E6520412A
:10027000727261792057726F6E67000D0A5B636D51
:10028000645D20004A736F6E2053796E746178202C
:1002900057726F6E67000D0A48756D69203D20002A
:1002A0000D0A54656D70203D20004661696C6564DF
:1002B00020746F20726561642066726F6D204448FF
:1002C000542073656E736F7221000D0A50686F6E53
:1002D0006573000D0A436F6E666967730000000066
:1002E00000240027002A000000000800020100008E
:1002F00003040700000000000000000000000025CB
:100300000028002B00000000002300260029000424
:1003100004040404040404020202020202030303AC
:1003200003030301020408102040800102040810A6
:100330002001020408102000BD1CAF1C11241FBEA8
:10034000CFEFD8E0DEBFCDBF24E0A2E3B2E001C032
:100350001D92A730B207E1F712E0A0E0B1E0E8EEAD
:10036000FBE402C005900D92A233B107D9F711E06A
:10037000CDE9D1E004C02197FE010E947323CC395E
:10038000D107C9F70E94D5160C94E7250C940000FC
:10039000FC016481758120E030E026173707C9F041
:1003A000408151814115510529F0DA01A20FB31F97
:1003B0009C9101C090E0492F092E000C550B405331
:1003C00051094A30510510F09B3229F42F5F3F4FFD
:1003D000E4CF81E0089580E008952F923F924F92FC
:1003E0005F926F927F928F929F92AF92BF92CF92C5
:1003F000DF92EF92FF920F931F93CF93DF93CDB7CE
:10040000DEB76A970FB6F894DEBF0FBECDBFDC0132
:10041000ED91FC913197E830F10508F027C28B018E
:100420007C01EC5CFF4F0C947323FC01C280D380F1
:10043000E480F580A7019601C701B6010E949720CC
:10044000882319F063E871E0A1C020E030E0A90141
:10045000C701B6010E94972087FF08C06DE2C8015E
:100460000E946D0FF7FAF094F7F8F09420E030E076
:10047000A901C701B6010E949720882309F48AC008
:10048000A7019601C701B6010E942622A701960185
:100490000E94972081117EC06AE871E077C0DC017C
:1004A0001296ED90FC9013976BE5C8010E946D0FBA
:1004B000F701E280F380E114F10459F0B801C701BB
:1004C00002960E94ED01D701ED90FC90E114F10439
:1004D00011F46DE52FC06CE2C8010E946D0FEBCFE7
:1004E000FC01E280F3806BE7C8010E946D0FD70129
:1004F0001296ED90FC90139704C06CE2C8010E9424
:100500006D0FE114F104A9F0F70162817381C80154
:100510000E941E106AE3C8010E946D0FB801C70156
:1005200004960E94ED01D701ED90FC90E114F104D6
:1005300021F76DE7C8010E946D0F98C1FC0162812F
:100540007381C8010E941E1091C1DC0112966D9149
:100550007C9113971BC06DE2C8010E946D0FF701DB
:100560004281538164817581C8010E94D90F7EC187
:10057000FC0182819381A481B581892B8A2B8B2BED
:1005800019F46DE771E002C068E771E0C8010E94EC
:100590007E0F6CC120E836E948E15BE4C701B60193
:1005A0000E94332387FD5AC1412C512C70E2672EE3
:1005B000712C812C912CF201EA5CFE4F2489358943
:1005C00046895789C701B6010E94332387FD0FC0B2
:1005D000F201E25EFE4F2489358946895789C701B9
:1005E000B6010E94FD206B017C01860C971C75945E
:1005F0006794F4E04F1A510888EE48168FEF5806BA
:10060000D1F655245A9420E030E0A901C701B60183
:100610000E943323181694F52CEA35EC47E257E391
:10062000C701B6010E949720181644F1BFEF5B1670
:1006300029F1952DA4E09A0250011124F501EA5FF9
:10064000FE4F2081318142815381C701B6010E9452
:10065000972087FF0FC0F501EA5CFE4F20813181B2
:1006600042815381C701B6010E94FD206B017C01CC
:1006700086189708759467945A94D8CFC701B60125
:100680000E9404232B013C016B8B7C8B8D8B9E8BFA
:1006900046E0A42E80E492E4AFE0B0E08F8B988F28
:1006A000A98FBA8FBA2CAA24AA94AB0C8B899C89E7
:1006B000AD89BE890A97A105B105E8F06F89788DEB
:1006C000898D9A8D2AE030E040E050E00E9451236D
:1006D0002F8B388F498F5A8F6B897C898D899E89A2
:1006E0002AE030E040E050E00E9451232B8B3C8B0D
:1006F0004D8B5E8BD7CFC301B2010E949C209B0122
:10070000AC01C701B6010E9425226B017C016F89F3
:10071000788D898D9A8D0E949C209B01AC01C70128
:10072000B6010E94FD206B8B7C8B8D8B9E8B0E9473
:1007300004236B017C010E949C209B01AC016B890E
:100740007C898D899E890E9425229B01AC010E9493
:1007500026220E940423C60ED71EE81EF91E8F898A
:10076000988DA98DBA8DC816D906EA06FB0610F138
:100770009FEF491A590A690A790A8114910489F08C
:10078000AAE04A1651046104710458F0BFEF8B1AB5
:100790009B0AC12CD12C7601412C512C320143945F
:1007A00009C0C12CD12C760105C01B147CF4690151
:1007B0007A01BA94C701B6012AE030E040E050E087
:1007C0000E945123672B682B692B79F3AB2CB30163
:1007D000A201C8010E94D90FBB2041F1188A3E0135
:1007E000E0E16E0E711C7A8A698A2AE0222E312C91
:1007F000412C512CAA94BFEFAB1669F0C701B6018A
:10080000A20191010E945123605DD3016E933D01CD
:1008100069017A01EFCF69897A896B1971098EE2D2
:10082000FB018293BF01C8010E947E0F97FE0AC0A0
:1008300067E871E0C8010E947E0F66277727681974
:10084000790908C08114910489F065E6C8010E9405
:100850006D0FB401C8010E94AE0F08C080E2682E7F
:10086000712C95E0592E812C912CCDCE6A960FB625
:10087000F894DEBF0FBECDBFDF91CF911F910F91D6
:10088000FF90EF90DF90CF90BF90AF909F908F90B0
:100890007F906F905F904F903F902F900895FF92C0
:1008A0000F931F93CF93DF93CDB7DEB764970FB647
:1008B000F894DEBF0FBECDBF8C01CB016B8B7C8B60
:1008C0000E9494146B897C89CE0101960E941516B2
:1008D0008D819E81892B31F467EA71E0C8010E9405
:1008E0001E1684C0E981FA81309789F080818B32AD
:1008F00071F4F8011182108213821282158214821F
:10090000BE016F5F7F4FC8010E940D156FC066E981
:1009100071E0CE0107960E941E164B855C858D8185
:100920009E818417950778F089819A81009759F004
:100930006F8178856115710531F00E94BF25FF2414
:10094000F394892B09F0F12CCE0107960E94101622
:10095000FF2019F063E971E034C02D813E8121153B
:10096000310521F0E981FA81309721F410923E029D
:10097000EEE3F2E08081803311F541E050E0BE010A
:100980006F5F7F4FCE010D960E94331665E971E0CF
:10099000CE0107960E941E16BE01635F7F4FCE01F7
:1009A00007960E949B15BC01CE0101960E94F91585
:1009B000CE0107960E941016CE010D9614C065E96F
:1009C00071E0CE0107960E941E16BE016F5F7F4F39
:1009D000CE0107960E949B15BC01CE0101960E9494
:1009E000F915CE0107960E94101683CFCE0101960D
:1009F0000E941016C80164960FB6F894DEBF0FBEB1
:100A0000CDBFDF91CF911F910F91FF9008950F936C
:100A10001F93CF93DF938B01FC01C281D381209779
:100A2000A9F06A817B810115110519F06115710525
:100A300021F40617170731F409C0C8010E94AF2539
:100A4000892B21F00990D881C02DE9CFCE01DF910B
:100A5000CF911F910F910895CF92DF92EF92FF9265
:100A60000F931F93CF93DF938C017B01DC011596CD
:100A7000CD91DC9116976B016C177D0708F46E0120
:100A8000C60106960E948D23FC01892BB1F0D3820A
:100A9000C282D80113968D919C9114979183808383
:100AA0001496FC93EE931397CC0FDD1F1696DC93F0
:100AB000CE931597F582E4823696CF01DF91CF91E0
:100AC0001F910F91FF90EF90DF90CF900895FF92CC
:100AD0000F931F93CF93DF93EC01F62E88819981BA
:100AE000FC01A381B481109771F01496ED91FC91F3
:100AF00015979F012F5F3F4F12964D915C91139771
:100B00004217530758F52C813D81B9016F5F7F4F24
:100B10000E942C058C016A817B816115710549F069
:100B20000115110571F04C815D81C8010E94A62557
:100B300003C00115110529F0EC81FD81E00FF11FC3
:100B4000F0821B830A838C819D8101969D838C8317
:100B5000DF91CF911F910F91FF9008953696EA0F84
:100B6000FB1F15963C932E93149760838C819D8177
:100B7000892B49F7FB83EA83E6CFFC01A081B18191
:100B80008C918D3051F024F489508230B8F505C035
:100B9000803219F08F3219F0089511962CC01196F9
:100BA0008C9111978A3219F08F32D1F008951196F5
:100BB000B183A083A081B181CD010196918380830F
:100BC00011968C9111978823C9F08A3299F7129661
:100BD0008C9112978F3271F713960DC08A3071F293
:100BE000A081B181CD0101969183808311968C9172
:100BF0008111F4CF03C0B183A083C0CF08950F93B8
:100C00001F93CF93DF931F92CDB7DEB78C0169831B
:100C10000E94BD05D801ED91FC91119780816981F9
:100C2000861305C03196ED93FC9381E001C080E00E
:100C30000F90DF91CF911F910F9108958F929F9206
:100C4000AF92BF92FF920F931F93CF93DF930E94B7
:100C50000705FC01892B09F407C184819581833044
:100C600091053CF481309105C4F4892B09F4FCC052
:100C7000F6C08530910554F0059709F0F0C0668103
:100C80007781808591850E949C20E7C0668177816D
:100C9000808591850E949C20FEC0C681D7812097C7
:100CA00009F4E2C088818B3229F08D3221F421963B
:100CB00011E002C0219610E08881843709F4D8C081
:100CC0008F7D8E3409F4D9C0893409F47AC0F12CAF
:100CD00020E030E0A901FE01099180ED800F8A300B
:100CE000E8F42C3C8CEC38078CE048075105A4F460
:100CF000AAE0B0E00E94D421202F000F330B205334
:100D000031094901330FAA08BB089B01AC01280D2A
:100D1000391D4A1D5B1DDFCFF394DDCF0E3221F567
:100D2000EF012196FE01099180ED800F8A30E0F4F9
:100D30002C3C8CEC38078CE0480751059CF7AAE066
:100D4000B0E00E94D421202F000F330B2053310933
:100D50004901330FAA08BB089B01AC01280D391DBE
:100D60004A1D5B1DFA94DECF60816F7D8F2DFF0CD5
:100D7000990B6534C1F561816D3219F4329671E0D9
:100D800006C06B3211F0319601C0329670E0C0E0BF
:100D9000D0E00AE06191A0EDA60FAA30F0F40C9F1C
:100DA000D0010D9FB00D1124C62F660FDD0BE0970B
:100DB000CA0FDB1FDE01A80FB91F97975CF37111F3
:100DC00008C0112309F463C060E070E080E89FEF81
:100DD00062C0112309F448C055C0772331F0D19582
:100DE000C195D10902C0C0E0D0E0C80FD91FCA0127
:100DF000B9010E949E201C161D06ACF400E0C0FF45
:100E00000CC024E0029FF0011124EA5CFE4F208117
:100E10003181428153810E94FD20D595C7950F5F96
:100E2000209769F718C0D195C195D10900E02097A6
:100E300091F0C0FF0CC024E0029FF0011124E25E9B
:100E4000FE4F20813181428153810E94FD20D59542
:100E5000C7950F5FECCF1123F1F090581CC066814D
:100E600077818085918517C060E070E0CB0113C069
:100E700060E070E080E89FE30EC060E070E080EC2E
:100E80009FE709C060E070E080E090E804C060E0A7
:100E900070E080E89FE7DF91CF911F910F91FF9065
:100EA000BF90AF909F908F900895EF92FF921F9305
:100EB000CF93DF9300D000D000D0CDB7DEB77C0158
:100EC000DC0114968D919C9115979A8389831C82DD
:100ED0001B821E821D82C70102960E94BD05D7019A
:100EE0001296ED91FC9113971081173239F112325D
:100EF00029F180ED810F8A3078F081EA810F8C3101
:100F000058F08FEB810F8A3138F01B3229F083EDD6
:100F1000810F823008F044C0F701828193810196ED
:100F200093838283612FCE0101960E946705D701CA
:100F30001296ED91FC9113971081DBCF3196D7017A
:100F40001396FC93EE931297D7011296ED91FC91B4
:100F500013976081662321F1CF01019613969C932C
:100F60008E9312976117E1F06C35A9F46181ADE9B8
:100F7000B1E08C91882339F0861303C011966C91EF
:100F800002C01296F6CF662359F03296D701139617
:100F9000FC93EE931297CE0101960E946705D4CF81
:100FA00060E0CE0101960E9467058B819C812696A8
:100FB0000FB6F894DEBF0FBECDBFDF91CF911F916A
:100FC000FF90EF900895CF92DF92EF92FF920F93F0
:100FD0001F93CF93DF93CDB7DEB72C970FB6F8945E
:100FE000DEBF0FBECDBF8C016B01FB01E080F18045
:100FF000F1E0EF16F10461F4FB0162817381611588
:10100000710531F088EA91E00E94AF25892B89F0C3
:10101000F1E0EF1AF10882E0E816F10450F4F6016D
:10102000628173816115710521F0C8010E941E164D
:1010300023C067EA71E0CE0101967C010E941E1672
:10104000FC86EB86CE010B9698878F831A861986CD
:10105000BE01695F7F4FC6010E94ED01F801118258
:1010600010821382128215821482B701C8010E9475
:101070000D15C7010E941016C8012C960FB6F894E2
:10108000DEBF0FBECDBFDF91CF911F910F91FF90BB
:10109000EF90DF90CF900895CF92DF92EF92FF9282
:1010A0001F93CF93DF93CDB7DEB72C970FB6F8948D
:1010B000DEBF0FBECDBF7B01BC01CE0101960E94F9
:1010C0001516BE016F5F7F4FCE0107960E944F0439
:1010D000CE0101960E94101660EF71E089E093E066
:1010E0000E949A16CE0107960E94CA12C7010E945A
:1010F000CA12BE01695F7F4FCE0101960E9415168C
:10110000CE0101960E94C801182FCE0101960E94BF
:101110001016112309F4BAC0F701E080F180CF80E6
:10112000D88465EB71E080EC93E00E949A166AEA3D
:1011300071E089E093E00E949A1640ED57E060E08C
:1011400070E0CE0101960E94DD12BE016F5F7F4FFD
:101150008AEB93E00E940D15CE0101960E941016B5
:1011600060EA71E080EC93E00E949A1666E971E013
:1011700089E093E00E949A16B60180EC93E00E9409
:10118000D316B60189E093E00E94D31663E971E0BB
:1011900080EC93E00E949A1660E971E089E093E0A8
:1011A0000E949A1640ED57E060E070E0CE01019693
:1011B0000E94DD12BE016F5F7F4F8AEB93E00E94B9
:1011C0000D15CE0101960E941016B70180EC93E038
:1011D0000E94D316B70189E093E00E94D3166DEA0E
:1011E00071E080EC93E00E94D3166DEA71E089E033
:1011F00093E00E94D31640EE5EE260E070E0CE0124
:1012000001960E94DD12BE016F5F7F4F8AEB93E073
:101210000E940D15CE0101960E9410166AE180EC25
:1012200093E00E9493166AE189E093E00E9493168E
:1012300040EE5EE260E070E0CE0101960E94DD12B9
:10124000BE016F5F7F4F8AEB93E00E940D15CE01C8
:1012500001960E9410166FEA71E0CE0101960E947D
:101260001E16BE016F5F7F4F8AEB93E00E94F3145E
:101270007C01CE0101960E941016EF20E09449F403
:101280008FEC91E00E949E1110E007C080EC91E08D
:1012900002C08FED91E00E949E11CE0107960E9440
:1012A0001016812F2C960FB6F894DEBF0FBECDBF5F
:1012B000DF91CF911F91FF90EF90DF90CF90089535
:1012C000CF92DF92EF92FF920F931F93CF93DF9312
:1012D000CDB7DEB763970FB6F894DEBF0FBECDBFB4
:1012E0008C017B016630710508F06DC067EA71E022
:1012F000CE0101960E941E168FE08E9D60018F9D8B
:10130000D00C1124E12CF12CF701EC0DFD1DE15B5B
:10131000FD4F6081862F062E000C990B6B8B0E946F
:1013200089256B89892B21F0CE0101960E94AE158B
:10133000EFEFEE1AFE0AFFE0EF16F10429F7CE01F7
:1013400001960E949414BE016F5F7F4FCE010796F5
:101350000E941516CE0107960E94C801F82ECE01F4
:1013600007960E941016FF20E9F0BE016F5F7F4FC5
:10137000CE0107960E941516BE01695F7F4FCE0110
:101380000D960E944F04BE01635F7F4FCE01019610
:101390000E940D15CE010D960E941016CE010796E3
:1013A0000E941016F8011182108213821282158297
:1013B0001482BE016F5F7F4FC8010E940D15CE01E0
:1013C00001960E941016C80163960FB6F894DEBF0E
:1013D0000FBECDBFDF91CF911F910F91FF90EF9086
:1013E000DF90CF900895CF92DF92EF92FF92CF934C
:1013F000DF9300D000D000D0CDB7DEB782E891E017
:101400000E949E11C12CD12C7601B601CE0101960D
:101410000E9460094AE0C701B6010E94AD1166EA68
:1014200071E089E093E00E94D3166D817E8180E0B7
:1014300090E04AE00E94AD1166EA71E089E093E035
:101440000E94D31669817A8189E093E00E94D316C5
:101450000E949811CE0101960E9410168FEFC81AB3
:10146000D80AE80AF80A85E0C816D104E104F104B4
:1014700061F626960FB6F894DEBF0FBECDBFDF91A2
:10148000CF91FF90EF90DF90CF900895CF93DF93AF
:101490006EE771E089E093E00E949A16CAE9D2E013
:1014A000688179818A819B810E9429136AE771E0B2
:1014B00089E093E00E949A166C817D818E819F81E4
:1014C0000E94291366E771E089E093E00E949A1672
:1014D000688579858A859B850E94291362E771E07A
:1014E00089E093E00E949A166C857D858E859F85A4
:1014F000DF91CF910C9429138091360281110BC09A
:10150000109233021092320210923502109234027D
:1015100081E08093360282E392E00895DB01109728
:1015200049F0ED91FC9111970190F081E02DBC0103
:10153000CD01099480E090E008959F92AF92BF9210
:10154000CF92DF92EF92FF920F931F93CF93DF938F
:1015500000D000D000D0CDB7DEB7FC01968191114C
:1015600012C08091430281110BC010924002109270
:101570003F02109242021092410281E080934302A6
:101580000FE312E09BC07F0191509683008111818F
:10159000B80184E090E00E948E0A009739F0FC01C7
:1015A00011830083138212828C0111C08091430247
:1015B00081110BC01092400210923F021092420221
:1015C0001092410281E0809343020FE312E0670131
:1015D000F2E0CF0ED11C6BE7C6010E94FF05882305
:1015E00009F4BFCF6DE7C6010E94FF05811162C0FB
:1015F00086E0982EC7010E9455075C01892B09F4EB
:10160000B0CF6AE3C6010E94FF05882309F4A9CF81
:101610001A821982BE016F5F7F4FC7010E94A41317
:10162000882309F49ECFB501C8010E940705DC019B
:10163000892B59F5F801608171818AE090E00E9460
:101640008E0ADC01892B39F011961C921E92159698
:101650001C921E921497F8012281338121153105C5
:1016600051F0F90180819181009711F09C01F9CF2F
:10167000B183A08303C0F801B383A283109709F458
:1016800070CF1396BC92AE921297FE0131961496CB
:10169000892D01900D928A95E1F76DE7C6010E94B0
:1016A000FF05811107C06CE2C6010E94FF05811190
:1016B000A1CF57CFF70186818F5F8683C801269619
:1016C0000FB6F894DEBF0FBECDBFDF91CF911F9153
:1016D0000F91FF90EF90DF90CF90BF90AF909F90D1
:1016E0000895FC01538D448D252F30E0842F90E028
:1016F000821B930B541710F0CF960895019708950D
:10170000FC01918D828D981761F0828DDF01A80F09
:10171000B11D5D968C91928D9F5F9F73928F90E02B
:1017200008958FEF9FEF0895FC01918D828D98179A
:1017300031F0828DE80FF11D858D90E008958FEFD7
:101740009FEF0895FC01918D228D892F90E0805CA0
:101750009F4F821B91098F739927089589E093E029
:101760000E94A20B21E0892B09F420E0822F08952A
:10177000FC01848DDF01A80FB11DA35ABF4F2C912E
:10178000848D90E001968F739927848FA689B789FD
:101790002C93A089B1898C9180648C93938D848DD6
:1017A000981306C00288F389E02D80818F7D8083A5
:1017B0000895EF92FF920F931F93CF93DF93EC0165
:1017C00081E0888F9B8D8C8D981305C0E889F989FD
:1017D000808185FD24C0F62E0B8D10E00F5F1F4F1A
:1017E0000F731127E02E8C8DE8120CC00FB607FC8A
:1017F000FACFE889F989808185FFF5CFCE010E9473
:10180000B80BF1CF8B8DFE01E80FF11DE35AFF4FAE
:10181000F0820B8FEA89FB898081806207C0EE89A4
:10182000FF896083E889F98980818064808381E011
:1018300090E0DF91CF911F910F91FF90EF9008956D
:10184000CF93DF93EC01888D8823C9F0EA89FB8967
:10185000808185FD05C0A889B9898C9186FD0FC05E
:101860000FB607FCF5CF808185FFF2CFA889B98933
:101870008C9185FFEDCFCE010E94B80BE7CFDF91B1
:10188000CF91089580E090E0892B29F00E94AE0B63
:1018900081110C9400000895833081F028F4813088
:1018A00099F08230A1F008958730A9F08830B9F01E
:1018B0008430D1F4809180008F7D03C080918000BE
:1018C0008F7780938000089584B58F7702C084B5A8
:1018D0008F7D84BD08958091B0008F7703C0809183
:1018E000B0008F7D8093B00008953FB7F894809149
:1018F000050390910603A0910703B091080326B554
:10190000A89B05C02F3F19F00196A11DB11D3FBF37
:10191000BA2FA92F982F8827820F911DA11DB11DC5
:10192000BC01CD0142E0660F771F881F991F4A95C1
:10193000D1F7089520914D0230914E0228173907B2
:1019400071F490914B0280914C02981741F0E09114
:101950004B02F0E0E054FD4F808190E008958FEF5E
:101960009FEF089508951F93CF93DF93DC015C965A
:101970002D913C915D972115310539F481E090E07E
:1019800013969C938E9312973DC05196ED91FC91C6
:10199000529750969C915097892F80951FB75E96CD
:1019A0004C915E9741FB772770F941FD6095F89463
:1019B0004081772311F0492B01C048234083E9017E
:1019C0002197F1F748E0508160FF02C0592B01C018
:1019D00058235083E9012197F1F76695415099F713
:1019E000772321F090818923808303C08081982B05
:1019F00090831FBF5C968D919C915D970197F1F745
:101A000021E030E0C901DF91CF911F91089520912D
:101A10004D0230914E022817390771F480914C0223
:101A200020914B0290E0805C9F4F821B910960E403
:101A300070E00E943D23089580E090E00895209199
:101A40004D0230914E0228173907B9F490914B029C
:101A500080914C02981789F0E0914B02F0E0E0543D
:101A6000FD4F808120914B0230E02F5F3F4F2F735D
:101A7000332720934B0290E008958FEF9FEF089556
:101A8000089580E090E008950E948425DC0113967B
:101A9000ED91FC911497309751F024813581AB0181
:101AA000420F531FA281B381A417B50710F40C9401
:101AB0002C05C9010696558344838E0F9F1F0895F8
:101AC0001F920F920FB60F9211242F933F934F93B3
:101AD0005F936F937F938F939F93AF93BF93EF9396
:101AE000FF9389E093E00E94B80BFF91EF91BF91C3
:101AF000AF919F918F917F916F915F914F913F91A6
:101B00002F910F900FBE0F901F9018951F920F925C
:101B10000FB60F9211242F938F939F93EF93FF9300
:101B2000E0911903F0911A038081E0911F03F09175
:101B3000200382FD12C09081809122038F5F8F73FA
:101B400020912303821751F0E0912203F0E0E75F38
:101B5000FC4F958F8093220301C08081FF91EF910C
:101B60009F918F912F910F900FBE0F901F901895FE
:101B7000CF93DF93282F30E0F901E951FD4F849195
:101B8000F901ED5DFC4FD491F901E15FFC4FC49187
:101B9000CC2391F081110E944C0CEC2FF0E0EE0F61
:101BA000FF1FEB5FFC4FA591B491EC91ED2381E019
:101BB00090E021F480E002C080E090E0DF91CF91DE
:101BC00008951F93CF93DF93282F30E0F901E95157
:101BD000FD4F8491F901ED5DFC4FD491F901E15F76
:101BE000FC4FC491CC23C9F0162F81110E944C0CDC
:101BF000EC2FF0E0EE0FFF1FE550FD4FA591B491E3
:101C00008FB7F894111105C09C91ED2FE095E92351
:101C100002C0EC91ED2BEC938FBFDF91CF911F9120
:101C20000895CF93DF9390E0FC01ED5DFC4F24918C
:101C3000FC01E15FFC4F8491882361F190E0880F03
:101C4000991FFC01E352FD4FC591D491FC01E55071
:101C5000FD4FA591B491611109C09FB7F894888197
:101C6000209582238883EC912E230BC0623061F48F
:101C70009FB7F8943881822F809583238883EC91D5
:101C80002E2B2C939FBF06C08FB7F894E8812E2B84
:101C900028838FBFDF91CF9108958F929F92AF924B
:101CA000BF92CF92DF92EF92FF926B017C010E9474
:101CB000750C4B015C01C114D104E104F104F1F095
:101CC0000E94750CDC01CB0188199909AA09BB098E
:101CD000883E9340A105B10570F321E0C21AD108F6
:101CE000E108F10888EE880E83E0981EA11CB11C63
:101CF000C114D104E104F10419F7DDCFFF90EF9096
:101D0000DF90CF90BF90AF909F908F9008952FB7A6
:101D1000F894609101037091020380910303909104
:101D200004032FBF08951F920F920FB60F92112434
:101D30002F933F938F939F93AF93BF938091010312
:101D400090910203A0910303B0910403309100032A
:101D500023E0230F2D3720F40196A11DB11D05C0EE
:101D600026E8230F0296A11DB11D20930003809346
:101D7000010390930203A0930303B09304038091A3
:101D8000050390910603A0910703B0910803019603
:101D9000A11DB11D8093050390930603A093070333
:101DA000B0930803BF91AF919F918F913F912F9175
:101DB0000F900FBE0F901F9018951F920F920FB6A5
:101DC0000F9211242F933F934F935F936F937F93C1
:101DD0008F939F93AF93BF93EF93FF93E0914D0247
:101DE000F0914E02309709F451C0968DA685B785C3
:101DF000858591FF04C09C91892329F447C09C915B
:101E0000892309F043C0A389B4899C918589809571
:101E100089238C93868997890197F1F7608D718D5D
:101E2000A685B785558538E020E0CB010197F1F70D
:101E3000822F90E095958795282F4C91452309F0A6
:101E40002068315091F7868D81FD209580914C025C
:101E500090E001968F73992730914B02381749F023
:101E6000A0914C02B0E0A054BD4F2C9380934C0243
:101E700003C0868D8160868F828D938D0197F1F7E7
:101E8000A389B4899C918589892B8C93FF91EF91CB
:101E9000BF91AF919F918F917F916F915F914F9182
:101EA0003F912F910F900FBE0F901F901895E091CA
:101EB0004D02F0914E02E817F90769F4A389B4893D
:101EC0009C918589809589238C9310924E02109263
:101ED0004D0281E0089580E00895CF93DF93EC01F7
:101EE000E881F981808191810E94AE158A819B8170
:101EF00001969B838A83DF91CF910895EF92FF92A1
:101F00000F931F93CF93DF93EC01E880F980D70103
:101F10008D919C91FC01048115816115710551F031
:101F2000FB0101900020E9F73197AF01461B570BE9
:101F30000E946D15D701ED91FC91848195812A81D4
:101F40003B81280F391F201B310B3B832A83DF91F4
:101F5000CF911F910F91FF90EF9008950F931F93D2
:101F6000CF93DF93CDB7DEB766970FB6F894DEBF99
:101F70000FBECDBF8C01CB011E8AFE0176962AE0F2
:101F800030E0B9010E943D2390E3980F9293CB017A
:101F90000097B9F7BF01C8010E947E0F66960FB681
:101FA000F894DEBF0FBECDBFDF91CF911F910F918F
:101FB00008958F929F92AF92BF92EF92FF920F93EC
:101FC0001F93CF93DF93CDB7DEB766970FB6F89424
:101FD000DEBF0FBECDBF7C011E8A8E010A5E1F4F81
:101FE0008AE0882E912CA12CB12CCB01BA01A5013D
:101FF00094010E945123942F852F605DF801629314
:102000008F01A901692F782F4115510561057105CF
:1020100061F7BF01C7010E947E0F66960FB6F89464
:10202000DEBF0FBECDBFDF91CF911F910F91FF900B
:10203000EF90BF90AF909F908F900895FF920F9375
:102040001F93CF93DF936115710549F468EA71E03E
:10205000DF91CF911F910F91FF900C947E0F8B0118
:10206000EC0162E2CE010E946D0FF80161918F01D7
:10207000662351F0E9E9F1E0F080FF2099F39181C6
:10208000961759F03296F8CF62E2CE01DF91CF91E8
:102090001F910F91FF900C946D0F6CE5CE010E9483
:1020A0006D0F6F2DDFCF8F929F92AF92BF92CF9225
:1020B000DF92EF92FF92CF93DF93A091AD0388233D
:1020C00011F03A2F01C030E08091AE0390E0880F0C
:1020D000991F8B5F9C4FC090B303D090B403E090E6
:1020E000B503F090B60340E050E0BA01FC01C591A1
:1020F000D49128812A2323130FC04A015B012FEFBB
:10210000821A920AA20AB20A4C155D056E057F0575
:1021100038F4B501A401EACF342F252FCB0104C038
:1021200030E020E080E090E0632F722FDF91CF91CC
:10213000FF90EF90DF90CF90BF90AF909F908F90E7
:102140000895CF92DF92EF92FF920F931F93CF9358
:10215000DF93CDB7DEB7C054D1400FB6F894DEBFE1
:102160000FBECDBF0E94870E0091AF031091B00348
:102170002091B1033091B2036B017C01C01AD10AE6
:10218000E20AF30A40EDC41647E0D406E104F10484
:1021900018F48091B703BCC06093AF037093B00391
:1021A0008093B1039093B2031092AA031092A903F3
:1021B0001092A8031092A7031092A60361E08091E9
:1021C000AB030E94E10D6AEF70E080E090E00E94B6
:1021D0004D0E61E08091AB030E94110E60E0809192
:1021E000AB030E94E10D64E170E080E090E00E94AA
:1021F0004D0EF89461E08091AB030E94E10D8BE9F4
:1022000090E00197F1F762E08091AB030E94110E1C
:1022100083E290E00197F1F780E00E945310672B72
:10222000682B692B21F41092B70378943EC081E0AB
:102230000E945310672B682B692BA9F38E010F5F47
:102240001F4F6E018FEBC81A8EEFD80A780180E01D
:102250000E945310F701608371838283938381E02E
:102260000E945310F7016483758386839783F8E097
:10227000EF0EF11CEC14FD0451F7789420E030E0EF
:10228000F8014081518162817381C480D580E680EC
:10229000F780411551056105710529F0C114D1047C
:1022A000E104F10421F41092B70380E031C0F90198
:1022B00083E0F595E7958A95E1F7EA55FC4F808133
:1022C000880F4C155D056E057F0508F481608083DD
:1022D0002F5F3F4F085F1F4F2832310589F620914D
:1022E000AA0330E04091A6038091A70390E0840FF9
:1022F000911D4091A803840F911D4091A903840F63
:10230000911D99272817390771F681E08093B7034B
:10231000C05CDE4F0FB6F894DEBF0FBECDBFDF91BD
:10232000CF911F910F91FF90EF90DF90CF90089584
:1023300063E272E089E093E00C94BE16CF93DF93E2
:10234000BC0189E093E00E949A16EC010E9498116A
:102350008C0F9D1FDF91CF9108958F929F92AF9226
:10236000BF920F931F93CF93DF93CDB7DEB7A197A3
:102370000FB6F894DEBF0FBECDBF19A2423008F4ED
:102380004AE08E010F5D1F4F842E912CA12CB12CA1
:10239000A50194010E945123E62FB901CA01015001
:1023A0001109EA3014F4E05D01C0E95CD801EC9356
:1023B000232B242B252B61F7B80189E093E00E94A1
:1023C000BE16A1960FB6F894DEBF0FBECDBFDF914B
:1023D000CF911F910F91BF90AF909F908F900895D4
:1023E0004F925F926F927F928F929F92AF92BF9225
:1023F000CF92DF92EF92FF926B017C01B42E9B0192
:10240000AC010E943823882319F066E272E027C0ED
:1024100026013701E89477F82FEF3FEF4FE75FE7AA
:10242000C301B2010E94382381110DC02FEF3FEF8D
:102430004FE75FE7C301B2010E94972018161CF412
:102440006AE272E00CC02FEF3FEF4FE75FE4C70195
:10245000B6010E943323181694F46EE272E089E00C
:1024600093E0FF90EF90DF90CF90BF90AF909F9060
:102470008F907F906F905F904F900C94BE162FEFCF
:102480003FEF4FE75FECC701B6010E94972087FD41
:10249000E4CF20E030E0A901C701B6010E949720F7
:1024A00087FF0BC06DE289E093E00E9493164C0118
:1024B000F7FAF094F7F8F09402C0812C912CA12C3B
:1024C00060E070E080E09FE3AB1441F020E030E09A
:1024D00040E251E40E949222A394F6CF9B01AC010A
:1024E000C701B6010E9426222B013C010E94042351
:1024F0006B017C010E949C209B01AC01C301B201D5
:102500000E9425222B013C014AE0C701B6010E942E
:10251000AD117C01E80CF91CBB2039F06EE289E0BA
:1025200093E00E949316E80EF91EDB2CDD2021F1CA
:1025300020E030E040E251E4C301B2010E94FD20FE
:102540002B013C010E9404234B01A12CB12C4AE039
:10255000C501B4010E94AD11E80EF91EC501B40118
:102560000E949C209B01AC01C301B2010E94252264
:102570002B013C01DA94DACFC701FF90EF90DF9096
:10258000CF90BF90AF909F908F907F906F905F9013
:102590004F900895CF93DF93FC0144815581608172
:1025A000718189E093E00E943713EC010E94981139
:1025B0008C0F9D1FDF91CF910895CF92DF92EF9204
:1025C000FF92CF93DF93EC016A017B011092B90374
:1025D0001092B80380EC93E00E94070D892BE9F478
:1025E0008091B8039091B903092E000CAA0BBB0B84
:1025F0008C159D05AE05BF0584F46DE070E080E0AC
:1026000090E00E944D0E8091B8039091B90301961D
:102610009093B9038093B803DDCF80EC93E00E94E0
:10262000070D892B49F060EC73E0CE010E9479160A
:10263000CE010E94CA1205C067EA71E0CE010E9475
:102640001E16CE01DF91CF91FF90EF90DF90CF90DB
:102650000895CF93DF9342E00E94F011EC010E94B5
:1026600098118C0F9D1FDF91CF9108950895CF92FF
:10267000DF92EF92FF920F931F93CF93DF936C0142
:102680007A018B01C0E0D0E0CE15DF0589F0D801DA
:102690006D918D01D601ED91FC910190F081E02DBD
:1026A000C6010995892B11F47E0102C02196ECCF59
:1026B000C701DF91CF911F910F91FF90EF90DF90B5
:1026C000CF900895CF93DF93EC0188819981009793
:1026D00011F00E942224198218821D821C821B8202
:1026E0001A82DF91CF9108950F931F93CF93DF93B9
:1026F000EC010E94870E688779878A879B87E8812B
:10270000F9810284F385E02DCE01099597FF17C06A
:102710000E94870E088519852A853B85DC01CB013F
:10272000801B910BA20BB30B0C811D812E813F816D
:1027300080179107A207B30710F38FEF9FEFDF9188
:10274000CF911F910F9108959F92AF92BF92CF9218
:10275000DF92EF92FF920F931F93CF93DF9300D0FE
:1027600000D000D0CDB7DEB77C016B015C0182E008
:10277000A80EB11CC5010E94BD05D7011296ED91AE
:10278000FC91139780818B3521F08B3709F48AC037
:1027900094C0F7018681882309F46FC08150868335
:1027A00000811181B80184E090E00E948E0A0097B8
:1027B00009F4A4C0FC0111830083138212828C01EE
:1027C0006BE5C5010E94FF05882309F456C06DE53D
:1027D000C5010E94FF05811148C086E0982E1A822B
:1027E0001982BE016F5F7F4FC7010E94A413882327
:1027F00009F443C0D8016D917C9188E090E00E947B
:102800008E0ADC01892B39F011961C921E921396C8
:102810001C921E921297F8012281338121153105F5
:1028200051F0F90180819181009711F09C01F9CF5D
:10283000B183A08303C0F801B383A2831097E9F0AA
:10284000FE0131961296892D01900D928A95E1F73D
:102850006DE5C5010E94FF05811107C06CE2C5014D
:102860000E94FF058111BBCF08C0D70116968C913D
:1028700016978F5F16968C9303C00E947C0A8C017A
:10288000F80180819181892B11F410E03AC086E033
:1028900090E0D60111969C938E9313961C930E9301
:1028A00012972AC0C7010E949D0AFC012081318134
:1028B000232B59F327E030E017C011E0873219F0DD
:1028C000823209F010E0C7010E9455070097E9F233
:1028D000112341F022E030E0F6013183208393831D
:1028E00082830FC021E030E0D60111963C932E93F5
:1028F00013969C938E93129711E003C00E947C0A5A
:102900005ECF812F26960FB6F894DEBF0FBECDBFE7
:10291000DF91CF911F910F91FF90EF90DF90CF90BB
:10292000BF90AF909F900895AF92BF92CF92DF92E9
:10293000EF92FF920F931F93CF93DF93DC01CD9023
:10294000DC901197C114D10409F442C01496CD91C2
:10295000DC9115972097E1F18C0156017501BFEFCD
:10296000AB1ABB0AF7018081082E000C990B0E945C
:102970008E20892B99F72197CC0DDD1D8881082E9B
:10298000000C990B0E948E20892B91F4AE014F5FB1
:102990005F4F4E195F09D80115965C934E931497BB
:1029A000CE14DF0450F4B701C6010E94A62505C06D
:1029B000CE15DF0558F32197E1CFD801ED91FC91B9
:1029C000119714968D919C911597E80FF91F10821D
:1029D000DF91CF911F910F91FF90EF90DF90CF90FB
:1029E000BF90AF900895CF93DF93FC012481358190
:1029F000232B71F0FB01DC01CD91DC9160817181B1
:102A0000CE010E94CD25009719F08C1B9D0B02C0B2
:102A10008FEF9FEFDF91CF9108950F931F93CF9387
:102A2000DF938C01EB01FC01808191810097B1F073
:102A3000688179816115710579F0428153812C811A
:102A40003D814217530740F00E94B8258C819D813B
:102A5000F8019583848313C00E9422248881998180
:102A6000F801918380838A819B81938382838C8107
:102A70009D8195838483198218821B821A821D820C
:102A80001C82DF91CF911F910F9108950F931F9397
:102A9000CF93DF93EC0188819981009729F02A81F7
:102AA0003B812617370788F48B016F5F7F4F0E94A9
:102AB000BA24009761F0998388831B830A832C8151
:102AC0003D81232B11F4FC01108281E001C080E0E4
:102AD000DF91CF911F910F910895EF92FF920F9385
:102AE0001F93CF93DF93FC0124813581611571051C
:102AF00011F480E019C041155105A9F07B01EC01EA
:102B00008A01020F131FB8010E944615882389F31A
:102B1000288139818C819D81B701820F931F0E948A
:102B2000B8251D830C8381E0DF91CF911F910F9118
:102B3000FF90EF900895CF93DF93EC01FB01448168
:102B40005581608171810E946D15811103C0CE0194
:102B50000E946213CE01DF91CF910895CF93DF934E
:102B600000D0CDB7DEB769831A8241E050E0BE01E4
:102B70006F5F7F4F0E946D150F900F90DF91CF9187
:102B80000895EF92FF920F931F93CF93DF93EC0181
:102B90007B018A01BA010E944615811104C0CE0151
:102BA0000E94621307C01D830C83B701888199813D
:102BB0000E94B825CE01DF91CF911F910F91FF9018
:102BC000EF900895CF93DF93EC016115710559F0F3
:102BD000FB0101900020E9F73197AF01461B570B2D
:102BE0000E94C11502C00E946213CE01DF91CF91F5
:102BF0000895CF93DF93EC01FB018617970761F0EF
:102C0000608171816115710529F0448155810E94AF
:102C1000C11502C00E946213CE01DF91CF910895C9
:102C2000FC01808191810C942224FC01118210828C
:102C300013821282158214820C94F915FC01118200
:102C4000108213821282158214826115710551F06F
:102C5000FB0101900020E9F73197AF01461B570BAC
:102C60000C94C1150895BF92CF92DF92EF92FF921C
:102C70000F931F93CF93DF937C016B018A01E901CE
:102C80002417350720F4812F8901C42FD82F67EA34
:102C900071E0C7010E941E16D60114968D919C9179
:102CA000159708171907D0F48C179D0708F4EC0145
:102CB000D601ED91FC911197EC0FFD1FB0801082B1
:102CC0004D915C91BA01600F711FC7010E94E2151E
:102CD000D601ED91FC91EC0FFD1FB082C701DF9191
:102CE000CF911F910F91FF90EF90DF90CF90BF9009
:102CF00008950F931F93CF93DF93EC018B0167EA45
:102D000071E00E941E16C8010E94741397FD05C051
:102D1000682FCE010E94AE15F6CFCE01DF91CF9184
:102D20001F910F910895DC01ED91FC910190F081CC
:102D3000E02D0994EF92FF920F931F93CF93DF93AF
:102D40008C017B01C0E0D0E0F701EC0FFD1F649126
:102D5000662361F0D801ED91FC910190F081E02DA6
:102D6000C8010995892B11F02196EECFCE01DF9194
:102D7000CF911F910F91FF90EF900895611571050C
:102D800079F0FB0101900020E9F73197AF01461B74
:102D9000570BDC01ED91FC910280F381E02D099449
:102DA00080E090E008950C94BE16CF93DF93CDB7EA
:102DB000DEB7C154D1090FB6F894DEBF0FBECDBF48
:102DC000789484B5826084BD84B5816084BD85B506
:102DD000826085BD85B5816085BD80916E00816012
:102DE00080936E00109281008091810082608093B8
:102DF00081008091810081608093810080918000BA
:102E00008160809380008091B10084608093B100E4
:102E10008091B00081608093B00080917A008460DE
:102E200080937A0080917A00826080937A0080910A
:102E30007A00816080937A0080917A008068809324
:102E40007A001092C100E0911903F0911A0382E018
:102E50008083E0911503F09116031082E09117032F
:102E6000F09118038FEC808310922103E0911D03F1
:102E7000F0911E0386E08083E0911B03F0911C0318
:102E8000808180618083E0911B03F0911C0380812D
:102E900088608083E0911B03F0911C03808180682F
:102EA0008083E0911B03F0911C0380818F7D8083E0
:102EB00084E690E0A0E0B0E080930D0390930E03D1
:102EC000A0930F03B093100362E370E080E090E002
:102ED0000E944D0E64EB71E089E093E00E94BE1603
:102EE0000E9498111092DB031092DA031092D9031A
:102EF0001092D8031092D7031092D6038DE991E077
:102F00009093DD038093DC039091CC03963108F01D
:102F100057C02DEB30E03093D7032093D6032BE935
:102F200031E03093D9032093D8032CE231E0309381
:102F3000DB032093DA0320916800983050F031E0F1
:102F40009E3008F430E081E001C0880F3A95EAF73E
:102F500001C084E0822B80936800983038F09E3066
:102F600040F0963148F020E030E008C02DE630E037
:102F700005C02BE630E002C02CE630E03093D403ED
:102F80002093D303983030F481E001C0880F9A95E4
:102F9000EAF70EC0292F30E09E3018F4285031098E
:102FA00002C02E50310981E001C0880F2A95EAF74E
:102FB0008093D5038091DC039091DD030197F1F7B5
:102FC0008091DA039091DB03892B21F180914D02EE
:102FD00090914E0223E0803C9207E1F0009711F0BF
:102FE0000E94570F8091DE038E7F8093DE03109244
:102FF0004C0210924B0280EC93E090934E0280932F
:103000004D02E091D303F091D40390818091D503D8
:10301000892B80836DE081E00E94110E6FEF70E0DC
:103020008AEB93E00E94461562E08091AB030E9418
:10303000110E80E398EFAFEFBFEF8093AF03909353
:10304000B003A093B103B093B2037AE9E72E72E024
:10305000F72E04E610E0C8010E94BE21D7018D932F
:103060007D010F5F1F4F04371105A9F789EF91E02C
:103070000E949E110E94460A6FE4E62E62E0F62E40
:1030800000E010E0C8010E94BE21F70181937F019A
:103090000F5F1F4F0B341105A9F788E092E00E94E3
:1030A0009E110E94F3090E9498110E94870E4B0105
:1030B0005C0169E272E080EC93E00E949A1664E29F
:1030C00072E089E093E00E949A167E01F2E2EF0E30
:1030D000F11C61EC71E0C7010E941E1640EE5EE239
:1030E00060E070E0CE0101960E94DD12B701CE01D2
:1030F00001960E94F3148C01CE0101960E941016D5
:10310000C7010E9410160F3F1F4F19F56FE172E0C3
:1031100080EC93E00E949A166AE172E089E093E005
:103120000E949A160E94870EDC01CB01881999092A
:10313000AA09BB0989389341A105B10538F464EFA8
:1031400071E080E090E00E944D0EC3CF88E392E0F2
:1031500002C08EE292E00E949E1152E5652E51E07F
:10316000752E89E093E00E94A20B892B09F4A1C17E
:1031700069E073E0CE01CB960E947916CE01CB9622
:103180000E94941421968EAD9FAD2197892BA9F0B2
:1031900064EC71E08BAD9CAD0E94AF25892B69F486
:1031A00083ED92E00E949E110E94460A8AEC92E012
:1031B0000E949E110E94F30978C1BE01655C7F4F99
:1031C000CE01C5960E9415160DA91EA9011511055F
:1031D00079F47BA26AA21EA21DA2A8ECB0E0B8A757
:1031E000AFA38DA99EA9009781F487EA91E00DC055
:1031F000D8018C91882369F3082E000C990B0E944A
:103200009E25F80181938F01F3CFFA82E9829C8396
:103210008B83FE82ED828AE08F83CE0101960E942D
:103220009D0A8C01FC0180819181892BB1F484E895
:1032300092E00E949E117BA26AA2EDA1FEA13097AE
:1032400009F42FC18281938198A78FA300811181F6
:10325000CF010E942224F801F2CF6AEC71E0C8018C
:103260000E940705009741F0BC016C5F7F4FCE01C3
:103270008F960E94E30706C067EA71E0CE018F9641
:103280000E941E166BE772E089E093E00E949A1696
:10329000CE018F960E94CA128BA99CA9892B09F492
:1032A000EBC0CFA4D8A86EEC71E0C6010E94AF2598
:1032B000892B09F083C061ED71E0C8010E94070508
:1032C000009769F0DC0114962D913C9115972630FA
:1032D000310529F416968D909C90179703C00E9493
:1032E0007C0A4C01F40180819181892B21F489E6CB
:1032F00092E00E949E112FE432E080E090E0F9011C
:10330000E80FF91F108201968F309105C1F7215FF8
:103310003F4FF2E02A393F0781F7D4011296ED9131
:10332000FC91139700E010E0309731F00F5F1F4FD2
:103330000190F081E02DF8CF0630110514F005E082
:1033400010E04FE4A42E42E0B42EC12CD12CC016C4
:10335000D1068CF4C601D4011296ED91FC9113971D
:10336000309709F4A0C2009709F4F1C201970190C7
:10337000F081E02DF5CF3FE4C32E32E0D32E00E004
:1033800010E0D6016D916D01C80122966FAF2297B2
:103390000E94BE2122966FAD2297681719F0C801CE
:1033A0000E94C6210F5F1F4F0B34110551F788E4AF
:1033B00092E00E949E110E94F3095EC067ED71E0E9
:1033C000C6010E94AF25892B09F056C06EED71E051
:1033D000C8010E941E0660939A0270939B0280931C
:1033E0009C0290939D0261EE71E0C8010E941E064E
:1033F00060939E0270939F028093A0029093A1021B
:1034000064EE71E0C8010E941E066093A2027093F0
:10341000A3028093A4029093A50267EE71E0C80115
:103420000E941E066093A6027093A7028093A802D2
:103430009093A9022AE9C22E22E0D22E04E610E0DF
:10344000F60161916F01C80122966FAF22970E9429
:10345000BE2122966FAD2297681719F0C8010E940D
:10346000C6210F5F1F4F0437110551F78AE592E01F
:103470000E949E110E94460ACE018F960E9410164D
:103480007BA26AA2EDA1FEA1309759F082819381BF
:1034900098A78FA300811181CF010E942224F801F7
:1034A000F3CFCE01C5960E941016CE01CB960E9496
:1034B00010168091B20281110DC00E94870E609398
:1034C000AE027093AF028093B0029093B10281E09C
:1034D0008093B2020E94870E0091AE021091AF025B
:1034E0002091B0023091B102DC01CB01801B910B25
:1034F000A20BB30B813D9740A105B10508F4ACC008
:103500000E94870E6093AE027093AF028093B00268
:103510009093B1020E94A1108823B1F18091AC0375
:103520008B3041F188F18551823070F56091A603AE
:1035300070E080E090E00E949C2020E030E040E8D5
:1035400053E40E94FD204B015C018091A703682F8A
:1035500070E080E090E00E949E209B01AC01C501DC
:10356000B4010E9426222DEC3CEC4CEC5DE30E9461
:10357000FD2007C06091A60370E080E090E00E940B
:103580009C201B012C0106C0212C312C90EC492ED3
:103590009FE7592E0E94A110882309F457C08091FB
:1035A000AC038B3029F0D8F18551823058F037C008
:1035B0006091A80370E080E090E00E949C204B01A5
:1035C0005C0133C01091A803612F6F7770E080E039
:1035D00090E00E949E2020E030E040E853E40E940A
:1035E000FD204B015C016091A90370E080E090E058
:1035F0000E949E209B01AC01C501B4010E942622BD
:103600002DEC3CEC4CEC5DE30E94FD204B015C0199
:1036100017FF0BC0B7FAB094B7F8B09406C0812C6E
:10362000912C80ECA82E8FE7B82EA2019101C20147
:10363000B1010E943823811109C0A5019401C5017F
:10364000B4010E943823882309F4F7C01092BF0206
:103650008AEA92E00E949E118091BF02882309F4B9
:10366000E9C08091BE028090BA029090BB02A09007
:10367000BC02B090BD02811122C0A50194016091ED
:103680009A0270919B0280919C0290919D020E94EF
:10369000972018160CF4CEC020919E0230919F0204
:1036A0004091A0025091A102C501B4010E9497204F
:1036B00018160CF4BFC081E08093BE02BBC02091FD
:1036C0009A0230919B0240919C0250919D02C5014B
:1036D000B4010E94972087FF4BC01092BE021BA22C
:1036E0001AA21DA21CA21FA21EA28E010F5F1F4FB5
:1036F00022E044E0C501B4010E94081EBC01C701DC
:103700000E94E2156AEE71E0C8010E941E16B70120
:10371000C8010E949B15BC01CE0189960E94151616
:10372000C8010E941016C7010E94101600E010E0A8
:10373000BE01675D7F4FC7010E941516B801CE011B
:1037400001960E946009B701CE0101960E944C08C3
:10375000CE0101960E941016C7010E9410160F5F3D
:103760001F4F0530110521F7CE0189960E941016D2
:103770008090BA029090BB02A090BC02B090BD02B3
:1037800020919E0230919F024091A0025091A1028F
:10379000C501B4010E94332318160CF04BC01092DF
:1037A000BE021BA21AA21DA21CA21FA21EA28E0153
:1037B0000F5F1F4F22E044E0C501B4010E94081EC4
:1037C000BC01C7010E94E21567E072E0C8010E94D7
:1037D0001E16B701C8010E949B15BC01CE01899637
:1037E0000E941516C8010E941016C7010E941016EB
:1037F00000E010E0BE01675D7F4FC7010E94151613
:10380000B801CE0101960E946009B701CE01019670
:103810000E944C08CE0101960E941016C7010E941A
:1038200010160F5F1F4F0530110521F7CE01899645
:103830000E9410160E94420C94CC81E08093BF023B
:103840008092BA029092BB02A092BC02B092BD02DA
:103850002092AA023092AB024092AC025092AD028A
:1038600060EA72E089E093E00E949A166091BA02E1
:103870007091BB028091BC029091BD0242E00E9417
:10388000F01166E972E089E093E00E949A16609177
:10389000AA027091AB028091AC029091AD0242E01D
:1038A0000E94F011D9CE67EA71E0CE0189960E949C
:1038B0001E16CE0189960E9494148DA59EA5409750
:1038C000B0F02FE030E040E050E0BE01675D7F4F98
:1038D000CE0101960E943316BE016F5F7F4FCE016D
:1038E00089960E940D15CE0101960E9410166DA5B5
:1038F0007EA549A55AA59B0180E090E08617970711
:1039000079F04115510529F0FA01E80FF91FA0815E
:1039100001C0A0E0F501E80FF91FA0830196EECFEA
:103920000F9751F02F30310539F0F501E20FF31FF9
:1039300010822F5F3F4FF6CFCE0189960E9410165E
:10394000BFEFCB1ADB0AEFE0AE0EB11C00CDBF011A
:103950006E5F7F4FCE0189960E94E307AACF8AEB64
:1039600093E00E9410168AE691E09093C103809341
:10397000C00380EC93E00C94570F10920C0310924C
:103980000B0388EE93E0A0E0B0E080930D039093EA
:103990000E03A0930F03B093100328E531E030939A
:1039A0000A032093090325EC30E03093160320939B
:1039B000150324EC30E0309318032093170320EC18
:1039C00030E030931A032093190321EC30E0309358
:1039D0001C0320931B0322EC30E030931E03209342
:1039E0001D0326EC30E03093200320931F03109238
:1039F00022031092230310922403109225031092A5
:103A0000C3031092C2038093C4039093C503A09391
:103A1000C603B093C7038AE691E09093C1038093F5
:103A2000C0031092D7031092D6031092D9031092BC
:103A3000D8031092DB031092DA031092DD03109288
:103A4000DC036091DE036E7F6D7F6093DE0366951D
:103A5000617081E068278BE00E94E10D61E08BE0FE
:103A60000E94110EEEE2F3E0E491E093D003EAE16C
:103A7000F3E0E491F0E0EE0FFF1FE550FD4F85917C
:103A800094919093D2038093D10360E08AE00E94E6
:103A9000110E8091DE0381FD04C061E08AE00E9486
:103AA000E10D8AE08093CC03EDE2F3E0E491E09352
:103AB000CD03E9E1F3E0E491F0E0EE0FFF1FEB5FEF
:103AC000FC4F859194919093CF038093CE0367EA46
:103AD00071E08AEB93E00E941E1684E08093AB03B2
:103AE0008BE08093AC03E7E2F3E0E491E093AD0375
:103AF000E3E1F3E0E491E093AE0380E89EE3A0E02D
:103B0000B0E08093B3039093B403A093B503B09354
:103B1000B60385E08093F10381E08093F203809304
:103B2000F30384E190E0A0E0B0E08093FF03909382
:103B30000004A0930104B093020462E085E00E94B7
:103B4000110E8091F1030E94B80D8093F4039091BF
:103B5000F303992329F091E0811190E09093F4030D
:103B60000E94870E6093F7037093F8038093F90324
:103B70009093FA032091F4032093F5031092F60337
:103B80006093FB037093FC038093FD039093FE030B
:103B900086E08093DF0381E08093E0038093E1037C
:103BA00084E190E0A0E0B0E08093ED039093EE0319
:103BB000A093EF03B093F00362E086E00E94110E41
:103BC0008091DF030E94B80D8093E2039091E1039E
:103BD000992329F091E0811190E09093E2030E94F3
:103BE000870E6093E5037093E6038093E703909359
:103BF000E8032091E2032093E3031092E40360932F
:103C0000E9037093EA038093EB039093EC03089528
:103C1000EF920F931F93CF93DF93E80147FD02C00C
:103C200034E001C034E1E42F440FFF0BF7FF03C081
:103C3000F195E195F109E32E022F2E2FAE010E949E
:103C4000281ECE01DF91CF911F910F91EF90089523
:103C50004F925F926F927F929F92AF92BF92CF925C
:103C6000DF92EF92FF920F931F93CF93DF93CDB725
:103C7000DEB729970FB6F894DEBF0FBECDBF6A013D
:103C8000122FB02E2BE3201720F0FF24F394F00E18
:103C900002C0BCE3FB2E0F2D27E0AE014F5F5F4F4C
:103CA0000E94B61FAC018981982F9970913031F034
:103CB000E1FC06C0E0FE06C090E205C09DE203C044
:103CC0009BE201C090E0EE2DE07183FF3CC09111BA
:103CD00002C083E001C084E0811718F4212F281B63
:103CE00001C020E0E1110BC0F601822F30E28823F1
:103CF00019F031938150FBCFC20ED11C20E09923E3
:103D000029F0D6019C93F60131966F01C601039606
:103D1000E2FE0AC03EE4D6013C9341E411964C9386
:103D2000119712963C9306C03EE6F601308341E6B9
:103D300041833283FC01322F40E2332309F442C035
:103D400041933150FACF82FF44C0911102C083E009
:103D500001C084E0811718F4212F281B01C020E046
:103D6000E1110BC0F601822F30E2882319F0319364
:103D70008150FBCFC20ED11C20E0992329F0D6013F
:103D80009C93F60131966F01C6010396E2FE0BC0CB
:103D900039E4D6013C933EE411963C93119736E406
:103DA00012963C9307C039E6F60130833EE6318334
:103DB00036E63283FC01322F40E2332319F041937F
:103DC0003150FBCFFC01E20FF11D10828EEF9FEF0F
:103DD000B7C0F1E0911101C0F0E06F2F70E0141650
:103DE000150624F49A012F5F3F4F02C021E030E016
:103DF000260F371FBB2029F06B2D70E06F5F7F4FC0
:103E000002C060E070E0260F371F612F70E02617B8
:103E100037071CF4121B212F01C020E03E2D387102
:103E200059F4D601322F60E2332319F06D933150EB
:103E3000FBCFC20ED11C20E0FF2331F0D6019C93B2
:103E4000B6016F5F7F4F6B01E1110BC0F601922F3E
:103E500030E3992319F031939150FBCFC20ED11C5E
:103E600020E09F2D940F3A81782F7071A72E84FF48
:103E700003C0313309F49150191624F4993018F025
:103E800098E001C091E0E42F852F57FF02C0E0E0E9
:103E900080E06E2F782FE0E0F0E0AEE29A2E3A015B
:103EA000691A71082A01461A570A0B2D10E011955C
:103EB000019511096F3F8FEF780729F4D6019C9285
:103EC000C60101966C014617570784F066167706FF
:103ED0006CF47F01E40CF51CA1E0B0E0AC0FBD1F59
:103EE000EA0EFB1ED7011196BC9002C090E3B92EDA
:103EF000615071093196C60101967C016017710706
:103F000024F0D601BC926C01D5CF6417750741F43B
:103F1000363320F4353321F4A11002C081E3B82EEA
:103F2000F601B082F701822F90E2882319F0919375
:103F30008150FBCFF701E20FF11D108280E090E08D
:103F400029960FB6F894DEBF0FBECDBFDF91CF919B
:103F50001F910F91FF90EF90DF90CF90BF90AF90A7
:103F60009F907F906F905F904F900895283008F059
:103F700027E03327DA01990F311D87FD9160009604
:103F80006105710539F432602E5F3D9330E32A9567
:103F9000E1F708959F3F30F080387105610509F021
:103FA0003C5F3C5F3D93913008F08068911DDF934A
:103FB000CF931F930F93FF92EF92192F987F9695AF
:103FC000E92F96959695E90FFF27EE52FF4F992717
:103FD0003327EE24FF24A701E701059008940794F6
:103FE00028F4360FE71EF81E491F511D660F771F74
:103FF000881F991F0694A1F70590079428F4E70EEF
:10400000F81E491F561FC11D770F881F991F661F75
:104010000694A1F70590079428F4F80E491F561F3F
:10402000C71FD11D880F991F661F771F0694A1F720
:104030000590079420F4490F561FC71FD81F990FEA
:10404000661F771F881F0694A9F784911095177033
:1040500041F0D695C79557954795F794E7941A95EB
:10406000C1F7E8E7F0E068941590159135916591F6
:10407000959105907FE27395E118F10A430B560B79
:10408000C90BD009C0F7E10CF11E431F561FC91F11
:10409000D01D7EF4703311F48A95E6CFE894015078
:1040A00030F0080F0AF40027021708F4202F239598
:1040B000022F7A3328F079E37D932A95E9F710C02F
:1040C0007D932A9589F60694979567953795179568
:1040D0001794E118F10A430B560BC90BD00998F05D
:1040E00023957E9173957A3308F070E37C932013C7
:1040F000B8F77E9170617D9330F0839571E37D9385
:1041000070E32A95E1F71124EF90FF900F911F9132
:10411000CF91DF91992787FD9095089591110C9487
:104120006A21803219F089508550C8F708950E949D
:10413000D92008F481E00895E89409C097FB3EF483
:1041400090958095709561957F4F8F4F9F4F9923E4
:10415000A9F0F92F96E9BB279395F6958795779562
:104160006795B795F111F8CFFAF4BB0F11F460FF22
:104170001BC06F5F7F4F8F4F9F4F16C0882311F07A
:1041800096E911C0772321F09EE8872F762F05C08E
:10419000662371F096E8862F70E060E02AF09A9529
:1041A000660F771F881FDAF7880F9695879597F91E
:1041B0000895990F0008550FAA0BE0E8FEEF1616B8
:1041C0001706E807F907C0F012161306E407F5070B
:1041D00098F0621B730B840B950B39F40A2661F07F
:1041E000232B242B252B21F408950A2609F4A14022
:1041F000A6958FEF811D811D08950E9410210C94BA
:1042000084210E94762138F00E947D2120F09523A0
:1042100011F00C946D210C94732111240C94B8218D
:104220000E94952170F3959FC1F3950F50E0551FA3
:10423000629FF001729FBB27F00DB11D639FAA27FB
:10424000F00DB11DAA1F649F6627B00DA11D661F4A
:10425000829F2227B00DA11D621F739FB00DA11D6B
:10426000621F839FA00D611D221F749F3327A00D25
:10427000611D231F849F600D211D822F762F6A2FC1
:1042800011249F5750409AF0F1F088234AF0EE0F26
:10429000FF1FBB1F661F771F881F91505040A9F753
:1042A0009E3F510580F00C946D210C94B8215F3F26
:1042B000E4F3983ED4F3869577956795B795F7958F
:1042C000E7959F5FC1F7FE2B880F911D9695879507
:1042D00097F9089599278827089597F99F6780E8A7
:1042E00070E060E008959FEF80EC089500240A9448
:1042F0001616170618060906089500240A941216C1
:104300001306140605060895092E0394000C11F4F3
:10431000882352F0BB0F40F4BF2B11F460FF04C0A0
:104320006F5F7F4F8F4F9F4F089557FD9058440FF9
:10433000551F59F05F3F71F04795880F97FB991F04
:1043400061F09F3F79F087950895121613061406C1
:10435000551FF2CF4695F1DF08C01616170618064E
:10436000991FF1CF86957105610508940895E89429
:10437000BB2766277727CB0197F90895F999FECFD8
:1043800092BD81BDF89A992780B50895262FF99995
:10439000FECF1FBA92BD81BD20BD0FB6F894FA9A28
:1043A000F99A0FBE019608950E941622A59F900DBE
:1043B000B49F900DA49F800D911D112408952F92FC
:1043C0003F924F925F926F927F928F929F92AF92A5
:1043D000BF92CF92DF92EF92FF920F931F93CF93F2
:1043E000DF93CDB7DEB7CA1BDB0B0FB6F894DEBF89
:1043F0000FBECDBF09942A88398848885F846E84AF
:104400007D848C849B84AA84B984C884DF80EE80F8
:10441000FD800C811B81AA81B981CE0FD11D0FB601
:10442000F894DEBF0FBECDBFED010895A29FB0018D
:10443000B39FC001A39F700D811D1124911DB29FD8
:10444000700D811D1124911D08955058BB27AA2776
:104450000E943D220C9484210E94762138F00E9413
:104460007D2120F039F49F3F19F426F40C94732138
:104470000EF4E095E7FB0C946D21E92F0E94952145
:1044800058F3BA17620773078407950720F079F489
:10449000A6F50C94B7210EF4E0950B2EBA2FA02DA3
:1044A0000B01B90190010C01CA01A0011124FF27E1
:1044B000591B99F0593F50F4503E68F11A16F040DC
:1044C000A22F232F342F4427585FF3CF46953795DB
:1044D0002795A795F0405395C9F77EF41F16BA0BA0
:1044E000620B730B840BBAF09150A1F0FF0FBB1F4E
:1044F000661F771F881FC2F70EC0BA0F621F731F97
:10450000841F48F4879577956795B795F7959E3FF3
:1045100008F0B0CF9395880F08F09927EE0F979584
:10452000879508950E94A6220C9484210E947D21E3
:1045300058F00E94762140F029F45F3F29F00C9456
:104540006D2151110C94B8210C9473210E94952176
:1045500068F39923B1F3552391F3951B550BBB27B2
:10456000AA2762177307840738F09F5F5F4F220FF7
:10457000331F441FAA1FA9F335D00E2E3AF0E0E8EE
:1045800032D091505040E695001CCAF72BD0FE2F38
:1045900029D0660F771F881FBB1F261737074807CC
:1045A000AB07B0E809F0BB0B802DBF01FF27935884
:1045B0005F4F3AF09E3F510578F00C946D210C94BA
:1045C000B8215F3FE4F3983ED4F3869577956795DD
:1045D000B795F7959F5FC9F7880F911D96958795B9
:1045E00097F90895E1E0660F771F881FBB1F6217D8
:1045F00073078407BA0720F0621B730B840BBA0B96
:10460000EE1F88F7E09508950E949D2188F09F573E
:1046100098F0B92F9927B751B0F0E1F0660F771FE6
:10462000881F991F1AF0BA95C9F714C0B13091F0DC
:104630000E94B721B1E008950C94B721672F782F1D
:104640008827B85F39F0B93FCCF3869577956795A1
:10465000B395D9F73EF490958095709561957F4F0D
:104660008F4F9F4F08950E94D92008F48FEF08952F
:104670000E94D920880B990B089597FB072E16F4FA
:10468000009407D077FD09D00E94792307FC05D05C
:104690003EF4909581959F4F0895709561957F4F59
:1046A0000895A1E21A2EAA1BBB1BFD010DC0AA1F73
:1046B000BB1FEE1FFF1FA217B307E407F50720F08B
:1046C000A21BB30BE40BF50B661F771F881F991F06
:1046D0001A9469F760957095809590959B01AC014F
:1046E000BD01CF010895EE0FFF1F0590F491E02D5D
:1046F0000994AA1BBB1B51E107C0AA1FBB1FA61729
:10470000B70710F0A61BB70B881F991F5A95A9F77A
:1047100080959095BC01CD010895CF93DF938230B1
:10472000910510F482E090E0E0910504F091060418
:1047300020E030E0C0E0D0E0309711F140815181BD
:1047400048175907C0F04817590761F482819381CF
:10475000209719F09B838A832BC090930604809343
:10476000050426C02115310519F04217530718F426
:104770009A01BE01DF01EF010280F381E02DDCCF61
:104780002115310509F1281B390B2430310590F42E
:1047900012968D919C9113976115710521F0FB0183
:1047A0009383828304C09093060480930504FD01E3
:1047B000329644C0FD01E20FF31F81939193225082
:1047C00031092D933C933AC02091030430910404A5
:1047D000232B41F420910201309103013093040412
:1047E000209303042091000130910101211531052E
:1047F00041F42DB73EB74091040150910501241BAF
:10480000350BE0910304F0910404E217F307A0F4E0
:104810002E1B3F0B2817390778F0AC014E5F5F4F16
:104820002417350748F04E0F5F1F50930404409340
:1048300003048193919302C0E0E0F0E0CF01DF91A7
:10484000CF9108950F931F93CF93DF93009709F4AF
:104850008CC0FC01329713821282009105041091E2
:1048600006040115110581F420813181820F931F07
:1048700020910304309104042817390779F5F09347
:104880000404E093030471C0D80140E050E0AE1787
:10489000BF0750F412962D913C911397AD0121154D
:1048A000310509F1D901F3CF9D01DA013383228368
:1048B00060817181860F971F8217930769F4EC015D
:1048C00028813981260F371F2E5F3F4F3183208388
:1048D0008A819B8193838283452B29F4F09306047C
:1048E000E093050442C01396FC93EE931297ED01FA
:1048F000499159919E01240F351FE217F30771F476
:1049000080819181840F951F029611969C938E93BE
:104910008281938113969C938E931297E0E0F0E04E
:10492000D80112968D919C911397009719F0F80178
:104930008C01F6CF8D919C9198012E5F3F4F820F95
:10494000931F20910304309104042817390769F458
:10495000309729F4109206041092050402C01382C5
:1049600012821093040400930304DF91CF911F91EE
:104970000F910895A0E0B0E0E0ECF4E20C94E321A4
:10498000EC01009721F4CB010E948D23B8C0FC01FB
:10499000E60FF71F9C0122503109E217F30708F4D4
:1049A000ACC0D9010D911C91119706171707B0F0F3
:1049B0000530110508F49FC0C801049786179707B2
:1049C00008F499C002501109061B170B01931193AB
:1049D0006D937C93CF010E9422248DC05B01A01AAD
:1049E000B10A4C01800E911EA0910504B0910604FD
:1049F00040E050E0E12CF12C109709F44AC0A815D2
:104A0000B905D1F56D907C901197630182E0C80ED5
:104A1000D11CCA14DB0480F1A3014A195B096A01A5
:104A200082E0C80ED11C1296BC9012971396AC91DE
:104A3000B5E0CB16D10440F0B282A383518340830A
:104A4000D9016D937C930AC00E5F1F4FC301800F85
:104A5000911FF90191838083EB2DFA2FE114F1046A
:104A600031F0D7011396FC93EE93129744C0F09364
:104A70000604E09305043FC08D919C91119748175F
:104A8000590708F4AC017D0112960D90BC91A02D40
:104A9000B3CF809103049091040488159905E1F443
:104AA00046175707C8F480910001909101010097C3
:104AB00041F48DB79EB74091040150910501841BCC
:104AC000950BE817F907C8F4F0930404E093030486
:104AD000F901718360830FC0CB010E948D237C019B
:104AE000009759F0A801BE010E94A625CE010E94A0
:104AF0002224C70104C0CE0102C080E090E0CDB7FF
:104B0000DEB7EEE00C94FF2181E090E0F8940C9485
:104B1000E72591110C946A2180538A5018F0865C25
:104B20000C949625089585FD0C946A21806291115C
:104B30000C946A2181568A51D8F7089591110895ED
:104B400081548A5108F4805E855A0895FB01DC0186
:104B500002C001900D9241505040D8F70895FB01DA
:104B6000DC018D91019080190110D9F3990B089502
:104B7000FB01DC0101900D920020E1F70895FB019B
:104B8000DC014150504030F08D910190801919F4B2
:104B90000020B9F7881B990B0895FB01519155230B
:104BA000A9F0BF01DC014D9145174111E1F759F41E
:104BB000CD010190002049F04D9140154111C9F3FC
:104BC000FB014111EFCF81E090E00197089511E0E2
:104BD000CDE9D1E004C0FE010E9473232196CE39B5
:084BE000D107C9F7F894FFCFDB
:104BE8000000070480000000803FCDCCCC3D6F1250
:104BF800833A95BFD6337D1D9026B3CE010CCDCC1C
:104C0800CC3D0AD7233C17B7D13877CC2B329595B2
:104C1800E6241FB14F0A000020410000C8420040AE
:104C28001C4620BCBE4CCA1B0E5AAEC59D74000063
:104C38000000460D00000000D90B3713710B200C43
:104C4800A20B800B940B00000000B30C3713410D2E
:104C5800B20C070D1F0D9A0C747275650066616CB5
:104C68007365004E614E00652D00496E66696E6978
:104C78007479002B002B38340022225C5C620866B1
:104C88000C6E0A720D7409006E756C6C000D004391
:104C98004D47530056657273696F6E3A20302E3156
:104CA800004F4B002F73686F7700636D6400736566
:104CB8007470686F6E6500636F6E66696700743044
:104CC8000074310068300068310043616E6820620A
:104CD800616F206E6869657420646F20717561204A
:104CE800746861703A200043616E682062616F20C9
:104CF8006E6869657420646F207175612063616FE7
:104D08003A20000D0A006E616E00696E66006F76CB
:024D1800660033
:00000001FF
