:100000000C94B6020C94DE020C94DE020C94BD1526
:100010000C94BD150C94BD150C94DE020C94DE02FC
:100020000C94DE020C94DE020C94DE020C94DE02D0
:100030000C94DE020C94DE020C94DE020C94DE02C0
:100040000C9473150C94DE020C9466140C944014FA
:100050000C94DE020C94DE020C94DE020C94DE02A0
:100060000C94DE020C94DE025D17561770176717AA
:10007000631707172817CD1600407A10F35A00A00F
:10008000724E18090010A5D4E80000E87648170061
:1000900000E40B54020000CA9A3B000000E1F505A1
:1000A000000080969800000040420F000000A086EB
:1000B00001000000102700000000E803000000001D
:1000C0006400000000000A000000000001000000C1
:1000D00000002C76D888DC674F0823DFC1DFAE59DB
:1000E000E1B1B796E5E3E453C63AE651997696E86E
:1000F000E6C28426EB898C9B62ED407C6FFCEFBCF2
:100100009C9F40F2BAA56FA5F490055A2AF75C931C
:100110006B6CF9676DC11BFCE0E40D47FEF520E652
:10012000B500D0ED902E0300943577050080841E35
:10013000080000204E0A000000C80C333333330F90
:10014000986E12831141EF8D2114893BE65516CF2D
:10015000FEE6DB18D1844B381BF77C1D901DA4BB39
:10016000E424203284725E228100C9F124ECA1E5EE
:100170003D270D0A4C6F616420636F6E666967737B
:10018000000D0A4C6F61642070686F6E65206C69A9
:1001900073740041540D0A0041540D0A000D0A52B7
:1001A000414D200072756E0053494D2072656164A7
:1001B00079000D0A52414D200033000D0A52414D85
:1001C000200032000D0A52414D2000310056657268
:1001D00073696F6E3A2000302E33000D0A48756D3A
:1001E00069203D20000D0A54656D70203D200046B9
:1001F00061696C656420746F207265616420667249
:100200006F6D204448542073656E736F72210043F4
:10021000616E682062616F206E6869657420646F2A
:10022000207175612063616F3A200043616E682020
:1002300062616F206E6869657420646F20717561FA
:1002400020746861703A200054656D7020616C61A3
:10025000726D207265736574200043616E68206260
:10026000616F20646F20616D207175612063616F23
:100270003A200043616E682062616F20646F2061E4
:100280006D2071756120746861703A200048756D49
:100290006920616C61726D20726573657420004322
:1002A000616E682062616F206D7563206E756F638B
:1002B0002071756120746861702E0043616E682042
:1002C00062616F206D7563206E756F63207175615B
:1002D0002063616F2E000D0A52414D2000004154F1
:1002E0002B434D47523D0041542B434D47463D3132
:1002F0000D000D0A52414D20006265666F72652047
:100300006578656320736D7300534D533E3E200046
:10031000220D0A002200222B000D0A52414D20001E
:100320007265637620736D73000D0A52414D200093
:100330006265666F726520657865632073657269B2
:10034000616C00683109006830090074310900747B
:10035000300900496478094C656E0950686F6E6514
:10036000002B3834002B3834003834000D0A683143
:100370003D000D0A68303D000D0A74313D000D0A44
:1003800074303D00436F6E66696773003B0D0A0071
:1003900050686F6E65733A0D0A000D0A53617665F9
:1003A0002070686F6E65206C697374000D0A53616C
:1003B000766520636F6E66696773000D0A52414D62
:1003C000200072657320636F6E6669670068310094
:1003D000683000743100743000636F6E66696700C6
:1003E0000D0A52414D20007265732070686F6E6572
:1003F0000050686F6E652041727261792057726F8C
:100400006E670070686F6E650073657470686F6EFC
:100410006500636D64004A736F6E2053796E74617A
:10042000782057726F6E67000D0A52414D20006AA6
:10043000736F6E000D0A52414D20002F70686F6E71
:1004400065000D0A50686F6E6573002F70686F6EDF
:1004500065000D0A52414D20002F636F6E6669677B
:10046000000D0A436F6E66696773002F636F6E66D7
:100470006967002D2D2D2D2D2D2D2D005D000D0AD0
:10048000436F6D6D616E64205B000D0A52414D201B
:1004900000657865630061742B636D6764613D225C
:1004A00064656C20616C6C220A0D00000000002560
:1004B0000028002B00000000002300260029000473
:1004C00004040404040404020202020202030303FB
:1004D00003030301020408102040800102040810F5
:1004E0002001020408102000000000240027002A38
:1004F00000000000080002010000030407000000E3
:100500000000000000220D0041542B434D47533D95
:10051000220041542B434D47463D310D004E756D31
:1005200062657220696E76616C69640053656E6401
:1005300020534D53206661696C65640053656E6499
:1005400020534D532073756363657373000D0A5216
:10055000414D200073656E6420736D73000D0A5366
:100560004D53203C3C200000E22AD02A11241FBE1B
:10057000CFEFD8E0DEBFCDBF11E0A0E0B1E0EEEDFF
:10058000F8E602C005900D92AE3CB107D9F723E022
:10059000AEECB1E001C01D92A53DB207E1F712E05B
:1005A000C5EBD2E004C02197FE010E941B33C43B7F
:1005B000D107C9F70E94D8200C9462340C94000033
:1005C000FC0126813781620F731F84819581861714
:1005D000970738F08281938177836683820F931F18
:1005E000089580E090E00895EF92FF920F931F939B
:1005F000CF93DF93CDB7DEB762970FB6F894DEBF27
:100600000FBECDBF8C0164E873E00E94DF1F8DE157
:10061000E82E82E0F82EF7014081518162817381DA
:1006200022E0CE010D960E94831F6EE773E0CE019B
:1006300001960E94DF1FBE016F5F7F4FCE010796BC
:100640000E941720BE01635F7F4FCE0107960E9474
:100650005811BC01C8010E947E11CE0107960E946C
:100660007E1FCE0101960E947E1FCE010D960E9434
:100670007E1FF701448155816681778122E0CE019A
:100680000D960E94831F68E773E0CE0101960E94D9
:10069000DF1FBE016F5F7F4FCE0107960E941720BC
:1006A000BE01635F7F4FCE0107960E945811BC01C7
:1006B000C8010E947E11CE0107960E947E1FCE01C6
:1006C00001960E947E1FCE010D960E947E1FF701AB
:1006D000408551856285738522E0CE010D960E948A
:1006E000831F62E773E0CE0101960E94DF1FBE0107
:1006F0006F5F7F4FCE0107960E941720BE01635F98
:100700007F4FCE0107960E945811BC01C8010E947C
:100710007E11CE0107960E947E1FCE0101960E9497
:100720007E1FCE010D960E947E1FF70144855585E0
:100730006685778522E0CE010D960E94831F6CE6C8
:1007400073E0CE0101960E94DF1FBE016F5F7F4FF5
:10075000CE0107960E941720BE01635F7F4FCE0136
:1007600007960E945811BC01C8010E947E11CE015B
:1007700007960E947E1FCE0101960E947E1FCE0129
:100780000D960E947E1FC80162960FB6F894DEBFD8
:100790000FBECDBFDF91CF911F910F91FF90EF90D2
:1007A0000895FF920F931F93CF93DF93CDB7DEB7DA
:1007B00068970FB6F894DEBF0FBECDBF8C01CE0197
:1007C00001960E9417208D819E81892B31F467EA62
:1007D00071E0C8010E9420209BC0E981FA81309716
:1007E00089F080818B3271F4F801118210821382BA
:1007F000128215821482BE016F5F7F4FC8010E9472
:10080000BD1E86C069E673E0CE0107960E94DF1F19
:10081000BE01695F7F4FCE0101960E94CB10F82E7A
:10082000CE0107960E947E1FFF2099F066E871E0D6
:10083000CE0107960E942020BE016F5F7F4FCE0140
:1008400007960E945811BC01CE0101960E94671FB5
:100850005AC02D813E812115310521F0E981FA81AF
:10086000309721F410926A02EAE6F2E08081803348
:1008700069F541E050E0BE016F5F7F4FCE014396C6
:100880000E941D1065E673E0CE0107960E94DF1FEF
:10089000BE01695F7F4FCE010D960E941720BE01F9
:1008A0006D5E7F4FCE010D960E945811BC01CE01A6
:1008B00001960E94671FCE010D960E947E1FCE01F9
:1008C00007960E947E1FCE0143961FC061E673E02B
:1008D000CE0107960E94DF1FBE01695F7F4FCE01E8
:1008E0000D960E941720BE016F5F7F4FCE010D96BF
:1008F0000E945811BC01CE0101960E94671FCE01D3
:100900000D960E947E1FCE0107960E947E1F6CCF1F
:10091000CE0101960E947E1FC80168960FB6F8941A
:10092000DEBF0FBECDBFDF91CF911F910F91FF9022
:100930000895FC01648175816115710501F120E064
:1009400030E026173707C9F0408151814115510524
:1009500029F0DA01A20FB31F9C9101C090E0492F4A
:10096000092E000C550B405351094A30510510F027
:100970009B3229F42F5F3F4FE4CF81E0089580E060
:100980000895CF92DF92EF92FF920F931F93CF9330
:10099000DF93CDB7DEB72D970FB6F894DEBF0FBE4D
:1009A000CDBF8C017B016630710508F056C067EA47
:1009B00071E0CE0101960E9420208FE08E9D6001A3
:1009C0008F9DD00C1124E12CF12CF701EC0DFD1DB5
:1009D000EE52FE4F6081862F062E000C990B6D871C
:1009E0000E9404346D85892B21F0CE0101960E946E
:1009F0006B11EFEFEE1AFE0AFFE0EF16F10429F794
:100A0000CE0101960E94BE0FCE0101960E9499046C
:100A1000882391F0BE016F5F7F4FCE0107960E9441
:100A2000D103BE01695F7F4FCE0101960E94BD1EBA
:100A3000CE0107960E947E1FF80111821082138258
:100A4000128215821482BE016F5F7F4FC8010E941F
:100A5000BD1ECE0101960E947E1FC8012D960FB6C5
:100A6000F894DEBF0FBECDBFDF91CF911F910F91E4
:100A7000FF90EF90DF90CF900895EF92FF920F9349
:100A80001F93CF93DF93CDB7DEB762970FB6F8947D
:100A9000DEBF0FBECDBF7C0160E973E00E94DF1FA7
:100AA00000E010E0B801CE0101960E94C104CE0121
:100AB00001960E949904882301F16CE873E0CE014D
:100AC0000D960E94DF1FBE016F5F7F4FCE0107961C
:100AD0000E941720BE01635F7F4FCE0107960E94E0
:100AE0005811BC01C7010E947E11CE0107960E94D9
:100AF0007E1FCE010D960E947E1FCE0101960E94A0
:100B00007E1F0F5F1F4F0530110561F6C70162960A
:100B10000FB6F894DEBF0FBECDBFDF91CF911F910E
:100B20000F91FF90EF900895CF92DF92EF92FF9296
:100B3000CF93DF9300D000D000D0CDB7DEB760E018
:100B40008CE00E94C11483E593E00E942E0D61E0C9
:100B50008CE00E94C114C12CD12C7601B601CE01CB
:100B600001960E94C10460E08CE00E94C1142AE05A
:100B7000B701A6018BE692E00E948F2061E08CE035
:100B80000E94C11460E08CE00E94C11466EA71E02A
:100B90008BE692E00E947A2061E08CE00E94C11412
:100BA00060E08CE00E94C1144D815E8160E070E0E5
:100BB0002AE08BE692E00E948F2061E08CE00E94A8
:100BC000C11460E08CE00E94C11466EA71E08BE61B
:100BD00092E00E947A2061E08CE00E94C11460E003
:100BE0008CE00E94C11469817A818BE692E00E94B8
:100BF0007A2061E08CE00E94C11460E08CE00E94E9
:100C0000C1140E94280D61E08CE00E94C114CE0145
:100C100001960E947E1F8FEFC81AD80AE80AF80AC8
:100C200085E0C816D104E104F10409F097CF2696B7
:100C30000FB6F894DEBF0FBECDBFDF91CF91FF900E
:100C4000EF90DF90CF900895CF93DF9360E08CE03A
:100C50000E94C1146FE473E08BE692E00E9456207C
:100C600061E08CE00E94C11460E08CE00E94C1143D
:100C7000CDE1D2E0688179818A819B810E941B0E3F
:100C800061E08CE00E94C11460E08CE00E94C1141D
:100C90006BE473E08BE692E00E94562061E08CE00A
:100CA0000E94C11460E08CE00E94C1146C817D81BF
:100CB0008E819F810E941B0E61E08CE00E94C11416
:100CC00060E08CE00E94C11467E473E08BE692E080
:100CD0000E94562061E08CE00E94C11460E08CE02C
:100CE0000E94C114688579858A859B850E941B0EA8
:100CF00061E08CE00E94C11460E08CE00E94C114AD
:100D000063E473E08BE692E00E94562061E08CE0A1
:100D10000E94C11460E08CE00E94C1146C857D8546
:100D20008E859F850E941B0E61E08CE0DF91CF9144
:100D30000C94C114CF93DF9300D0CDB7DEB72091D0
:100D4000D1033091D2032115310511F425ED33E0A3
:100D5000CE010196821B930B0F900F90DF91CF91E4
:100D600008958091620281110BC010925F0210926F
:100D70005E02109261021092600281E08093620232
:100D80008EE592E008958F929F92AF92BF92CF929C
:100D9000DF92EF92FF920F931F93CF93DF93CDB724
:100DA000DEB7C25DD1090FB6F894DEBF0FBECDBF6E
:100DB0007C0160E08CE00E94C1140E949A064AE027
:100DC000BC01CE0180549F4F0E94B31F61E974E0C3
:100DD000CE0186549F4F0E94DF1F6AE874E08E01A7
:100DE0000F5F1F4FC8010E94DF1FB801CE018D5455
:100DF0009F4F0E941720BE0166547F4FCE018D5435
:100E00009F4F0E9458110E944611BE0160547F4FAF
:100E10000E9458110E94280ECE018D549F4F0E94AF
:100E20007E1FC8010E947E1FCE0186549F4F0E94E4
:100E30007E1FCE0180549F4F0E947E1F61E08CE098
:100E40000E94C11460E08CE00E94C1146EE774E05F
:100E50008BE692E00E94562061E08CE00E94C11473
:100E600060E08CE00E94C114D70114964D915C9112
:100E7000159760E070E02AE08BE692E00E948F20F8
:100E800061E08CE00E94C11460E08CE00E94C1141B
:100E90008CE794E00E942E0D61E08CE00E94C1146A
:100EA00060E08CE00E94C114C7010E94280E61E03E
:100EB0008CE00E94C11460E08CE00E94C11483E7C2
:100EC00094E00E942E0D61E08CE00E94C1146BE65C
:100ED00074E0C8010E94DF1FB801C7010E94CB1057
:100EE000D82EC8010E947E1FDD2009F46DC060E08D
:100EF0008CE00E94C11481E694E00E942E0D61E016
:100F00008CE00E94C1140E9424068EE393E00E94AC
:100F10009904882309F434C460E08CE00E94C11471
:100F20000E949A064AE0BC01CE0180549F4F0E9465
:100F3000B31F69E574E0CE0186549F4F0E94DF1F06
:100F400062E574E0C8010E94DF1FB801CE018D5434
:100F50009F4F0E941720BE0166547F4FCE018D54D3
:100F60009F4F0E9458110E944611BE0160547F4F4E
:100F70000E9458110E94280ECE018D549F4F0E944E
:100F80007E1FC8010E947E1FCE0186549F4F0E9483
:100F90007E1FCE0180549F4F0E947E1F61E08CE037
:100FA0000E94C114C8010E94F402B8018EE393E0CC
:100FB0000E94CF1CF82EC8010E947E1FFF2009F45A
:100FC000DFC30E947D10DCC36BE474E0C8010E94A3
:100FD000DF1FB801C7010E94CB10D82EC8010E94A4
:100FE0007E1FDD2009F45FC060E08CE00E94C11428
:100FF00082E494E00E942E0D61E08CE00E94C11416
:101000000E9494058EE393E00E949904882309F4DA
:10101000B7C360E08CE00E94C1140E949A064AE0C7
:10102000BC01CE0180549F4F0E94B31F6BE374E05C
:10103000CE0186549F4F0E94DF1F64E374E0C80115
:101040000E94DF1FB801CE018D549F4F0E941720D0
:10105000BE0166547F4FCE018D549F4F0E945811A0
:101060000E944611BE0160547F4F0E9458110E9499
:10107000280ECE018D549F4F0E947E1FC8010E94F2
:101080007E1FCE0186549F4F0E947E1FCE0180544A
:101090009F4F0E947E1F61E08CE00E94C114C80136
:1010A0000E943D0582CFCE0109969C838B838AEAFC
:1010B00090E09E838D8318861F828AE091E09A8358
:1010C0008983F70180819181009711F487EA91E08B
:1010D000CD54DF4F19830883C35BD040CB54DF4F1F
:1010E00099838883C55BD040C954DF4F1983088337
:1010F000C75BD0408AE0C754DF4F8883C95BD040CC
:10110000CE018D549F4F0E94DE1B8C0160E08CE06D
:101110000E94C1140E949A064AE0BC01CE018A5383
:101120009F4F0E94B31F6FE274E0CE0180549F4F27
:101130000E94DF1F68E274E0CE018D549F4F0E9431
:10114000DF1FBE016D547F4FCE0186549F4F0E941A
:101150001720BE0160547F4FCE0186549F4F0E94DE
:1011600058110E944611BE016A537F4F0E945811C8
:101170000E94280ECE0186549F4F0E947E1FCE01F2
:101180008D549F4F0E947E1FCE0180549F4F0E941E
:101190007E1FCE018A539F4F0E947E1F61E08CE02C
:1011A0000E94C114D8018D919C91892B39F566E17B
:1011B00074E0CE018D549F4F0E94DF1F60E08CE0F1
:1011C0000E94C114CE018D549F4F0E94280E61E0F1
:1011D0008CE00E94C1148EE393E00E94990488235E
:1011E00049F0BE016D547F4F8EE393E00E94CF1C07
:1011F0000E947D10CE018D549F4F4FC262E174E07A
:10120000CE018D549F4F0E94DF1FBE016D547F4F52
:10121000C8010E940719009749F0BC016C5F7F4F1D
:10122000CE0186549F4F0E94751B07C067EA71E08C
:10123000CE0186549F4F0E942020CE018D549F4F97
:101240000E947E1F69E074E0CE018D549F4F0E9482
:10125000DF1FBE016D547F4FCE0186549F4F0E9409
:10126000E610F82ECE018D549F4F0E947E1FFF2066
:1012700009F409C163E074E0CE018D549F4F0E94D0
:10128000DF1FBE016D547F4FC8010E9407190097F0
:1012900049F0FC01248135812630310519F4A680FE
:1012A000B78003C00E94B1065C01CE018D549F4FF0
:1012B0000E947E1FD5018D919C91892B61F460E085
:1012C0008CE00E94C11481EF93E00E942E0D61E03A
:1012D0008CE00E94C11422ED822E21E0922E940116
:1012E00080E090E0F901E80FF91F108201968F303D
:1012F0009105C1F7215F3F4FB2E02D313B0781F7E8
:10130000D5011296ED91FC91139700E010E0309713
:1013100031F00F5F1F4F0190F081E02DF8CF0630C4
:10132000110514F005E010E092EDC92E91E0D92EE0
:10133000E12CF12CE016F1068CF4C701D5011296D0
:10134000ED91FC911397309709F412C2009709F4BC
:10135000A7C101970190F081E02DF5CF00E010E0EA
:10136000D4016D914D01C801CE52DF4F6883C25D3B
:10137000D0400E946631CE52DF4F6881C25DD040BE
:10138000681719F0C8010E946E310F5F1F4F0B34B0
:10139000110531F760E08CE00E94C1148AE993E006
:1013A0000E942E0D61E08CE00E94C1140E94940501
:1013B0008EE393E00E949904882309F46BC160E0F6
:1013C0008CE00E94C1140E949A064AE0BC01CE0142
:1013D00084539F4F0E94B31F67EE73E0CE018A5380
:1013E0009F4F0E94DF1F60EE73E0CE018D549F4F30
:1013F0000E94DF1FBE016D547F4FCE0180549F4F6E
:101400000E941720BE016A537F4FCE0180549F4F28
:101410000E9458110E944611BE0164537F4F0E94E2
:1014200058110E94280ECE0180549F4F0E947E1FAB
:10143000CE018D549F4F0E947E1FCE018A539F4F35
:101440000E947E1FCE0184539F4F0E947E1F61E049
:101450008CE00E94C114CE018D549F4F0E943D0527
:10146000BE016D547F4F8EE393E00E94CF1C182F76
:10147000CE018D549F4F0E947E1F112309F40AC193
:101480000E947D1007C169ED73E0CE018D549F4F1E
:101490000E94DF1FBE016D547F4FCE0186549F4FC7
:1014A0000E94E610F82ECE018D549F4F0E947E1FA1
:1014B000FF2009F4EFC066ED73E0CE018D549F4F1D
:1014C0000E94DF1FBE016D547F4FC8010E948E191C
:1014D00060931D0270931E0280931F02909320025E
:1014E000CE018D549F4F0E947E1F63ED73E0CE01AD
:1014F0008D549F4F0E94DF1FBE016D547F4FC80166
:101500000E948E196093210270932202809323021D
:1015100090932402CE018D549F4F0E947E1F60ED58
:1015200073E0CE018D549F4F0E94DF1FBE016D54AA
:101530007F4FC8010E948E19609325027093260286
:101540008093270290932802CE018D549F4F0E94D2
:101550007E1F6DEC73E0CE018D549F4F0E94DF1F04
:10156000BE016D547F4FC8010E948E1960932902FD
:1015700070932A0280932B0290932C02CE018D54FB
:101580009F4F0E947E1F8DE1E82E82E0F82E04E638
:1015900010E0F70161917F01C801CE52DF4F6883EF
:1015A000C25DD0400E946631CE52DF4F6881C25D7D
:1015B000D040681719F0C8010E946E310F5F1F4FAD
:1015C0000437110531F760E08CE00E94C1148CEA09
:1015D00093E00E942E0D61E08CE00E94C1140E94F5
:1015E00024068EE393E00E949904882309F452C0F4
:1015F00060E08CE00E94C1140E949A064AE0BC019F
:10160000CE0184539F4F0E94B31F62EC73E0CE0162
:101610008A539F4F0E94DF1F6BEB73E0CE018D5406
:101620009F4F0E94DF1FBE016D547F4FCE0180543B
:101630009F4F0E941720BE016A537F4FCE018054F6
:101640009F4F0E9458110E944611BE0164537F4F64
:101650000E9458110E94280ECE0180549F4F0E9474
:101660007E1FCE018D549F4F0E947E1FCE018A5354
:101670009F4F0E947E1FCE0184539F4F0E947E1F6A
:1016800061E08CE00E94C114CE018D549F4F0E94F6
:10169000F402E6CECE0186549F4F0E947E1F70C09A
:1016A000BF016E5F7F4FCE018D549F4F0E94751B0F
:1016B000CE018D549F4F0E94BE0FC954DF4F8881C9
:1016C0009981C75BD0404097C8F02FE030E040E000
:1016D00050E0BE016D547F4FCE0180549F4F0E9459
:1016E0001D10BE0160547F4FCE018D549F4F0E944C
:1016F000BD1ECE0180549F4F0E947E1FC954DF4FF4
:1017000048815981C75BD040CD54DF4F68817981D2
:10171000C35BD040CA0120E030E02417350781F0D8
:101720006115710529F0FB01E20FF31FA08101C0D3
:10173000A0E0F601E20FF31FA0832F5F3F4FEDCF34
:101740002F30310549F08F30910531F0F601E80F67
:10175000F91F10820196F7CFCE018D549F4F0E9442
:101760007E1FBFEFEB1AFB0AEFE0CE0ED11CE2CDDD
:1017700067EA71E0CE018D549F4F0E94202098CFE0
:10178000CE52DF4F0FB6F894DEBF0FBECDBFDF9154
:10179000CF911F910F91FF90EF90DF90CF90BF906E
:1017A000AF909F908F900895DB01109749F0ED91D5
:1017B000FC9111970190F081E02DBC01CD010994BD
:1017C00080E090E008958F929F92AF92BF92CF9267
:1017D000DF92EF92FF92CF93DF93A09133038823A0
:1017E00011F03A2F01C030E08091340390E0880F6F
:1017F000991F8B549B4FC0903903D0903A03E090CF
:101800003B03F0903C0340E050E0BA01FC01C5917D
:10181000D49128812A2323130FC04A015B012FEFA3
:10182000821A920AA20AB20A4C155D056E057F055E
:1018300038F4B501A401EACF342F252FCB0104C021
:1018400030E020E080E090E0632F722FDF91CF91B5
:10185000FF90EF90DF90CF90BF90AF909F908F90D0
:101860000895CF92DF92EF92FF920F931F93CF9341
:10187000DF93CDB7DEB7C054D1400FB6F894DEBFCA
:101880000FBECDBF0E94671500913503109136033E
:1018900020913703309138036B017C01C01AD10AC3
:1018A000E20AF30A40EDC41647E0D406E104F1046D
:1018B00018F480913D03BCC06093350370933603E8
:1018C00080933703909338031092300310922F03C4
:1018D00010922E0310922D0310922C0361E0809140
:1018E00031030E94C1146AEF70E080E090E00E9432
:1018F0002D1561E0809131030E94F11460E0809128
:1019000031030E94C11464E170E080E090E00E9425
:101910002D15F89461E0809131030E94C1148BE988
:1019200090E00197F1F762E0809131030E94F11499
:1019300083E290E00197F1F780E00E94E30B672BD0
:10194000682B692B21F410923D0378943EC081E00E
:101950000E94E30B672B682B692BA9F38E010F5FA5
:101960001F4F6E018FEBC81A8EEFD80A780180E006
:101970000E94E30BF701608371838283938381E08C
:101980000E94E30BF7016483758386839783F8E0F5
:10199000EF0EF11CEC14FD0451F7789420E030E0D8
:1019A000F8014081518162817381C480D580E680D5
:1019B000F780411551056105710529F0C114D10465
:1019C000E104F10421F410923D0380E031C0F901FB
:1019D00083E0F595E7958A95E1F7E45DFC4F80811A
:1019E000880F4C155D056E057F0508F481608083C6
:1019F0002F5F3F4F085F1F4F2832310589F6209136
:101A0000300330E040912C0380912D0390E0840F4F
:101A1000911D40912E03840F911D40912F03840F3F
:101A2000911D99272817390771F681E080933D03AE
:101A3000C05CDE4F0FB6F894DEBF0FBECDBFDF91A6
:101A4000CF911F910F91FF90EF90DF90CF9008956D
:101A500068E871E08BE692E00C947A20CF93DF93F4
:101A6000BC018BE692E00E945620EC010E94280DFA
:101A70008C0F9D1FDF91CF9108954F925F926F92CF
:101A80007F928F929F92AF92BF92CF92DF92EF920E
:101A9000FF926B017C01B42E9B01AC010E94E032ED
:101AA000882319F06BE871E027C026013701E8941C
:101AB00077F82FEF3FEF4FE75FE7C301B2010E94D6
:101AC000E03281110DC02FEF3FEF4FE75FE7C30119
:101AD000B2010E943F3018161CF46FE871E00CC090
:101AE0002FEF3FEF4FE75FE4C701B6010E94DB3203
:101AF000181694F463E971E08BE692E0FF90EF90A2
:101B0000DF90CF90BF90AF909F908F907F906F901D
:101B10005F904F900C947A202FEF3FEF4FE75FECF0
:101B2000C701B6010E943F3087FDE4CF20E030E0DE
:101B3000A901C701B6010E943F3087FF0BC06DE2CB
:101B40008BE692E00E944F204C01F7FAF094F7F8F0
:101B5000F09402C0812C912CA12C60E070E080E018
:101B60009FE3AB1441F020E030E040E251E40E94FA
:101B70003A32A394F6CF9B01AC01C701B6010E9493
:101B8000CE312B013C010E94AC326B017C010E94E2
:101B900044309B01AC01C301B2010E94CD312B0145
:101BA0003C012AE0B701A6018BE692E00E948F205B
:101BB0007C01E80CF91CBB2039F06EE28BE692E068
:101BC0000E944F20E80EF91EDB2CDD2031F120E0D1
:101BD00030E040E251E4C301B2010E94A5302B0184
:101BE0003C010E94AC324B01A12CB12C2AE0B50182
:101BF000A4018BE692E00E948F20E80EF91EC50139
:101C0000B4010E9444309B01AC01C301B2010E94A7
:101C1000CD312B013C01DA94D8CFC701FF90EF9072
:101C2000DF90CF90BF90AF909F908F907F906F90FC
:101C30005F904F900895CF93DF9342E00E943D0D57
:101C4000EC010E94280D8C0F9D1FDF91CF9108950C
:101C5000CF93DF93FC0144815581608171818BE6D4
:101C600092E00E94621EEC010E94280D8C0F9D1FC5
:101C7000DF91CF9108950F931F9380916F0381118E
:101C80000DC00E94671560936B0370936C03809383
:101C90006D0390936E0381E080936F030E9467153C
:101CA00000916B0310916C0320916D0330916E03D2
:101CB000DC01CB01801B910BA20BB30B893B9B403A
:101CC000A105B105D0F00E94671560936B03709376
:101CD0006C0380936D0390936E0360E08CE00E9430
:101CE000C11464E670E080E090E00E942D1561E090
:101CF0008CE01F910F910C94C1141F910F910895C6
:101D0000CF92DF92EF92FF92CF93DF93EC016A01C3
:101D10007B0110924503109244038CE493E00E94EF
:101D20001B13892BF9F48091440390914503092EEC
:101D3000000CAA0BBB0B8C159D05AE05BF0594F4DA
:101D40006DE070E080E090E00E942D1580914403EA
:101D500090914503019690934503809344030E941C
:101D60003B0EDBCF8CE493E00E941B13892B49F0E0
:101D70006CE473E0CE010E943520CE010E94280E53
:101D800005C067EA71E0CE010E942020CE01DF91FC
:101D9000CF91FF90EF90DF90CF9008959F92AF92F8
:101DA000BF92CF92DF92EF92FF920F931F93CF9348
:101DB000DF9300D000D000D0CDB7DEB77C016B013F
:101DC0005C0182E0A80EB11CC5010E942D19D7014B
:101DD0001296ED91FC91139780818B3521F08B3712
:101DE00009F48AC094C0F7018681882309F46FC082
:101DF0008150868300811181B80184E090E00E94C7
:101E0000D40B009709F4A4C0FC0111830083138252
:101E100012828C016BE5C5010E946F19882309F4B9
:101E200056C06DE5C5010E946F19811148C086E05A
:101E3000982E1A821982BE016F5F7F4FC7010E94E0
:101E4000CE0E882309F443C0D8016D917C9188E0BF
:101E500090E00E94D40BDC01892B39F011961C9282
:101E60001E9213961C921E921297F80122813381C2
:101E70002115310551F0F90180819181009711F010
:101E80009C01F9CFB183A08303C0F801B383A2837F
:101E90001097E9F0FE0131961296892D01900D926E
:101EA0008A95E1F76DE5C5010E946F19811107C0A0
:101EB0006CE2C5010E946F198111BBCF08C0D70128
:101EC00016968C9116978F5F16968C9303C00E947E
:101ED000B1068C01F80180819181892B11F410E009
:101EE0003AC086E090E0D60111969C938E931396AB
:101EF0001C930E9312972AC0C7010E94DE1BFC019F
:101F000020813181232B59F327E030E017C011E005
:101F1000873219F0823209F010E0C7010E94C51A19
:101F20000097E9F2112341F022E030E0F60131831D
:101F30002083938382830FC021E030E0D601119685
:101F40003C932E9313969C938E93129711E003C0AB
:101F50000E94B1065ECF812F26960FB6F894DEBFA1
:101F60000FBECDBFDF91CF911F910F91FF90EF90EA
:101F7000DF90CF90BF90AF909F900895AF92BF92A7
:101F8000CF92DF92EF92FF920F931F93CF93DF9345
:101F9000DC01CD90DC901197C114D10409F442C04A
:101FA0001496CD91DC9115972097E1F18C015601A3
:101FB0007501BFEFAB1ABB0AF7018081082E000C38
:101FC000990B0E942630892B99F72197CC0DDD1DA6
:101FD0008881082E000C990B0E942630892B91F4E1
:101FE000AE014F5F5F4F4E195F09D80115965C93A4
:101FF0004E931497CE14DF0450F4B701C6010E942B
:10200000213405C0CE15DF0558F32197E1CFD80163
:10201000ED91FC91119714968D919C911597E80F75
:10202000F91F1082DF91CF911F910F91FF90EF90D8
:10203000DF90CF90BF90AF900895BF92CF92DF9284
:10204000EF92FF920F931F93CF93DF937C016B016D
:102050008A01E9012417350720F4812F8901C42F53
:10206000D82F67EA71E0C7010E942020D60114969C
:102070008D919C91159708171907D0F48C179D071F
:1020800008F4EC01D601ED91FC911197EC0FFD1FC6
:10209000B08010824D915C91BA01600F711FC70131
:1020A0000E94501FD601ED91FC91EC0FFD1FB082F4
:1020B000C701DF91CF911F910F91FF90EF90DF90BB
:1020C000CF90BF900895CF93DF93FC012481358199
:1020D000232B71F0FB01DC01CD91DC9160817181DA
:1020E000CE010E944834009719F08C1B9D0B02C052
:1020F0008FEF9FEFDF91CF9108950F931F93CF93B1
:10210000DF9300D000D000D0CDB7DEB760E08CE028
:102110000E94C11466E974E08CE493E00E945620AA
:102120000E94280D61E08CE00E94C11448E853E150
:1021300060E070E0CE0101960E94800EBE016F5FEC
:102140007F4F86E493E00E94BD1ECE0101960E945F
:102150007E1F68E771E0CE0101960E942020BE013B
:102160006F5F7F4F86E493E00E9463108C01CE0185
:1021700001960E947E1F81E00F3F1F4F09F480E00F
:1021800026960FB6F894DEBF0FBECDBFDF91CF917C
:102190001F910F910895FB0144815581FC01248119
:1021A00035812417350778F080819181009759F0A7
:1021B000FB01608171816115710529F00E943A343B
:1021C00021E0892B09F020E0822F0895FC01248171
:1021D0003581FB01448155812417350721F5FC0128
:1021E00080819181FB0160817181009719F06115F7
:1021F0007105A1F46115710549F0232BB1F0FB01C4
:10220000808190E09195819591090AC0009769F0CD
:10221000232B59F0FC01808190E002C00E942A34F7
:1022200021E0892B19F020E001C021E0822F0895E0
:10223000EF92FF920F931F93CF93DF93FC012481C2
:1022400035816115710511F480E019C04115510502
:10225000A9F07B01EC018A01020F131FB8010E9453
:10226000F61E882389F3288139818C819D81B701ED
:10227000820F931F0E9433341D830C8381E0DF9112
:10228000CF911F910F91FF90EF900895CF93DF931F
:10229000EC0141E050E067E971E00E941811811102
:1022A00003C0CE010E941D1FCE01DF91CF91089582
:1022B000CF93DF93EC01FB014481558160817181F3
:1022C0000E941811811103C0CE010E941D1FCE0172
:1022D000DF91CF910895CF93DF9300D0CDB7DEB7D4
:1022E00069831A8241E050E0BE016F5F7F4F0E9418
:1022F00018110F900F90DF91CF910895FB01448149
:102300005581608171810C941811FC01538D448DAD
:10231000252F30E0842F90E0821B930B541710F090
:10232000CF96089501970895FC01918D828D98179D
:1023300061F0828DDF01A80FB11D5D968C91928DA9
:102340009F5F9F73928F90E008958FEF9FEF0895A6
:10235000FC01918D828D981731F0828DE80FF11D6F
:10236000858D90E008958FEF9FEF0895FC01918D8A
:10237000228D892F90E0805C9F4F821B91098F7383
:10238000992708958BE692E00E94B61121E0892BEF
:1023900009F420E0822F0895FC01848DDF01A80F4D
:1023A000B11DA35ABF4F2C91848D90E001968F737D
:1023B0009927848FA689B7892C93A089B1898C919C
:1023C00080648C93938D848D981306C00288F38962
:1023D000E02D80818F7D80830895EF92FF920F938F
:1023E0001F93CF93DF93EC0181E0888F9B8D8C8DC1
:1023F000981305C0E889F989808185FD24C0F62EEF
:102400000B8D10E00F5F1F4F0F731127E02E8C8D87
:10241000E8120CC00FB607FCFACFE889F989808171
:1024200085FFF5CFCE010E94CC11F1CF8B8DFE013F
:10243000E80FF11DE35AFF4FF0820B8FEA89FB8909
:102440008081806207C0EE89FF896083E889F9890D
:1024500080818064808381E090E0DF91CF911F9143
:102460000F91FF90EF900895CF93DF93EC01888D4B
:102470008823C9F0EA89FB89808185FD05C0A88988
:10248000B9898C9186FD0FC00FB607FCF5CF80810E
:1024900085FFF2CFA889B9898C9185FFEDCFCE0158
:1024A0000E94CC11E7CFDF91CF91089580E090E0BA
:1024B000892B29F00E94C21181110C94000008950B
:1024C000833081F028F4813099F08230A1F00895B2
:1024D0008730A9F08830B9F08430D1F48091800041
:1024E0008F7D03C0809180008F7780938000089556
:1024F00084B58F7702C084B58F7D84BD08958091A7
:10250000B0008F7703C08091B0008F7D8093B000C2
:1025100008953FB7F8948091C1039091C203A091B0
:10252000C303B091C40326B5A89B05C02F3F19F083
:102530000196A11DB11D3FBFBA2FA92F982F882743
:10254000820F911DA11DB11DBC01CD0142E0660F9E
:10255000771F881F991F4A95D1F708952091D001C0
:102560003091D1012817390771F49091CE018091F3
:10257000CF01981741F0E091CE01F0E0E458FC4F14
:10258000808190E008958FEF9FEF089508951F9345
:10259000CF93DF93DC015C962D913C915D972115E3
:1025A000310539F481E090E013969C938E93129755
:1025B0003DC05196ED91FC91529750969C91509749
:1025C000892F80951FB75E964C915E9741FB7727C8
:1025D00070F941FD6095F8944081772311F0492B03
:1025E00001C048234083E9012197F1F748E0508179
:1025F00060FF02C0592B01C058235083E901219785
:10260000F1F76695415099F7772321F0908189235E
:10261000808303C08081982B90831FBF5C968D912F
:102620009C915D970197F1F721E030E0C901DF91BE
:10263000CF911F9108952091D0013091D101281799
:10264000390771F48091CF012091CE0190E0805C38
:102650009F4F821B910960E470E00E94E53208956B
:1026600080E090E008952091D0013091D1012817A9
:102670003907B9F49091CE018091CF01981789F074
:10268000E091CE01F0E0E458FC4F80812091CE0132
:1026900030E02F5F3F4F2F7333272093CE0190E020
:1026A00008958FEF9FEF0895089580E090E00895DA
:1026B0000E94FF33CF93DF93EC01E881F9818081A1
:1026C00091810E946B118A819B8101969B838A83F1
:1026D000DF91CF910895EF92FF920F931F93CF93C5
:1026E000DF93EC01E880F980D7018D919C91FC018A
:1026F000048115816115710551F0FB0101900020E5
:10270000E9F73197AF01461B570B0E941811D7010B
:10271000ED91FC91848195812A813B81280F391F9D
:10272000201B310B3B832A83DF91CF911F910F91A7
:10273000FF90EF9008950F931F93CF93DF93CDB742
:10274000DEB766970FB6F894DEBF0FBECDBF8C0123
:10275000CB011E8AFE0176962AE030E0B9010E9484
:10276000E53290E3980F9293CB010097B9F7BF0140
:10277000C8010E946B1366960FB6F894DEBF0FBEB9
:10278000CDBFDF91CF911F910F9108958F929F92AE
:10279000AF92BF92EF92FF920F931F93CF93DF936D
:1027A000CDB7DEB766970FB6F894DEBF0FBECDBFCC
:1027B0007C011E8A8E010A5E1F4F8AE0882E912CB2
:1027C000A12CB12CCB01BA01A50194010E94F932D0
:1027D000942F852F605DF80162938F01A901692F05
:1027E000782F411551056105710561F7BF01C701DA
:1027F0000E946B1366960FB6F894DEBF0FBECDBF76
:10280000DF91CF911F910F91FF90EF90BF90AF900C
:102810009F908F900895FF920F931F93CF93DF9314
:102820006115710549F468EA71E0DF91CF911F915C
:102830000F91FF900C946B138B01EC0162E2CE01BF
:102840000E945A13F80161918F01662351F0E9E962
:10285000F1E0F080FF2099F39181961759F03296BC
:10286000F8CF62E2CE01DF91CF911F910F91FF90DF
:102870000C945A136CE5CE010E945A136F2DDFCFD2
:102880001F920F920FB60F9211242F933F934F93E5
:102890005F936F937F938F939F93AF93BF93EF93C8
:1028A000FF938BE692E00E94CC11FF91EF91BF91D4
:1028B000AF919F918F917F916F915F914F913F91D8
:1028C0002F910F900FBE0F901F9018951F920F928F
:1028D0000FB60F9211242F938F939F93EF93FF9333
:1028E000E0917B02F0917C028081E0918102F09185
:1028F000820282FD12C09081809184028F5F8F736B
:1029000020918502821751F0E0918402F0E0E559B0
:10291000FD4F958F8093840201C08081FF91EF91DC
:102920009F918F912F910F900FBE0F901F90189530
:10293000CF93DF93282F30E0F901EF50FB4F8491C4
:10294000F901ED52FB4FD491F901E154FB4FC491D1
:10295000CC2391F081110E946012EC2FF0E0EE0F79
:10296000FF1FEB54FB4FA591B491EC91ED2381E057
:1029700090E021F480E002C080E090E0DF91CF9110
:1029800008951F93CF93DF93282F30E0F901EF5084
:10299000FB4F8491F901ED52FB4FD491F901E154C1
:1029A000FB4FC491CC23C9F0162F81110E946012F5
:1029B000EC2FF0E0EE0FFF1FE555FB4FA591B49112
:1029C0008FB7F894111105C09C91ED2FE095E92384
:1029D00002C0EC91ED2BEC938FBFDF91CF911F9153
:1029E0000895CF93DF9390E0FC01ED52FB4F2491CB
:1029F000FC01E154FB4F8491882361F190E0880F42
:102A0000991FFC01E951FB4FC591D491FC01E5559B
:102A1000FB4FA591B491611109C09FB7F8948881CB
:102A2000209582238883EC912E230BC0623061F4C1
:102A30009FB7F8943881822F809583238883EC9107
:102A40002E2B2C939FBF06C08FB7F894E8812E2BB6
:102A500028838FBFDF91CF9108958F929F92AF927D
:102A6000BF92CF92DF92EF92FF926B017C010E94A6
:102A700089124B015C01C114D104E104F104F1F0AD
:102A80000E948912DC01CB0188199909AA09BB09A6
:102A9000883E9340A105B10570F321E0C21AD10828
:102AA000E108F10888EE880E83E0981EA11CB11C95
:102AB000C114D104E104F10419F7DDCFFF90EF90C8
:102AC000DF90CF90BF90AF909F908F9008952FB7D9
:102AD000F8946091BD037091BE038091BF03909103
:102AE000C0032FBF08951F920F920FB60F921124AB
:102AF0002F933F938F939F93AF93BF938091BD0389
:102B00009091BE03A091BF03B091C0033091BC036C
:102B100023E0230F2D3720F40196A11DB11D05C020
:102B200026E8230F0296A11DB11D2093BC038093BC
:102B3000BD039093BE03A093BF03B093C0038091E5
:102B4000C1039091C203A091C303B091C403019645
:102B5000A11DB11D8093C1039093C203A093C30331
:102B6000B093C403BF91AF919F918F913F912F91EB
:102B70000F900FBE0F901F9018951F920F920FB6D7
:102B80000F9211242F933F934F935F936F937F93F3
:102B90008F939F93AF93BF93EF93FF93E091D001F7
:102BA000F091D101309709F451C0968DA685B78573
:102BB000858591FF04C09C91892329F447C09C918D
:102BC000892309F043C0A389B4899C9185898095A4
:102BD00089238C93868997890197F1F7608D718D90
:102BE000A685B785558538E020E0CB010197F1F740
:102BF000822F90E095958795282F4C91452309F0D9
:102C00002068315091F7868D81FD20958091CF010C
:102C100090E001968F7399273091CE01381749F0D3
:102C2000A091CF01B0E0A458BC4F2C938093CF016A
:102C300003C0868D8160868F828D938D0197F1F719
:102C4000A389B4899C918589892B8C93FF91EF91FD
:102C5000BF91AF919F918F917F916F915F914F91B4
:102C60003F912F910F900FBE0F901F901895E091FC
:102C7000D001F091D101E817F90769F4A389B4896B
:102C80009C918589809589238C931092D101109213
:102C9000D00181E0089580E00895CF92DF92EF9215
:102CA000FF920F931F93CF93DF93EC010E94671560
:102CB0006B017C01609378037093790380937A03AE
:102CC00090937B0388810E949814809377039A8164
:102CD000992329F091E0811190E0909377038A8500
:102CE0009B85AC85BD8597018601081B190B2A0BB6
:102CF0003B0B4E855F85688979899B810417150791
:102D00002607370738F4CE82DF82E886F9861D82EF
:102D1000892F12C09C83809177038B83CE82DF82C0
:102D2000E886F986891739F0CA86DB86EC86FD8647
:102D300091E09D8301C01D82DF91CF911F910F9182
:102D4000FF90EF90DF90CF9008952F923F924F9297
:102D50005F926F927F928F929F92AF92BF92CF922B
:102D6000DF92EF92FF920F931F93CF93DF93CDB734
:102D7000DEB76A970FB6F894DEBF0FBECDBFDC0199
:102D8000ED91FC913197E830F10508F027C28B01F5
:102D90007C01EC5CFF4F0C941B33FC01C280D380A0
:102DA000E480F580A7019601C701B6010E943F307B
:102DB000882319F068EB71E0A1C020E030E0A901A0
:102DC000C701B6010E943F3087FF08C06DE2C8010D
:102DD0000E945A13F7FAF094F7F8F09420E030E0EC
:102DE000A901C701B6010E943F30882309F48AC0B7
:102DF000A7019601C701B6010E94CE31A701960135
:102E00000E943F3081117EC06FEB71E077C0DC0122
:102E10001296ED90FC9013976BE5C8010E945A132F
:102E2000F701E280F380E114F10459F0B801C70121
:102E300002960E94A516D701ED90FC90E114F104D2
:102E400011F46DE52FC06CE2C8010E945A13EBCF5C
:102E5000FC01E280F3806BE7C8010E945A13D7019E
:102E60001296ED90FC90139704C06CE2C8010E948A
:102E70005A13E114F104A9F0F70162817381C801CA
:102E80000E940B146AE3C8010E945A13B801C701DB
:102E900004960E94A516D701ED90FC90E114F10470
:102EA00021F76DE7C8010E945A1398C1FC016281A5
:102EB0007381C8010E940B1491C1DC0112966D91BF
:102EC0007C9113971BC06DE2C8010E945A13F70151
:102ED0004281538164817581C8010E94C6137EC1FD
:102EE000FC0182819381A481B581892B8A2B8B2B54
:102EF00019F462EB71E002C06DEA71E0C8010E9452
:102F00006B136CC120E836E948E15BE4C701B60108
:102F10000E94DB3287FD5AC1412C512C70E2672E92
:102F2000712C812C912CF201E05AFE4F24893589B5
:102F300046895789C701B6010E94DB3287FD0FC061
:102F4000F201E85BFE4F2489358946895789C7011C
:102F5000B6010E94A5306B017C01860C971C75940C
:102F60006794F4E04F1A510888EE48168FEF580620
:102F7000D1F655245A9420E030E0A901C701B601EA
:102F80000E94DB32181694F52CEA35EC47E257E341
:102F9000C701B6010E943F30181644F1BFEF5B161F
:102FA00029F1952DA4E09A0250011124F501E05D6C
:102FB000FE4F2081318142815381C701B6010E94B9
:102FC0003F3087FF0FC0F501E05AFE4F208131816D
:102FD00042815381C701B6010E94A5306B017C017B
:102FE00086189708759467945A94D8CFC701B6018C
:102FF0000E94AC322B013C016B8B7C8B8D8B9E8BAA
:1030000046E0A42E80E492E4AFE0B0E08F8B988F8E
:10301000A98FBA8FBA2CAA24AA94AB0C8B899C894D
:10302000AD89BE890A97A105B105E8F06F89788D51
:10303000898D9A8D2AE030E040E050E00E94F9321C
:103040002F8B388F498F5A8F6B897C898D899E8908
:103050002AE030E040E050E00E94F9322B8B3C8BBC
:103060004D8B5E8BD7CFC301B2010E9444309B01D0
:10307000AC01C701B6010E94CD316B017C016F89A3
:10308000788D898D9A8D0E9444309B01AC01C701D7
:10309000B6010E94A5306B8B7C8B8D8B9E8B0E9422
:1030A000AC326B017C010E9444309B01AC016B8906
:1030B0007C898D899E890E94CD319B01AC010E9443
:1030C000CE310E94AC32C60ED71EE81EF91E8F8983
:1030D000988DA98DBA8DC816D906EA06FB0610F19F
:1030E0009FEF491A590A690A790A8114910489F0F3
:1030F000AAE04A1651046104710458F0BFEF8B1A1C
:103100009B0AC12CD12C7601412C512C32014394C5
:1031100009C0C12CD12C760105C01B147CF46901B7
:103120007A01BA94C701B6012AE030E040E050E0ED
:103130000E94F932672B682B692B79F3AB2CB30112
:10314000A201C8010E94C613BB2041F1188A3E01AA
:10315000E0E16E0E711C7A8A698A2AE0222E312CF7
:10316000412C512CAA94BFEFAB1669F0C701B601F0
:10317000A20191010E94F932605DD3016E933D017D
:1031800069017A01EFCF69897A896B1971098EE239
:10319000FB018293BF01C8010E946B1397FE0AC016
:1031A0006CEB71E0C8010E946B13662777276819E2
:1031B000790908C08114910489F065E6C8010E946C
:1031C0005A13B401C8010E949B1308C080E2682E04
:1031D000712C95E0592E812C912CCDCE6A960FB68C
:1031E000F894DEBF0FBECDBFDF91CF911F910F913D
:1031F000FF90EF90DF90CF90BF90AF909F908F9017
:103200007F906F905F904F903F902F9008950F9315
:103210001F93CF93DF938B01FC01C281D381209751
:10322000B1F06A817B81F80180819181009719F06A
:103230006115710521F48617970729F408C00E94CB
:103240002A34892B21F00990D881C02DE8CFCE01F6
:10325000DF91CF911F910F910895FC01A081B18161
:103260008C918D3051F024F489508230B8F505C02E
:10327000803219F08F3219F0089511962CC01196F2
:103280008C9111978A3219F08F32D1F008951196EE
:10329000B183A083A081B181CD0101969183808308
:1032A00011968C9111978823C9F08A3299F712965A
:1032B0008C9112978F3271F713960DC08A3071F28C
:1032C000A081B181CD0101969183808311968C916B
:1032D0008111F4CF03C0B183A083C0CF08950F93B1
:1032E0001F93CF93DF931F92CDB7DEB78C01698315
:1032F0000E942D19D801ED91FC911197808169816F
:10330000861305C03196ED93FC9381E001C080E007
:103310000F90DF91CF911F910F9108958F929F92FF
:10332000AF92BF92FF920F931F93CF93DF930E94B0
:103330000719FC01892B09F407C184819581833029
:1033400091053CF481309105C4F4892B09F4FCC04B
:10335000F6C08530910554F0059709F0F0C06681FC
:103360007781808591850E944430E7C066817781AE
:10337000808591850E944430FEC0C681D781209708
:1033800009F4E2C088818B3229F08D3221F4219634
:1033900011E002C0219610E08881843709F4D8C07A
:1033A0008F7D8E3409F4D9C0893409F47AC0F12CA8
:1033B00020E030E0A901FE01099180ED800F8A3004
:1033C000E8F42C3C8CEC38078CE048075105A4F459
:1033D000AAE0B0E00E947C31202F000F330B205375
:1033E00031094901330FAA08BB089B01AC01280D24
:1033F000391D4A1D5B1DDFCFF394DDCF0E3221F561
:10340000EF012196FE01099180ED800F8A30E0F4F2
:103410002C3C8CEC38078CE0480751059CF7AAE05F
:10342000B0E00E947C31202F000F330B2053310974
:103430004901330FAA08BB089B01AC01280D391DB7
:103440004A1D5B1DFA94DECF60816F7D8F2DFF0CCE
:10345000990B6534C1F561816D3219F4329671E0D2
:1034600006C06B3211F0319601C0329670E0C0E0B8
:10347000D0E00AE06191A0EDA60FAA30F0F40C9F15
:10348000D0010D9FB00D1124C62F660FDD0BE09704
:10349000CA0FDB1FDE01A80FB91F97975CF37111EC
:1034A00008C0112309F463C060E070E080E89FEF7A
:1034B00062C0112309F448C055C0772331F0D1957B
:1034C000C195D10902C0C0E0D0E0C80FD91FCA0120
:1034D000B9010E9446301C161D06ACF400E0C0FF86
:1034E0000CC024E0029FF0011124E05AFE4F20811D
:1034F0003181428153810E94A530D595C7950F5FD8
:10350000209769F718C0D195C195D10900E020979F
:1035100091F0C0FF0CC024E0029FF0011124E85B91
:10352000FE4F20813181428153810E94A530D59583
:10353000C7950F5FECCF1123F1F090581CC0668146
:1035400077818085918517C060E070E0CB0113C062
:1035500060E070E080E89FE30EC060E070E080EC27
:103560009FE709C060E070E080E090E804C060E0A0
:1035700070E080E89FE7DF91CF911F910F91FF905E
:10358000BF90AF909F908F900895EF92FF920F930E
:103590001F93CF93DF938C01DC011496CD91DC91C6
:1035A0001597EA80FB808E819F81E80EF91EC80185
:1035B00002960E942D19D8011296ED91FC91139755
:1035C00090819732A9F1923299F180ED890F8A307A
:1035D00078F081EA890F8C3158F08FEB890F8A31AE
:1035E00038F09B3229F083ED890F823008F060C0FB
:1035F000F801228133812F5F3F4F338322832E8155
:103600003F81A9014F5F5F4F6C817D816417750712
:1036100040F06A817B81FB01E20FF31F5F834E83E1
:103620009083D8011296ED91FC9113979081CDCFA4
:103630003196D8011396FC93EE931297D801129607
:10364000ED91FC9113972081222391F1AF014F5FFF
:103650005F4F13965C934E931297291749F12C35BF
:10366000A9F42181ADE9B1E08C91882339F082136E
:1036700003C011962C9102C01296F6CF2223C1F0FE
:103680003296D8011396FC93EE9312974E815F8188
:10369000BA016F5F7F4FEC81FD81E617F70770F28B
:1036A000EA81FB81E40FF51F7F836E832083C6CF01
:1036B0008E819F819C012F5F3F4F4C815D8142171E
:1036C000530748F04A815B81FA01E80FF91F3F83F5
:1036D0002E83108202C0E12CF12CC701DF91CF9123
:1036E0001F910F91FF90EF900895CF92DF92EF928C
:1036F000FF920F931F93CF93DF93CDB7DEB72C9735
:103700000FB6F894DEBF0FBECDBF8C016B01FB017D
:10371000E080F180F1E0EF16F10461F4FB016281D9
:1037200073816115710531F088EA91E00E942A34B5
:10373000892B89F0F1E0EF1AF10882E0E816F10434
:1037400050F4F601628173816115710521F0C801A1
:103750000E94202023C067EA71E0CE0101967C011F
:103760000E942020FC86EB86CE010B9698878F83E3
:103770001A861986BE01695F7F4FC6010E94A51691
:10378000F801118210821382128215821482B7010D
:10379000C8010E94BD1EC7010E947E1FC8012C9651
:1037A0000FB6F894DEBF0FBECDBFDF91CF911F9152
:1037B0000F91FF90EF90DF90CF9008957F928F92BE
:1037C0009F92AF92BF92CF92DF92EF92FF920F93B0
:1037D0001F93CF93DF9300D000D000D0CDB7DEB7DA
:1037E000FC019681911112C08091C90381110BC017
:1037F0001092C6031092C5031092C8031092C7031B
:1038000081E08093C90305EC13E0B4C06F019150CF
:10381000968300811181B80184E090E00E94D40B6E
:10382000009751F0DC0111961C930E9313961C9295
:103830001E9212978C0111C08091C90381110BC097
:103840001092C6031092C5031092C8031092C703CA
:1038500081E08093C90305EC13E05601B2E0AB0EA2
:10386000B11C6BE7C5010E946F19882309F4BCCF16
:103870006DE7C5010E946F19811153C086E0782E53
:10388000C6010E94C51A4C01892B09F4ADCF6AE329
:10389000C5010E946F19882309F4A6CF1A821982E4
:1038A000BE016F5F7F4FC6010E94CE0E882309F4D0
:1038B0009BCFF801E280F380E114F104B9F1D70164
:1038C00012966D917C9113976115710529F0C401D1
:1038D0000E942A34892B79F0F701E080F180ECCF47
:1038E000F182E082E114F10409F47ECFD70113964E
:1038F0009C928E921297FE013196D7011496872DD5
:1039000001900D928A95E1F76DE7C5010E946F194C
:10391000811107C06CE2C5010E946F198111B0CFFF
:1039200063CFF60186818F5F868324C0D8016D91B5
:103930007C918AE090E00E94D40B7C01892B41F0BD
:10394000D70111961C921E9215961C921E921497E6
:10395000D8011296ED91FC911397309739F0808140
:103960009181009709F4BCCFFC01F9CFF801F382F3
:10397000E282B8CFC80126960FB6F894DEBF0FBE1C
:10398000CDBFDF91CF911F910F91FF90EF90DF900E
:10399000CF90BF90AF909F908F907F900895CF92DF
:1039A000DF92EF92FF921F93CF93DF93CDB7DEB7F5
:1039B0006E970FB6F894DEBF0FBECDBF7B01BC0182
:1039C000CE0107960E94D103CE0107960E9499046A
:1039D000182F882309F462C160E08CE00E94C114B2
:1039E0006DE575E08BE692E00E94562061E08CE088
:1039F0000E94C11460E08CE00E94C114CE010796C1
:103A00000E94280E61E08CE00E94C11460E08CE00E
:103A10000E94C114C7010E94280E61E08CE00E9440
:103A2000C114CE0107960E949904182F60E08CE023
:103A3000112309F41BC10E94C1140E949A064AE096
:103A4000BC01CE0149960E94B31F64E575E0CE012A
:103A500043960E94DF1F6DE475E0CE0101960E943F
:103A6000DF1FBE016F5F7F4FCE010D960E941720B2
:103A7000BE016D5E7F4FCE010D960E9458110E94CF
:103A80004611BE01675E7F4F0E9458110E94280EAA
:103A9000CE010D960E947E1FCE0101960E947E1FD0
:103AA000CE0143960E947E1FCE0149960E947E1F42
:103AB00061E08CE00E94C114F701E080F180CF80CA
:103AC000D88460E08CE00E94C11462E175E08CE46F
:103AD00093E00E9456200E94280D61E08CE00E9435
:103AE000C11440ED57E060E070E0CE0101960E9405
:103AF000800EBE016F5F7F4F86E493E00E94BD1E83
:103B0000CE0101960E947E1F60E08CE00E94C114ED
:103B100068E075E08CE493E00E9456200E94280D36
:103B200061E08CE00E94C11460E08CE00E94C1144E
:103B3000B6018CE493E00E947A200E94280D61E097
:103B40008CE00E94C11460E08CE00E94C11465E02A
:103B500075E08CE493E00E9456200E94280D61E0FD
:103B60008CE00E94C11440ED57E060E070E0CE01AF
:103B700001960E94800EBE016F5F7F4F86E493E046
:103B80000E94BD1ECE0101960E947E1F60E08CE067
:103B90000E94C114B7018CE493E00E947A200E9435
:103BA000280D61E08CE00E94C11460E08CE00E946E
:103BB000C1146EE771E08CE493E00E947A200E94C9
:103BC000280D61E08CE00E94C11448E853E160E0F8
:103BD00070E0CE0101960E94800EBE016F5F7F4FA4
:103BE00086E493E00E94BD1ECE0101960E947E1FD6
:103BF00060E08CE00E94C1146AE18CE493E00E94D2
:103C00004F200E94280D61E08CE00E94C11448E81A
:103C100053E160E070E0CE0101960E94800EBE018B
:103C20006F5F7F4F86E493E00E94BD1ECE01019638
:103C30000E947E1F68EC71E0CE0101960E94202058
:103C4000BE016F5F7F4F86E493E00E9463107C01AA
:103C5000CE0101960E947E1FEF20E09491F060E07B
:103C60008CE00E94C1148CE395E004C00E94C11452
:103C70008DE195E00E942E0D61E08CE00E94C11460
:103C80000DC060E08CE00E94C1148CE295E00E94BF
:103C90002E0D61E08CE00E94C11410E0CE01079669
:103CA0000E947E1F812F6E960FB6F894DEBF0FBE66
:103CB000CDBFDF91CF911F91FF90EF90DF90CF901C
:103CC00008950895CF92DF92EF92FF920F931F9382
:103CD000CF93DF936C017A018B01C0E0D0E0CE1569
:103CE000DF0589F0D8016D918D01D601ED91FC9130
:103CF0000190F081E02DC6010995892B11F47E0118
:103D000002C02196ECCFC701DF91CF911F910F9197
:103D1000FF90EF90DF90CF9008950F931F93CF9374
:103D2000DF93EC010E946715688779878A879B87F4
:103D3000E881F9810284F385E02DCE01099597FF92
:103D400017C00E946715088519852A853B85DC0107
:103D5000CB01801B910BA20BB30B0C811D812E811B
:103D60003F8180179107A207B30710F38FEF9FEFF2
:103D7000DF91CF911F910F9108950F931F93CF93D0
:103D8000DF938C01EB01FC01808191810097B1F000
:103D9000688179816115710579F0428153812C81A7
:103DA0003D814217530740F00E9433348C819D813E
:103DB000F8019583848313C00E94E82C888199813F
:103DC000F801918380838A819B81938382838C8194
:103DD0009D8195838483198218821B821A821D8299
:103DE0001C82DF91CF911F910F9108950F931F9324
:103DF000CF93DF93EC0188819981009729F02A8184
:103E00003B812617370788F48B016F5F7F4F0E9435
:103E10003533009761F0998388831B830A832C8153
:103E20003D81232B11F4FC01108281E001C080E070
:103E3000DF91CF911F910F910895CF93DF93EC0104
:103E400088819981009711F00E94E82C19821882CC
:103E50001D821C821B821A82DF91CF910895EF92FE
:103E6000FF920F931F93CF93DF93EC017B018A01A5
:103E7000BA010E94F61E811104C0CE010E941D1FCE
:103E800007C01D830C83B701888199810E94333458
:103E9000CE01DF91CF911F910F91FF90EF90089588
:103EA000CF93DF93EC016115710559F0FB0101908F
:103EB0000020E9F73197AF01461B570B0E942F1FD7
:103EC00002C00E941D1FCE01DF91CF910895CF93B4
:103ED000DF93EC01FB018617970761F06081718128
:103EE0006115710529F0448155810E942F1F02C080
:103EF0000E941D1FCE01DF91CF910895FC018081AA
:103F000091810C94E82CEF92FF920F931F93CF9323
:103F1000DF93CDB7DEB7A1970FB6F894DEBF0FBE23
:103F2000CDBF7C01CB01BA01F7011182108213824F
:103F300012821582148242E0420F8E010F5F1F4FE2
:103F40000E94332CBC01C7010E94501FA1960FB6DE
:103F5000F894DEBF0FBECDBFDF91CF911F910F91BF
:103F6000FF90EF9008950F931F93CF93DF93CDB7FA
:103F7000DEB762970FB6F894DEBF0FBECDBF8C01DF
:103F8000CB01F801118210821382128215821482F1
:103F900050E0BE016F5F7F4F0E94902DBE016F5FAA
:103FA0007F4FC8010E94501F62960FB6F894DEBF83
:103FB0000FBECDBFDF91CF911F910F910895EF926A
:103FC000FF920F931F93CF93DF93EC011982188216
:103FD0001B821A821D821C826115710509F18B01F9
:103FE000CB010E94872D7C01BC01CE010E94F61EF0
:103FF000811109C0CE01DF91CF911F910F91FF90E8
:10400000EF900C941D1FFD82EC82B801888199818C
:10401000DF91CF911F910F91FF90EF900C94802D25
:10402000DF91CF911F910F91FF90EF900895FC01C8
:104030001182108213821282158214820C94671FDF
:10404000FC01118210821382128215821482611582
:10405000710551F0FB0101900020E9F73197AF01A4
:10406000461B570B0C942F1F08950F931F93CF934C
:10407000DF93EC018B0167EA71E00E942020C80108
:104080000E948D1E97FD05C0682FCE010E946B1106
:10409000F6CFCE01DF91CF911F910F910895DC01F2
:1040A000ED91FC910190F081E02D0994EF92FF9247
:1040B0000F931F93CF93DF938C017B01C0E0D0E07F
:1040C000F701EC0FFD1F6491662361F0D801ED91BB
:1040D000FC910190F081E02DC8010995892B11F028
:1040E0002196EECFCE01DF91CF911F910F91FF90DE
:1040F000EF9008956115710579F0FB0101900020A2
:10410000E9F73197AF01461B570BDC01ED91FC91AC
:104110000280F381E02D099480E090E008954F92B1
:104120005F926F927F92EF92FF920F931F93CF93C4
:10413000DF93CDB7DEB7A1970FB6F894DEBF0FBE01
:10414000CDBF7C01FA01CB0119A2223008F42AE08C
:104150008E010F5D1F4F422E512C612C712CBF011F
:10416000A30192010E94F932F901CA01015011091B
:104170006A3014F4605D01C0695CD8016C93232B34
:10418000242B252B61F7B801C7010E947A20A19644
:104190000FB6F894DEBF0FBECDBFDF91CF911F9158
:1041A0000F91FF90EF907F906F905F904F900895E8
:1041B000CF93DF93CDB7DEB76E970FB6F894DEBF1F
:1041C0000FBECDBF789484B5826084BD84B5816014
:1041D00084BD85B5826085BD85B5816085BD8091D2
:1041E0006E00816080936E0010928100809181004A
:1041F0008260809381008091810081608093810042
:10420000809180008160809380008091B100846003
:104210008093B1008091B00081608093B000809164
:104220007A00846080937A0080917A008260809323
:104230007A0080917A00816080937A0080917A0080
:10424000806880937A001092C100E0917B02F09127
:104250007C0282E08083E0917702F0917802108204
:10426000E0917902F0917A028FEC808310928302C0
:10427000E0917F02F091800286E08083E0917D02F0
:10428000F0917E02808180618083E0917D02F091D7
:104290007E02808188608083E0917D02F0917E02C1
:1042A000808180688083E0917D02F0917E02808130
:1042B0008F7D808388EC90E0A0E0B0E080936F0277
:1042C00090937002A0937102B093720262E370E067
:1042D00080E090E00E942D1560E08CE00E94C11407
:1042E00067ED71E0CE0101960E94DF1F6DEC71E079
:1042F000CE010D960E94DF1FBE01635F7F4FCE018E
:1043000007960E941720BE016F5F7F4FCE01079670
:104310000E9458110E94280ECE0107960E947E1F0F
:10432000CE010D960E947E1FCE0101960E947E1F37
:1043300061E08CE00E94C11460E08CE00E94C11436
:104340000E949A064AE0BC01CE0101960E94B31F6A
:104350006BEC71E0CE0107960E94DF1F64EC71E008
:10436000CE0143960E94DF1FBE016D5E7F4FCE01DE
:104370000D960E941720BE01695F7F4FCE010D96FA
:104380000E9458110E944611BE016F5F7F4F0E942C
:1043900058110E94280ECE010D960E947E1FCE015C
:1043A00043960E947E1FCE0107960E947E1FCE017B
:1043B00001960E947E1F61E08CE00E94C114109261
:1043C00067031092660310926503109264031092C3
:1043D0006303109262038DE991E0909369038093E7
:1043E000680390915803963108F057C02DEB30E0E8
:1043F00030936303209362032BE931E0309365032C
:10440000209364032CE231E030936703209366032A
:1044100020916800983050F031E09E3008F430E090
:1044200081E001C0880F3A95EAF701C084E0822B51
:1044300080936800983038F09E3040F0963148F014
:1044400020E030E008C02DE630E005C02BE630E08B
:1044500002C02CE630E03093600320935F03983075
:1044600030F481E001C0880F9A95EAF70EC0292F39
:1044700030E09E3018F42850310902C02E50310926
:1044800081E001C0880F2A95EAF78093610380914B
:104490006803909169030197F1F780916603909109
:1044A0006703892B21F18091D0019091D10123E004
:1044B0008C349207E1F0009711F00E94371680913A
:1044C0006A038E7F80936A031092CF011092CE010F
:1044D0008CE493E09093D1018093D001E0915F034D
:1044E000F0916003908180916103892B808361E06A
:1044F0008CE00E94F11460E08CE00E94C1146FEF28
:1045000070E086E493E00E94F61E62E08091310341
:104510000E94F11480E398EFAFEFBFEF8093350373
:1045200090933603A0933703B093380360E08CE098
:104530000E94C1140E949A064AE0BC01CE01019675
:104540000E94B31F62EC71E0CE0107960E94DF1F4C
:104550006BEB71E0CE0143960E94DF1FBE016D5EE2
:104560007F4FCE010D960E941720BE01695F7F4FDD
:10457000CE010D960E9458110E944611BE016F5F38
:104580007F4F0E9458110E94280ECE010D960E9466
:104590007E1FCE0143960E947E1FCE0107960E9489
:1045A0007E1FCE0101960E947E1F61E08CE00E947A
:1045B000C1142DE1E22E22E0F22E04E610E0C80143
:1045C0000E946631F70181937F010F5F1F4F04370F
:1045D0001105A9F760E08CE00E94C11482E791E028
:1045E0000E942E0D61E08CE00E94C1140E942406FE
:1045F00002ED11E0E12CF12CC7010E946631F801B7
:1046000081938F01FFEFEF1AFF0A2BE4E216F1040A
:1046100099F760E08CE00E94C11481E891E00E946B
:104620002E0D61E08CE00E94C1140E94940560E0B0
:104630008CE00E94C1140E949A064AE0BC01CE019F
:1046400001960E94B31F69EB71E0CE0107960E94AC
:10465000DF1F62EB71E0CE0143960E94DF1FBE01B7
:104660006D5E7F4FCE010D960E941720BE01695FDF
:104670007F4FCE010D960E9458110E944611BE0137
:104680006F5F7F4F0E9458110E94280ECE010D9639
:104690000E947E1FCE0143960E947E1FCE01079688
:1046A0000E947E1FCE0101960E947E1F61E08CE079
:1046B0000E94C11460E08CE00E94C1140E94280D89
:1046C00061E08CE00E94C1140E9467156B017C01BF
:1046D00060E08CE00E94C11468E971E08CE493E032
:1046E0000E9456200E94280D61E08CE00E94C114B7
:1046F00068E771E0CE0107960E94202044EF51E068
:1047000060E070E0CE0101960E94800EBE01695FFC
:104710007F4FCE0101960E9463108C01CE0101965D
:104720000E947E1FCE0107960E947E1F0F3F1F4FE3
:10473000F1F460E08CE00E94C11463E971E08CE464
:1047400093E00E9456200E94280D61E08CE00E94B8
:10475000C1140E946715DC01CB018C199D09AE09BB
:10476000BF09813D9740A105B10510F20CC060E082
:104770008CE00E94C11488EA91E00E942E0D61E055
:104780008CE00E94C11461E08CE00E94C11460E0E2
:104790008CE00E94C1140E949A064AE0BC01CE013E
:1047A00001960E94B31F64EA71E0CE0107960E9451
:1047B000DF1F6DE971E0CE0143960E94DF1FBE014D
:1047C0006D5E7F4FCE010D960E941720BE01695F7E
:1047D0007F4FCE010D960E9458110E944611BE01D6
:1047E0006F5F7F4F0E9458110E94280ECE010D96D8
:1047F0000E947E1FCE0143960E947E1FCE01079627
:104800000E947E1FCE0101960E947E1F61E08CE017
:104810000E94C11411E08091310281110CC00E94EC
:10482000671560932D0270932E0280932F02909350
:104830003002109331020E946715C0902D02D09073
:104840002E02E0902F02F0903002DC01CB018C1997
:104850009D09AE09BF0989389341A105B10508F446
:10486000B5C00E94671560932D0270932E0280934D
:104870002F02909330020E94310C8823B1F1809175
:1048800032038B3041F188F18551823070F56091AF
:104890002C0370E080E090E00E94443020E030E0A3
:1048A00040E853E40E94A5306B017C0180912D0308
:1048B000682F70E080E090E00E9446309B01AC01E0
:1048C000C701B6010E94CE312DEC3CEC4CEC5DE30F
:1048D0000E94A53007C060912C0370E080E090E05A
:1048E0000E9444304B015C0106C0812C912C90EC5D
:1048F000A92E9FE7B92E0E94310C882309F458C0D5
:10490000809132038B3029F0E0F18551823058F0EC
:1049100038C060912E0370E080E090E00E94443047
:104920006B017C0134C000912E03602F6F7770E023
:1049300080E090E00E94463020E030E040E853E420
:104940000E94A5306B017C0180912F03682F70E0DD
:1049500080E090E00E9446309B01AC01C701B601A7
:104960000E94CE312DEC3CEC4CEC5DE30E94A53076
:104970006B017C0107FF0BC0F7FAF094F7F8F09495
:1049800006C0C12CD12C80ECE82E8FE7F82EA501B3
:104990009401C501B4010E94E032811109C0A70150
:1049A0009601C701B6010E94E032882309F4A2C52E
:1049B0001092430260E08CE00E94C1148FEE91E0FF
:1049C0000E942E0D61E08CE00E94C1148AE193E008
:1049D0000E944D1688E093E00E944D16809143029C
:1049E000882309F408C180913D02C0903902D0901B
:1049F0003A02E0903B02F0903C02811141C0A701D5
:104A0000960160911D0270911E0280911F0290918B
:104A100020020E943F3018160CF4EDC020912102B4
:104A2000309122024091230250912402C701B60125
:104A30000E943F3018160CF4DEC010933D0260E077
:104A40008CE00E94C11468E472E08BE692E00E9460
:104A5000562061E08CE00E94C11460E08CE00E946E
:104A6000C1146091390270913A0280913B02909199
:104A70003C020E941B0E61E08CE00E94C114BBC08E
:104A800020911D0230911E0240911F025091200280
:104A9000C701B6010E943F3087FF4BC010923D0214
:104AA00022E0B701A601CE010D960E94831F6BE2A2
:104AB00072E0CE0101960E94DF1FBE016F5F7F4F43
:104AC000CE0107960E941720BE01635F7F4FCE0183
:104AD00007960E945811BC01CE0143960E941720F0
:104AE000CE0107960E947E1FCE0101960E947E1F76
:104AF000CE010D960E947E1FE12CF12CB701CE0154
:104B000001960E94C104BE016D5E7F4FCE010196E9
:104B10000E94CF1CCE0101960E947E1F8FEFE81AE3
:104B2000F80AE5E0EE16F10449F7CE0143960E943B
:104B30007E1FC0903902D0903A02E0903B02F09084
:104B40003C02209121023091220240912302509197
:104B50002402C701B6010E94DB3218160CF04BC0CC
:104B600010923D0222E0B701A601CE010D960E94EF
:104B7000831F6FE072E0CE0101960E94DF1FBE012D
:104B80006F5F7F4FCE0107960E941720BE01635FC3
:104B90007F4FCE0107960E945811BC01CE0143966B
:104BA0000E941720CE0107960E947E1FCE0101961B
:104BB0000E947E1FCE010D960E947E1FE12CF12CDB
:104BC000B701CE0101960E94C104BE016D5E7F4F08
:104BD000CE0101960E94CF1CCE0101960E947E1F3D
:104BE000FFEFEF1AFF0A25E0E216F10449F7CE01C4
:104BF00043960E947E1F80914302882309F408C1D6
:104C000080914202C0903E02D0903F02E09040026C
:104C1000F0904102811141C0A701960160912502E7
:104C20007091260280912702909128020E943F30C5
:104C300018160CF4EDC02091290230912A024091FF
:104C40002B0250912C02C701B6010E943F3018166A
:104C50000CF4DEC01093420260E08CE00E94C114AC
:104C60006DE872E08BE692E00E94562061E08CE0F5
:104C70000E94C11460E08CE00E94C11460913E0269
:104C800070913F0280914002909141020E941B0E60
:104C900061E08CE00E94C114BBC0209125023091DC
:104CA00026024091270250912802C701B6010E94B6
:104CB0003F3087FF4BC01092420222E0B701A601AD
:104CC000CE010D960E94831F63E772E0CE0101962C
:104CD0000E94DF1FBE016F5F7F4FCE0107960E94CB
:104CE0001720BE01635F7F4FCE0107960E945811C7
:104CF000BC01CE0143960E941720CE0107960E9468
:104D00007E1FCE0101960E947E1FCE010D960E944D
:104D10007E1FE12CF12CB701CE0101960E94C10447
:104D2000BE016D5E7F4FCE0101960E94CF1CCE0169
:104D300001960E947E1F8FEFE81AF80AE5E0EE1652
:104D4000F10449F7CE0143960E947E1FC0903E02B7
:104D5000D0903F02E0904002F09041022091290261
:104D600030912A0240912B0250912C02C701B601CA
:104D70000E94DB3218160CF04BC01092420222E067
:104D8000B701A601CE010D960E94831F6AE572E06D
:104D9000CE0101960E94DF1FBE016F5F7F4FCE01E3
:104DA00007960E941720BE01635F7F4FCE010796D2
:104DB0000E945811BC01CE0143960E941720CE01DB
:104DC00007960E947E1FCE0101960E947E1FCE0193
:104DD0000D960E947E1FE12CF12CB701CE010196A9
:104DE0000E94C104BE016D5E7F4FCE0101960E94FC
:104DF000CF1CCE0101960E947E1FFFEFEF1AFF0A23
:104E000025E0E216F10449F7CE0143960E947E1F89
:104E10009091440280911D03911107C0811134C00B
:104E200080911F03882381F1B5C3882369F18091A4
:104E30001F03882349F180910B03882329F11092E5
:104E400044026FE972E0CE0107960E94DF1FE12C59
:104E5000F12CB701CE0101960E94C104BE01695F29
:104E60007F4FCE0101960E94CF1CCE0101960E9479
:104E70007E1F8FEFE81AF80AE5E0EE16F10449F715
:104E8000CE0107960E947E1F9091450280910B03F0
:104E9000911107C08823A1F180910D03882381F12E
:104EA0007CC381112DC080910D03882349F180912D
:104EB0001D03811125C0109245026BEB72E0CE01FB
:104EC00007960E94DF1FE12CF12CB701CE0101965D
:104ED0000E94C104BE01695F7F4FCE0101960E940E
:104EE000CF1CCE0101960E947E1FFFEFEF1AFF0A32
:104EF00025E0E216F10449F7CE0107960E947E1FD5
:104F000080914A0281110CC00E946715609346028D
:104F100070934702809348029093490210934A028B
:104F20000E946715C0904602D0904702E090480268
:104F3000F0904902DC01CB018C199D09AE09BF0933
:104F400081319742A105B10508F44DC00E94671553
:104F500060934602709347028093480290934902FF
:104F600060E08CE00E94C1140E949A064AE0BC01F5
:104F7000CE0143960E94B31F6DED72E0CE010D96F7
:104F80000E94DF1F66ED72E0CE0101960E94DF1FD6
:104F9000BE016F5F7F4FCE0107960E941720BE01B2
:104FA000635F7F4FCE0107960E9458110E94461101
:104FB000BE016D5E7F4F0E9458110E94280ECE01E7
:104FC00007960E947E1FCE0101960E947E1FCE0191
:104FD0000D960E947E1FCE0143960E947E1F61E0C7
:104FE0008CE00E94C1148BE692E00E94B611892BDE
:104FF00009F45FC060E08CE00E94C1140E94280D9B
:1050000061E08CE00E94C1146BE672E0CE0149962B
:105010000E943520CE0149960E94BE0F60E08CE0D0
:105020000E94C1140E949A064AE0BC01CE0101967A
:105030000E94B31F60E373E0CE0107960E94DF1F5A
:1050400069E273E0CE0143960E94DF1FBE016D5EF0
:105050007F4FCE010D960E941720BE01695F7F4FE2
:10506000CE010D960E9458110E944611BE016F5F3D
:105070007F4F0E9458110E94280ECE010D960E946B
:105080007E1FCE0143960E947E1FCE0107960E948E
:105090007E1FCE0101960E947E1F61E08CE00E947F
:1050A000C114CE0149960E94C306CE0149960E94C2
:1050B0007E1F8091560281110CC00E94671560937B
:1050C00052027093530280935402909355021093AE
:1050D00056020E946715C0905202D0905302E09091
:1050E0005402F0905502DC01CB018C199D09AE09E8
:1050F000BF0980319742A105B10508F4F6C10E94AD
:1051000067156093520270935302809354029093F8
:10511000550260E08CE00E94C11467EE72E08CE4FE
:1051200093E00E9456200E94280D61E08CE00E94CE
:10513000C1146BE771E0CE0107960E94202048E879
:1051400053E160E070E0CE0101960E94800EBE0146
:10515000695F7F4FCE0101960E9463107C01CE01F2
:1051600001960E947E1FCE0107960E947E1FEF20AF
:10517000E09409F062C060E08CE00E94C1146EED22
:1051800072E08CE493E00E9456200E94280D61E0BA
:105190008CE00E94C11460E08CE00E94C1142AE0FF
:1051A00041E050E060E070E08CE493E00E948F20EA
:1051B0000E94280D61E08CE00E94C11460E08CE048
:1051C0000E94C1146EE771E08CE493E00E947A20A3
:1051D0000E94280D61E08CE00E94C11448E853E170
:1051E00060E070E0CE0101960E94800EBE016F5F0C
:1051F0007F4F86E493E00E94BD1ECE0101960E947F
:105200007E1F60E871E0CE0101960E942020BE0161
:105210006F5F7F4F86E493E00E9463107C01CE01B4
:1052200001960E947E1FEF20E09439F066E473E05F
:10523000CE0149960E94172006C067EA71E0CE01B0
:1052400049960E942020E98CFA8CE114F10409F0BF
:10525000A4C0CE0149960E94BE0F60E08CE00E947F
:10526000C1140E949A064AE0BC01CE0143960E94F6
:10527000B31F60E273E0CE010D960E94DF1F69E16B
:1052800073E0CE0101960E94DF1FBE016F5F7F4F6A
:10529000CE0107960E941720BE01635F7F4FCE01AB
:1052A00007960E9458110E944611BE016D5E7F4F05
:1052B0000E9458110E94280ECE0107960E947E1F60
:1052C000CE0101960E947E1FCE010D960E947E1F88
:1052D000CE0143960E947E1F61E08CE00E94C114C3
:1052E00066E173E0CE0101960E94DF1FBE016F5F91
:1052F0007F4FCE0149960E9463107C01CE0101963A
:105300000E947E1FF7FC57C02D8D3E8DA7014F5F79
:105310005F4FBE01675E7F4FCE0101960E941D1058
:10532000BE016F5F7F4F8EE393E00E94BD1ECE01F2
:1053300001960E947E1F64E173E0CE0101960E94F7
:10534000DF1FBE016F5F7F4F8EE393E00E9463100B
:105350009C0140E050E06EE373E0CE0107960E94AE
:105360001D10BE01695F7F4F8EE393E00E94BD1E5A
:10537000CE0107960E947E1FCE0101960E947E1FDD
:1053800060E08CE00E94C1148EE393E00E94280E3E
:1053900061E08CE00E94C1140EC0F7018081882377
:1053A00009F457CF082E000C990B0E941934F7010D
:1053B00081937F01F2CF60E173E0CE0101960E94FC
:1053C000DF1FBE016F5F7F4FCE0149960E946310C1
:1053D0007C01CE0101960E947E1FF7FC7CC02D8DC2
:1053E0003E8D24503109A7014D5F5F4FBE01675EBE
:1053F0007F4FCE0101960E941D10BE016F5F7F4F4F
:10540000CE0149960E94BD1ECE0101960E947E1FCC
:10541000CE0149960E94BE0F60E08CE00E94C1144C
:1054200069E073E08BE692E00E94562061E08CE038
:105430000E94C11460E08CE00E94C1140E949A0690
:105440004AE0BC01CE0143960E94B31F69EF72E0AF
:10545000CE010D960E94DF1F62EF72E0CE01019631
:105460000E94DF1FBE016F5F7F4FCE0107960E9433
:105470001720BE01635F7F4FCE0107960E9458112F
:105480000E944611BE016D5E7F4F0E9458110E941E
:10549000280ECE0107960E947E1FCE0101960E9423
:1054A0007E1FCE010D960E947E1FCE0143960E9464
:1054B0007E1F61E08CE00E94C114CE0149960E94DB
:1054C000C30660E08CE00E94C1140E94280D61E0D8
:1054D0008CE00E94C11467EA71E08EE393E00E94C1
:1054E000501FCE0149960E947E1F0E943B0E0E94D3
:1054F000561291C910934302C0923902D0923A02D7
:10550000E0923B02F0923C0280923E0290923F0277
:10551000A0924002B092410260E08CE00E94C1146F
:1055200065EE71E08BE692E00E94562061E08CE02F
:105530000E94C11460E08CE00E94C11460913902A5
:1055400070913A0280913B0290913C0242E00E94AD
:105550003D0D61E08CE00E94C11460E08CE00E948F
:10556000C1146BED71E08BE692E00E94562061E081
:105570008CE00E94C11460E08CE00E94C114609134
:105580003E0270913F0280914002909141020E9440
:105590001B0E18CA1093440277CC10934502B0CC6E
:1055A0008EE393E00E947E1F86E493E00E947E1FBC
:1055B00082E291E090934D0380934C038CE493E05E
:1055C0000C94371610926E0210926D0288EE93E0E2
:1055D000A0E0B0E080936F0290937002A0937102FC
:1055E000B093720220E131E030936C0220936B02A1
:1055F00025EC30E0309378022093770224EC30E001
:1056000030937A022093790220EC30E030937C02D0
:1056100020937B0221EC30E030937E0220937D02C8
:1056200022EC30E03093800220937F0226EC30E0C1
:10563000309382022093810210928402109285029C
:10564000109286021092870210924F0310924E031E
:105650008093500390935103A0935203B09353034C
:1056600082E291E090934D0380934C031092630388
:105670001092620310926503109264031092670304
:1056800010926603109269031092680360916A0396
:105690006E7F6D7F60936A036695617081E0682715
:1056A0008BE00E94C11461E08BE00E94F114EEEDEA
:1056B000F4E0E491E0935C03EAECF4E0E491F0E0E0
:1056C000EE0FFF1FE555FB4F8591949190935E037C
:1056D00080935D0360E08AE00E94F11480916A0388
:1056E00081FD04C061E08AE00E94C1148AE08093D9
:1056F0005803EDEDF4E0E491E0935903E9ECF4E0B4
:10570000E491F0E0EE0FFF1FEB54FB4F8591949175
:1057100090935B0380935A0367EA71E086E493E019
:105720000E94202067EA71E08EE393E00E9420202F
:1057300088E0809331038BE080933203EBEDF4E05B
:10574000E491E0933303E7ECF4E0E491E093340375
:1057500080E89EE3A0E0B0E08093390390933A03A1
:10576000A0933B03B0933C038EE080931A0381E047
:1057700080931B0380931C0384EF91E0A0E0B0E0D2
:105780008093280390932903A0932A03B0932B03BB
:1057900062E08EE00E94F11480911A030E94981436
:1057A00080931D0390911C03992329F091E08111AE
:1057B00090E090931D030E946715609320037093FF
:1057C0002103809322039093230320911D032093B0
:1057D0001E0310921F03609324037093250380938C
:1057E0002603909327038FE08093080381E0809342
:1057F000090380930A0384EF91E0A0E0B0E0809376
:10580000160390931703A0931803B093190362E053
:105810008FE00E94F114809108030E9498148093F5
:105820000B0390910A03992329F091E0811190E0F4
:1058300090930B030E94671560930E0370930F0300
:10584000809310039093110320910B0320930C037A
:1058500010920D036093120370931303809314034B
:10586000909315030895EF920F931F93CF93DF93B7
:10587000E80147FD02C034E001C034E1E42F440FE9
:10588000FF0BF7FF03C0F195E195F109E32E022F1D
:105890002E2FAE010E94C02DCE01DF91CF911F911E
:1058A0000F91EF900895CF93DF938230910510F41C
:1058B00082E090E0E091D303F091D40320E030E067
:1058C000C0E0D0E0309711F140815181481759076D
:1058D000C0F04817590761F482819381209719F02D
:1058E0009B838A832BC09093D4038093D30326C0D9
:1058F0002115310519F04217530718F49A01BE011A
:10590000DF01EF010280F381E02DDCCF21153105AD
:1059100009F1281B390B2430310590F412968D9132
:105920009C9113976115710521F0FB01938382838C
:1059300004C09093D4038093D303FD01329644C0F6
:10594000FD01E20FF31F81939193225031092D93B2
:105950003C933AC02091D1033091D203232B41F4E0
:1059600020910201309103013093D2032093D1039F
:1059700020910001309101012115310541F42DB72D
:105980003EB74091040150910501241B350BE09175
:10599000D103F091D203E217F307A0F42E1B3F0BC3
:1059A0002817390778F0AC014E5F5F4F2417350791
:1059B00048F04E0F5F1F5093D2034093D103819361
:1059C000919302C0E0E0F0E0CF01DF91CF91089524
:1059D0000F931F93CF93DF93009709F48CC0FC01C2
:1059E0003297138212820091D3031091D4030115D0
:1059F000110581F420813181820F931F2091D10301
:105A00003091D2032817390779F5F093D203E09348
:105A1000D10371C0D80140E050E0AE17BF0750F489
:105A200012962D913C911397AD012115310509F185
:105A3000D901F3CF9D01DA01338322836081718123
:105A4000860F971F8217930769F4EC01288139812B
:105A5000260F371F2E5F3F4F318320838A819B8122
:105A600093838283452B29F4F093D403E093D303EB
:105A700042C01396FC93EE931297ED014991599110
:105A80009E01240F351FE217F30771F48081918185
:105A9000840F951F029611969C938E938281938119
:105AA00013969C938E931297E0E0F0E0D801129643
:105AB0008D919C911397009719F0F8018C01F6CF06
:105AC0008D919C9198012E5F3F4F820F931F2091E3
:105AD000D1033091D2032817390769F4309729F49C
