:100000000C94B0020C94D8020C94D8020C94BF1239
:100010000C94BF120C94BF120C94D8020C94D8020A
:100020000C94D8020C94D8020C94D8020C94D802E8
:100030000C94D8020C94D8020C94D8020C94D802D8
:100040000C9475120C94D8020C9468110C94421103
:100050000C94D8020C94D8020C94D8020C94D802B8
:100060000C94D8020C94D80245153E1558154F151E
:100070004B15EF141015B51400407A10F35A00A078
:10008000724E18090010A5D4E80000E87648170061
:1000900000E40B54020000CA9A3B000000E1F505A1
:1000A000000080969800000040420F000000A086EB
:1000B00001000000102700000000E803000000001D
:1000C0006400000000000A000000000001000000C1
:1000D00000002C76D888DC674F0823DFC1DFAE59DB
:1000E000E1B1B796E5E3E453C63AE651997696E86E
:1000F000E6C28426EB898C9B62ED407C6FFCEFBCF2
:100100009C9F40F2BAA56FA5F490055A2AF75C931C
:100110006B6CF9676DC11BFCE0E40D47FEF520E652
:10012000B500D0ED902E0300943577050080841E35
:10013000080000204E0A000000C80C333333330F90
:10014000986E12831141EF8D2114893BE65516CF2D
:10015000FEE6DB18D1844B381BF77C1D901DA4BB39
:10016000E424203284725E228100C9F124ECA1E5EE
:100170003D270D0A4C6F616420636F6E666967737B
:10018000000D0A4C6F61642070686F6E65206C69A9
:1001900073740041540D0A0041540D0A0052414D40
:1001A000200072756E0053494D20756E617661694D
:1001B0006C61626C650053494D2072656164790021
:1001C00052414D2000330052414D20003200524137
:1001D0004D2000310056657273696F6E3A20003011
:1001E0002E322E31000D0A48756D69203D20000D1C
:1001F0000A54656D70203D20004661696C6564207D
:10020000746F20726561642066726F6D204448547B
:100210002073656E736F72210043616E68206261A6
:100220006F206E6869657420646F2071756120634A
:10023000616F3A200043616E682062616F206E68D2
:1002400069657420646F2071756120746861703A0B
:10025000200054656D7020616C61726D2072657351
:100260006574200043616E682062616F20646F20B6
:10027000616D207175612063616F3A200043616E8A
:10028000682062616F20646F20616D20717561204C
:10029000746861703A200048756D6920616C617204
:1002A0006D207265736574200043616E6820626121
:1002B0006F206D7563206E756F632071756120749A
:1002C0006861702E0043616E682062616F206D75F9
:1002D00063206E756F63207175612063616F2E00FE
:1002E00052414D20000041542B434D47523D0041A7
:1002F000542B434D47463D310D0052414D20006285
:1003000065666F7265206578656320736D73005351
:100310004D533E3E2000220D0A002200222B0052A7
:10032000414D20007265637620736D730052414D1C
:1003300020006265666F726520657865632073656D
:100340007269616C00683109006830090074310914
:100350000074300900496478094C656E0950686F73
:100360006E65002B3834002B3834003834000D0A09
:1003700068313D000D0A68303D000D0A74313D00C2
:100380000D0A74303D00436F6E66696773003B0D64
:100390000A0050686F6E65733A0D0A000D0A5361CA
:1003A00076652070686F6E65206C697374000D0A45
:1003B0005361766520636F6E666967730052414DC5
:1003C000200072657320636F6E6669670068310094
:1003D000683000743100743000636F6E66696700C6
:1003E00052414D20007265732070686F6E65005039
:1003F000686F6E652041727261792057726F6E6707
:100400000070686F6E650073657470686F6E65006C
:10041000636D64004A736F6E2053796E7461782047
:1004200057726F6E670052414D20006A736F6E0005
:1004300052414D20002F70686F6E65000D0A5068A4
:100440006F6E6573002F70686F6E650052414D20AE
:10045000002F636F6E666967000D0A436F6E6669F1
:100460006773002F636F6E666967002D2D2D2D2D2C
:100470002D2D2D005D000D0A436F6D6D616E6420A2
:100480005B0052414D2000657865630061742B6309
:100490006D6764613D2264656C20616C6C220A0D9D
:1004A0000000000000250028002B000000000023B1
:1004B00000260029000404040404040404020202C7
:1004C0000202020303030303030102040810204095
:1004D000800102040810200102040810200000001E
:1004E00000240027002A000000000800020100008C
:1004F0000304070000000000000000220D0041542A
:100500002B434D47533D220041542B434D47463D1D
:10051000310D004E756D62657220696E76616C6991
:10052000640053656E6420534D53206661696C65A9
:10053000640053656E6420534D5320737563636587
:1005400073730052414D200073656E6420736D73A8
:10055000000D0A534D53203C3C2000001E280C285F
:1005600011241FBECFEFD8E0DEBFCDBF11E0A0E069
:10057000B1E0E6E5F3E602C005900D92AE3CB107AE
:10058000D9F723E0AEECB1E001C01D92A93CB2075F
:10059000E1F712E0CFEAD2E004C02197FE010E9409
:1005A0005730CE3AD107C9F70E94181F0C949E31DC
:1005B0000C940000FC0126813781620F731F848137
:1005C00095818617970738F08281938177836683B8
:1005D000820F931F089580E090E00895EF92FF92BC
:1005E0000F931F93CF93DF93CDB7DEB762970FB60C
:1005F000F894DEBF0FBECDBF8C0166E873E00E94A9
:100600001F1E8DE1E82E82E0F82EF7014081518116
:100610006281738122E0CE010D960E94C31D60E8C5
:1006200073E0CE0101960E941F1EBE016F5F7F4FD7
:10063000CE0107960E94571EBE01635F7F4FCE0119
:1006400007960E945C1DBC01C8010E94431DCE019B
:1006500007960E94BE1DCE0101960E94BE1DCE01CE
:100660000D960E94BE1DF7014481558166817781F8
:1006700022E0CE010D960E94C31D6AE773E0CE0111
:1006800001960E941F1EBE016F5F7F4FCE0107962D
:100690000E94571EBE01635F7F4FCE0107960E94E6
:1006A0005C1DBC01C8010E94431DCE0107960E943B
:1006B000BE1DCE0101960E94BE1DCE010D960E9468
:1006C000BE1DF701408551856285738522E0CE010C
:1006D0000D960E94C31D64E773E0CE0101960E944F
:1006E0001F1EBE016F5F7F4FCE0107960E94571EEF
:1006F000BE01635F7F4FCE0107960E945C1DBC0167
:10070000C8010E94431DCE0107960E94BE1DCE0166
:1007100001960E94BE1DCE010D960E94BE1DF701DE
:10072000448555856685778522E0CE010D960E9429
:10073000C31D6EE673E0CE0101960E941F1EBE012E
:100740006F5F7F4FCE0107960E94571EBE01635F09
:100750007F4FCE0107960E945C1DBC01C8010E941C
:10076000431DCE0107960E94BE1DCE0101960E9438
:10077000BE1DCE010D960E94BE1DC80162960FB629
:10078000F894DEBF0FBECDBFDF91CF911F910F91C7
:10079000FF90EF900895FF920F931F93CF93DF93F5
:1007A000CDB7DEB768970FB6F894DEBF0FBECDBFEA
:1007B0008C01CE0101960E94571E8D819E81892B4E
:1007C00031F467EA71E0C8010E94601E9BC0E981B4
:1007D000FA81309789F080818B3271F4F8011182AF
:1007E00010821382128215821482BE016F5F7F4FC6
:1007F000C8010E94A21C86C06BE673E0CE0107967A
:100800000E941F1EBE01695F7F4FCE0101960E94AC
:10081000551CF82ECE0107960E94BE1DFF2099F0B0
:1008200066E871E0CE0107960E94601EBE016F5F10
:100830007F4FCE0107960E945C1DBC01CE01019640
:100840000E94A71D5AC02D813E812115310521F03E
:10085000E981FA81309721F410926A02EAE6F2E027
:100860008081803369F541E050E0BE016F5F7F4FCA
:10087000CE0143960E94270F67E673E0CE010796EC
:100880000E941F1EBE01695F7F4FCE010D960E9420
:10089000571EBE016D5E7F4FCE010D960E945C1DFE
:1008A000BC01CE0101960E94A71DCE010D960E94AB
:1008B000BE1DCE0107960E94BE1DCE0143961FC0ED
:1008C00063E673E0CE0107960E941F1EBE01695FBA
:1008D0007F4FCE010D960E94571EBE016F5F7F4F66
:1008E000CE010D960E945C1DBC01CE0101960E94B6
:1008F000A71DCE010D960E94BE1DCE0107960E9437
:10090000BE1D6CCFCE0101960E94BE1DC801689627
:100910000FB6F894DEBF0FBECDBFDF91CF911F9110
:100920000F91FF900895FC01648175816115710537
:1009300001F120E030E026173707C9F040815181EE
:100940004115510529F0DA01A20FB31F9C9101C096
:1009500090E0492F092E000C550B405351094A30A5
:10096000510510F09B3229F42F5F3F4FE4CF81E017
:10097000089580E00895CF92DF92EF92FF920F9357
:100980001F93CF93DF93CDB7DEB72D970FB6F894B3
:10099000DEBF0FBECDBF8C017B016630710508F054
:1009A00056C067EA71E0CE0101960E94601E8FE09A
:1009B0008E9D60018F9DD00C1124E12CF12CF7014C
:1009C000EC0DFD1DEE52FE4F6081862F062E000CB1
:1009D000990B6D870E9440316D85892B21F0CE01E6
:1009E00001960E94301DEFEFEE1AFE0AFFE0EF16AF
:1009F000F10429F7CE0101960E94C80ECE0101969E
:100A00000E949304882391F0BE016F5F7F4FCE0157
:100A100007960E94CB03BE01695F7F4FCE0101960E
:100A20000E94A21CCE0107960E94BE1DF8011182F1
:100A300010821382128215821482BE016F5F7F4F73
:100A4000C8010E94A21CCE0101960E94BE1DC801D1
:100A50002D960FB6F894DEBF0FBECDBFDF91CF91BC
:100A60001F910F91FF90EF90DF90CF900895EF923C
:100A7000FF920F931F93CF93DF93CDB7DEB76297AB
:100A80000FB6F894DEBF0FBECDBF7C0162E973E004
:100A90000E941F1E00E010E0B801CE0101960E94E6
:100AA000BB04CE0101960E949304882301F16EE8F5
:100AB00073E0CE010D960E941F1EBE016F5F7F4F37
:100AC000CE0107960E94571EBE01635F7F4FCE0185
:100AD00007960E945C1DBC01C7010E94431DCE0108
:100AE00007960E94BE1DCE010D960E94BE1DCE012E
:100AF00001960E94BE1D0F5F1F4F0530110561F664
:100B0000C70162960FB6F894DEBF0FBECDBFDF916E
:100B1000CF911F910F91FF90EF900895CF92DF92A8
:100B2000EF92FF92CF93DF9300D000D000D0CDB7EB
:100B3000DEB785E593E00E94270CC12CD12C76010D
:100B4000B601CE0101960E94BB042AE0B701A601BE
:100B50008BE692E00E94CF1E66EA71E08BE692E09F
:100B60000E94BA1E4D815E8160E070E02AE08BE653
:100B700092E00E94CF1E66EA71E08BE692E00E944E
:100B8000BA1E69817A818BE692E00E94BA1E0E94A9
:100B9000210CCE0101960E94BE1D8FEFC81AD80A03
:100BA000E80AF80A85E0C816D104E104F10441F628
:100BB00026960FB6F894DEBF0FBECDBFDF91CF9162
:100BC000FF90EF90DF90CF900895CF93DF9361E592
:100BD00073E08BE692E00E94961ECDE1D2E0688140
:100BE00079818A819B810E94140D6DE473E08BE60C
:100BF00092E00E94961E6C817D818E819F810E9471
:100C0000140D69E473E08BE692E00E94961E6885FD
:100C100079858A859B850E94140D65E473E08BE6D7
:100C200092E00E94961E6C857D858E859F85DF9162
:100C3000CF910C94140DCF93DF9300D0CDB7DEB7D6
:100C40002091C5033091C6032115310511F429EC1B
:100C500033E0CE010196821B930B0F900F90DF9132
:100C6000CF9108958091620281110BC010925F02B2
:100C700010925E02109261021092600281E08093F5
:100C800062028EE592E008958F929F92AF92BF929A
:100C9000CF92DF92EF92FF920F931F93CF93DF9348
:100CA000CDB7DEB7C25DD1090FB6F894DEBF0FBE77
:100CB000CDBF7C010E941B064AE0BC01CE018054DE
:100CC0009F4F0E94F31D67E874E0CE0186549F4F4A
:100CD0000E941F1E62E874E08E010F5F1F4FC80163
:100CE0000E941F1EB801CE018D549F4F0E94571EB7
:100CF000BE0166547F4FCE018D549F4F0E945C1DF4
:100D00000E94210DBE0160547F4F0E945C1D0E9415
:100D1000330DCE018D549F4F0E94BE1DC8010E940D
:100D2000BE1DCE0186549F4F0E94BE1DCE01805431
:100D30009F4F0E94BE1D66E774E08BE692E00E9422
:100D4000961ED70114964D915C91159760E070E066
:100D50002AE08BE692E00E94CF1E84E794E00E9496
:100D6000270CC7010E94330D8BE694E00E94270CEC
:100D700063E674E0C8010E941F1EB801C7010E940B
:100D8000551CD82EC8010E94BE1DDD2009F45DC08F
:100D900089E594E00E94270C0E94E5058EE393E02C
:100DA0000E949304882309F4E4C30E941B064AE0CE
:100DB000BC01CE0180549F4F0E94F31D61E574E099
:100DC000CE0186549F4F0E941F1E6CE474E0C80140
:100DD0000E941F1EB801CE018D549F4F0E94571EC6
:100DE000BE0166547F4FCE018D549F4F0E945C1D03
:100DF0000E94210DBE0160547F4F0E945C1D0E9425
:100E0000330DCE018D549F4F0E94BE1DC8010E941C
:100E1000BE1DCE0186549F4F0E94BE1DCE01805440
:100E20009F4F0E94BE1DC8010E94EE02B8018EE3D2
:100E300093E00E94B71AF82EC8010E94BE1DFF2041
:100E400009F497C30E94820E94C365E474E0C8015C
:100E50000E941F1EB801C7010E94551CD82EC80150
:100E60000E94BE1DDD2009F44FC08CE394E00E9477
:100E7000270C0E948E058EE393E00E949304882342
:100E800009F477C30E941B064AE0BC01CE018054DE
:100E90009F4F0E94F31D65E374E0CE0186549F4F7F
:100EA0000E941F1E60E374E0C8010E941F1EB8016B
:100EB000CE018D549F4F0E94571EBE0166547F4F36
:100EC000CE018D549F4F0E945C1D0E94210DBE01DA
:100ED00060547F4F0E945C1D0E94330DCE018D54E3
:100EE0009F4F0E94BE1DC8010E94BE1DCE018654A8
:100EF0009F4F0E94BE1DCE0180549F4F0E94BE1D79
:100F0000C8010E94370592CFCE0109969C838B833E
:100F10008AEA90E09E838D8318861F828AE091E0A2
:100F20009A838983F70180819181009711F487EA80
:100F300091E0CD54DF4F19830883C35BD040CB547D
:100F4000DF4F99838883C55BD040C954DF4F198335
:100F50000883C75BD0408AE0C754DF4F8883C95BF2
:100F6000D040CE018D549F4F0E94C6198C010E9423
:100F70001B064AE0BC01CE018A539F4F0E94F31D1D
:100F80006BE274E0CE0180549F4F0E941F1E66E208
:100F900074E0CE018D549F4F0E941F1EBE016D5400
:100FA0007F4FCE0186549F4F0E94571EBE01605452
:100FB0007F4FCE0186549F4F0E945C1D0E94210DE1
:100FC000BE016A537F4F0E945C1D0E94330DCE010B
:100FD00086549F4F0E94BE1DCE018D549F4F0E948C
:100FE000BE1DCE0180549F4F0E94BE1DCE018A536C
:100FF0009F4F0E94BE1DD8018D919C91892BF9F4C1
:1010000064E174E0CE018D549F4F0E941F1ECE01FB
:101010008D549F4F0E94330D8EE393E00E94930402
:10102000882349F0BE016D547F4F8EE393E00E9408
:10103000B71A0E94820ECE018D549F4F27C260E1E5
:1010400074E0CE018D549F4F0E941F1EBE016D544F
:101050007F4FC8010E94EF16009749F0BC016C5FFA
:101060007F4FCE0186549F4F0E945D1907C067EAEB
:1010700071E0CE0186549F4F0E94601ECE018D54B8
:101080009F4F0E94BE1D67E074E0CE018D549F4FBC
:101090000E941F1EBE016D547F4FCE0186549F4F8C
:1010A0000E94701CF82ECE018D549F4F0E94BE1DD1
:1010B000FF2009F4F1C061E074E0CE018D549F4F30
:1010C0000E941F1EBE016D547F4FC8010E94EF1683
:1010D000009749F0FC01248135812630310519F44F
:1010E000A680B78003C00E9432065C01CE018D54F9
:1010F0009F4F0E94BE1DD5018D919C91892B21F49B
:101100008FEE93E00E94270C22ED822E21E0922E9A
:10111000940180E090E0F901E80FF91F1082019638
:101120008F309105C1F7215F3F4FB2E02D313B0772
:1011300081F7D5011296ED91FC91139700E010E034
:10114000309731F00F5F1F4F0190F081E02DF8CF05
:101150000630110514F005E010E092EDC92E91E083
:10116000D92EE12CF12CE016F1068CF4C701D50143
:101170001296ED91FC911397309709F4F2C1009704
:1011800009F487C101970190F081E02DF5CF00E0CF
:1011900010E0D4016D914D01C801CE52DF4F68833C
:1011A000C25DD0400E94A22ECE52DF4F6881C25D48
:1011B000D040681719F0C8010E94AA2E0F5F1F4F78
:1011C0000B34110531F78CE993E00E94270C0E9443
:1011D0008E058EE393E00E949304882309F453C1A3
:1011E0000E941B064AE0BC01CE0184539F4F0E941F
:1011F000F31D65EE73E0CE018A539F4F0E941F1EC0
:1012000060EE73E0CE018D549F4F0E941F1EBE0101
:101210006D547F4FCE0180549F4F0E94571EBE01D8
:101220006A537F4FCE0180549F4F0E945C1D0E94E5
:10123000210DBE0164537F4F0E945C1D0E94330D3F
:10124000CE0180549F4F0E94BE1DCE018D549F4FF2
:101250000E94BE1DCE018A539F4F0E94BE1DCE012B
:1012600084539F4F0E94BE1DCE018D549F4F0E94FC
:101270003705BE016D547F4F8EE393E00E94B71A8D
:10128000182FCE018D549F4F0E94BE1D112309F4CB
:10129000FAC00E94820EF7C069ED73E0CE018D5452
:1012A0009F4F0E941F1EBE016D547F4FCE0186547A
:1012B0009F4F0E94701CF82ECE018D549F4F0E94AC
:1012C000BE1DFF2009F4DFC066ED73E0CE018D5432
:1012D0009F4F0E941F1EBE016D547F4FC8010E9488
:1012E000761760931D0270931E0280931F029093E5
:1012F0002002CE018D549F4F0E94BE1D63ED73E00E
:10130000CE018D549F4F0E941F1EBE016D547F4F12
:10131000C8010E9476176093210270932202809385
:10132000230290932402CE018D549F4F0E94BE1D34
:1013300060ED73E0CE018D549F4F0E941F1EBE01D1
:101340006D547F4FC8010E947617609325027093F9
:1013500026028093270290932802CE018D549F4F3E
:101360000E94BE1D6DEC73E0CE018D549F4F0E9414
:101370001F1EBE016D547F4FC8010E9476176093F7
:10138000290270932A0280932B0290932C02CE01A3
:101390008D549F4F0E94BE1D8DE1E82E82E0F82EF5
:1013A00004E610E0F70161917F01C801CE52DF4FE2
:1013B0006883C25DD0400E94A22ECE52DF4F68816A
:1013C000C25DD040681719F0C8010E94AA2E0F5FB5
:1013D0001F4F0437110531F78EEA93E00E94270C66
:1013E0000E94E5058EE393E00E949304882309F4AC
:1013F0004AC00E941B064AE0BC01CE0184539F4FA5
:101400000E94F31D62EC73E0CE018A539F4F0E944D
:101410001F1E6DEB73E0CE018D549F4F0E941F1E67
:10142000BE016D547F4FCE0180549F4F0E94571EC6
:10143000BE016A537F4FCE0180549F4F0E945C1DB6
:101440000E94210DBE0164537F4F0E945C1D0E94CB
:10145000330DCE0180549F4F0E94BE1DCE018D548E
:101460009F4F0E94BE1DCE018A539F4F0E94BE1DFA
:10147000CE0184539F4F0E94BE1DCE018D549F4FBD
:101480000E94EE02F6CECE0186549F4F0E94BE1DF2
:1014900070C0BF016E5F7F4FCE018D549F4F0E9481
:1014A0005D19CE018D549F4F0E94C80EC954DF4F65
:1014B00088819981C75BD0404097C8F02FE030E029
:1014C00040E050E0BE016D547F4FCE0180549F4FED
:1014D0000E94270FBE0160547F4FCE018D549F4F55
:1014E0000E94A21CCE0180549F4F0E94BE1DC95471
:1014F000DF4F48815981C75BD040CD54DF4F6881B1
:101500007981C35BD040CA0120E030E02417350761
:1015100081F06115710529F0FB01E20FF31FA08135
:1015200001C0A0E0F601E20FF31FA0832F5F3F4F41
:10153000EDCF2F30310549F08F30910531F0F601B4
:10154000E80FF91F10820196F7CFCE018D549F4FFF
:101550000E94BE1DBFEFEB1AFB0AEFE0CE0ED11CBE
:1015600002CE67EA71E0CE018D549F4F0E94601E4B
:1015700098CFCE52DF4F0FB6F894DEBF0FBECDBF6F
:10158000DF91CF911F910F91FF90EF90DF90CF905F
:10159000BF90AF909F908F900895DB01109749F016
:1015A000ED91FC9111970190F081E02DBC01CD01EE
:1015B000099480E090E008958F929F92AF92BF923D
:1015C000CF92DF92EF92FF92CF93DF93A0913303FC
:1015D000882311F03A2F01C030E08091340390E06D
:1015E000880F991F85559B4FC0903903D0903A03BF
:1015F000E0903B03F0903C0340E050E0BA01FC0176
:10160000C591D49128812A2323130FC04A015B017D
:101610002FEF821A920AA20AB20A4C155D056E05D6
:101620007F0538F4B501A401EACF342F252FCB0173
:1016300004C030E020E080E090E0632F722FDF9163
:10164000CF91FF90EF90DF90CF90BF90AF909F90A1
:101650008F900895CF92DF92EF92FF920F931F9396
:10166000CF93DF93CDB7DEB7C054D1400FB6F89417
:10167000DEBF0FBECDBF0E946912009135031091ED
:10168000360320913703309138036B017C01C01A77
:10169000D10AE20AF30A40EDC41647E0D406E10499
:1016A000F10418F480913D03BCC06093350370933E
:1016B00036038093370390933803109230031092CF
:1016C0002F0310922E0310922D0310922C0361E031
:1016D000809131030E94C3116AEF70E080E090E0D6
:1016E0000E942F1261E0809131030E94F31160E0AB
:1016F000809131030E94C31164E170E080E090E0CA
:101700000E942F12F89461E0809131030E94C3116E
:101710008BE990E00197F1F762E0809131030E943C
:10172000F31183E290E00197F1F780E00E94DC0A78
:10173000672B682B692B21F410923D0378943EC0EF
:1017400081E00E94DC0A672B682B692BA9F38E01CC
:101750000F5F1F4F6E018FEBC81A8EEFD80A78010A
:1017600080E00E94DC0AF7016083718382839383A7
:1017700081E00E94DC0AF701648375838683978386
:10178000F8E0EF0EF11CEC14FD0451F7789420E022
:1017900030E0F8014081518162817381C480D5803D
:1017A000E680F780411551056105710529F0C114E6
:1017B000D104E104F10421F410923D0380E031C032
:1017C000F90183E0F595E7958A95E1F7E45DFC4F33
:1017D0008081880F4C155D056E057F0508F48160DA
:1017E00080832F5F3F4F085F1F4F2832310589F6F6
:1017F0002091300330E040912C0380912D0390E044
:10180000840F911D40912E03840F911D40912F0351
:10181000840F911D99272817390771F681E080936D
:101820003D03C05CDE4F0FB6F894DEBF0FBECDBFE8
:10183000DF91CF911F910F91FF90EF90DF90CF90AC
:10184000089568E871E08BE692E00C94BA1ECF939D
:10185000DF93BC018BE692E00E94961EEC010E9491
:10186000210C8C0F9D1FDF91CF9108954F925F92B5
:101870006F927F928F929F92AF92BF92CF92DF92A0
:10188000EF92FF926B017C01B42E9B01AC010E9490
:101890001C30882319F06BE871E027C0260137015E
:1018A000E89477F82FEF3FEF4FE75FE7C301B2010E
:1018B0000E941C3081110DC02FEF3FEF4FE75FE713
:1018C000C301B2010E947B2D18161CF46FE871E071
:1018D0000CC02FEF3FEF4FE75FE4C701B6010E9456
:1018E0001730181694F463E971E08BE692E0FF90EC
:1018F000EF90DF90CF90BF90AF909F908F907F90B0
:101900006F905F904F900C94BA1E2FEF3FEF4FE710
:101910005FECC701B6010E947B2D87FDE4CF20E07C
:1019200030E0A901C701B6010E947B2D87FF0BC0E3
:101930006DE28BE692E00E948F1E4C01F7FAF09464
:10194000F7F8F09402C0812C912CA12C60E070E09B
:1019500080E09FE3AB1441F020E030E040E251E44E
:101960000E94762FA394F6CF9B01AC01C701B6016C
:101970000E940A2F2B013C010E94E82F6B017C0181
:101980000E94802D9B01AC01C301B2010E94092F6E
:101990002B013C012AE0B701A6018BE692E00E94F0
:1019A000CF1E7C01E80CF91CBB2039F06EE28BE6FF
:1019B00092E00E948F1EE80EF91EDB2CDD2031F133
:1019C00020E030E040E251E4C301B2010E94E12D89
:1019D0002B013C010E94E82F4B01A12CB12C2AE0E5
:1019E000B501A4018BE692E00E94CF1EE80EF91E1D
:1019F000C501B4010E94802D9B01AC01C301B2015D
:101A00000E94092F2B013C01DA94D8CFC701FF9027
:101A1000EF90DF90CF90BF90AF909F908F907F908E
:101A20006F905F904F900895CF93DF9342E00E94B4
:101A3000360CEC010E94210C8C0F9D1FDF91CF9181
:101A40000895CF93DF93EC0141E050E067E971E046
:101A50000E94021D811103C0CE010E944A1DCE01C9
:101A6000DF91CF910895CF93DF93FC01448155819D
:101A7000608171818BE692E00E94E01BEC010E9484
:101A8000210C8C0F9D1FDF91CF910895CF92DF9293
:101A9000EF92FF92CF93DF93EC016A017B011092EA
:101AA0004503109244038CE493E00E940311892BB8
:101AB000E9F48091440390914503092E000CAA0B90
:101AC000BB0B8C159D05AE05BF0584F46DE070E081
:101AD00080E090E00E942F12809144039091450392
:101AE00001969093450380934403DDCF8CE493E00B
:101AF0000E940311892B49F06CE473E0CE010E942F
:101B0000751ECE010E94330D05C067EA71E0CE015B
:101B10000E94601ECE01DF91CF91FF90EF90DF9089
:101B2000CF9008959F92AF92BF92CF92DF92EF92A3
:101B3000FF920F931F93CF93DF9300D000D000D07C
:101B4000CDB7DEB77C016B015C0182E0A80EB11C51
:101B5000C5010E941517D7011296ED91FC911397BC
:101B600080818B3521F08B3709F48AC094C0F7014E
:101B70008681882309F46FC081508683008111819A
:101B8000B80184E090E00E94CD0A009709F4A4C057
:101B9000FC0111830083138212828C016BE5C50165
:101BA0000E945717882309F456C06DE5C5010E94AD
:101BB0005717811148C086E0982E1A821982BE01FB
:101BC0006F5F7F4FC7010E94920D882309F443C0C5
:101BD000D8016D917C9188E090E00E94CD0ADC01F3
:101BE000892B39F011961C921E9213961C921E920C
:101BF0001297F801228133812115310551F0F90145
:101C000080819181009711F09C01F9CFB183A0836D
:101C100003C0F801B383A2831097E9F0FE01319667
:101C20001296892D01900D928A95E1F76DE5C50117
:101C30000E945717811107C06CE2C5010E94571717
:101C40008111BBCF08C0D70116968C9116978F5F74
:101C500016968C9303C00E9432068C01F801808195
:101C60009181892B11F410E03AC086E090E0D60112
:101C700011969C938E9313961C930E9312972AC0E1
:101C8000C7010E94C619FC0120813181232B59F321
:101C900027E030E017C011E0873219F0823209F0F6
:101CA00010E0C7010E94AD180097E9F2112341F03E
:101CB00022E030E0F60131832083938382830FC0DA
:101CC00021E030E0D60111963C932E9313969C931D
:101CD0008E93129711E003C00E9432065ECF812FCF
:101CE00026960FB6F894DEBF0FBECDBFDF91CF9121
:101CF0001F910F91FF90EF90DF90CF90BF90AF902A
:101D00009F9008950F931F93CF93DF9300D000D03F
:101D100000D0CDB7DEB76CE874E08CE493E00E94AD
:101D2000961E0E94210C40EE5EE260E070E0CE0163
:101D300001960E94460DBE016F5F7F4F86E493E0DF
:101D40000E94A21CCE0101960E94BE1D68E771E0B0
:101D5000CE0101960E94601EBE016F5F7F4F86E438
:101D600093E00E943B1C8C01CE0101960E94BE1D97
:101D700081E00F3F1F4F09F480E026960FB6F894DC
:101D8000DEBF0FBECDBFDF91CF911F910F910895A0
:101D9000AF92BF92CF92DF92EF92FF920F931F9379
:101DA000CF93DF93DC01CD90DC901197C114D10467
:101DB00009F442C01496CD91DC9115972097E1F17A
:101DC0008C0156017501BFEFAB1ABB0AF701808188
:101DD000082E000C990B0E94622D892B99F72197F0
:101DE000CC0DDD1D8881082E000C990B0E94622D00
:101DF000892B91F4AE014F5F5F4F4E195F09D801F7
:101E000015965C934E931497CE14DF0450F4B701EB
:101E1000C6010E945D3105C0CE15DF0558F321973C
:101E2000E1CFD801ED91FC91119714968D919C9181
:101E30001597E80FF91F1082DF91CF911F910F9135
:101E4000FF90EF90DF90CF90BF90AF900895BF923A
:101E5000CF92DF92EF92FF920F931F93CF93DF9376
:101E60007C016B018A01E9012417350720F4812FD9
:101E70008901C42FD82F67EA71E0C7010E94601E54
:101E8000D60114968D919C91159708171907D0F4D7
:101E90008C179D0708F4EC01D601ED91FC91119788
:101EA000EC0FFD1FB08010824D915C91BA01600F64
:101EB000711FC7010E94901DD601ED91FC91EC0F9E
:101EC000FD1FB082C701DF91CF911F910F91FF904D
:101ED000EF90DF90CF90BF900895FC01538D448D1B
:101EE000252F30E0842F90E0821B930B541710F0C5
:101EF000CF96089501970895FC01918D828D9817D2
:101F000061F0828DDF01A80FB11D5D968C91928DDD
:101F10009F5F9F73928F90E008958FEF9FEF0895DA
:101F2000FC01918D828D981731F0828DE80FF11DA3
:101F3000858D90E008958FEF9FEF0895FC01918DBE
:101F4000228D892F90E0805C9F4F821B91098F73B7
:101F5000992708958BE692E00E949E0F21E0892B3D
:101F600009F420E0822F0895FC01848DDF01A80F81
:101F7000B11DA35ABF4F2C91848D90E001968F73B1
:101F80009927848FA689B7892C93A089B1898C91D0
:101F900080648C93938D848D981306C00288F38996
:101FA000E02D80818F7D80830895EF92FF920F93C3
:101FB0001F93CF93DF93EC0181E0888F9B8D8C8DF5
:101FC000981305C0E889F989808185FD24C0F62E23
:101FD0000B8D10E00F5F1F4F0F731127E02E8C8DBC
:101FE000E8120CC00FB607FCFACFE889F9898081A6
:101FF00085FFF5CFCE010E94B40FF1CF8B8DFE018E
:10200000E80FF11DE35AFF4FF0820B8FEA89FB893D
:102010008081806207C0EE89FF896083E889F98941
:1020200080818064808381E090E0DF91CF911F9177
:102030000F91FF90EF900895CF93DF93EC01888D7F
:102040008823C9F0EA89FB89808185FD05C0A889BC
:10205000B9898C9186FD0FC00FB607FCF5CF808142
:1020600085FFF2CFA889B9898C9185FFEDCFCE018C
:102070000E94B40FE7CFDF91CF91089580E090E008
:10208000892B29F00E94AA0F81110C940000089559
:10209000833081F028F4813099F08230A1F00895E6
:1020A0008730A9F08830B9F08430D1F48091800075
:1020B0008F7D03C0809180008F778093800008958A
:1020C00084B58F7702C084B58F7D84BD08958091DB
:1020D000B0008F7703C08091B0008F7D8093B000F7
:1020E00008953FB7F8948091B5039091B603A091FD
:1020F000B703B091B80326B5A89B05C02F3F19F0D0
:102100000196A11DB11D3FBFBA2FA92F982F882777
:10211000820F911DA11DB11DBC01CD0142E0660FD2
:10212000771F881F991F4A95D1F708952091D001F4
:102130003091D1012817390771F49091CE01809127
:10214000CF01981741F0E091CE01F0E0E059FC4F4B
:10215000808190E008958FEF9FEF089508951F9379
:10216000CF93DF93DC015C962D913C915D97211517
:10217000310539F481E090E013969C938E93129789
:102180003DC05196ED91FC91529750969C9150977D
:10219000892F80951FB75E964C915E9741FB7727FC
:1021A00070F941FD6095F8944081772311F0492B37
:1021B00001C048234083E9012197F1F748E05081AD
:1021C00060FF02C0592B01C058235083E9012197B9
:1021D000F1F76695415099F7772321F09081892393
:1021E000808303C08081982B90831FBF5C968D9164
:1021F0009C915D970197F1F721E030E0C901DF91F3
:10220000CF911F9108952091D0013091D1012817CD
:10221000390771F48091CF012091CE0190E0805C6C
:102220009F4F821B910960E470E00E942130089565
:1022300080E090E008952091D0013091D1012817DD
:102240003907B9F49091CE018091CF01981789F0A8
:10225000E091CE01F0E0E059FC4F80812091CE0169
:1022600030E02F5F3F4F2F7333272093CE0190E054
:1022700008958FEF9FEF0895089580E090E008950E
:102280000E943B311F920F920FB60F9211242F9391
:102290003F934F935F936F937F938F939F93AF93EE
:1022A000BF93EF93FF938BE692E00E94B40FFF91F0
:1022B000EF91BF91AF919F918F917F916F915F91BE
:1022C0004F913F912F910F900FBE0F901F90189537
:1022D0001F920F920FB60F9211242F938F939F93FB
:1022E000EF93FF93E0917B02F0917C028081E0917B
:1022F0008102F091820282FD12C09081809184025D
:102300008F5F8F7320918502821751F0E0918402D4
:10231000F0E0E559FD4F958F8093840201C08081E4
:10232000FF91EF919F918F912F910F900FBE0F9082
:102330001F901895CF93DF93282F30E0F901E951D2
:10234000FB4F8491F901E753FB4FD491F901EB5412
:10235000FB4FC491CC2391F081110E944810EC2FC7
:10236000F0E0EE0FFF1FE555FB4FA591B491EC9106
:10237000ED2381E090E021F480E002C080E090E075
:10238000DF91CF9108951F93CF93DF93282F30E0F3
:10239000F901E951FB4F8491F901E753FB4FD491C7
:1023A000F901EB54FB4FC491CC23C9F0162F8111D6
:1023B0000E944810EC2FF0E0EE0FFF1FEF55FB4F8F
:1023C000A591B4918FB7F894111105C09C91ED2F90
:1023D000E095E92302C0EC91ED2BEC938FBFDF91E8
:1023E000CF911F910895CF93DF9390E0FC01E753C5
:1023F000FB4F2491FC01EB54FB4F8491882361F146
:1024000090E0880F991FFC01E352FB4FC591D491D6
:10241000FC01EF55FB4FA591B491611109C09FB725
:10242000F8948881209582238883EC912E230BC019
:10243000623061F49FB7F8943881822F80958323AE
:102440008883EC912E2B2C939FBF06C08FB7F894F6
:10245000E8812E2B28838FBFDF91CF9108958F9233
:102460009F92AF92BF92CF92DF92EF92FF926B0159
:102470007C010E9471104B015C01C114D104E10484
:10248000F104F1F00E947110DC01CB018819990967
:10249000AA09BB09883E9340A105B10570F321E06C
:1024A000C21AD108E108F10888EE880E83E0981E70
:1024B000A11CB11CC114D104E104F10419F7DDCF52
:1024C000FF90EF90DF90CF90BF90AF909F908F9054
:1024D00008952FB7F8946091B1037091B203809181
:1024E000B3039091B4032FBF08951F920F920FB6BC
:1024F0000F9211242F933F938F939F93AF93BF938A
:102500008091B1039091B203A091B303B091B40351
:102510003091B00323E0230F2D3720F40196A11D45
:10252000B11D05C026E8230F0296A11DB11D209301
:10253000B0038093B1039093B203A093B303B0931D
:10254000B4038091B5039091B603A091B703B09105
:10255000B8030196A11DB11D8093B5039093B603F6
:10256000A093B703B093B803BF91AF919F918F91A0
:102570003F912F910F900FBE0F901F9018951F92B3
:102580000F920FB60F9211242F933F934F935F93A7
:102590006F937F938F939F93AF93BF93EF93FF932B
:1025A000E091D001F091D101309709F451C0968D9E
:1025B000A685B785858591FF04C09C91892329F460
:1025C00047C09C91892309F043C0A389B4899C9199
:1025D0008589809589238C93868997890197F1F75E
:1025E000608D718DA685B785558538E020E0CB01DB
:1025F0000197F1F7822F90E095958795282F4C91C0
:10260000452309F02068315091F7868D81FD209592
:102610008091CF0190E001968F7399273091CE0180
:10262000381749F0A091CF01B0E0A059BC4F2C93CE
:102630008093CF0103C0868D8160868F828D938DBC
:102640000197F1F7A389B4899C918589892B8C9393
:10265000FF91EF91BF91AF919F918F917F916F917A
:102660005F914F913F912F910F900FBE0F901F9050
:102670001895E091D001F091D101E817F90769F4BC
:10268000A389B4899C918589809589238C93109224
:10269000D1011092D00181E0089580E00895CF9299
:1026A000DF92EF92FF920F931F93CF93DF93EC0192
:1026B0000E9469126B017C0160936C0370936D033F
:1026C00080936E0390936F0388810E949A11809388
:1026D0006B039A81992329F091E0811190E0909306
:1026E0006B038A859B85AC85BD8597018601081B98
:1026F000190B2A0B3B0B4E855F85688979899B8175
:10270000041715072607370738F4CE82DF82E886DC
:10271000F9861D82892F12C09C8380916B038B8365
:10272000CE82DF82E886F986891739F0CA86DB8691
:10273000EC86FD8691E09D8301C01D82DF91CF91E3
:102740001F910F91FF90EF90DF90CF9008950F931E
:102750001F93CF93DF93CDB7DEB766970FB6F8948C
:10276000DEBF0FBECDBF8C01CB011E8AFE01769667
:102770002AE030E0B9010E94213090E3980F929353
:10278000CB010097B9F7BF01C8010E9428146696D3
:102790000FB6F894DEBF0FBECDBFDF91CF911F9172
:1027A0000F9108958F929F92AF92BF92EF92FF92F6
:1027B0000F931F93CF93DF93CDB7DEB766970FB616
:1027C000F894DEBF0FBECDBF7C011E8A8E010A5E6B
:1027D0001F4F8AE0882E912CA12CB12CCB01BA017D
:1027E000A50194010E943530942F852F605DF8017A
:1027F00062938F01A901692F782F41155105610559
:10280000710561F7BF01C7010E94281466960FB6D3
:10281000F894DEBF0FBECDBFDF91CF911F910F9116
:10282000FF90EF90BF90AF909F908F900895CF93BF
:10283000DF93EC01E881F981808191810E94301D54
:102840008A819B8101969B838A83DF91CF91089532
:10285000EF92FF920F931F93CF93DF93EC01E880E9
:10286000F980D7018D919C91FC010481158161153E
:10287000710551F0FB0101900020E9F73197AF019C
:10288000461B570B0E94021DD701ED91FC918481DC
:1028900095812A813B81280F391F201B310B3B83F7
:1028A0002A83DF91CF911F910F91FF90EF900895B0
:1028B000FF920F931F93CF93DF936115710549F436
:1028C00068EA71E0DF91CF911F910F91FF900C9416
:1028D00028148B01EC0162E2CE010E941714F8016A
:1028E00061918F01662351F0E9E9F1E0F080FF206A
:1028F00099F39181961759F03296F8CF62E2CE01A2
:10290000DF91CF911F910F91FF900C9417146CE5FC
:10291000CE010E9417146F2DDFCF2F923F924F925E
:102920005F926F927F928F929F92AF92BF92CF925F
:10293000DF92EF92FF920F931F93CF93DF93CDB768
:10294000DEB76A970FB6F894DEBF0FBECDBFDC01CD
:10295000ED91FC913197E830F10508F027C28B0129
:102960007C01EC5CFF4F0C945730FC01C280D3809B
:10297000E480F580A7019601C701B6010E947B2D76
:10298000882319F068EB71E0A1C020E030E0A901D4
:10299000C701B6010E947B2D87FF08C06DE2C80108
:1029A0000E941714F7FAF094F7F8F09420E030E062
:1029B000A901C701B6010E947B2D882309F48AC0B2
:1029C000A7019601C701B6010E940A2FA70196012F
:1029D0000E947B2D81117EC06FEB71E077C0DC011E
:1029E0001296ED90FC9013976BE5C8010E941714A6
:1029F000F701E280F380E114F10459F0B801C70156
:102A000002960E948D14D701ED90FC90E114F10420
:102A100011F46DE52FC06CE2C8010E941714EBCFD2
:102A2000FC01E280F3806BE7C8010E941714D70114
:102A30001296ED90FC90139704C06CE2C8010E94BE
:102A40001714E114F104A9F0F70162817381C80140
:102A50000E9458146AE3C8010E941714B801C70104
:102A600004960E948D14D701ED90FC90E114F104BE
:102A700021F76DE7C8010E94171498C1FC0162811B
:102A80007381C8010E94581491C1DC0112966D91A6
:102A90007C9113971BC06DE2C8010E941714F701C7
:102AA0004281538164817581C8010E94D2137EC125
:102AB000FC0182819381A481B581892B8A2B8B2B88
:102AC00019F462EB71E002C06DEA71E0C8010E9486
:102AD00028146CC120E836E948E15BE4C701B6017F
:102AE0000E94173087FD5AC1412C512C70E2672E8D
:102AF000712C812C912CF201E05AFE4F24893589EA
:102B000046895789C701B6010E94173087FD0FC05B
:102B1000F201E85BFE4F2489358946895789C70150
:102B2000B6010E94E12D6B017C01860C971C759407
:102B30006794F4E04F1A510888EE48168FEF580654
:102B4000D1F655245A9420E030E0A901C701B6011E
:102B50000E941730181694F52CEA35EC47E257E33B
:102B6000C701B6010E947B2D181644F1BFEF5B161A
:102B700029F1952DA4E09A0250011124F501E05DA0
:102B8000FE4F2081318142815381C701B6010E94ED
:102B90007B2D87FF0FC0F501E05AFE4F2081318168
:102BA00042815381C701B6010E94E12D6B017C0176
:102BB00086189708759467945A94D8CFC701B601C0
:102BC0000E94E82F2B013C016B8B7C8B8D8B9E8BA5
:102BD00046E0A42E80E492E4AFE0B0E08F8B988FC3
:102BE000A98FBA8FBA2CAA24AA94AB0C8B899C8982
:102BF000AD89BE890A97A105B105E8F06F89788D86
:102C0000898D9A8D2AE030E040E050E00E94353016
:102C10002F8B388F498F5A8F6B897C898D899E893C
:102C20002AE030E040E050E00E9435302B8B3C8BB6
:102C30004D8B5E8BD7CFC301B2010E94802D9B01CB
:102C4000AC01C701B6010E94092F6B017C016F899D
:102C5000788D898D9A8D0E94802D9B01AC01C701D2
:102C6000B6010E94E12D6B8B7C8B8D8B9E8B0E941D
:102C7000E82F6B017C010E94802D9B01AC016B89C8
:102C80007C898D899E890E94092F9B01AC010E943D
:102C90000A2F0E94E82FC60ED71EE81EF91E8F8944
:102CA000988DA98DBA8DC816D906EA06FB0610F1D3
:102CB0009FEF491A590A690A790A8114910489F027
:102CC000AAE04A1651046104710458F0BFEF8B1A50
:102CD0009B0AC12CD12C7601412C512C32014394FA
:102CE00009C0C12CD12C760105C01B147CF46901EC
:102CF0007A01BA94C701B6012AE030E040E050E022
:102D00000E943530672B682B692B79F3AB2CB3010C
:102D1000A201C8010E94D213BB2041F1188A3E01D2
:102D2000E0E16E0E711C7A8A698A2AE0222E312C2B
:102D3000412C512CAA94BFEFAB1669F0C701B60124
:102D4000A20191010E943530605DD3016E933D0177
:102D500069017A01EFCF69897A896B1971098EE26D
:102D6000FB018293BF01C8010E94281497FE0AC08C
:102D70006CEB71E0C8010E94281466277727681958
:102D8000790908C08114910489F065E6C8010E94A0
:102D90001714B401C8010E94A71308C080E2682E6E
:102DA000712C95E0592E812C912CCDCE6A960FB6C0
:102DB000F894DEBF0FBECDBFDF91CF911F910F9171
:102DC000FF90EF90DF90CF90BF90AF909F908F904B
:102DD0007F906F905F904F903F902F9008950F934A
:102DE0001F93CF93DF938B01FC01C281D381209786
:102DF000B1F06A817B81F80180819181009719F09F
:102E00006115710521F48617970729F408C00E94FF
:102E10006631892B21F00990D881C02DE8CFCE01F1
:102E2000DF91CF911F910F910895FC01A081B18195
:102E30008C918D3051F024F489508230B8F505C062
:102E4000803219F08F3219F0089511962CC0119626
:102E50008C9111978A3219F08F32D1F00895119622
:102E6000B183A083A081B181CD010196918380833C
:102E700011968C9111978823C9F08A3299F712968E
:102E80008C9112978F3271F713960DC08A3071F2C0
:102E9000A081B181CD0101969183808311968C919F
:102EA0008111F4CF03C0B183A083C0CF08950F93E5
:102EB0001F93CF93DF931F92CDB7DEB78C01698349
:102EC0000E941517D801ED91FC91119780816981BD
:102ED000861305C03196ED93FC9381E001C080E03C
:102EE0000F90DF91CF911F910F9108958F929F9234
:102EF000AF92BF92FF920F931F93CF93DF930E94E5
:102F0000EF16FC01892B09F407C184819581833078
:102F100091053CF481309105C4F4892B09F4FCC07F
:102F2000F6C08530910554F0059709F0F0C0668130
:102F30007781808591850E94802DE7C066817781A9
:102F4000808591850E94802DFEC0C681D781209703
:102F500009F4E2C088818B3229F08D3221F4219668
:102F600011E002C0219610E08881843709F4D8C0AE
:102F70008F7D8E3409F4D9C0893409F47AC0F12CDC
:102F800020E030E0A901FE01099180ED800F8A3038
:102F9000E8F42C3C8CEC38078CE048075105A4F48D
:102FA000AAE0B0E00E94B82E202F000F330B205370
:102FB00031094901330FAA08BB089B01AC01280D58
:102FC000391D4A1D5B1DDFCFF394DDCF0E3221F595
:102FD000EF012196FE01099180ED800F8A30E0F427
:102FE0002C3C8CEC38078CE0480751059CF7AAE094
:102FF000B0E00E94B82E202F000F330B2053310970
:103000004901330FAA08BB089B01AC01280D391DEB
:103010004A1D5B1DFA94DECF60816F7D8F2DFF0C02
:10302000990B6534C1F561816D3219F4329671E006
:1030300006C06B3211F0319601C0329670E0C0E0EC
:10304000D0E00AE06191A0EDA60FAA30F0F40C9F49
:10305000D0010D9FB00D1124C62F660FDD0BE09738
:10306000CA0FDB1FDE01A80FB91F97975CF3711120
:1030700008C0112309F463C060E070E080E89FEFAE
:1030800062C0112309F448C055C0772331F0D195AF
:10309000C195D10902C0C0E0D0E0C80FD91FCA0154
:1030A000B9010E94822D1C161D06ACF400E0C0FF81
:1030B0000CC024E0029FF0011124E05AFE4F208151
:1030C0003181428153810E94E12DD595C7950F5FD3
:1030D000209769F718C0D195C195D10900E02097D4
:1030E00091F0C0FF0CC024E0029FF0011124E85BC6
:1030F000FE4F20813181428153810E94E12DD5957F
:10310000C7950F5FECCF1123F1F090581CC066817A
:1031100077818085918517C060E070E0CB0113C096
:1031200060E070E080E89FE30EC060E070E080EC5B
:103130009FE709C060E070E080E090E804C060E0D4
:1031400070E080E89FE7DF91CF911F910F91FF9092
:10315000BF90AF909F908F900895EF92FF920F9342
:103160001F93CF93DF938C01DC011496CD91DC91FA
:103170001597EA80FB808E819F81E80EF91EC801B9
:1031800002960E941517D8011296ED91FC911397A3
:1031900090819732A9F1923299F180ED890F8A30AE
:1031A00078F081EA890F8C3158F08FEB890F8A31E2
:1031B00038F09B3229F083ED890F823008F060C02F
:1031C000F801228133812F5F3F4F338322832E8189
:1031D0003F81A9014F5F5F4F6C817D816417750747
:1031E00040F06A817B81FB01E20FF31F5F834E8316
:1031F0009083D8011296ED91FC9113979081CDCFD9
:103200003196D8011396FC93EE931297D80112963B
:10321000ED91FC9113972081222391F1AF014F5F33
:103220005F4F13965C934E931297291749F12C35F3
:10323000A9F42181ADE9B1E08C91882339F08213A2
:1032400003C011962C9102C01296F6CF2223C1F032
:103250003296D8011396FC93EE9312974E815F81BC
:10326000BA016F5F7F4FEC81FD81E617F70770F2BF
:10327000EA81FB81E40FF51F7F836E832083C6CF35
:103280008E819F819C012F5F3F4F4C815D81421752
:10329000530748F04A815B81FA01E80FF91F3F8329
:1032A0002E83108202C0E12CF12CC701DF91CF9157
:1032B0001F910F91FF90EF900895CF92DF92EF92C0
:1032C000FF920F931F93CF93DF93CDB7DEB72C9769
:1032D0000FB6F894DEBF0FBECDBF8C016B01FB01B2
:1032E000E080F180F1E0EF16F10461F4FB0162810E
:1032F00073816115710531F088EA91E00E946631B1
:10330000892B89F0F1E0EF1AF10882E0E816F10468
:1033100050F4F601628173816115710521F0C801D5
:103320000E94601E23C067EA71E0CE0101967C0115
:103330000E94601EFC86EB86CE010B9698878F83D9
:103340001A861986BE01695F7F4FC6010E948D14DF
:10335000F801118210821382128215821482B70141
:10336000C8010E94A21CC7010E94BE1DC8012C9664
:103370000FB6F894DEBF0FBECDBFDF91CF911F9186
:103380000F91FF90EF90DF90CF9008957F928F92F2
:103390009F92AF92BF92CF92DF92EF92FF920F93E4
:1033A0001F93CF93DF9300D000D000D0CDB7DEB70E
:1033B000FC019681911112C08091BD0381110BC057
:1033C0001092BA031092B9031092BC031092BB037F
:1033D00081E08093BD0309EB13E0B4C06F0191500D
:1033E000968300811181B80184E090E00E94CD0AAB
:1033F000009751F0DC0111961C930E9313961C92CA
:103400001E9212978C0111C08091BD0381110BC0D7
:103410001092BA031092B9031092BC031092BB032E
:1034200081E08093BD0309EB13E05601B2E0AB0EDF
:10343000B11C6BE7C5010E945717882309F4BCCF64
:103440006DE7C5010E945717811153C086E0782EA1
:10345000C6010E94AD184C01892B09F4ADCF6AE377
:10346000C5010E945717882309F4A6CF1A82198232
:10347000BE016F5F7F4FC6010E94920D882309F441
:103480009BCFF801E280F380E114F104B9F1D70198
:1034900012966D917C9113976115710529F0C40105
:1034A0000E946631892B79F0F701E080F180ECCF42
:1034B000F182E082E114F10409F47ECFD701139682
:1034C0009C928E921297FE013196D7011496872D09
:1034D00001900D928A95E1F76DE7C5010E9457179B
:1034E000811107C06CE2C5010E9457178111B0CF4E
:1034F00063CFF60186818F5F868324C0D8016D91EA
:103500007C918AE090E00E94CD0A7C01892B41F0F9
:10351000D70111961C921E9215961C921E9214971A
:10352000D8011296ED91FC911397309739F0808174
:103530009181009709F4BCCFFC01F9CFF801F38227
:10354000E282B8CFC80126960FB6F894DEBF0FBE50
:10355000CDBFDF91CF911F910F91FF90EF90DF9042
:10356000CF90BF90AF909F908F907F900895CF9213
:10357000DF92EF92FF921F93CF93DF93CDB7DEB729
:103580006E970FB6F894DEBF0FBECDBF7B01BC01B6
:10359000CE0107960E94CB03CE0107960E949304AA
:1035A000182F882309F4F8C061E575E08BE692E0F6
:1035B0000E94961ECE0107960E94330DC7010E94FD
:1035C000330DCE0107960E949304182F882309F427
:1035D000D9C00E941B064AE0BC01CE0149960E9458
:1035E000F31D68E475E0CE0143960E941F1E63E45C
:1035F00075E0CE0101960E941F1EBE016F5F7F4FD6
:10360000CE010D960E94571EBE016D5E7F4FCE010A
:103610000D960E945C1D0E94210DBE01675E7F4FCA
:103620000E945C1D0E94330DCE010D960E94BE1DAE
:10363000CE0101960E94BE1DCE0143960E94BE1D82
:10364000CE0149960E94BE1DF701E080F180CF8037
:10365000D88468E075E08CE493E00E94961E0E9496
:10366000210C40ED57E060E070E0CE0101960E9431
:10367000460DBE016F5F7F4F86E493E00E94A21C5F
:10368000CE0101960E94BE1D6EEF74E08CE493E0C3
:103690000E94961E0E94210CB6018CE493E00E94C9
:1036A000BA1E0E94210C6BEF74E08CE493E00E9440
:1036B000961E0E94210C40ED57E060E070E0CE01C4
:1036C00001960E94460DBE016F5F7F4F86E493E036
:1036D0000E94A21CCE0101960E94BE1DB7018CE47F
:1036E00093E00E94BA1E0E94210C6EE771E08CE408
:1036F00093E00E94BA1E0E94210C40EE5EE260E060
:1037000070E0CE0101960E94460DBE016F5F7F4FB3
:1037100086E493E00E94A21CCE0101960E94BE1D89
:103720006AE18CE493E00E948F1E0E94210C40EE1F
:103730005EE260E070E0CE0101960E94460DBE019F
:103740006F5F7F4F86E493E00E94A21CCE0101963A
:103750000E94BE1D68EC71E0CE0101960E94601EC1
:10376000BE016F5F7F4F86E493E00E943B1C7C01AB
:10377000CE0101960E94BE1DEF20E09441F082E34D
:1037800095E002C083E195E00E94270C05C082E22B
:1037900095E00E94270C10E0CE0107960E94BE1D06
:1037A000812F6E960FB6F894DEBF0FBECDBFDF91AE
:1037B000CF911F91FF90EF90DF90CF9008950895E3
:1037C000CF92DF92EF92FF920F931F93CF93DF93ED
:1037D0006C017A018B01C0E0D0E0CE15DF0589F0E5
:1037E000D8016D918D01D601ED91FC910190F08190
:1037F000E02DC6010995892B11F47E0102C02196A6
:10380000ECCFC701DF91CF911F910F91FF90EF9007
:10381000DF90CF9008950F931F93CF93DF93EC0128
:103820000E946912688779878A879B87E881F98176
:103830000284F385E02DCE01099597FF17C00E9401
:103840006912088519852A853B85DC01CB01801B1F
:10385000910BA20BB30B0C811D812E813F81801730
:103860009107A207B30710F38FEF9FEFDF91CF917E
:103870001F910F910895CF93DF93FC01248135812F
:10388000232B71F0FB01DC01CD91DC916081718112
:10389000CE010E948431009719F08C1B9D0B02C051
:1038A0008FEF9FEFDF91CF910895FB014481558108
:1038B000FC01248135812417350778F080819181BE
:1038C000009759F0FB01608171816115710529F044
:1038D0000E94763121E0892B09F020E0822F0895A3
:1038E000FC0124813581FB01448155812417350772
:1038F00021F5FC0180819181FB016081718100973C
:1039000019F061157105A1F46115710549F0232BBA
:10391000B1F0FB01808190E09195819591090AC0F9
:10392000009769F0232B59F0FC01808190E002C0E0
:103930000E94663121E0892B19F020E001C021E0CE
:10394000822F08950F931F93CF93DF938C01EB0188
:10395000FC01808191810097B1F0688179816115C6
:10396000710579F0428153812C813D8142175307C3
:1039700040F00E946F318C819D81F8019583848392
:1039800013C00E94242A88819981F8019183808341
:103990008A819B81938382838C819D81958384839B
:1039A000198218821B821A821D821C82DF91CF919C
:1039B0001F910F9108950F931F93CF93DF93EC0105
:1039C00088819981009729F02A813B812617370742
:1039D00088F48B016F5F7F4F0E947130009761F018
:1039E000998388831B830A832C813D81232B11F4C7
:1039F000FC01108281E001C080E0DF91CF911F9136
:103A00000F910895EF92FF920F931F93CF93DF933F
:103A1000FC01248135816115710511F480E019C024
:103A200041155105A9F07B01EC018A01020F131F1A
:103A3000B8010E94DB1C882389F3288139818C819D
:103A40009D81B701820F931F0E946F311D830C83EC
:103A500081E0DF91CF911F910F91FF90EF9008953A
:103A6000CF93DF9300D0CDB7DEB769831A8241E0F0
:103A700050E0BE016F5F7F4F0E94021D0F900F90BC
:103A8000DF91CF910895FB0144815581608171815F
:103A90000C94021DCF93DF93EC01888199810097EC
:103AA00011F00E94242A198218821D821C821B8216
:103AB0001A82DF91CF910895CF93DF93EC01FB0140
:103AC00044815581608171810E94021D811103C072
:103AD000CE010E944A1DCE01DF91CF910895EF9251
:103AE000FF920F931F93CF93DF93EC017B018A0129
:103AF000BA010E94DB1C811104C0CE010E944A1D44
:103B000007C01D830C83B701888199810E946F31A2
:103B1000CE01DF91CF911F910F91FF90EF9008950B
:103B2000CF93DF93EC016115710559F0FB01019012
:103B30000020E9F73197AF01461B570B0E946F1D1C
:103B400002C00E944A1DCE01DF91CF910895CF930C
:103B5000DF93EC01FB018617970761F060817181AB
:103B60006115710529F0448155810E946F1D02C0C5
:103B70000E944A1DCE01DF91CF910895FC01808102
:103B800091810C94242AEF92FF920F931F93CF936D
:103B9000DF93CDB7DEB7A1970FB6F894DEBF0FBEA7
:103BA000CDBF7C01CB01BA01F701118210821382D3
:103BB00012821582148242E0420F8E010F5F1F4F66
:103BC0000E946F29BC01C7010E94901DA1960FB6EB
:103BD000F894DEBF0FBECDBFDF91CF911F910F9143
:103BE000FF90EF9008950F931F93CF93DF93CDB77E
:103BF000DEB762970FB6F894DEBF0FBECDBF8C0163
:103C0000CB01F80111821082138212821582148274
:103C100050E0BE016F5F7F4F0E94CC2ABE016F5FF4
:103C20007F4FC8010E94901D62960FB6F894DEBFC8
:103C30000FBECDBFDF91CF911F910F910895EF92ED
:103C4000FF920F931F93CF93DF93EC011982188299
:103C50001B821A821D821C826115710509F18B017C
:103C6000CB010E94C32A7C01BC01CE010E94DB1C57
:103C7000811109C0CE01DF91CF911F910F91FF906B
:103C8000EF900C944A1DFD82EC82B80188819981E5
:103C9000DF91CF911F910F91FF90EF900C94BC2A70
:103CA000DF91CF911F910F91FF90EF900895FC014C
:103CB0001182108213821282158214820C94A71D25
:103CC000FC01118210821382128215821482611506
:103CD000710551F0FB0101900020E9F73197AF0128
:103CE000461B570B0C946F1D08950F931F93CF9392
:103CF000DF93EC018B0167EA71E00E94601EC8014E
:103D00000E940B1C97FD05C0682FCE010E94301D3C
:103D1000F6CFCE01DF91CF911F910F910895DC0175
:103D2000ED91FC910190F081E02D0994EF92FF92CA
:103D30000F931F93CF93DF938C017B01C0E0D0E002
:103D4000F701EC0FFD1F6491662361F0D801ED913E
:103D5000FC910190F081E02DC8010995892B11F0AB
:103D60002196EECFCE01DF91CF911F910F91FF9061
:103D7000EF9008956115710579F0FB010190002025
:103D8000E9F73197AF01461B570BDC01ED91FC9130
:103D90000280F381E02D099480E090E008954F9235
:103DA0005F926F927F92EF92FF920F931F93CF9348
:103DB000DF93CDB7DEB7A1970FB6F894DEBF0FBE85
:103DC000CDBF7C01FA01CB0119A2223008F42AE010
:103DD0008E010F5D1F4F422E512C612C712CBF01A3
:103DE000A30192010E943530F901CA010150110965
:103DF0006A3014F4605D01C0695CD8016C93232BB8
:103E0000242B252B61F7B801C7010E94BA1EA19689
:103E10000FB6F894DEBF0FBECDBFDF91CF911F91DB
:103E20000F91FF90EF907F906F905F904F9008956B
:103E3000CF93DF93CDB7DEB76E970FB6F894DEBFA2
:103E40000FBECDBF789484B5826084BD84B5816097
:103E500084BD85B5826085BD85B5816085BD809155
:103E60006E00816080936E001092810080918100CD
:103E700082608093810080918100816080938100C5
:103E8000809180008160809380008091B100846087
:103E90008093B1008091B00081608093B0008091E8
:103EA0007A00846080937A0080917A0082608093A7
:103EB0007A0080917A00816080937A0080917A0004
:103EC000806880937A001092C100E0917B02F091AB
:103ED0007C0282E08083E0917702F0917802108288
:103EE000E0917902F0917A028FEC80831092830244
:103EF000E0917F02F091800286E08083E0917D0274
:103F0000F0917E02808180618083E0917D02F0915A
:103F10007E02808188608083E0917D02F0917E0244
:103F2000808180688083E0917D02F0917E028081B3
:103F30008F7D808388EC90E0A0E0B0E080936F02FA
:103F400090937002A0937102B093720262E370E0EA
:103F500080E090E00E942F126FED71E0CE0101969B
:103F60000E941F1E65ED71E0CE010D960E941F1E7E
:103F7000BE01635F7F4FCE0107960E94571EBE01B0
:103F80006F5F7F4FCE0107960E945C1D0E94330D2C
:103F9000CE0107960E94BE1DCE010D960E94BE1D49
:103FA000CE0101960E94BE1D0E941B064AE0BC0184
:103FB000CE0101960E94F31D63ED71E0CE010796DC
:103FC0000E941F1E6EEC71E0CE0143960E941F1EE0
:103FD000BE016D5E7F4FCE010D960E94571EBE0141
:103FE000695F7F4FCE010D960E945C1D0E94210DDE
:103FF000BE016F5F7F4F0E945C1D0E94330DCE019A
:104000000D960E94BE1DCE0143960E94BE1DCE019C
:1040100007960E94BE1DCE0101960E94BE1D109201
:104020006703109266031092650310926403109266
:104030006303109262038DE991E09093690380938A
:10404000680390915803963108F057C02DEB30E08B
:1040500030936303209362032BE931E030936503CF
:10406000209364032CE231E03093670320936603CE
:1040700020916800983050F031E09E3008F430E034
:1040800081E001C0880F3A95EAF701C084E0822BF5
:1040900080936800983038F09E3040F0963148F0B8
:1040A00020E030E008C02DE630E005C02BE630E02F
:1040B00002C02CE630E03093600320935F03983019
:1040C00030F481E001C0880F9A95EAF70EC0292FDD
:1040D00030E09E3018F42850310902C02E503109CA
:1040E00081E001C0880F2A95EAF7809361038091EF
:1040F0006803909169030197F1F7809166039091AD
:104100006703892B21F18091D0019091D10123E0A7
:104110008C349207E1F0009711F00E9439138091DE
:104120006A038E7F80936A031092CF011092CE01B2
:104130008CE493E09093D1018093D001E0915F03F0
:10414000F0916003908180916103892B80836DE001
:1041500081E00E94F3116FEF70E086E493E00E942B
:10416000DB1C62E0809131030E94F31180E398EF41
:10417000AFEFBFEF8093350390933603A0933703DF
:10418000B09338030E941B064AE0BC01CE010196A1
:104190000E94F31D6CEC71E0CE0107960E941F1E79
:1041A00067EC71E0CE0143960E941F1EBE016D5E5A
:1041B0007F4FCE010D960E94571EBE01695F7F4F53
:1041C000CE010D960E945C1D0E94210DBE016F5F05
:1041D0007F4F0E945C1D0E94330DCE010D960E9400
:1041E000BE1DCE0143960E94BE1DCE0107960E94C1
:1041F000BE1DCE0101960E94BE1D2DE1E22E22E0E1
:10420000F22E04E610E0C8010E94A22EF70181936D
:104210007F010F5F1F4F04371105A9F782E791E077
:104220000E94270C0E94E50502ED11E0E12CF12C23
:10423000C7010E94A22EF80181938F01FFEFEF1AB0
:10424000FF0A2BE4E216F10499F781E891E00E945D
:10425000270C0E948E050E941B064AE0BC01CE017D
:1042600001960E94F31D65EC71E0CE0107960E9455
:104270001F1E60EC71E0CE0143960E941F1EBE011E
:104280006D5E7F4FCE010D960E94571EBE01695F85
:104290007F4FCE010D960E945C1D0E94210DBE0134
:1042A0006F5F7F4F0E945C1D0E94330DCE010D9603
:1042B0000E94BE1DCE0143960E94BE1DCE010796F0
:1042C0000E94BE1DCE0101960E94BE1D0E94210CBF
:1042D0000E9469126B017C0168E971E08CE493E053
:1042E0000E94961E0E94210C68E771E0CE0107969D
:1042F0000E94601E44EF51E060E070E0CE01019644
:104300000E94460DBE01695F7F4FCE0101960E945B
:104310003B1C8C01CE0101960E94BE1DCE0107966A
:104320000E94BE1D0F3F1F4FC1F463E971E08CE492
:1043300093E00E94961E0E94210C0E946912DC01EB
:10434000CB018C199D09AE09BF0989389341A1059C
:10435000B10550F286EA91E002C086EB91E00E943E
:10436000270C0E941B064AE0BC01CE0101960E9468
:10437000F31D62EA71E0CE0107960E941F1E6DE9EF
:1043800071E0CE0143960E941F1EBE016D5E7F4FFD
:10439000CE010D960E94571EBE01695F7F4FCE0170
:1043A0000D960E945C1D0E94210DBE016F5F7F4F24
:1043B0000E945C1D0E94330DCE010D960E94BE1D11
:1043C000CE0143960E94BE1DCE0107960E94BE1DDF
:1043D000CE0101960E94BE1D11E080913102811133
:1043E0000CC00E94691260932D0270932E0280937C
:1043F0002F0290933002109331020E946912C090F4
:104400002D02D0902E02E0902F02F0903002DC01BD
:10441000CB018C199D09AE09BF0981319742A105D5
:10442000B10508F4ADC00E94691260932D0270932B
:104430002E0280932F02909330020E942A0B882331
:10444000B1F1809132038B3041F188F18551823096
:1044500070F560912C0370E080E090E00E94802D68
:1044600020E030E040E853E40E94E12D6B017C0144
:1044700080912D03682F70E080E090E00E94822DF3
:104480009B01AC01C701B6010E940A2F2DEC3CEC48
:104490004CEC5DE30E94E12D07C060912C0370E0BD
:1044A00080E090E00E94802D4B015C0106C0812CD1
:1044B000912C90ECA92E9FE7B92E0E942A0B8823FD
:1044C00009F458C0809132038B3029F0E0F1855116
:1044D000823058F038C060912E0370E080E090E0A8
:1044E0000E94802D6B017C0134C000912E03602F4F
:1044F0006F7770E080E090E00E94822D20E030E055
:1045000040E853E40E94E12D6B017C0180912F0370
:10451000682F70E080E090E00E94822D9B01AC014A
:10452000C701B6010E940A2F2DEC3CEC4CEC5DE378
:104530000E94E12D6B017C0107FF0BC0F7FAF0949C
:10454000F7F8F09406C0C12CD12C80ECE82E8FE750
:10455000F82EA5019401C501B4010E941C308111FF
:1045600009C0A7019601C701B6010E941C3088232B
:1045700009F418C51092430289EF91E00E94270CBC
:104580008AE193E00E944F1388E093E00E944F136A
:1045900080914302882309F4F8C080913D02C090C5
:1045A0003902D0903A02E0903B02F0903C02811137
:1045B00031C0A701960160911D0270911E02809189
:1045C0001F02909120020E947B2D18160CF4DDC072
:1045D0002091210230912202409123025091240225
:1045E000C701B6010E947B2D18160CF4CEC01093A3
:1045F0003D0262E572E08BE692E00E94961E6091B9
:10460000390270913A0280913B0290913C020E94E3
:10461000140DBBC020911D0230911E0240911F025B
:1046200050912002C701B6010E947B2D87FF4BC02D
:1046300010923D0222E0B701A601CE010D960E9424
:10464000C31D65E372E0CE0101960E941F1EBE01EC
:104650006F5F7F4FCE0107960E94571EBE01635FBA
:104660007F4FCE0107960E945C1DBC01CE01439690
:104670000E94571ECE0107960E94BE1DCE010196D4
:104680000E94BE1DCE010D960E94BE1DE12CF12C94
:10469000B701CE0101960E94BB04BE016D5E7F4F43
:1046A000CE0101960E94B71ACE0101960E94BE1D4E
:1046B0008FEFE81AF80AE5E0EE16F10449F7CE01AB
:1046C00043960E94BE1DC0903902D0903A02E090FD
:1046D0003B02F0903C022091210230912202409155
:1046E000230250912402C701B6010E941730181608
:1046F0000CF04BC010923D0222E0B701A601CE01A2
:104700000D960E94C31D69E172E0CE0101960E94E0
:104710001F1EBE016F5F7F4FCE0107960E94571E7E
:10472000BE01635F7F4FCE0107960E945C1DBC01F6
:10473000CE0143960E94571ECE0107960E94BE1DD1
:10474000CE0101960E94BE1DCE010D960E94BE1D97
:10475000E12CF12CB701CE0101960E94BB04BE01F1
:104760006D5E7F4FCE0101960E94B71ACE01019671
:104770000E94BE1DFFEFEF1AFF0A25E0E216F104CA
:1047800049F7CE0143960E94BE1D809143028823C3
:1047900009F4F8C080914202C0903E02D0903F02DE
:1047A000E0904002F0904102811131C0A7019601D2
:1047B0006091250270912602809127029091280233
:1047C0000E947B2D18160CF4DDC020912902309137
:1047D0002A0240912B0250912C02C701B6010E947F
:1047E0007B2D18160CF4CEC01093420267E972E0DC
:1047F0008BE692E00E94961E60913E0270913F020D
:1048000080914002909141020E94140DBBC0209102
:104810002502309126024091270250912802C701BB
:10482000B6010E947B2D87FF4BC01092420222E00E
:10483000B701A601CE010D960E94C31D6DE772E07F
:10484000CE0101960E941F1EBE016F5F7F4FCE01F9
:1048500007960E94571EBE01635F7F4FCE010796E9
:104860000E945C1DBC01CE0143960E94571ECE01E2
:1048700007960E94BE1DCE0101960E94BE1DCE016C
:104880000D960E94BE1DE12CF12CB701CE010196C0
:104890000E94BB04BE016D5E7F4FCE0101960E9457
:1048A000B71ACE0101960E94BE1D8FEFE81AF80AD2
:1048B000E5E0EE16F10449F7CE0143960E94BE1DD5
:1048C000C0903E02D0903F02E0904002F090410242
:1048D0002091290230912A0240912B0250912C0202
:1048E000C701B6010E94173018160CF04BC0109289
:1048F000420222E0B701A601CE010D960E94C31D1F
:1049000064E672E0CE0101960E941F1EBE016F5F39
:104910007F4FCE0107960E94571EBE01635F7F4FF7
:10492000CE0107960E945C1DBC01CE0143960E94F9
:10493000571ECE0107960E94BE1DCE0101960E9411
:10494000BE1DCE010D960E94BE1DE12CF12CB701BB
:10495000CE0101960E94BB04BE016D5E7F4FCE0169
:1049600001960E94B71ACE0101960E94BE1DFFEF6C
:10497000EF1AFF0A25E0E216F10449F7CE0143964B
:104980000E94BE1D9091440280911D03911107C0A9
:10499000811134C080911F03882381F137C388239C
:1049A00069F180911F03882349F180910B038823CB
:1049B00029F11092440269EA72E0CE0107960E9442
:1049C0001F1EE12CF12CB701CE0101960E94BB0401
:1049D000BE01695F7F4FCE0101960E94B71ACE01DA
:1049E00001960E94BE1D8FEFE81AF80AE5E0EE1668
:1049F000F10449F7CE0107960E94BE1D9091450231
:104A000080910B03911107C08823A1F180910D03C0
:104A1000882381F1FEC281112DC080910D0388236E
:104A200049F180911D03811125C01092450265EC6A
:104A300072E0CE0107960E941F1EE12CF12CB701F7
:104A4000CE0101960E94BB04BE01695F7F4FCE017B
:104A500001960E94B71ACE0101960E94BE1DFFEF7B
:104A6000EF1AFF0A25E0E216F10449F7CE01079696
:104A70000E94BE1D80914A0281110CC00E946912E1
:104A800060934602709347028093480290934902D4
:104A900010934A020E946912C0904602D0904702C9
:104AA000E0904802F0904902DC01CB018C199D098D
:104AB000AE09BF0981319742A105B10508F445C08F
:104AC0000E946912609346027093470280934802E5
:104AD000909349020E941B064AE0BC01CE01439616
:104AE0000E94F31D65EE72E0CE010D960E941F1E1E
:104AF00060EE72E0CE0101960E941F1EBE016F5F44
:104B00007F4FCE0107960E94571EBE01635F7F4F05
:104B1000CE0107960E945C1D0E94210DBE016D5EB4
:104B20007F4F0E945C1D0E94330DCE0107960E94AC
:104B3000BE1DCE0101960E94BE1DCE010D960E94A3
:104B4000BE1DCE0143960E94BE1D8BE692E00E94E0
:104B50009E0F892B09F44FC00E94210C6BE672E076
:104B6000CE0149960E94751ECE0149960E94C80E3C
:104B70000E941B064AE0BC01CE0101960E94F31D73
:104B800062E373E0CE0107960E941F1E6DE273E0A0
:104B9000CE0143960E941F1EBE016D5E7F4FCE0167
:104BA0000D960E94571EBE01695F7F4FCE010D9684
:104BB0000E945C1D0E94210DBE016F5F7F4F0E940D
:104BC0005C1D0E94330DCE010D960E94BE1DCE01CC
:104BD00043960E94BE1DCE0107960E94BE1DCE01C7
:104BE00001960E94BE1DCE0149960E944406CE0148
:104BF00049960E94BE1D8091560281110CC00E94F0
:104C000069126093520270935302809354029093FE
:104C10005502109356020E946912C0905202D09021
:104C20005302E0905402F0905502DC01CB018C1944
:104C30009D09AE09BF0980319742A105B10508F46D
:104C4000AEC10E9469126093520270935302809326
:104C50005402909355026FEE72E08CE493E00E9450
:104C6000961E0E94210C6BE771E0CE0107960E9410
:104C7000601E40EE5EE260E070E0CE0101960E94B0
:104C8000460DBE01695F7F4FCE0101960E943B1C1D
:104C90007C01CE0101960E94BE1DCE0107960E94A6
:104CA000BE1DEF20E09409F04AC066EE72E08CE48D
:104CB00093E00E94961E0E94210C2AE041E050E001
:104CC00060E070E08CE493E00E94CF1E0E94210C13
:104CD0006EE771E08CE493E00E94BA1E0E94210C02
:104CE00040EE5EE260E070E0CE0101960E94460D6B
:104CF000BE016F5F7F4F86E493E00E94A21CCE014D
:104D000001960E94BE1D60E871E0CE0101960E94EE
:104D1000601EBE016F5F7F4F86E493E00E943B1CE4
:104D20007C01CE0101960E94BE1DEF20E09439F077
:104D300066E473E0CE0149960E94571E06C067EAFA
:104D400071E0CE0149960E94601EE98CFA8CE11454
:104D5000F10409F094C0CE0149960E94C80E0E9449
:104D60001B064AE0BC01CE0143960E94F31D64E29B
:104D700073E0CE010D960E941F1E6FE173E0CE011D
:104D800001960E941F1EBE016F5F7F4FCE010796E6
:104D90000E94571EBE01635F7F4FCE0107960E949F
:104DA0005C1D0E94210DBE016D5E7F4F0E945C1D47
:104DB0000E94330DCE0107960E94BE1DCE010196C2
:104DC0000E94BE1DCE010D960E94BE1DCE014396CF
:104DD0000E94BE1D6CE173E0CE0101960E941F1E71
:104DE000BE016F5F7F4FCE0149960E943B1C7C0144
:104DF000CE0101960E94BE1DF7FC4FC02D8D3E8D49
:104E0000A7014F5F5F4FBE01675E7F4FCE010196E6
:104E10000E94270FBE016F5F7F4F8EE393E00E94D9
:104E2000A21CCE0101960E94BE1D6AE173E0CE0174
:104E300001960E941F1EBE016F5F7F4F8EE393E0BD
:104E40000E943B1C9C0140E050E06EE373E0CE0109
:104E500007960E94270FBE01695F7F4F8EE393E0A4
:104E60000E94A21CCE0107960E94BE1DCE01019693
:104E70000E94BE1D8EE393E00E94330D0EC0F70129
:104E80008081882309F467CF082E000C990B0E94BB
:104E90005531F70181937F01F2CF66E173E0CE01D6
:104EA00001960E941F1EBE016F5F7F4FCE01499683
:104EB0000E943B1C7C01CE0101960E94BE1DF7FCA6
:104EC00064C02D8D3E8D24503109A7014D5F5F4F89
:104ED000BE01675E7F4FCE0101960E94270FBE0183
:104EE0006F5F7F4FCE0149960E94A21CCE010196B2
:104EF0000E94BE1DCE0149960E94C80E6FE073E06D
:104F00008BE692E00E94961E0E941B064AE0BC01BE
:104F1000CE0143960E94F31D6FEF72E0CE010D9615
:104F20000E941F1E6AEF72E0CE0101960E941F1EB2
:104F3000BE016F5F7F4FCE0107960E94571EBE01D4
:104F4000635F7F4FCE0107960E945C1D0E94210D7A
:104F5000BE016D5E7F4F0E945C1D0E94330DCE012D
:104F600007960E94BE1DCE0101960E94BE1DCE0175
:104F70000D960E94BE1DCE0143960E94BE1DCE011D
:104F800049960E9444060E94210C67EA71E08EE374
:104F900093E00E94901DCE0149960E94BE1D0E9482
:104FA0003E101BCA10934302C0923902D0923A02BB
:104FB000E0923B02F0923C0280923E0290923F02CD
:104FC000A0924002B09241026FEE71E08BE692E057
:104FD0000E94961E6091390270913A0280913B02C4
:104FE00090913C0242E00E94360C65EE71E08BE647
:104FF00092E00E94961E60913E0270913F02809165
:105000004002909141020E94140DBACA10934402CA
:10501000F5CC109345022ECD8EE393E00E94BE1D89
:1050200086E493E00E94BE1D82E291E090934D03DE
:1050300080934C038CE493E00C94391310926E022D
:1050400010926D0288EE93E0A0E0B0E080936F02D2
:1050500090937002A0937102B093720220E131E04C
:1050600030936C0220936B0225EC30E03093780291
:105070002093770224EC30E030937A022093790277
:1050800020EC30E030937C0220937B0221EC30E076
:1050900030937E0220937D0222EC30E03093800238
:1050A00020937F0226EC30E030938202209381022D
:1050B000109284021092850210928602109287024A
:1050C00010924F0310924E0380935003909351031C
:1050D000A0935203B093530382E291E090934D0367
:1050E00080934C0310926303109262031092650345
:1050F0001092640310926703109266031092690382
:105100001092680360916A036E7F6D7F60936A03FB
:105110006695617081E068278BE00E94C31161E0B1
:105120008BE00E94F311E4EDF4E0E491E0935C0382
:10513000E0ECF4E0E491F0E0EE0FFF1FEF55FB4FE1
:105140008591949190935E0380935D0360E08AE083
:105150000E94F31180916A0381FD04C061E08AE03E
:105160000E94C3118AE080935803E3EDF4E0E491D8
:10517000E0935903EFEBF4E0E491F0E0EE0FFF1F52
:10518000E555FB4F8591949190935B0380935A036F
:1051900067EA71E086E493E00E94601E67EA71E0CE
:1051A0008EE393E00E94601E88E0809331038BE0E1
:1051B00080933203E1EDF4E0E491E0933303EDEB0F
:1051C000F4E0E491E093340380E89EE3A0E0B0E0F3
:1051D0008093390390933A03A0933B03B0933C032D
:1051E00081E180931A0381E080931B0380931C0369
:1051F00084EF91E0A0E0B0E080932803909329032E
:10520000A0932A03B0932B0362E081E10E94F31183
:1052100080911A030E949A1180931D0390911C03A0
:10522000992329F091E0811190E090931D030E9451
:10523000691260932003709321038093220390935B
:10524000230320911D0320931E0310921F036093DC
:10525000240370932503809326039093270382E110
:105260008093080381E08093090380930A0384EF0D
:1052700091E0A0E0B0E08093160390931703A09311
:105280001803B093190362E082E10E94F311809148
:1052900008030E949A1180930B0390910A039923AB
:1052A00029F091E0811190E090930B030E94691224
:1052B00060930E0370930F03809310039093110378
:1052C00020910B0320930C0310920D0360931203A3
:1052D0007093130380931403909315030895EF9232
:1052E0000F931F93CF93DF93E80147FD02C034E093
:1052F00001C034E1E42F440FFF0BF7FF03C0F19529
:10530000E195F109E32E022F2E2FAE010E94FC2A17
:10531000CE01DF91CF911F910F91EF900895CF9320
:10532000DF938230910510F482E090E0E091C703B2
:10533000F091C80320E030E0C0E0D0E0309711F1F8
:105340004081518148175907C0F04817590761F447
:1053500082819381209719F09B838A832BC090933D
:10536000C8038093C70326C02115310519F04217E1
:10537000530718F49A01BE01DF01EF010280F381A7
:10538000E02DDCCF2115310509F1281B390B243024
:10539000310590F412968D919C91139761157105CA
:1053A00021F0FB019383828304C09093C803809310
:1053B000C703FD01329644C0FD01E20FF31F819344
:1053C0009193225031092D933C933AC02091C5030B
:1053D0003091C603232B41F4209102013091030147
:1053E0003093C6032093C503209100013091010141
:1053F0002115310541F42DB73EB74091040150917C
:105400000501241B350BE091C503F091C603E2179B
:10541000F307A0F42E1B3F0B2817390778F0AC01D7
:105420004E5F5F4F2417350748F04E0F5F1F5093B4
:10543000C6034093C5038193919302C0E0E0F0E07E
:10544000CF01DF91CF9108950F931F93CF93DF93F7
:10545000009709F48CC0FC013297138212820091EC
:10546000C7031091C8030115110581F42081318112
:10547000820F931F2091C5033091C6032817390767
:1054800079F5F093C603E093C50371C0D80140E0FD
:1054900050E0AE17BF0750F412962D913C91139730
:1054A000AD012115310509F1D901F3CF9D01DA01D3
:1054B0003383228360817181860F971F8217930740
:1054C00069F4EC0128813981260F371F2E5F3F4F89
:1054D000318320838A819B8193838283452B29F4A6
:1054E000F093C803E093C70342C01396FC93EE9376
:1054F0001297ED01499159919E01240F351FE21732
:10550000F30771F480819181840F951F02961196A3
:105510009C938E938281938113969C938E93129782
:10552000E0E0F0E0D80112968D919C9113970097DE
:1055300019F0F8018C01F6CF8D919C9198012E5FA6
:105540003F4F820F931F2091C5033091C603281748
:10555000390769F4309729F41092C8031092C703F1
:1055600002C0138212821093C6030093C503DF9119
:10557000CF911F910F910895FB01DC0105900D92D1
:105580000020E1F70895FC0105900020E9F78095DF
:1055900090958E0F9F1F08954532510520F442309B
:1055A00010F00C94D72AFB011082CB010895BB2781
:1055B0004A3031F4992322F4BDE2909581959F4FB2
:1055C0000C94E32ABB27FB015527AA27880F991FB4
:1055D000AA1FA41710F0A41B83955051B9F7A05D22
:1055E000AA3308F0A95DA193009779F7B111B1939F
:1055F0001192CB010C946B2D4F925F926F927F9220
:105600009F92AF92BF92CF92DF92EF92FF920F9351
:105610001F93CF93DF93CDB7DEB729970FB6F894DA
:10562000DEBF0FBECDBF6A01122FB02E2BE32017B5
:1056300020F0FF24F394F00E02C0BCE3FB2E0F2DEC
:1056400027E0AE014F5F5F4F0E948A2CAC01898139
:10565000982F9970913031F0E1FC06C0E0FE06C051
:1056600090E205C09DE203C09BE201C090E0EE2DF8
:10567000E07183FF3CC0911102C083E001C084E06F
:10568000811718F4212F281B01C020E0E1110BC065
:10569000F601822F30E2882319F031938150FBCF3D
:1056A000C20ED11C20E0992329F0D6019C93F6016B
:1056B00031966F01C6010396E2FE0AC03EE4D601B0
:1056C0003C9341E411964C93119712963C9306C07B
:1056D0003EE6F601308341E641833283FC01322FFE
:1056E00040E2332309F442C041933150FACF82FFA4
:1056F00044C0911102C083E001C084E0811718F416
:10570000212F281B01C020E0E1110BC0F601822FE0
:1057100030E2882319F031938150FBCFC20ED11CA7
:1057200020E0992329F0D6019C93F60131966F0170
:10573000C6010396E2FE0BC039E4D6013C933EE479
:1057400011963C93119736E412963C9307C039E6C4
:10575000F60130833EE6318336E63283FC01322F98
:1057600040E2332319F041933150FBCFFC01E20FAB
:10577000F11D10828EEF9FEFB7C0F1E0911101C0D3
:10578000F0E06F2F70E01416150624F49A012F5FD5
:105790003F4F02C021E030E0260F371FBB2029F029
:1057A0006B2D70E06F5F7F4F02C060E070E0260FEE
:1057B000371F612F70E0261737071CF4121B212FAB
:1057C00001C020E03E2D387159F4D601322F60E23D
:1057D000332319F06D933150FBCFC20ED11C20E062
:1057E000FF2331F0D6019C93B6016F5F7F4F6B01B1
:1057F000E1110BC0F601922F30E3992319F0319398
:105800009150FBCFC20ED11C20E09F2D940F3A8106
:10581000782F7071A72E84FF03C0313309F49150A3
:10582000191624F4993018F098E001C091E0E42FA3
:10583000852F57FF02C0E0E080E06E2F782FE0E078
:10584000F0E0AEE29A2E3A01691A71082A01461A6E
:10585000570A0B2D10E01195019511096F3F8FEF3D
:10586000780729F4D6019C92C60101966C0146176F
:10587000570784F0661677066CF47F01E40CF51C7C
:10588000A1E0B0E0AC0FBD1FEA0EFB1ED7011196E0
:10589000BC9002C090E3B92E615071093196C601E7
:1058A00001967C016017710724F0D601BC926C014F
:1058B000D5CF6417750741F4363320F4353321F41E
:1058C000A11002C081E3B82EF601B082F701822F49
:1058D00090E2882319F091938150FBCFF701E20FFA
:1058E000F11D108280E090E029960FB6F894DEBF9B
:1058F0000FBECDBFDF91CF911F910F91FF90EF9021
:10590000DF90CF90BF90AF909F907F906F905F900F
:105910004F900895283008F027E03327DA01990FD7
:10592000311D87FD916000966105710539F4326083
:105930002E5F3D9330E32A95E1F708959F3F30F0C5
:1059400080387105610509F03C5F3C5F3D93913003
:1059500008F08068911DDF93CF931F930F93FF9200
:10596000EF92192F987F9695E92F96959695E90FC6
:10597000FF27EE52FF4F99273327EE24FF24A7017C
:10598000E70105900894079428F4360FE71EF81EE7
:10599000491F511D660F771F881F991F0694A1F795
:1059A0000590079428F4E70EF81E491F561FC11DE5
:1059B000770F881F991F661F0694A1F7059007941B
:1059C00028F4F80E491F561FC71FD11D880F991FB5
:1059D000661F771F0694A1F70590079420F4490FDE
:1059E000561FC71FD81F990F661F771F881F069461
:1059F000A9F784911095177041F0D695C7955795E2
:105A00004795F794E7941A95C1F7E8E7F0E06894B2
:105A10001590159135916591959105907FE273955B
:105A2000E118F10A430B560BC90BD009C0F7E10C82
:105A3000F11E431F561FC91FD01D7EF4703311F491
:105A40008A95E6CFE894015030F0080F0AF4002759
:105A5000021708F4202F2395022F7A3328F079E3D8
:105A60007D932A95E9F710C07D932A9589F60694CF
:105A700097956795379517951794E118F10A430B99
:105A8000560BC90BD00998F023957E9173957A3304
:105A900008F070E37C932013B8F77E9170617D93DA
:105AA00030F0839571E37D9370E32A95E1F711243B
:105AB000EF90FF900F911F91CF91DF91992787FD74
:105AC0009095089591110C944E2E803219F08950C2
:105AD0008550C8F70895DC01FC01672F7191772389
