:100000000C948F010C94B7010C94B7010C94A715B4
:100010000C94A7150C94A7150C94B7010C94B70178
:100020000C94B7010C94B7010C94B7010C94B70170
:100030000C94B7010C94B7010C94B7010C94B70160
:100040000C945D150C94B7010C9450140C942A1464
:100050000C94B7010C94B7010C94B7010C94B70140
:100060000C94B7010C94B701471740175A17511752
:100070004D17F1161217B71600407A10F35A00A068
:10008000724E18090010A5D4E80000E87648170061
:1000900000E40B54020000CA9A3B000000E1F505A1
:1000A000000080969800000040420F000000A086EB
:1000B00001000000102700000000E803000000001D
:1000C0006400000000000A000000000001000000C1
:1000D00000002C76D888DC674F0823DFC1DFAE59DB
:1000E000E1B1B796E5E3E453C63AE651997696E86E
:1000F000E6C28426EB898C9B62ED407C6FFCEFBCF2
:100100009C9F40F2BAA56FA5F490055A2AF75C931C
:100110006B6CF9676DC11BFCE0E40D47FEF520E652
:10012000B500D0ED902E0300943577050080841E35
:10013000080000204E0A000000C80C333333330F90
:10014000986E12831141EF8D2114893BE65516CF2D
:10015000FEE6DB18D1844B381BF77C1D901DA4BB39
:10016000E424203284725E228100C9F124ECA1E5EE
:100170003D27683109006830090074310900743086
:100180000900496478094C656E0950686F6E650016
:100190000D0A536176652070686F6E65206C697317
:1001A00074000D0A5361766520636F6E666967732C
:1001B0000050686F6E652041727261792057726FCE
:1001C0006E67000D0A50686F6E6573000D0A436F0D
:1001D0006E66696773002D2D2D2D2D2D2D2D005D43
:1001E000000D0A436F6D6D616E64205B004E756D8E
:1001F00062657220696E76616C69640053656E6435
:1002000020534D532073756363657373000D0A5358
:100210004D53203C3C20000D0A4C6F616420636FFD
:100220006E66696773000D0A4C6F61642070686FB9
:100230006E65206C6973740041540D0A0041540DC1
:100240000A0053494D20756E617661696C61626C7C
:10025000650053494D207265616479000D0A487547
:100260006D69203D20000D0A54656D70203D200011
:100270004661696C656420746F20726561642066F4
:10028000726F6D204448542073656E736F72210045
:1002900041542B434D47523D0041542B434D47465B
:1002A0003D310D00534D533E3E200061742B636D74
:1002B0006764613D2264656C20616C6C220A0D00EC
:1002C00000000000250028002B0000000000230093
:1002D00026002900040404040404040402020202A7
:1002E00002020303030303030102040810204080F9
:1002F0000102040810200102040810200000000080
:10030000240027002A00000000080002010000036A
:100310000407000000000000000070225622112493
:100320001FBECFEFD8E0DEBFCDBF25E0A2E0B3E037
:1003300001C01D92A930B207E1F713E0A0E0B1E0DF
:10034000E2E7F7E502C005900D92A230B107D9F7B8
:1003500011E0CEE8D1E004C02197FE010E943829C7
:10036000CD38D107C9F70E94F41A0C94AC2B0C9429
:100370000000FC0126813781620F731F8481958103
:100380008617970738F08281938177836683820F7F
:10039000931F089580E090E008958F929F92AF920E
:1003A000BF92FF920F931F93CF93DF930E94F11898
:1003B000FC01892B09F407C1848195818330910563
:1003C0003CF481309105C4F4892B09F4FCC0F6C0DB
:1003D0008530910554F0059709F0F0C0668177816A
:1003E000808591850E946126E7C06681778180853E
:1003F00091850E946126FEC0C681D781209709F4AD
:10040000E2C088818B3229F08D3221F4219611E0EF
:1004100002C0219610E08881843709F4D8C08F7D0E
:100420008E3409F4D9C0893409F47AC0F12C20E063
:1004300030E0A901FE01099180ED800F8A30E8F4D7
:100440002C3C8CEC38078CE048075105A4F4AAE05A
:10045000B0E00E949927202F000F330B2053310961
:100460004901330FAA08BB089B01AC01280D391DB7
:100470004A1D5B1DDFCFF394DDCF0E3221F5EF0176
:100480002196FE01099180ED800F8A30E0F42C3C2A
:100490008CEC38078CE0480751059CF7AAE0B0E0E7
:1004A0000E949927202F000F330B20533109490157
:1004B000330FAA08BB089B01AC01280D391D4A1D4A
:1004C0005B1DFA94DECF60816F7D8F2DFF0C990B41
:1004D0006534C1F561816D3219F4329671E006C060
:1004E0006B3211F0319601C0329670E0C0E0D0E07E
:1004F0000AE06191A0EDA60FAA30F0F40C9FD001A4
:100500000D9FB00D1124C62F660FDD0BE097CA0FAB
:10051000DB1FDE01A80FB91F97975CF3711108C0AC
:10052000112309F463C060E070E080E89FEF62C0CF
:10053000112309F448C055C0772331F0D195C195F6
:10054000D10902C0C0E0D0E0C80FD91FCA01B9016B
:100550000E9463261C161D06ACF400E0C0FF0CC010
:1005600024E0029FF0011124E05AFE4F20813181E6
:10057000428153810E94C226D595C7950F5F20976F
:1005800069F718C0D195C195D10900E0209791F085
:10059000C0FF0CC024E0029FF0011124E85BFE4F75
:1005A00020813181428153810E94C226D595C79511
:1005B0000F5FECCF1123F1F090581CC0668177815A
:1005C0008085918517C060E070E0CB0113C060E0CA
:1005D00070E080E89FE30EC060E070E080EC9FE791
:1005E00009C060E070E080E090E804C060E070E086
:1005F00080E89FE7DF91CF911F910F91FF90BF900F
:10060000AF909F908F900895CF92DF92EF92FF92DC
:100610000F931F93CF93DF93CDB7DEB72C970FB611
:10062000F894DEBF0FBECDBF8C016B01FB01E080F3
:10063000F180F1E0EF16F10461F4FB016281738156
:100640006115710531F088E791E00E94742B892BC8
:1006500089F0F1E0EF1AF10882E0E816F10450F4B5
:10066000F601628173816115710521F0C8010E9454
:10067000431A23C06FEA71E0CE0101967C010E940B
:10068000431AFC86EB86CE010B9698878F831A86D9
:100690001986BE01695F7F4FC6010E948F16F8015F
:1006A000118210821382128215821482B701C8014E
:1006B0000E947219C7010E94051AC8012C960FB634
:1006C000F894DEBF0FBECDBFDF91CF911F910F9188
:1006D000FF90EF90DF90CF900895CF93DF93EC01E0
:1006E0000E94DA0F6C817D816115710501F120E0B6
:1006F00030E026173707C9F0488159814115510567
:1007000029F0FA01E20FF31F808101C080E0482F39
:10071000082E000C550B405351094A30510510F07A
:100720008B3229F42F5F3F4FE4CF81E001C080E09E
:10073000DF91CF910895FF920F931F93CF93DF9393
:10074000CDB7DEB764970FB6F894DEBF0FBECDBF4E
:100750008C01CB016B8B7C8B0E94DA0F6B897C89BF
:10076000CE0101960E943A1A8D819E81892B31F427
:100770006FEA71E0C8010E94431A75C0E981FA81ED
:10078000309789F080818B3271F4F80111821082E8
:100790001382128215821482BE016F5F7F4FC801DF
:1007A0000E94721960C06EE771E0CE0107960E9448
:1007B000431ABE01695F7F4FCE0101960E944D1022
:1007C000F82ECE0107960E94051AFF2019F062ED5F
:1007D00072E034C02D813E812115310521F0E9817F
:1007E000FA81309721F410920E03EEE0F3E080815D
:1007F000803311F541E050E0BE016F5F7F4FCE01C5
:100800000D960E9412116DE771E0CE0107960E94CD
:10081000431ABE01635F7F4FCE0107960E94CE1040
:10082000BC01CE0101960E945811CE0107960E948C
:10083000051ACE010D9614C06DE771E0CE01079642
:100840000E94431ABE016F5F7F4FCE0107960E9440
:10085000CE10BC01CE0101960E945811CE01079620
:100860000E94051A92CFCE0101960E94051AC80176
:1008700064960FB6F894DEBF0FBECDBFDF91CF9167
:100880001F910F91FF900895EF92FF920F931F9386
:10089000CF93DF93CDB7DEB72C970FB6F894DEBFBA
:1008A0000FBECDBF8C0161E871E00E94431A8AE659
:1008B000E82E83E0F82EF701408151816281738137
:1008C00022E0CE0107960E940A1A69E871E0CE0183
:1008D00001960E94431ABE01695F7F4FCE010196C7
:1008E0000E94CE10BC01C8010E94F410CE010196F6
:1008F0000E94051ACE0107960E94051AF70144814D
:1009000055816681778122E0CE0107960E940A1AFE
:100910006FE871E0CE0101960E94431ABE01695F43
:100920007F4FCE0101960E94CE10BC01C8010E94EB
:10093000F410CE0101960E94051ACE0107960E947E
:10094000051AF701408551856285738522E0CE0145
:1009500007960E940A1A65E971E0CE0101960E948D
:10096000431ABE01695F7F4FCE0101960E94CE10EF
:10097000BC01C8010E94F410CE0101960E94051A24
:10098000CE0107960E94051AF701448555856685B4
:10099000778522E0CE0107960E940A1A6BE971E082
:1009A000CE0101960E94431ABE01695F7F4FCE01BE
:1009B00001960E94CE10BC01C8010E94F410CE0125
:1009C00001960E94051ACE0107960E94051AC801D9
:1009D0002C960FB6F894DEBF0FBECDBFDF91CF913E
:1009E0001F910F91FF90EF900895FC01A081B181BC
:1009F0008C918D3051F024F489508230B8F505C0C7
:100A0000803219F08F3219F0089511962CC011968A
:100A10008C9111978A3219F08F32D1F00895119686
:100A2000B183A083A081B181CD01019691838083A0
:100A300011968C9111978823C9F08A3299F71296F2
:100A40008C9112978F3271F713960DC08A3071F224
:100A5000A081B181CD0101969183808311968C9103
:100A60008111F4CF03C0B183A083C0CF08950F9349
:100A70001F93CF93DF931F92CDB7DEB78C016983AD
:100A80000E94F504D801ED91FC9111978081698154
:100A9000861305C03196ED93FC9381E001C080E0A0
:100AA0000F90DF91CF911F910F910895EF92FF92D8
:100AB0000F931F93CF93DF938C01DC011496CD919C
:100AC000DC911597EA80FB808E819F81E80EF91EEC
:100AD000C80102960E94F504D8011296ED91FC918E
:100AE000139790819732A9F1923299F180ED890F95
:100AF0008A3078F081EA890F8C3158F08FEB890FBA
:100B00008A3138F09B3229F083ED890F823008F06A
:100B100060C0F801228133812F5F3F4F33832283EE
:100B20002E813F81A9014F5F5F4F6C817D816417EA
:100B3000750740F06A817B81FB01E20FF31F5F8341
:100B40004E839083D8011296ED91FC91139790817A
:100B5000CDCF3196D8011396FC93EE931297D8011E
:100B60001296ED91FC9113972081222391F1AF0110
:100B70004F5F5F4F13965C934E931297291749F17D
:100B80002C35A9F42181A5EAB1E08C91882339F0B4
:100B9000821303C011962C9102C01296F6CF222325
:100BA000C1F03296D8011396FC93EE9312974E81C2
:100BB0005F81BA016F5F7F4FEC81FD81E617F70718
:100BC00070F2EA81FB81E40FF51F7F836E8320833F
:100BD000C6CF8E819F819C012F5F3F4F4C815D81ED
:100BE0004217530748F04A815B81FA01E80FF91F69
:100BF0003F832E83108202C0E12CF12CC701DF91CC
:100C0000CF911F910F91FF90EF900895EF92FF9277
:100C10001F93CF93DF93CDB7DEB72C970FB6F89421
:100C2000DEBF0FBECDBF7B01BC01CE0107960E9487
:100C30003A1ABE01695F7F4FCE0101960E949B0365
:100C4000CE0107960E94051ABE016F5F7F4FCE014D
:100C500007960E943A1ACE0107960E946D03182F3C
:100C6000CE0107960E94051A112369F145E150E073
:100C700060EB71E0C7010E9487106DE072E08BEAC3
:100C800093E00E94721ACE0101960E948B0EC7015A
:100C90000E948B0EBE016F5F7F4FCE0107960E94B0
:100CA0003A1ACE0107960E946D03182FCE010796BF
:100CB0000E94051A112319F08CEF91E002C08DEE0D
:100CC00091E00E94700DCE0101960E94051A812FBD
:100CD0002C960FB6F894DEBF0FBECDBFDF91CF913B
:100CE0001F91FF90EF900895CF92DF92EF92FF92C5
:100CF0000F931F93CF93DF93CDB7DEB763970FB6F4
:100D0000F894DEBF0FBECDBF8C017B01663071054C
:100D100008F06DC06FEA71E0CE0101960E94431A9F
:100D20008FE08E9D60018F9DD00C1124E12CF12C61
:100D3000F701EC0DFD1DE15EFC4F6081862F062E54
:100D4000000C990B6B8B0E944E2B6B89892B21F029
:100D5000CE0101960E94E110EFEFEE1AFE0AFFE0CD
:100D6000EF16F10429F7CE0101960E94DA0FBE01B9
:100D70006F5F7F4FCE0107960E943A1ACE01079609
:100D80000E946D03F82ECE0107960E94051AFF20DF
:100D9000E9F0BE016F5F7F4FCE0107960E943A1ABD
:100DA000BE01695F7F4FCE010D960E949B03BE017D
:100DB000635F7F4FCE0101960E947219CE010D969E
:100DC0000E94051ACE0107960E94051AF8011182A9
:100DD00010821382128215821482BE016F5F7F4FD0
:100DE000C8010E947219CE0101960E94051AC8011D
:100DF00063960FB6F894DEBF0FBECDBFDF91CF91E3
:100E00001F910F91FF90EF90DF90CF900895DF92A8
:100E1000EF92FF920F931F93CF93DF93CDB7DEB77F
:100E20002C970FB6F894DEBF0FBECDBF7C0166ECE9
:100E300071E00E94431A00E010E0B801CE01019673
:100E40000E947406BE016F5F7F4FCE0107960E941D
:100E50003A1ACE0107960E946D03D82ECE0107964E
:100E60000E94051ADD20A9F0BE016F5F7F4FCE0101
:100E700007960E943A1A60ED71E0CE0107960E9433
:100E8000B510BC01C7010E94F410CE0107960E9464
:100E9000051ACE0101960E94051A0F5F1F4F0530FB
:100EA000110559F6C7012C960FB6F894DEBF0FBE98
:100EB000CDBFDF91CF911F910F91FF90EF90DF9009
:100EC0000895CF92DF92EF92FF92CF93DF9300D0FD
:100ED00000D000D0CDB7DEB782E891E00E94700D5F
:100EE000C12CD12C7601B601CE0101960E94740668
:100EF0002AE0B701A6018BEA93E00E94AB1A6EEAE2
:100F000071E08BEA93E00E94961A4D815E8160E069
:100F100070E02AE08BEA93E00E94AB1A6EEA71E07F
:100F20008BEA93E00E94961A69817A818BEA93E0BA
:100F30000E94961A0E946A0DCE0101960E94051A1F
:100F40008FEFC81AD80AE80AF80A85E0C816D10453
:100F5000E104F10441F626960FB6F894DEBF0FBE09
:100F6000CDBFDF91CF91FF90EF90DF90CF900895AC
:100F7000CF93DF936EE771E08BEA93E00E94721AE1
:100F8000CAE6D3E0688179818A819B810E94640EE0
:100F90006AE771E08BEA93E00E94721A6C817D81AE
:100FA0008E819F810E94640E66E771E08BEA93E078
:100FB0000E94721A688579858A859B850E94640ED5
:100FC00062E771E08BEA93E00E94721A6C857D857E
:100FD0008E859F85DF91CF910C94640E80910603DE
:100FE00081110BC0109203031092020310920503AB
:100FF0001092040381E08093060382E093E0089559
:10100000DB01109749F0ED91FC9111970190F0816F
:10101000E02DBC01CD01099480E090E008959F92FD
:10102000AF92BF92CF92DF92EF92FF920F931F93F6
:10103000CF93DF9300D000D000D0CDB7DEB7FC0156
:101040009681911112C08091130381110BC01092EF
:10105000100310920F03109212031092110381E0FB
:10106000809313030FE013E09BC07F0191509683A0
:1010700000811181B80184E090E00E94000800978F
:1010800039F0FC0111830083138212828C0111C09C
:101090008091130381110BC01092100310920F0363
:1010A000109212031092110381E0809313030FE05A
:1010B00013E06701F2E0CF0ED11C6BE7C6010E947E
:1010C0003705882309F4BFCF6DE7C6010E943705B5
:1010D000811162C086E0982EC7010E9456055C010E
:1010E000892B09F4B0CF6AE3C6010E943705882333
:1010F00009F4A9CF1A821982BE016F5F7F4FC70121
:101100000E94EA0E882309F49ECFB501C8010E940F
:10111000F118DC01892B59F5F801608171818AE0B1
:1011200090E00E940008DC01892B39F011961C9296
:101130001E9215961C921E921497F80122813381FB
:101140002115310551F0F90180819181009711F04D
:101150009C01F9CFB183A08303C0F801B383A283BC
:10116000109709F470CF1396BC92AE921297FE01BD
:1011700031961496892D01900D928A95E1F76DE7CD
:10118000C6010E943705811107C06CE2C6010E94AA
:1011900037058111A1CF57CFF70186818F5F8683F5
:1011A000C80126960FB6F894DEBF0FBECDBFDF9103
:1011B000CF911F910F91FF90EF90DF90CF90BF9054
:1011C000AF909F9008954F925F926F927F928F920F
:1011D0009F92AF92BF92CF92DF92EF92FF920F93C6
:1011E0001F93CF93DF93CDB7DEB7C45ED1090FB69F
:1011F000F894DEBF0FBECDBF7C010E943910C7013D
:101200000E94DA0F61EE71E08BEA93E00E94721A9D
:10121000D70114964D915C91159760E070E02AE03B
:101220008BEA93E00E94AB1A8FED91E00E94700D63
:10123000C7010E948B0E86ED91E00E94700D64ED57
:1012400071E08E010F5F1F4FC8010E94431AB80161
:10125000C7010E944D10D82EC8010E94051ADD203A
:1012600009F441C08CEC91E00E94700D0E94B80717
:1012700083EC91E00E94700D0E94610764E874E0C5
:10128000C8010E943A1AC8010E946D03F82EC801D5
:101290000E94051AFF2009F4C0C2CE0188529F4F58
:1012A0000E940707C8010E944404B801CE018F5272
:1012B0009F4F0E943A1A6AED71E0CE018F529F4F04
:1012C0000E94B510BE0168527F4F0E94CE10BC0133
:1012D0008EE794E00E945811CE018F529F4F0E94DA
:1012E000051AC80122C26FED71E0C8010E94431ABD
:1012F000F701848195812D813E816C01C21AD30A48
:101300002115310551F1009741F18217930728F11A
:10131000C816D90620F06C01F1E0CF1AD108D70128
:101320006D907C9089809A80C30144244A9455240E
:101330005A945301AC0CBD1CA816B90690F0B40128
:101340000E94922B009769F09C0126193709C2165A
:10135000D30608F029010196EFCFCC24CA94DC2CE7
:1013600001C06201C8010E94051AD7FC16C096018F
:101370002F5F3F4F40E050E0B701C8010E941211BB
:10138000B801C7010E947219C8010E94051AC7015D
:101390000E94DA0FC7010E948B0ECE0109969C8332
:1013A0008B8388EC90E09E838D8318861F828AE071
:1013B00091E09A838983F70180819181009711F4EC
:1013C0008FEA91E0CF52DF4F19830883C15DD0408F
:1013D000CD52DF4F99838883C35DD040CB52DF4F1E
:1013E00019830883C55DD0408AE0C952DF4F8883E6
:1013F000C75DD040CE018F529F4F0E940F088C01D5
:10140000DC018D919C91892B09F04BC061EE71E05C
:10141000CE018F529F4F0E94431ACE018F529F4F91
:101420000E948B0E64E874E0CE0188529F4F0E94A8
:101430003A1ACE0188529F4F0E946D03182FCE0199
:1014400088529F4F0E94051A112339F1BE016F5235
:101450007F4FCE0182529F4F0E943A1A64E874E097
:10146000CE0188529F4F0E943A1ABE0162527F4FAE
:10147000CE0188529F4F0E940606CE0188529F4F90
:101480000E94051ACE0182529F4F0E94051A6FEAF0
:1014900071E084E894E00E94FB10CE018F529F4FD0
:1014A00049C163EF71E0C8010E94F118009749F04B
:1014B000BC016C5F7F4FCE0188529F4F0E94040396
:1014C00007C06FEA71E0CE0188529F4F0E94431A15
:1014D00067EF71E0CE0188529F4F0E946810882309
:1014E00009F49CC06AEF71E0C8010E94F1180097EE
:1014F00049F0FC01248135812630310519F4A6809C
:10150000B78003C00E94EE075C01D5018D919C91CC
:10151000892B21F481EB91E00E94700D2FE1822E46
:1015200023E0922E940180E090E0F901E80FF91F8A
:10153000108201968F309105C1F7215F3F4FB3E0D4
:101540002A363B0781F7D5011296ED91FC9113974E
:1015500000E010E0309731F00F5F1F4F0190F081F5
:10156000E02DF8CF0630110514F005E010E09FE102
:10157000C92E93E0D92EE12CF12CE016F1068CF463
:10158000C701D5011296ED91FC911397309709F49C
:101590003CC1009709F4D1C001970190F081E02D82
:1015A000F5CF00E010E0D4016D914D01C801CC51A0
:1015B000DF4F6883C45ED0400E948327CC51DF4F49
:1015C0006881C45ED040681719F0C8010E948B275B
:1015D0000F5F1F4F0B34110531F780E991E00E9436
:1015E000700D0E94610764E874E0CE018F529F4F36
:1015F0000E943A1ACE018F529F4F0E946D03182FFE
:10160000CE018F529F4F0E94051A112309F48FC0FB
:10161000CE018F529F4F0E9407077DC060E072E0AD
:10162000CE0188529F4F0E946810882309F47FC022
:1016300067E072E0C8010E94CD0160936A03709375
:101640006B0380936C0390936D036AE072E0C801B2
:101650000E94CD0160936E0370936F0380937003BB
:10166000909371036DE072E0C8010E94CD01609318
:10167000720370937303809374039093750360E116
:1016800072E0C8010E94CD016093760370937703E6
:1016900080937803909379038AE6E82E83E0F82E0E
:1016A00004E610E0F70161917F01C801CC51DF4FE2
:1016B0006883C45ED0400E948327CC51DF4F68818D
:1016C000C45ED040681719F0C8010E948B270F5FD5
:1016D0001F4F0437110531F782EA91E00E94700D27
:1016E0000E94B80764E874E0CE018F529F4F0E94B9
:1016F0003A1ACE018F529F4F0E946D03182FCE01D0
:101700008F529F4F0E94051A112389F0CE018F52EC
:101710009F4F0E944404BE016F527F4F8EE794E0BA
:101720000E947219CE018F529F4F0E94051ACE015E
:1017300088529F4F0E94051A70C0BF016E5F7F4F95
:10174000CE018F529F4F0E940403CE018F529F4FB4
:101750000E94DA0FCB52DF4F88819981C55DD0405E
:101760004097C8F02FE030E040E050E0BE016F52FB
:101770007F4FCE0182529F4F0E941211BE016252D2
:101780007F4FCE018F529F4F0E947219CE0182521D
:101790009F4F0E94051ACB52DF4F48815981C55D8A
:1017A000D040CF52DF4F68817981C15DD040CA01FE
:1017B00020E030E02417350781F06115710529F02C
:1017C000FB01E20FF31FA08101C0A0E0F601E20FD0
:1017D000F31FA0832F5F3F4FEDCF2F30310549F02E
:1017E0008F30910531F0F601E80FF91F1082019654
:1017F000F7CFCE018F529F4F0E94051ABFEFEB1A11
:10180000FB0AEFE0CE0ED11CB8CE6FEA71E0CE013C
:101810008F529F4F0E94431A98CFCC51DF4F0FB683
:10182000F894DEBF0FBECDBFDF91CF911F910F9116
:10183000FF90EF90DF90CF90BF90AF909F908F90F0
:101840007F906F905F904F9008958F929F92AF928C
:10185000BF92CF92DF92EF92FF92CF93DF93A0914E
:101860007304882311F03A2F01C030E08091740492
:1018700090E0880F991F86539D4FC0907904D090B7
:101880007A04E0907B04F0907C0440E050E0BA01E0
:10189000FC01C591D49128812A2323130FC04A014A
:1018A0005B012FEF821A920AA20AB20A4C155D055B
:1018B0006E057F0538F4B501A401EACF342F252F3A
:1018C000CB0104C030E020E080E090E0632F722F75
:1018D000DF91CF91FF90EF90DF90CF90BF90AF90CE
:1018E0009F908F900895CF92DF92EF92FF920F9387
:1018F0001F93CF93DF93CDB7DEB7C054D1400FB65F
:10190000F894DEBF0FBECDBF0E9451150091750443
:101910001091760420917704309178046B017C015A
:10192000C01AD10AE20AF30A40EDC41647E0D40611
:10193000E104F10418F480917D04BCC06093750447
:1019400070937604809377049093780410927004D7
:1019500010926F0410926E0410926D0410926C0439
:1019600061E0809171040E94AB146AEF70E080E046
:1019700090E00E94171561E0809171040E94DB14D1
:1019800060E0809171040E94AB1464E170E080E03B
:1019900090E00E941715F89461E0809171040E9414
:1019A000AB148BE990E00197F1F762E0809171044C
:1019B0000E94DB1483E290E00197F1F780E00E943F
:1019C000250C672B682B692B21F410927D047894E9
:1019D0003EC081E00E94250C672B682B692BA9F380
:1019E0008E010F5F1F4F6E018FEBC81A8EEFD80A62
:1019F000780180E00E94250CF70160837183828367
:101A0000938381E00E94250CF701648375838683AC
:101A10009783F8E0EF0EF11CEC14FD0451F7789475
:101A200020E030E0F8014081518162817381C480FF
:101A3000D580E680F780411551056105710529F0D3
:101A4000C114D104E104F10421F410927D0480E07A
:101A500031C0F90183E0F595E7958A95E1F7E459FE
:101A6000FB4F8081880F4C155D056E057F0508F4DE
:101A7000816080832F5F3F4F085F1F4F2832310501
:101A800089F62091700430E040916C0480916D04DF
:101A900090E0840F911D40916E04840F911D409140
:101AA0006F04840F911D99272817390771F681E07B
:101AB00080937D04C05CDE4F0FB6F894DEBF0FBE8E
:101AC000CDBFDF91CF911F910F91FF90EF90DF90ED
:101AD000CF9008956CED71E08BEA93E00C94961A28
:101AE000CF93DF93BC018BEA93E00E94721AEC0162
:101AF0000E946A0D8C0F9D1FDF91CF910895E09198
:101B0000AB03F091AC030190F081E02D682F8BEADC
:101B100093E009944F925F926F927F928F929F927F
:101B2000AF92BF92CF92DF92EF92FF926B017C0156
:101B3000B42E9B01AC010E94FD28882319F06AEDA8
:101B400072E027C026013701E89477F82FEF3FEFC6
:101B50004FE75FE7C301B2010E94FD2881110DC06C
:101B60002FEF3FEF4FE75FE7C301B2010E945C2612
:101B700018161CF46EED72E00CC02FEF3FEF4FE72C
:101B80005FE4C701B6010E94F828181694F462EECB
:101B900072E08BEA93E0FF90EF90DF90CF90BF90E0
:101BA000AF909F908F907F906F905F904F900C942C
:101BB000961A2FEF3FEF4FE75FECC701B6010E9487
:101BC0005C2687FDE4CF20E030E0A901C701B60123
:101BD0000E945C2687FF09C08DE20E947F0D4C01A8
:101BE000F7FAF094F7F8F09402C0812C912CA12C14
:101BF00060E070E080E09FE3AB1441F020E030E073
:101C000040E251E40E945728A394F6CF9B01AC0117
:101C1000C701B6010E94EB272B013C010E94C92895
:101C20006B017C010E9461269B01AC01C301B201E2
:101C30000E94EA272B013C012AE0B701A6018BEAAA
:101C400093E00E94AB1A7C01E80CF91CBB2029F040
:101C50008EE20E947F0DE80EF91EDB2CDD2031F1B3
:101C600020E030E040E251E4C301B2010E94C2260C
:101C70002B013C010E94C9284B01A12CB12C2AE068
:101C8000B501A4018BEA93E00E94AB1AE80EF91E9D
:101C9000C501B4010E9461269B01AC01C301B201E0
:101CA0000E94EA272B013C01DA94D8CFC701FF90AC
:101CB000EF90DF90CF90BF90AF909F908F907F90EC
:101CC0006F905F904F900895CF93DF9342E00E9412
:101CD0008A0DEC010E946A0D8C0F9D1FDF91CF9140
:101CE0000895CF93DF93FC0124813581232B71F07C
:101CF000FB01DC01CD91DC9160817181CE010E94FC
:101D0000922B009719F08C1B9D0B02C08FEF9FEF59
:101D1000DF91CF910895CF93DF93FC0144815581EA
:101D2000608171818BEA93E00E941719EC010E9497
:101D30006A0D8C0F9D1FDF91CF910895CF92DF9296
:101D4000EF92FF92CF93DF93EC016A017B01109237
:101D500091041092900488E994E00E940513892B65
:101D6000E9F48091900490919104092E000CAA0B43
:101D7000BB0B8C159D05AE05BF0584F46DE070E0CE
:101D800080E090E00E94171580919004909191045A
:101D900001969093910480939004DDCF88E994E0BC
:101DA0000E940513892B49F068E974E0CE010E9476
:101DB000581ACE010E948B0E05C06FEA71E0CE0169
:101DC0000E94431ACE01DF91CF91FF90EF90DF90F8
:101DD000CF9008959F92AF92BF92CF92DF92EF92F1
:101DE000FF920F931F93CF93DF9300D000D000D0CA
:101DF000CDB7DEB77C016B015C0182E0A80EB11C9F
:101E0000C5010E94F504D7011296ED91FC9113973C
:101E100080818B3521F08B3709F48AC094C0F7019B
:101E20008681882309F46FC08150868300811181E7
:101E3000B80184E090E00E940008009709F4A4C073
:101E4000FC0111830083138212828C016BE5C501B2
:101E50000E943705882309F456C06DE5C5010E942C
:101E60003705811148C086E0982E1A821982BE017A
:101E70006F5F7F4FC7010E94EA0E882309F443C0B9
:101E8000D8016D917C9188E090E00E940008DC010F
:101E9000892B39F011961C921E9213961C921E9259
:101EA0001297F801228133812115310551F0F90192
:101EB00080819181009711F09C01F9CFB183A083BB
:101EC00003C0F801B383A2831097E9F0FE013196B5
:101ED0001296892D01900D928A95E1F76DE5C50165
:101EE0000E943705811107C06CE2C5010E943705C9
:101EF0008111BBCF08C0D70116968C9116978F5FC2
:101F000016968C9303C00E94EE078C01F801808125
:101F10009181892B11F410E03AC086E090E0D6015F
:101F200011969C938E9313961C930E9312972AC02E
:101F3000C7010E940F08FC0120813181232B59F336
:101F400027E030E017C011E0873219F0823209F043
:101F500010E0C7010E9456050097E9F2112341F0F5
:101F600022E030E0F60131832083938382830FC027
:101F700021E030E0D60111963C932E9313969C936A
:101F80008E93129711E003C00E94EE075ECF812F5F
:101F900026960FB6F894DEBF0FBECDBFDF91CF916E
:101FA0001F910F91FF90EF90DF90CF90BF90AF9077
:101FB0009F900895AF92BF92CF92DF92EF92FF92DF
:101FC0000F931F93CF93DF93DC01CD90DC9011979B
:101FD000C114D10409F442C01496CD91DC91159737
:101FE0002097E1F18C0156017501BFEFAB1ABB0AD6
:101FF000F7018081082E000C990B0E945326892B33
:1020000099F72197CC0DDD1D8881082E000C990BC6
:102010000E945326892B91F4AE014F5F5F4F4E19FA
:102020005F09D80115965C934E931497CE14DF0484
:1020300050F4B701C6010E946B2B05C0CE15DF0519
:1020400058F32197E1CFD801ED91FC9111971496A7
:102050008D919C911597E80FF91F1082DF91CF9118
:102060001F910F91FF90EF90DF90CF90BF90AF90B6
:102070000895CF93DF93FC01C081D181209751F067
:102080008881882339F0082E000C990B0E94632B5D
:102090008993F6CFDF91CF910895FB01448155815B
:1020A000FC01248135812417350778F080819181E6
:1020B000009759F0FB01608171816115710529F06C
:1020C0000E94842B21E0892B09F020E0822F0895C3
:1020D000FC0124813581232B31F421E06115710548
:1020E000A1F0FB0108C0FC0180819181611571059F
:1020F00031F421E0FC018081882339F005C00E9481
:10210000742B21E0892B09F020E0822F0895EF92B3
:10211000FF920F931F93CF93DF93FC0124813581AE
:102120006115710511F480E019C041155105A9F040
:102130007B01EC018A01020F131FB8010E94AB1949
:10214000882389F3288139818C819D81B701820F91
:10215000931F0E947D2B1D830C8381E0DF91CF9123
:102160001F910F91FF90EF900895CF93DF93EC01B3
:102170006115710561F0FB0101900020E9F73197CD
:10218000AF01461B570B0E948710811103C0CE017F
:102190000E94D219CE01DF91CF910895CF93DF93A2
:1021A000EC01FB0144815581608171810E9487109F
:1021B000811103C0CE010E94D219CE01DF91CF91CF
:1021C0000895CF93DF9300D0CDB7DEB769831A822D
:1021D00041E050E0BE016F5F7F4F0E9487100F907B
:1021E0000F90DF91CF910895FB014481558160816B
:1021F00071810C948710CF93DF93EC016115710509
:1022000059F0FB0101900020E9F73197AF01461B1F
:10221000570B0E94E41902C00E94D219CE01DF912F
:10222000CF910895BF92CF92DF92EF92FF920F93DA
:102230001F93CF93DF937C016B018A01E90124177F
:10224000350720F4812F8901C42FD82F6FEA71E060
:10225000C7010E94431AD60114968D919C9115973F
:1022600008171907D0F48C179D0708F4EC01D60164
:10227000ED91FC911197EC0FFD1FB08010824D91F4
:102280005C91BA01600F711FC7010E94FB10D6015B
:10229000ED91FC91EC0FFD1FB082C701DF91CF9152
:1022A0001F910F91FF90EF90DF90CF90BF90089516
:1022B000CF93DF93EC01FB018617970761F06081F4
:1022C00071816115710529F0448155810E94E419DD
:1022D00002C00E94D219CE01DF91CF910895FC0176
:1022E000538D448D252F30E0842F90E0821B930B7B
:1022F000541710F0CF96089501970895FC01918D21
:10230000828D981761F0828DDF01A80FB11D5D9657
:102310008C91928D9F5F9F73928F90E008958FEFC5
:102320009FEF0895FC01918D828D981731F0828D79
:10233000E80FF11D858D90E008958FEF9FEF0895D0
:10234000FC01918D228D892F90E0805C9F4F821B34
:1023500091098F73992708958BEA93E00E94A01149
:1023600021E0892B09F420E0822F0895FC01848D5F
:10237000DF01A80FB11DA35ABF4F2C91848D90E0AF
:1023800001968F739927848FA689B7892C93A0898A
:10239000B1898C9180648C93938D848D981306C041
:1023A0000288F389E02D80818F7D80830895EF92EC
:1023B000FF920F931F93CF93DF93EC0181E0888FFF
:1023C0009B8D8C8D981305C0E889F989808185FDE6
:1023D00024C0F62E0B8D10E00F5F1F4F0F731127D7
:1023E000E02E8C8DE8120CC00FB607FCFACFE889FE
:1023F000F989808185FFF5CFCE010E94B611F1CF1A
:102400008B8DFE01E80FF11DE35AFF4FF0820B8F19
:10241000EA89FB898081806207C0EE89FF89608339
:10242000E889F98980818064808381E090E0DF9190
:10243000CF911F910F91FF90EF900895CF93DF936D
:10244000EC01888D8823C9F0EA89FB89808185FDAC
:1024500005C0A889B9898C9186FD0FC00FB607FC0D
:10246000F5CF808185FFF2CFA889B9898C9185FF4E
:10247000EDCFCE010E94B611E7CFDF91CF91089545
:1024800080E090E0892B29F00E94AC1181110C941E
:1024900000000895833081F028F4813099F0823073
:1024A000A1F008958730A9F08830B9F08430D1F4D4
:1024B000809180008F7D03C0809180008F77809312
:1024C0008000089584B58F7702C084B58F7D84BD68
:1024D00008958091B0008F7703C08091B0008F7D08
:1024E0008093B00008953FB7F894809101059091D2
:1024F0000205A0910305B091040526B5A89B05C06F
:102500002F3F19F00196A11DB11D3FBFBA2FA92F72
:10251000982F8827820F911DA11DB11DBC01CD01EF
:1025200042E0660F771F881F991F4A95D1F70895DB
:1025300020911D0330911E032817390771F49091E3
:102540001B0380911C03981741F0E0911B03F0E0FE
:10255000E454FB4F808190E008958FEF9FEF089542
:1025600008951F93CF93DF93DC015C962D913C91EE
:102570005D972115310539F481E090E013969C9325
:102580008E9312973DC05196ED91FC9152975096C3
:102590009C915097892F80951FB75E964C915E97BE
:1025A00041FB772770F941FD6095F89440817723CE
:1025B00011F0492B01C048234083E9012197F1F72D
:1025C00048E0508160FF02C0592B01C0582350835E
:1025D000E9012197F1F76695415099F7772321F0AA
:1025E00090818923808303C08081982B90831FBFB3
:1025F0005C968D919C915D970197F1F721E030E019
:10260000C901DF91CF911F91089520911D03309151
:102610001E032817390771F480911C0320911B03B6
:1026200090E0805C9F4F821B910960E470E00E9403
:102630000229089580E090E0089520911D033091D3
:102640001E0328173907B9F490911B0380911C03CE
:10265000981789F0E0911B03F0E0E454FB4F808170
:1026600020911B0330E02F5F3F4F2F7333272093C0
:102670001B0390E008958FEF9FEF0895089580E089
:1026800090E008950E94492BCF93DF93EC01E881FD
:10269000F981808191810E94E1108A819B8101965C
:1026A0009B838A83DF91CF910895EF92FF920F93DE
:1026B0001F93CF93DF93EC01E880F980D7018D91D0
:1026C0009C91FC01048115816115710551F0FB019C
:1026D00001900020E9F73197AF01461B570B0E948C
:1026E0008710D701ED91FC91848195812A813B81EE
:1026F000280F391F201B310B3B832A83DF91CF9199
:102700001F910F91FF90EF9008950F931F93CF9318
:10271000DF93CDB7DEB766970FB6F894DEBF0FBE76
:10272000CDBF8C01CB011E8AFE0176962AE030E0F7
:10273000B9010E94022990E3980F9293CB01009770
:10274000B9F7BF01C8010E94551366960FB6F894F9
:10275000DEBF0FBECDBFDF91CF911F910F910895C6
:102760008F929F92AF92BF92EF92FF920F931F931F
:10277000CF93DF93CDB7DEB766970FB6F894DEBF81
:102780000FBECDBF7C011E8A8E010A5E1F4F8AE0FC
:10279000882E912CA12CB12CCB01BA01A50194015A
:1027A0000E941629942F852F605DF80162938F0196
:1027B000A901692F782F411551056105710561F750
:1027C000BF01C7010E94551366960FB6F894DEBF8D
:1027D0000FBECDBFDF91CF911F910F91FF90EF9072
:1027E000BF90AF909F908F900895FF920F931F938B
:1027F000CF93DF936115710549F468E771E0DF91CC
:10280000CF911F910F91FF900C9455138B01EC0108
:1028100062E2CE010E944413F80161918F016623A8
:1028200051F0E1EAF1E0F080FF2099F391819617F1
:1028300059F03296F8CF62E2CE01DF91CF911F912D
:102840000F91FF900C9444136CE5CE010E94441349
:102850006F2DDFCF1F920F920FB60F9211242F937F
:102860003F934F935F936F937F938F939F93AF9318
:10287000BF93EF93FF938BEA93E00E94B611FF9111
:10288000EF91BF91AF919F918F917F916F915F91E8
:102890004F913F912F910F900FBE0F901F90189561
:1028A0001F920F920FB60F9211242F938F939F9325
:1028B000EF93FF93E091BB03F091BC038081E09123
:1028C000C103F091C20382FD12C090818091C403C4
:1028D0008F5F8F732091C503821751F0E091C4037D
:1028E000F0E0E555FC4F958F8093C40301C08081D3
:1028F000FF91EF919F918F912F910F900FBE0F90AD
:102900001F901895CF93DF93282F30E0F901EA5FED
:10291000FC4F8491F901E851FD4FD491F901EC523B
:10292000FD4FC491CC2391F081110E944A12EC2FEB
:10293000F0E0EE0FFF1FE653FD4FA591B491EC912F
:10294000ED2381E090E021F480E002C080E090E09F
:10295000DF91CF9108951F93CF93DF93282F30E01D
:10296000F901EA5FFC4F8491F901E851FD4FD491E0
:10297000F901EC52FD4FC491CC23C9F0162F8111FF
:102980000E944A12EC2FF0E0EE0FFF1FE054FD4FC3
:10299000A591B4918FB7F894111105C09C91ED2FBA
:1029A000E095E92302C0EC91ED2BEC938FBFDF9112
:1029B000CF911F910895CF93DF9390E0FC01E851F0
:1029C000FD4F2491FC01EC52FD4F8491882361F16D
:1029D00090E0880F991FFC01E450FD4FC591D49100
:1029E000FC01E054FD4FA591B491611109C09FB75E
:1029F000F8948881209582238883EC912E230BC044
:102A0000623061F49FB7F8943881822F80958323D8
:102A10008883EC912E2B2C939FBF06C08FB7F89420
:102A2000E8812E2B28838FBFDF91CF9108958F925D
:102A30009F92AF92BF92CF92DF92EF92FF926B0183
:102A40007C010E9473124B015C01C114D104E104AA
:102A5000F104F1F00E947312DC01CB01881999098D
:102A6000AA09BB09883E9340A105B10570F321E096
:102A7000C21AD108E108F10888EE880E83E0981E9A
:102A8000A11CB11CC114D104E104F10419F7DDCF7C
:102A9000FF90EF90DF90CF90BF90AF909F908F907E
:102AA00008952FB7F8946091FD047091FE04809111
:102AB000FF04909100052FBF08951F920F920FB64B
:102AC0000F9211242F933F938F939F93AF93BF93B4
:102AD0008091FD049091FE04A091FF04B091000547
:102AE0003091FC0423E0230F2D3720F40196A11D23
:102AF000B11D05C026E8230F0296A11DB11D20932C
:102B0000FC048093FD049093FE04A093FF04B09313
:102B100000058091010590910205A0910305B091F7
:102B200004050196A11DB11D809301059093020536
:102B3000A0930305B0930405BF91AF919F918F912E
:102B40003F912F910F900FBE0F901F9018951F92DD
:102B50000F920FB60F9211242F933F934F935F93D1
:102B60006F937F938F939F93AF93BF93EF93FF9355
:102B7000E0911D03F0911E03309709F451C0968D2A
:102B8000A685B785858591FF04C09C91892329F48A
:102B900047C09C91892309F043C0A389B4899C91C3
:102BA0008589809589238C93868997890197F1F788
:102BB000608D718DA685B785558538E020E0CB0105
:102BC0000197F1F7822F90E095958795282F4C91EA
:102BD000452309F02068315091F7868D81FD2095BD
:102BE00080911C0390E001968F73992730911B030D
:102BF000381749F0A0911C03B0E0A454BB4F2C93AC
:102C000080931C0303C0868D8160868F828D938D97
:102C10000197F1F7A389B4899C918589892B8C93BD
:102C2000FF91EF91BF91AF919F918F917F916F91A4
:102C30005F914F913F912F910F900FBE0F901F907A
:102C40001895E0911D03F0911E03E817F90769F448
:102C5000A389B4899C918589809589238C9310924E
:102C60001E0310921D0381E0089580E00895CF9225
:102C7000DF92EF92FF920F931F93CF93DF93EC01BC
:102C80000E9451156B017C016093B8047093B904E4
:102C90008093BA049093BB0488810E94821480932D
:102CA000B7049A81992329F091E0811190E09093E3
:102CB000B7048A859B85AC85BD8597018601081B75
:102CC000190B2A0B3B0B4E855F85688979899B819F
:102CD000041715072607370738F4CE82DF82E88607
:102CE000F9861D82892F12C09C838091B7048B8343
:102CF000CE82DF82E886F986891739F0CA86DB86BC
:102D0000EC86FD8691E09D8301C01D82DF91CF910D
:102D10001F910F91FF90EF90DF90CF9008952F9229
:102D20003F924F925F926F927F928F929F92AF925B
:102D3000BF92CF92DF92EF92FF920F931F93CF93A8
:102D4000DF93CDB7DEB76A970FB6F894DEBF0FBE3C
:102D5000CDBFDC01ED91FC913197E830F10508F031
:102D600027C28B017C01EC5CFF4F0C943829FC01DD
:102D7000C280D380E480F580A7019601C701B60127
:102D80000E945C26882319F061EF72E0A1C020E068
:102D900030E0A901C701B6010E945C2687FF08C088
:102DA0006DE2C8010E944413F7FAF094F7F8F0942A
:102DB00020E030E0A901C701B6010E945C2688230B
:102DC00009F48AC0A7019601C701B6010E94EB274A
:102DD000A70196010E945C2681117EC068EF72E017
:102DE00077C0DC011296ED90FC9013976BE5C8015B
:102DF0000E944413F701E280F380E114F10459F0DA
:102E0000B801C70102960E948F16D701ED90FC9081
:102E1000E114F10411F46DE52FC06CE2C8010E94C9
:102E20004413EBCFFC01E280F3806BE7C8010E9402
:102E30004413D7011296ED90FC90139704C06CE2F6
:102E4000C8010E944413E114F104A9F0F701628162
:102E50007381C8010E94F5136AE3C8010E944413FC
:102E6000B801C70104960E948F16D701ED90FC901F
:102E7000E114F10421F76DE7C8010E94441398C1E1
:102E8000FC0162817381C8010E94F51391C1DC01CC
:102E900012966D917C9113971BC06DE2C8010E9440
:102EA0004413F7014281538164817581C8010E94F6
:102EB000B0137EC1FC0182819381A481B581892BED
:102EC0008A2B8B2B19F46BEE72E002C066EE72E077
:102ED000C8010E9455136CC120E836E948E15BE463
:102EE000C701B6010E94F82887FD5AC1412C512C18
:102EF00070E2672E712C812C912CF201E05AFE4F6A
:102F00002489358946895789C701B6010E94F82866
:102F100087FD0FC0F201E85BFE4F248935894689A1
:102F20005789C701B6010E94C2266B017C01860C3D
:102F3000971C75946794F4E04F1A510888EE481670
:102F40008FEF5806D1F655245A9420E030E0A901BD
:102F5000C701B6010E94F828181694F52CEA35EC42
:102F600047E257E3C701B6010E945C26181644F1F8
:102F7000BFEF5B1629F1952DA4E09A0250011124B0
:102F8000F501E05DFE4F2081318142815381C7010F
:102F9000B6010E945C2687FF0FC0F501E05AFE4F84
:102FA0002081318142815381C701B6010E94C2262E
:102FB0006B017C0186189708759467945A94D8CF52
:102FC000C701B6010E94C9282B013C016B8B7C8B89
:102FD0008D8B9E8B46E0A42E80E492E4AFE0B0E0BF
:102FE0008F8B988FA98FBA8FBA2CAA24AA94AB0C76
:102FF0008B899C89AD89BE890A97A105B105E8F046
:103000006F89788D898D9A8D2AE030E040E050E01C
:103010000E9416292F8B388F498F5A8F6B897C8994
:103020008D899E892AE030E040E050E00E94162918
:103030002B8B3C8B4D8B5E8BD7CFC301B2010E9493
:1030400061269B01AC01C701B6010E94EA276B0112
:103050007C016F89788D898D9A8D0E9461269B01F4
:10306000AC01C701B6010E94C2266B8B7C8B8D8B95
:103070009E8B0E94C9286B017C010E9461269B01E6
:10308000AC016B897C898D899E890E94EA279B010E
:10309000AC010E94EB270E94C928C60ED71EE81E6D
:1030A000F91E8F89988DA98DBA8DC816D906EA06A2
:1030B000FB0610F19FEF491A590A690A790A81142F
:1030C000910489F0AAE04A1651046104710458F091
:1030D000BFEF8B1A9B0AC12CD12C7601412C512CAD
:1030E0003201439409C0C12CD12C760105C01B14B8
:1030F0007CF469017A01BA94C701B6012AE030E094
:1031000040E050E00E941629672B682B692B79F369
:10311000AB2CB301A201C8010E94B013BB2041F146
:10312000188A3E01E0E16E0E711C7A8A698A2AE0F3
:10313000222E312C412C512CAA94BFEFAB1669F0F2
:10314000C701B601A20191010E941629605DD30159
:103150006E933D0169017A01EFCF69897A896B1914
:1031600071098EE2FB018293BF01C8010E945513D1
:1031700097FE0AC065EF72E0C8010E9455136627EA
:1031800077276819790908C08114910489F065E6E8
:10319000C8010E944413B401C8010E94851308C0ED
:1031A00080E2682E712C95E0592E812C912CCDCE89
:1031B0006A960FB6F894DEBF0FBECDBFDF91CF91F8
:1031C0001F910F91FF90EF90DF90CF90BF90AF9045
:1031D0009F908F907F906F905F904F903F902F9037
:1031E00008950F931F93CF93DF938B01FC01C2814E
:1031F000D3812097A9F06A817B810115110519F00F
:103200006115710521F40617170731F409C0C801CB
:103210000E94742B892B21F00990D881C02DE9CF11
:10322000CE01DF91CF911F910F9108950895CF9214
:10323000DF92EF92FF920F931F93CF93DF936C0176
:103240007A018B01C0E0D0E0CE15DF0589F0D8010E
:103250006D918D01D601ED91FC910190F081E02DF1
:10326000C6010995892B11F47E0102C02196ECCF8D
:10327000C701DF91CF911F910F91FF90EF90DF90E9
:10328000CF9008950F931F93CF93DF93EC010E948B
:103290005115688779878A879B87E881F98102843D
:1032A000F385E02DCE01099597FF17C00E945115B7
:1032B000088519852A853B85DC01CB01801B910B94
:1032C000A20BB30B0C811D812E813F8180179107CA
:1032D000A207B30710F38FEF9FEFDF91CF911F91FC
:1032E0000F9108950F931F93CF93DF938C01EB0100
:1032F000FC01808191810097B1F06881798161152D
:10330000710579F0428153812C813D814217530729
:1033100040F00E947D2B8C819D81F80195838483F0
:1033200013C00E94E72988819981F80191838083E5
:103330008A819B81938382838C819D819583848301
:10334000198218821B821A821D821C82DF91CF9102
:103350001F910F9108950F931F93CF93DF93EC016B
:1033600088819981009729F02A813B8126173707A8
:1033700088F48B016F5F7F4F0E947F2A009761F076
:10338000998388831B830A832C813D81232B11F42D
:10339000FC01108281E001C080E0DF91CF911F919C
:1033A0000F910895CF93DF93EC0188819981009765
:1033B00011F00E94E729198218821D821C821B824B
:1033C0001A82DF91CF910895EF92FF920F931F938E
:1033D000CF93DF93EC017B018A01BA010E94AB1904
:1033E000811104C0CE010E94D21907C01D830C8335
:1033F000B701888199810E947D2BCE01DF91CF9109
:103400001F910F91FF90EF900895FC0180819181B1
:103410000C94E729EF92FF920F931F93CF93DF93C2
:10342000CDB7DEB7A1970FB6F894DEBF0FBECDBF04
:103430007C01CB01BA01F701118210821382128242
:103440001582148242E0420F8E010F5F1F4F0E94CF
:10345000CD23BC01C7010E94FB10A1960FB6F894C2
:10346000DEBF0FBECDBFDF91CF911F910F91FF90B7
:10347000EF900895FC01118210821382128215824E
:1034800014820C945811FC01118210821382128252
:10349000158214826115710551F0FB010190002025
:1034A000E9F73197AF01461B570B0C94E4190895C7
:1034B0000F931F93CF93DF93EC018B016FEA71E0C1
:1034C0000E94431AC8010E94421997FD05C0682F47
:1034D000CE010E94E110F6CFCE01DF91CF911F9176
:1034E0000F910895EF92FF920F931F93CF93DF9365
:1034F0008C017B01C0E0D0E0F701EC0FFD1F64916F
:10350000662361F0D801ED91FC910190F081E02DEE
:10351000C8010995892B11F02196EECFCE01DF91DC
:10352000CF911F910F91FF90EF9008956115710554
:1035300079F0FB0101900020E9F73197AF01461BBC
:10354000570BDC01ED91FC910280F381E02D099491
:1035500080E090E008954F925F926F927F92EF9299
:10356000FF920F931F93CF93DF93CDB7DEB7A19751
:103570000FB6F894DEBF0FBECDBF7C01FA01CB01C0
:1035800019A2223008F42AE08E010F5D1F4F422E4F
:10359000512C612C712CBF01A30192010E941629AC
:1035A000F901CA01015011096A3014F4605D01C0CB
:1035B000695CD8016C93232B242B252B61F7B80170
:1035C000C7010E94961AA1960FB6F894DEBF0FBEEF
:1035D000CDBFDF91CF911F910F91FF90EF907F9022
:1035E0006F905F904F900895CF93DF93CDB7DEB784
:1035F00062970FB6F894DEBF0FBECDBF789484B546
:10360000826084BD84B5816084BD85B5826085BDDE
:1036100085B5816085BD80916E00816080936E006C
:10362000109281008091810082608093810080915E
:10363000810081608093810080918000816080930F
:1036400080008091B10084608093B1008091B000CF
:1036500081608093B00080917A00846080937A00CA
:1036600080917A00826080937A0080917A008160F4
:1036700080937A0080917A00806880937A0010921B
:10368000C100E091BB03F091BC0382E08083E09134
:10369000B703F091B8031082E091B903F091BA0337
:1036A0008FEC80831092C303E091BF03F091C003BD
:1036B00086E08083E091BD03F091BE03808180614C
:1036C0008083E091BD03F091BE0380818860808398
:1036D000E091BD03F091BE03808180688083E0911A
:1036E000BD03F091BE0380818F7D808384E690E0EE
:1036F000A0E0B0E08093AF039093B003A093B10338
:10370000B093B20362E370E080E090E00E9417158E
:1037100068EC70E08AE894E00E94AB196FE070E01A
:1037200084E894E00E94AB1968EC70E08EE794E0C6
:103730000E94AB1963E172E08BEA93E00E94961A53
:103740000E946A0D1092B3041092B2041092B10458
:103750001092B0041092AF041092AE048DE991E083
:103760009093B5048093B4049091A404963108F02A
:1037700057C02DEB30E03093AF042093AE042BE91B
:1037800031E03093B1042093B0042CE231E0309367
:10379000B3042093B20420916800983050F031E0D7
:1037A0009E3008F430E081E001C0880F3A95EAF7D6
:1037B00001C084E0822B80936800983038F09E30FE
:1037C00040F0963148F020E030E008C02DE630E0CF
:1037D00005C02BE630E002C02CE630E03093AC04AC
:1037E0002093AB04983030F481E001C0880F9A95A3
:1037F000EAF70EC0292F30E09E3018F42850310926
:1038000002C02E50310981E001C0880F2A95EAF7E5
:103810008093AD048091B4049091B5040197F1F7C1
:103820008091B2049091B304892B21F180911D0302
:1038300090911E0324E088399207E1F0009711F07F
:103840000E9421168091B6048E7F8093B604109258
:103850001C0310921B0388E994E090931E0380934D
:103860001D03E091AB04F091AC0490818091AD0414
:10387000892B80836DE081E00E94DB146FEF70E0A4
:1038800082E994E00E94AB1962E0809171040E9489
:10389000DB1480E398EFAFEFBFEF80937504909354
:1038A0007604A0937704B09378042AE6E22E23E00E
:1038B000F22E04E610E0C8010E948327F7018193ED
:1038C0007F010F5F1F4F04371105A9F787E192E0D1
:1038D0000E94700D0E94B8070FE113E0E12CF12C5B
:1038E000C7010E948327F80181938F01FFEFEF1A30
:1038F000FF0A2BE4E216F10499F786E292E00E94B7
:10390000700D0E9461070E946A0D0E9451156B01A3
:103910007C016DE372E088E994E00E94721A0E94D3
:103920006A0D60E272E0CE0107960E94431A44EFEE
:1039300051E060E070E0CE0101960E949E0EBE0153
:10394000695F7F4FCE0101960E94710E8C01CE01FE
:1039500001960E94051ACE0107960E94051A0F3F94
:103960001F4FC1F468E372E088E994E00E94721A84
:103970000E946A0D0E945115DC01CB018C199D0932
:10398000AE09BF0989389341A105B10550F282E41F
:1039900092E002C082E592E00E94700D11E08091F9
:1039A0007E0381110CC00E94511560937A037093BD
:1039B0007B0380937C0390937D0310937E030E948E
:1039C0005115C0907A03D0907B03E0907C03F09077
:1039D0007D03DC01CB018C199D09AE09BF09893B30
:1039E0009B40A105B10508F4ADC00E94511560933C
:1039F0007A0370937B0380937C0390937D030E94F2
:103A0000730C8823B1F1809172048B3041F188F1FD
:103A10008551823070F560916C0470E080E090E038
:103A20000E94612620E030E040E853E40E94C22674
:103A30006B017C0180916D04682F70E080E090E064
:103A40000E9463269B01AC01C701B6010E94EB27CF
:103A50002DEC3CEC4CEC5DE30E94C22607C060916B
:103A60006C0470E080E090E00E9461264B015C01F4
:103A700006C0812C912C90ECA92E9FE7B92E0E94B4
:103A8000730C882309F458C0809172048B3029F09C
:103A9000E0F18551823058F038C060916E0470E0DA
:103AA00080E090E00E9461266B017C0134C00091AF
:103AB0006E04602F6F7770E080E090E00E946326D4
:103AC00020E030E040E853E40E94C2266B017C0114
:103AD00080916F04682F70E080E090E00E94632680
:103AE0009B01AC01C701B6010E94EB272DEC3CEC19
:103AF0004CEC5DE30E94C2266B017C0107FF0BC00A
:103B0000F7FAF094F7F8F09406C0C12CD12C80ECB1
:103B1000E82E8FE7F82EA5019401C501B4010E949B
:103B2000FD28811109C0A7019601C701B6010E94B5
:103B3000FD28882309F480C410929C0380E792E05A
:103B40000E94700D80918A0381110CC00E94511552
:103B5000609386037093870380938803909389030F
:103B600010938A030E945115C0908603D09087035A
:103B7000E0908803F0908903DC01CB018C199D094A
:103B8000AE09BF098D329140A105B10590F00E94A8
:103B900051156093860370938703809388039093F5
:103BA00089038AE594E00E94371688E494E00E9435
:103BB000371680919C03882309F4E8C0809196030E
:103BC000C0909203D0909303E0909403F0909503FB
:103BD000811121C0A701960160916A0370916B0366
:103BE00080916C0390916D030E945C2618160CF472
:103BF000CDC020916E0330916F03409170035091BE
:103C00007103C701B6010E945C2618160CF4BEC0F1
:103C100010939603BBC020916A0330916B034091CF
:103C20006C0350916D03C701B6010E945C2687FFAB
:103C30004BC01092960322E0B701A601CE01079671
:103C40000E940A1A63E272E0CE0101960E94431AB2
:103C5000BE01695F7F4FCE0101960E94CE10BC016C
:103C6000CE010D960E943A1ACE0101960E94051AC5
:103C7000CE0107960E94051AE12CF12CBE01635F6C
:103C80007F4FCE0107960E943A1AB701CE010196E6
:103C90000E947406BE01695F7F4FCE0101960E94AB
:103CA0000606CE0101960E94051ACE0107960E94D3
:103CB000051AFFEFEF1AFF0A25E0E216F104F1F60C
:103CC000CE010D960E94051AC0909203D0909303E6
:103CD000E0909403F090950320916E0330916F0370
:103CE0004091700350917103C701B6010E94F828FA
:103CF00018160CF04BC01092960322E0B701A601F3
:103D0000CE0107960E940A1A60E472E0CE01019685
:103D10000E94431ABE01695F7F4FCE0101960E9447
:103D2000CE10BC01CE010D960E943A1ACE0101962A
:103D30000E94051ACE0107960E94051AE12CF12C6B
:103D4000BE01635F7F4FCE0107960E943A1AB7010A
:103D5000CE0101960E947406BE01695F7F4FCE01BD
:103D600001960E940606CE0101960E94051ACE0118
:103D700007960E94051A8FEFE81AF80AE5E0EE169A
:103D8000F104F1F6CE010D960E94051A80919C0374
:103D9000882309F4E8C080919B03C0909703D090DA
:103DA0009803E0909903F0909A03811121C0A70134
:103DB00096016091720370917303809174039091E6
:103DC00075030E945C2618160CF4CDC02091760372
:103DD000309177034091780350917903C701B60180
:103DE0000E945C2618160CF4BEC010939B03BBC047
:103DF00020917203309173034091740350917503C5
:103E0000C701B6010E945C2687FF4BC010929B033E
:103E100022E0B701A601CE0107960E940A1A6CE5BE
:103E200072E0CE0101960E94431ABE01695F7F4F86
:103E3000CE0101960E94CE10BC01CE010D960E94CB
:103E40003A1ACE0101960E94051ACE0107960E94E9
:103E5000051AE12CF12CBE01635F7F4FCE0107965E
:103E60000E943A1AB701CE0101960E947406BE0163
:103E7000695F7F4FCE0101960E940606CE01019632
:103E80000E94051ACE0107960E94051AFFEFEF1A4D
:103E9000FF0A25E0E216F104F1F6CE010D960E942C
:103EA000051AC0909703D0909803E0909903F09082
:103EB0009A032091760330917703409178035091D3
:103EC0007903C701B6010E94F82818160CF04BC000
:103ED00010929B0322E0B701A601CE0107960E9433
:103EE0000A1A66E772E0CE0101960E94431ABE01EB
:103EF000695F7F4FCE0101960E94CE10BC01CE01BA
:103F00000D960E943A1ACE0101960E94051ACE0122
:103F100007960E94051AE12CF12CBE01635F7F4FCA
:103F2000CE0107960E943A1AB701CE0101960E946F
:103F30007406BE01695F7F4FCE0101960E9406069E
:103F4000CE0101960E94051ACE0107960E94051A1D
:103F50008FEFE81AF80AE5E0EE16F104F1F6CE016B
:103F60000D960E94051A90919D0380915D04911118
:103F700007C081113FC080915F048823D9F190C2AE
:103F80008823C1F180915F048823A1F180914B04C3
:103F9000882381F110929D036FE872E0CE010D96A7
:103FA0000E94431AE12CF12CBE01635F7F4FCE01CA
:103FB00007960E943A1AB701CE0101960E94740634
:103FC000BE01695F7F4FCE0101960E940606CE01B9
:103FD00001960E94051ACE0107960E94051AFFEF6E
:103FE000EF1AFF0A25E0E216F104F1F6CE010D9674
:103FF0000E94051A90919E0380914B04911108C074
:10400000882309F43FC080914D048823D9F14BC225
:10401000811138C080914D048823A1F180915D0405
:10402000811130C010929E036BEA72E0CE010D96B2
:104030000E94431AE12CF12CBE01635F7F4FCE0139
:1040400007960E943A1AB701CE0101960E947406A3
:10405000BE01695F7F4FCE0101960E940606CE0128
:1040600001960E94051ACE0107960E94051A8FEF4D
:10407000E81AF80AE5E0EE16F104F1F6CE010D9625
:104080000E94051A8BEA93E00E94A011892BE9F0A7
:104090006BEA73E0CE0107960E94581ACE0107968C
:1040A0000E94DA0FBE01695F7F4FCE0101960E9428
:1040B0003A1ACE0101960E94E308CE0101960E94B1
:1040C000051ACE0107960E94051A8091A30381115B
:1040D0000CC00E94511560939F037093A0038093BE
:1040E000A1039093A2031093A3030E945115C090C3
:1040F0009F03D090A003E090A103F090A203DC0105
:10410000CB018C199D09AE09BF0980319742A105E9
:10411000B10508F422C10E94511560939F0370936A
:10412000A0038093A1039093A20369E972E088E958
:1041300094E00E94721A0E946A0D66EC72E0CE0151
:1041400007960E94431A40EE5EE260E070E0CE0106
:1041500001960E949E0EBE01695F7F4FCE010196BF
:104160000E94710E7C01CE0101960E94051ACE01BB
:1041700007960E94051AEF20E09409F04AC060E912
:1041800072E088E994E00E94721A0E946A0D2AE0A7
:1041900041E050E060E070E088E994E00E94AB1AF2
:1041A0000E946A0D69EC72E088E994E00E94961A18
:1041B0000E946A0D40EE5EE260E070E0CE01019682
:1041C0000E949E0EBE016F5F7F4F82E994E00E94C5
:1041D0007219CE0101960E94051A6BEC72E0CE01B5
:1041E00001960E94431ABE016F5F7F4F82E994E0FF
:1041F0000E94710E7C01CE0101960E94051AEF20EB
:10420000E09439F062E974E0CE010D960E943A1A0A
:1042100006C06FEA71E0CE010D960E94431ACE01EE
:104220000D960E943910CE010D960E94DA0F61EDB5
:1042300072E0CE0101960E94431ABE016F5F7F4F6C
:10424000CE010D960E94710E7C01CE0101960E9456
:10425000051AF7FC40C029893A89A7014F5F5F4FD3
:10426000BE01635F7F4FCE0101960E941211BE0115
:104270006F5F7F4F84E894E00E947219CE0101962F
:104280000E94051A64ED72E0CE0101960E94431A65
:10429000BE016F5F7F4F84E894E00E94710E9C0125
:1042A00040E050E064E874E0CE0107960E941211ED
:1042B000BE01695F7F4F84E894E00E947219CE01CD
:1042C00007960E94051ACE0101960E94051A84E8FD
:1042D00094E00E948B0E66ED72E0CE0101960E9482
:1042E000431ABE016F5F7F4FCE010D960E94710E83
:1042F0007C01CE0101960E94051AF7FC2AC029898B
:104300003A8924503109A7014D5F5F4FBE01635FB9
:104310007F4FCE0101960E941211BE016F5F7F4F49
:10432000CE010D960E947219CE0101960E94051AC7
:10433000CE010D960E94DA0F64EA72E08BEA93E0F8
:104340000E94721ABE01635F7F4F8AE894E00E9468
:104350005811CE010D960E94051A6FEA71E08AE8A5
:1043600094E00E946810811164C06AE874E0CE0194
:1043700001960E943A1ACE0101960E94E308CE01EE
:1043800001960E94051A6FEA71E08AE894E00E94A3
:10439000FB106FEA71E084E894E00E9468108111DC
:1043A00021C06EE774E0CE0107960E943A1A64E8D5
:1043B00074E0CE0101960E943A1ABE01695F7F4FF8
:1043C000CE0101960E940606CE0101960E94051AB2
:1043D000CE0107960E94051A6FEA71E084E894E026
:1043E0000E94FB100E946A0D6BEA72E088E994E07B
:1043F0000E94721A0E946A0D40EE5EE260E070E078
:10440000CE0101960E949E0EBE016F5F7F4F82E932
:1044100094E00E947219CE0101960E94051A60E292
:1044200072E0CE0101960E94431ACE0101960E94CD
:10443000051A0E944012B3CA10939C03C0929203C3
:10444000D0929303E0929403F092950380929703A5
:1044500090929803A0929903B0929A0366E672E054
:104460008BEA93E00E94721A609192037091930319
:10447000809194039091950342E00E948A0D6CE52F
:1044800072E08BEA93E00E94721A60919703709138
:1044900098038091990390919A030E94640E52CBE5
:1044A00010939D03A7CD10939E03ECCD8EE794E06F
:1044B0000E94051A84E894E00E94051A8AE894E0B4
:1044C0000E94051A82E994E00E94051A82E291E0B6
:1044D000909399048093980488E994E00C942116B1
:1044E0001092AE031092AD0388EE93E0A0E0B0E02E
:1044F0008093AF039093B003A093B103B093B20342
:1045000020E131E03093AC032093AB0325EC30E0A5
:104510003093B8032093B70324EC30E03093BA0310
:104520002093B90320EC30E03093BC032093BB030D
:1045300021EC30E03093BE032093BD0322EC30E049
:104540003093C0032093BF0326EC30E03093C203C6
:104550002093C1031092C4031092C5031092C603A6
:104560001092C70310929B0410929A0480939C04AB
:1045700090939D04A0939E04B0939F0482E291E0E7
:1045800090939904809398041092AF041092AE0413
:104590001092B1041092B0041092B3041092B204BD
:1045A0001092B5041092B4046091B6046E7F6D7FD2
:1045B0006093B6046695617081E068278BE00E9485
:1045C000AB1461E08BE00E94DB14E3EFF2E0E491D6
:1045D000E093A804EFEDF2E0E491F0E0EE0FFF1FAE
:1045E000E054FD4F859194919093AA048093A9047F
:1045F00060E08AE00E94DB148091B60481FD04C073
:1046000061E08AE00E94AB148AE08093A404E2EFA8
:10461000F2E0E491E093A504EEEDF2E0E491F0E045
:10462000EE0FFF1FE653FD4F859194919093A704E1
:104630008093A6046FEA71E082E994E00E94431A35
:104640006FEA71E08AE894E00E94431A6FEA71E031
:1046500084E894E00E94431A6FEA71E08EE794E0E8
:104660000E94431A88E0809371048BE08093720467
:10467000E0EFF2E0E491E0937304ECEDF2E0E4911A
:10468000E093740480E89EE3A0E0B0E080937904B6
:1046900090937A04A0937B04B0937C0481E180938F
:1046A0005A0481E080935B0480935C0484E190E091
:1046B000A0E0B0E08093680490936904A0936A043A
:1046C000B0936B0462E081E10E94DB1480915A0494
:1046D0000E94821480935D0490915C04992329F0D8
:1046E00091E0811190E090935D040E9451156093D8
:1046F000600470936104809362049093630420913A
:104700005D0420935E0410925F04609364047093D0
:104710006504809366049093670482E18093480463
:1047200081E08093490480934A0484E190E0A0E012
:10473000B0E08093560490935704A0935804B0932C
:10474000590462E082E10E94DB14809148040E94D7
:10475000821480934B0490914A04992329F091E0AC
:10476000811190E090934B040E94511560934E0488
:1047700070934F04809350049093510420914B0404
:1047800020934C0410924D04609352047093530490
:1047900080935404909355040895EF920F931F93C0
:1047A000CF93DF93E80147FD02C034E001C034E15C
:1047B000E42F440FFF0BF7FF03C0F195E195F109DA
:1047C000E32E022F2E2FAE010E94ED23CE01DF91AA
:1047D000CF911F910F91EF9008954F925F926F923A
:1047E0007F929F92AF92BF92CF92DF92EF92FF9211
:1047F0000F931F93CF93DF93CDB7DEB729970FB6F3
:10480000F894DEBF0FBECDBF6A01122FB02E2BE38E
:10481000201720F0FF24F394F00E02C0BCE3FB2E1F
:104820000F2D27E0AE014F5F5F4F0E947B25AC014B
:104830008981982F9970913031F0E1FC06C0E0FE3B
:1048400006C090E205C09DE203C09BE201C090E07B
:10485000EE2DE07183FF3CC0911102C083E001C0E6
:1048600084E0811718F4212F281B01C020E0E111FA
:104870000BC0F601822F30E2882319F0319381506A
:10488000FBCFC20ED11C20E0992329F0D6019C93C6
:10489000F60131966F01C6010396E2FE0AC03EE4BE
:1048A000D6013C9341E411964C93119712963C9398
:1048B00006C03EE6F601308341E641833283FC01C7
:1048C000322F40E2332309F442C041933150FACFF2
:1048D00082FF44C0911102C083E001C084E08117CF
:1048E00018F4212F281B01C020E0E1110BC0F601B4
:1048F000822F30E2882319F031938150FBCFC20E12
:10490000D11C20E0992329F0D6019C93F601319621
:104910006F01C6010396E2FE0BC039E4D6013C9359
:104920003EE411963C93119736E412963C9307C0EF
:1049300039E6F60130833EE6318336E63283FC0108
:10494000322F40E2332319F041933150FBCFFC0169
:10495000E20FF11D10828EEF9FEFB7C0F1E09111D1
:1049600001C0F0E06F2F70E01416150624F49A01D0
:104970002F5F3F4F02C021E030E0260F371FBB20E2
:1049800029F06B2D70E06F5F7F4F02C060E070E038
:10499000260F371F612F70E0261737071CF4121BF4
:1049A000212F01C020E03E2D387159F4D601322F5D
:1049B00060E2332319F06D933150FBCFC20ED11C4E
:1049C00020E0FF2331F0D6019C93B6016F5F7F4F4B
:1049D0006B01E1110BC0F601922F30E3992319F01E
:1049E00031939150FBCFC20ED11C20E09F2D940F2C
:1049F0003A81782F7071A72E84FF03C0313309F4F8
:104A00009150191624F4993018F098E001C091E003
:104A1000E42F852F57FF02C0E0E080E06E2F782F53
:104A2000E0E0F0E0AEE29A2E3A01691A71082A013C
:104A3000461A570A0B2D10E01195019511096F3F89
:104A40008FEF780729F4D6019C92C60101966C017C
:104A50004617570784F0661677066CF47F01E40C5E
:104A6000F51CA1E0B0E0AC0FBD1FEA0EFB1ED701A4
:104A70001196BC9002C090E3B92E61507109319635
:104A8000C60101967C016017710724F0D601BC9223
:104A90006C01D5CF6417750741F4363320F43533F4
:104AA00021F4A11002C081E3B82EF601B082F70113
:104AB000822F90E2882319F091938150FBCFF70168
:104AC000E20FF11D108280E090E029960FB6F89475
:104AD000DEBF0FBECDBFDF91CF911F910F91FF9031
:104AE000EF90DF90CF90BF90AF909F907F906F90AE
:104AF0005F904F900895283008F027E03327DA01BF
:104B0000990F311D87FD916000966105710539F49B
:104B100032602E5F3D9330E32A95E1F708959F3F81
:104B200030F080387105610509F03C5F3C5F3D93D2
:104B3000913008F08068911DDF93CF931F930F93FE
:104B4000FF92EF92192F987F9695E92F969596955B
:104B5000E90FFF27EE52FF4F99273327EE24FF245A
:104B6000A701E70105900894079428F4360FE71E83
:104B7000F81E491F511D660F771F881F991F069445
:104B8000A1F70590079428F4E70EF81E491F561F59
:104B9000C11D770F881F991F661F0694A1F7059006
:104BA000079428F4F80E491F561FC71FD11D880F00
:104BB000991F661F771F0694A1F70590079420F4AC
:104BC000490F561FC71FD81F990F661F771F881FD1
:104BD0000694A9F784911095177041F0D695C79562
:104BE00057954795F794E7941A95C1F7E8E7F0E0F1
:104BF00068941590159135916591959105907FE296
:104C00007395E118F10A430B560BC90BD009C0F795
:104C1000E10CF11E431F561FC91FD01D7EF47033D7
:104C200011F48A95E6CFE894015030F0080F0AF4A9
:104C30000027021708F4202F2395022F7A3328F03B
:104C400079E37D932A95E9F710C07D932A9589F63B
:104C5000069497956795379517951794E118F10A7B
:104C6000430B560BC90BD00998F023957E91739591
:104C70007A3308F070E37C932013B8F77E9170616B
:104C80007D9330F0839571E37D9370E32A95E1F78E
:104C90001124EF90FF900F911F91CF91DF919927F1
:104CA00087FD9095089591110C942F27803219F06B
:104CB00089508550C8F708950E949E2608F481E027
:104CC0000895E89409C097FB3EF4909580957095FF
:104CD00061957F4F8F4F9F4F9923A9F0F92F96E948
:104CE000BB279395F695879577956795B795F111BD
:104CF000F8CFFAF4BB0F11F460FF1BC06F5F7F4F5A
:104D00008F4F9F4F16C0882311F096E911C077236B
:104D100021F09EE8872F762F05C0662371F096E874
:104D2000862F70E060E02AF09A95660F771F881F43
:104D3000DAF7880F9695879597F90895990F0008E7
:104D4000550FAA0BE0E8FEEF16161706E807F9075D
:104D5000C0F012161306E407F50798F0621B730BF8
:104D6000840B950B39F40A2661F0232B242B252B79
:104D700021F408950A2609F4A140A6958FEF811D1C
:104D8000811D08950E94D5260C9449270E943B2737
:104D900038F00E94422720F0952311F00C9432271E
:104DA0000C94382711240C947D270E945A2770F305
:104DB000959FC1F3950F50E0551F629FF001729FC0
:104DC000BB27F00DB11D639FAA27F00DB11DAA1FCF
:104DD000649F6627B00DA11D661F829F2227B00D1C
:104DE000A11D621F739FB00DA11D621F839FA00DA7
:104DF000611D221F749F3327A00D611D231F849FF7
:104E0000600D211D822F762F6A2F11249F5750404D
:104E10009AF0F1F088234AF0EE0FFF1FBB1F661FC8
:104E2000771F881F91505040A9F79E3F510580F091
:104E30000C9432270C947D275F3FE4F3983ED4F323
:104E4000869577956795B795F795E7959F5FC1F735
:104E5000FE2B880F911D9695879597F908959927B0
:104E60008827089597F99F6780E870E060E00895CB
:104E70009FEF80EC089500240A9416161706180672
:104E80000906089500240A9412161306140605064E
:104E90000895092E0394000C11F4882352F0BB0FDF
:104EA00040F4BF2B11F460FF04C06F5F7F4F8F4F42
:104EB0009F4F089557FD9058440F551F59F05F3F7D
:104EC00071F04795880F97FB991F61F09F3F79F02C
:104ED00087950895121613061406551FF2CF4695AE
:104EE000F1DF08C0161617061806991FF1CF869530
:104EF0007105610508940895E894BB276627772714
:104F0000CB0197F90895F999FECF92BD81BDF89A2A
:104F1000992780B50895262FF999FECF1FBA92BD23
:104F200081BD20BD0FB6F894FA9AF99A0FBE01968A
:104F300008950E94DB27A59F900DB49F900DA49F1C
:104F4000800D911D112408952F923F924F925F92F0
:104F50006F927F928F929F92AF92BF92CF92DF9289
:104F6000EF92FF920F931F93CF93DF93CDB7DEB7EE
:104F7000CA1BDB0B0FB6F894DEBF0FBECDBF099482
:104F80002A88398848885F846E847D848C849B84D9
:104F9000AA84B984C884DF80EE80FD800C811B81E7
:104FA000AA81B981CE0FD11D0FB6F894DEBF0FBE16
:104FB000CDBFED010895A29FB001B39FC001A39F93
:104FC000700D811D1124911DB29F700D811D112442
:104FD000911D08955058BB27AA270E9402280C94BF
:104FE00049270E943B2738F00E94422720F039F4DD
:104FF0009F3F19F426F40C9438270EF4E095E7FB54
:105000000C943227E92F0E945A2758F3BA176207E7
:1050100073078407950720F079F4A6F50C947C2794
:105020000EF4E0950B2EBA2FA02D0B01B9019001C3
:105030000C01CA01A0011124FF27591B99F0593F07
:1050400050F4503E68F11A16F040A22F232F342F4F
:105050004427585FF3CF469537952795A795F0409D
:105060005395C9F77EF41F16BA0B620B730B840BB2
:10507000BAF09150A1F0FF0FBB1F661F771F881F6A
:10508000C2F70EC0BA0F621F731F841F48F48795C2
:1050900077956795B795F7959E3F08F0B0CF9395B4
:1050A000880F08F09927EE0F9795879508950E942D
:1050B0006B280C9449270E94422758F00E943B27F6
:1050C00040F029F45F3F29F00C94322751110C94E1
:1050D0007D270C9438270E945A2768F39923B1F34F
:1050E000552391F3951B550BBB27AA27621773070E
:1050F000840738F09F5F5F4F220F331F441FAA1FA2
:10510000A9F335D00E2E3AF0E0E832D0915050405D
:10511000E695001CCAF72BD0FE2F29D0660F771F0B
:10512000881FBB1F261737074807AB07B0E809F0F1
:10513000BB0B802DBF01FF2793585F4F3AF09E3F76
:10514000510578F00C9432270C947D275F3FE4F3EF
:10515000983ED4F3869577956795B795F7959F5FB9
:10516000C9F7880F911D9695879597F90895E1E005
:10517000660F771F881FBB1F621773078407BA0764
:1051800020F0621B730B840BBA0BEE1F88F7E095BF
:1051900008950E94622788F09F5798F0B92F9927A9
:1051A000B751B0F0E1F0660F771F881F991F1AF012
:1051B000BA95C9F714C0B13091F00E947C27B1E0D4
:1051C00008950C947C27672F782F8827B85F39F0D3
:1051D000B93FCCF3869577956795B395D9F73EF4AB
:1051E00090958095709561957F4F8F4F9F4F089553
:1051F0000E949E2608F48FEF08950E949E26880B39
:10520000990B089597FB072E16F4009407D077FDAD
:1052100009D00E943E2907FC05D03EF49095819567
:105220009F4F0895709561957F4F0895A1E21A2EC2
:10523000AA1BBB1BFD010DC0AA1FBB1FEE1FFF1F3A
:10524000A217B307E407F50720F0A21BB30BE40B8A
:10525000F50B661F771F881F991F1A9469F76095D1
:105260007095809590959B01AC01BD01CF0108958B
:10527000EE0FFF1F0590F491E02D0994AA1BBB1BB4
:1052800051E107C0AA1FBB1FA617B70710F0A61B46
:10529000B70B881F991F5A95A9F780959095BC0167
:1052A000CD010895CF93DF938230910510F482E011
:1052B00090E0E0910705F091080520E030E0C0E0C3
:1052C000D0E0309711F14081518148175907C0F063
:1052D0004817590761F482819381209719F09B83C5
:1052E0008A832BC0909308058093070526C021155B
:1052F000310519F04217530718F49A01BE01DF0176
:10530000EF010280F381E02DDCCF2115310509F199
:10531000281B390B2430310590F412968D919C9105
:1053200013976115710521F0FB019383828304C0FB
:105330009093080580930705FD01329644C0FD0156
:10534000E20FF31F81939193225031092D933C93E7
:105350003AC02091050530910605232B41F4209198
:105360000201309103013093060520930505209139
:105370000001309101012115310541F42DB73EB7EF
:105380004091040150910501241B350BE091050566
:10539000F0910605E217F307A0F42E1B3F0B281728
:1053A000390778F0AC014E5F5F4F2417350748F09E
:1053B0004E0F5F1F5093060540930505819391930F
:1053C00002C0E0E0F0E0CF01DF91CF9108950F93AC
:1053D0001F93CF93DF93009709F48CC0FC013297A1
:1053E000138212820091070510910805011511051D
:1053F00081F420813181820F931F20910505309126
:1054000006052817390779F5F0930605E093050599
:1054100071C0D80140E050E0AE17BF0750F41296BB
:105420002D913C911397AD012115310509F1D90159
:10543000F3CF9D01DA013383228360817181860F6E
:10544000971F8217930769F4EC0128813981260F91
:10545000371F2E5F3F4F318320838A819B81938347
:105460008283452B29F4F0930805E093070542C099
:105470001396FC93EE931297ED01499159919E0179
:10548000240F351FE217F30771F480819181840F97
:10549000951F029611969C938E9382819381139609
:1054A0009C938E931297E0E0F0E0D80112968D91D4
:1054B0009C911397009719F0F8018C01F6CF8D910C
:1054C0009C9198012E5F3F4F820F931F20910505FD
:1054D000309106052817390769F4309729F410929E
:1054E00008051092070502C0138212821093060568
:1054F00000930505DF91CF911F910F910895A0E0D2
:10550000B0E0E5E8FAE20C94A827EC01009721F45A
:10551000CB010E945229B8C0FC01E60FF71F9C0185
:1055200022503109E217F30708F4ACC0D9010D91FC
:105530001C91119706171707B0F00530110508F4F4
:105540009FC0C80104978617970708F499C00250B6
:105550001109061B170B019311936D937C93CF01D7
:105560000E94E7298DC05B01A01AB10A4C01800E90
:10557000911EA0910705B091080540E050E0E12C94
:10558000F12C109709F44AC0A815B905D1F56D9012
:105590007C901197630182E0C80ED11CCA14DB0411
:1055A00080F1A3014A195B096A0182E0C80ED11C8F
:1055B0001296BC9012971396AC91B5E0CB16D1041D
:1055C00040F0B282A38351834083D9016D937C93D1
:1055D0000AC00E5F1F4FC301800F911FF901918315
:1055E0008083EB2DFA2FE114F10431F0D7011396EB
:1055F000FC93EE93129744C0F0930805E0930705DF
:105600003FC08D919C9111974817590708F4AC0140
:105610007D0112960D90BC91A02DB3CF8091050510
:105620009091060588159905E1F446175707C8F4C7
:105630008091000190910101009741F48DB79EB7D0
:105640004091040150910501841B950BE817F9075F
:10565000C8F4F0930605E0930505F90171836083B2
:105660000FC0CB010E9452297C01009759F0A8017C
:10567000BE010E946B2BCE010E94E729C70104C026
:10568000CE0102C080E090E0CDB7DEB7EEE00C9432
:10569000C42781E090E0F8940C94AC2B91110C9409
:1056A0002F2780538A5018F0865C0C945B2B08954A
:1056B00085FD0C942F27806291110C942F27815621
:1056C0008A51D8F708959111089581548A5108F4A8
:1056D000805E855A0895FB01DC0102C001900D92A5
:1056E00041505040D8F70895FB01DC018D910190A5
:1056F00080190110D9F3990B0895FB01DC01019089
:105700000D920020E1F70895FB01DC01415050406B
:1057100030F08D910190801919F40020B9F7881BA1
:10572000990B0895FB0151915523A9F0BF01DC01AC
:105730004D9145174111E1F759F4CD010190002039
:1057400049F04D9140154111C9F3FB014111EFCFD3
:1057500081E090E00197089511E0CEE8D1E004C027
:10576000FE010E9438292196CF38D107C9F7F89455
:02577000FFCF69
:1057720000000905800000000000B90100000000DF
:10578200D71117196F111E12A0117E11921100006C
:105792000000B11217193F13B01205131D1398120E
:1057A2000000803FCDCCCC3D6F12833A95BFD633FB
:1057B2007D1D9026B3CE010CCDCCCC3D0AD7233C27
:1057C20017B7D13877CC2B329595E6241FB14F0A03
:1057D200000020410000C84200401C4620BCBE4CD4
:1057E200CA1B0E5AAEC59D746E756C6C002B383494
:1057F20000436F6E66696773000D0A74303D000DD9
:105802000A74313D000D0A68303D000D0A68313DD1
:105812000022225C5C6208660C6E0A720D7409003A
:105822000D0A2D2D0D0A66622E636F6D2F74616352
:105832006B656C75610050686F6E65733A0D0A0096
:105842003B0D0A002F696E666F000D0A0D0A007D7E
:10585200004A736F6E2053796E7461782057726FAD
:105862006E6700636D640073657470686F6E6500C7
:10587200636F6E66696700743000743100683000CF
:1058820068310056657273696F6E3A20302E3200AD
:105892004F4B0043616E682062616F206E686965DC
:1058A2007420646F2071756120746861703A200001
:1058B20043616E682062616F206E6869657420645E
:1058C2006F207175612063616F3A200043616E68D9
:1058D2002062616F20646F20616D20717561207498
:1058E2006861703A200043616E682062616F2064D3
:1058F2006F20616D207175612063616F3A200043F2
:10590200616E682062616F206D7563206E756F63D2
:105912002071756120746861702E0043616E682089
:1059220062616F206D7563206E756F6320717561A2
:105932002063616F2E004552000D00434D47523ADD
:1059420000222B002200220D0A006E616E00696E99
:1059520066006F766600747275650066616C7365C9
:10596200004E614E00652D00496E66696E6974795C
:02597200000033
:00000001FF
